{
  "transactions": [
    {
      "hash": "0x430a5dea2640ffa49c2ae32cadcabb75ddcc986b184d11923272b6917b7d992e",
      "transactionType": "CALL",
      "contractName": null,
      "contractAddress": "0x46da9f76c20a752132ddaefd2b14870e0a152d71",
      "function": "setOperator(address,bool)",
      "arguments": [
        "0x46dA9F76c20a752132dDaefD2B14870e0A152D71",
        "true"
      ],
      "transaction": {
        "from": "0x0ece75f3c36f7df2136dac7633165dbff53de3cd",
        "to": "0x46da9f76c20a752132ddaefd2b14870e0a152d71",
        "gas": "0x10d0a44d",
        "value": "0x0",
        "input": "0x558a729700000000000000000000000046da9f76c20a752132ddaefd2b14870e0a152d710000000000000000000000000000000000000000000000000000000000000001",
        "nonce": "0x43",
        "chainId": "0x138b"
      },
      "additionalContracts": [],
      "isFixedGasLimit": false
    },
    {
      "hash": "0xa7d49f7cecdf1c3cdb15070b81de0659bd80a78616e3843db07b53a6c9d3ea9d",
      "transactionType": "CALL",
      "contractName": null,
      "contractAddress": "0x46da9f76c20a752132ddaefd2b14870e0a152d71",
      "function": "setTokenDataStream(address)",
      "arguments": [
        "0x10FD0d8280E94D0DbC3013b778Ef26d47105Ea7b"
      ],
      "transaction": {
        "from": "0x0ece75f3c36f7df2136dac7633165dbff53de3cd",
        "to": "0x46da9f76c20a752132ddaefd2b14870e0a152d71",
        "gas": "0x10845b9a",
        "value": "0x0",
        "input": "0x9cc8b2d100000000000000000000000010fd0d8280e94d0dbc3013b778ef26d47105ea7b",
        "nonce": "0x44",
        "chainId": "0x138b"
      },
      "additionalContracts": [],
      "isFixedGasLimit": false
    },
    {
      "hash": "0xbb947c78632a3dd3d5c8bbd1e7e120d6b3338f34fd18e80f51acb8244015c897",
      "transactionType": "CALL",
      "contractName": null,
      "contractAddress": "0x46da9f76c20a752132ddaefd2b14870e0a152d71",
      "function": "setWrappedNative(address)",
      "arguments": [
        "0x15858A57854BBf0DF60A737811d50e1Ee785f9bc"
      ],
      "transaction": {
        "from": "0x0ece75f3c36f7df2136dac7633165dbff53de3cd",
        "to": "0x46da9f76c20a752132ddaefd2b14870e0a152d71",
        "gas": "0x1086143f",
        "value": "0x0",
        "input": "0x52cb60ca00000000000000000000000015858a57854bbf0df60a737811d50e1ee785f9bc",
        "nonce": "0x45",
        "chainId": "0x138b"
      },
      "additionalContracts": [],
      "isFixedGasLimit": false
    },
    {
      "hash": "0xdd1062c29b8af7f9da593ff08fd8cd45ef4cb0af9b8c644d7e0048d128d1a6de",
      "transactionType": "CALL",
      "contractName": null,
      "contractAddress": "0x46da9f76c20a752132ddaefd2b14870e0a152d71",
      "function": "setInterestRateModel(address)",
      "arguments": [
        "0xBdC661EECb0dcFB940A34008e0190c9103013C41"
      ],
      "transaction": {
        "from": "0x0ece75f3c36f7df2136dac7633165dbff53de3cd",
        "to": "0x46da9f76c20a752132ddaefd2b14870e0a152d71",
        "gas": "0x10897183",
        "value": "0x0",
        "input": "0x8bcd4016000000000000000000000000bdc661eecb0dcfb940a34008e0190c9103013c41",
        "nonce": "0x46",
        "chainId": "0x138b"
      },
      "additionalContracts": [],
      "isFixedGasLimit": false
    }
  ],
  "receipts": [
    {
      "status": "0x1",
      "cumulativeGasUsed": "0xab1148c",
      "logs": [
        {
          "address": "0x46da9f76c20a752132ddaefd2b14870e0a152d71",
          "topics": [
            "0x1a594081ae893ab78e67d9b9e843547318164322d32c65369d78a96172d9dc8f",
            "0x00000000000000000000000046da9f76c20a752132ddaefd2b14870e0a152d71"
          ],
          "data": "0x0000000000000000000000000000000000000000000000000000000000000001",
          "blockHash": "0xd8c0705acc541ac893a680eb65ac522c63af3d3ea3ffebf355d558f4fa5166fb",
          "blockNumber": "0x1fcd59b",
          "blockTimestamp": "0x69652e17",
          "transactionHash": "0x430a5dea2640ffa49c2ae32cadcabb75ddcc986b184d11923272b6917b7d992e",
          "transactionIndex": "0x1",
          "logIndex": "0x0",
          "removed": false
        }
      ],
      "logsBloom": "0x00000000000000000000000000000000000000000000000000000000000000000000000000000000000000000000000000000000000000000000000000000000000000000000000010000000000000000000000000000000000000000000000000000000000000000000000000000008000800000000000000000000000000000000000000000000000000000000000000000000000000000000000000000000000000000000000000008000000000000000000000000000000000000004008000040000000000000000000000000000000000000000000000000000000000000000000000800000000000000000000000000000000000000010000000000000",
      "type": "0x2",
      "transactionHash": "0x430a5dea2640ffa49c2ae32cadcabb75ddcc986b184d11923272b6917b7d992e",
      "transactionIndex": "0x1",
      "blockHash": "0xd8c0705acc541ac893a680eb65ac522c63af3d3ea3ffebf355d558f4fa5166fb",
      "blockNumber": "0x1fcd59b",
      "gasUsed": "0xab05d6f",
      "effectiveGasPrice": "0x132b3a0",
      "from": "0x0ece75f3c36f7df2136dac7633165dbff53de3cd",
      "to": "0x46da9f76c20a752132ddaefd2b14870e0a152d71",
      "contractAddress": null,
      "l1Fee": "0x4f91a16015b0",
      "l1FeeScalar": "0.01",
      "l1GasPrice": "0x3e450ff7",
      "l1GasUsed": "0xa08",
      "tokenRatio": "0xcbd"
    },
    {
      "status": "0x1",
      "cumulativeGasUsed": "0xa7c8def",
      "logs": [
        {
          "address": "0x46da9f76c20a752132ddaefd2b14870e0a152d71",
          "topics": [
            "0x0a79aff962cc9e0a3ce8d1f62271362cbf066d9d0ffc588f0f90940b1fe41955",
            "0x00000000000000000000000010fd0d8280e94d0dbc3013b778ef26d47105ea7b"
          ],
          "data": "0x",
          "blockHash": "0x34f5654465487ff70480c1dfd0845a6c8c6ca237b7b7bec72e49053ccbb22a84",
          "blockNumber": "0x1fcd5a3",
          "blockTimestamp": "0x69652e27",
          "transactionHash": "0xa7d49f7cecdf1c3cdb15070b81de0659bd80a78616e3843db07b53a6c9d3ea9d",
          "transactionIndex": "0x1",
          "logIndex": "0x0",
          "removed": false
        }
      ],
      "logsBloom": "0x00000000000000000000000000000000000000000000000000000000000000000000000000000001000000000000000000000000400000000000000000000000000000000000000000000000000000000000000000000000000000000000000000000000020000000000000000000000000800000000000000000000000000000000000000000000000000000000000000000000000000000000000000000000000020000000000000000000000000000000000000000000000000020000000000040000000000000000008000000000000000000000000000000000000000000000000000800000000000000000000000000000000000000000000000000000",
      "type": "0x2",
      "transactionHash": "0xa7d49f7cecdf1c3cdb15070b81de0659bd80a78616e3843db07b53a6c9d3ea9d",
      "transactionIndex": "0x1",
      "blockHash": "0x34f5654465487ff70480c1dfd0845a6c8c6ca237b7b7bec72e49053ccbb22a84",
      "blockNumber": "0x1fcd5a3",
      "gasUsed": "0xa7bd6d2",
      "effectiveGasPrice": "0x132b3a0",
      "from": "0x0ece75f3c36f7df2136dac7633165dbff53de3cd",
      "to": "0x46da9f76c20a752132ddaefd2b14870e0a152d71",
      "contractAddress": null,
      "l1Fee": "0x45ba38944073",
      "l1FeeScalar": "0.01",
      "l1GasPrice": "0x3a18e45e",
      "l1GasUsed": "0x96c",
      "tokenRatio": "0xcbd"
    },
    {
      "status": "0x1",
      "cumulativeGasUsed": "0xa849afe",
      "logs": [
        {
          "address": "0x46da9f76c20a752132ddaefd2b14870e0a152d71",
          "topics": [
            "0x141c8827a0e1bf1f8e0a0f1d0b4fce811fd3b387abb10419267afc2b74583776",
            "0x00000000000000000000000015858a57854bbf0df60a737811d50e1ee785f9bc"
          ],
          "data": "0x",
          "blockHash": "0x7749537bd181ecbb9a1aee22af15a3461ad79a255239b1b2fb0bfba87ff1cdc7",
          "blockNumber": "0x1fcd5a9",
          "blockTimestamp": "0x69652e33",
          "transactionHash": "0xbb947c78632a3dd3d5c8bbd1e7e120d6b3338f34fd18e80f51acb8244015c897",
          "transactionIndex": "0x1",
          "logIndex": "0x0",
          "removed": false
        }
      ],
      "logsBloom": "0x00000000000800000000000000000000000000000000000000000000000000000000000000000000000000000000000000000000000000000000000000000000000000000000000000000000000000000000000000000000000000000000000000000000000000000000000000000000000800000000000000000000000000000000000000000000000000000000008000000000000000000000000000000000000000000000000000000000000008000000000000000000000000000000000000040000000000000000000000000000000000000000000000100000000000000000000000800000000000000000020000000000000100000000000000000000",
      "type": "0x2",
      "transactionHash": "0xbb947c78632a3dd3d5c8bbd1e7e120d6b3338f34fd18e80f51acb8244015c897",
      "transactionIndex": "0x1",
      "blockHash": "0x7749537bd181ecbb9a1aee22af15a3461ad79a255239b1b2fb0bfba87ff1cdc7",
      "blockNumber": "0x1fcd5a9",
      "gasUsed": "0xa83e3e1",
      "effectiveGasPrice": "0x132b3a0",
      "from": "0x0ece75f3c36f7df2136dac7633165dbff53de3cd",
      "to": "0x46da9f76c20a752132ddaefd2b14870e0a152d71",
      "contractAddress": null,
      "l1Fee": "0x4e0d090b63d8",
      "l1FeeScalar": "0.01",
      "l1GasPrice": "0x415b89dd",
      "l1GasUsed": "0x960",
      "tokenRatio": "0xcbd"
    },
    {
      "status": "0x1",
      "cumulativeGasUsed": "0xa850d13",
      "logs": [
        {
          "address": "0x46da9f76c20a752132ddaefd2b14870e0a152d71",
          "topics": [
            "0x7902cd1307c545e3f5782172612372bf997a93698917ced12b2f83d86e347d0c",
            "0x000000000000000000000000bdc661eecb0dcfb940a34008e0190c9103013c41"
          ],
          "data": "0x",
          "blockHash": "0x8c77bb0485b627f074b807968cd76b622a0e08fe587ff18c04299d4b3cca13e7",
          "blockNumber": "0x1fcd5b3",
          "blockTimestamp": "0x69652e47",
          "transactionHash": "0xdd1062c29b8af7f9da593ff08fd8cd45ef4cb0af9b8c644d7e0048d128d1a6de",
          "transactionIndex": "0x1",
          "logIndex": "0x0",
          "removed": false
        }
      ],
      "logsBloom": "0x00000000000000000000000000000000000000000000000002000000000000000000000000000000000000000000000000000000000000000000000000000000000000000000000000000000000000000000000000000000000000000000000000080000000000000000000400000000000800000000020000000000000000000000000000000000000000000000000000000000000000000000000000000000000000000000000000000000000000000000000000000000000000000000000000040000000000000000000000000000000000000000000000000000000000000000000000800000000000000000008000000000000000000000000200000000",
      "type": "0x2",
      "transactionHash": "0xdd1062c29b8af7f9da593ff08fd8cd45ef4cb0af9b8c644d7e0048d128d1a6de",
      "transactionIndex": "0x1",
      "blockHash": "0x8c77bb0485b627f074b807968cd76b622a0e08fe587ff18c04299d4b3cca13e7",
      "blockNumber": "0x1fcd5b3",
      "gasUsed": "0xa8455f6",
      "effectiveGasPrice": "0x132b3a0",
      "from": "0x0ece75f3c36f7df2136dac7633165dbff53de3cd",
      "to": "0x46da9f76c20a752132ddaefd2b14870e0a152d71",
      "contractAddress": null,
      "l1Fee": "0x4bfde21924de",
      "l1FeeScalar": "0.01",
      "l1GasPrice": "0x3f511240",
      "l1GasUsed": "0x96c",
      "tokenRatio": "0xcbd"
    }
  ],
  "libraries": [],
  "pending": [],
  "returns": {},
  "timestamp": 1768238670274,
  "chain": 5003,
  "commit": "584f810"
}