{
  "transactions": [
    {
      "hash": "0xe60a313b4e5000e43a7740603cbba5136bfb21b87471a14f15f75d6ba3e065f4",
      "transactionType": "CALL",
      "contractName": null,
      "contractAddress": "0xcda0bebc32bec4813e6307a3d7774702fdf6392f",
      "function": "setFactory(address)",
      "arguments": [
        "0x46dA9F76c20a752132dDaefD2B14870e0A152D71"
      ],
      "transaction": {
        "from": "0x0ece75f3c36f7df2136dac7633165dbff53de3cd",
        "to": "0xcda0bebc32bec4813e6307a3d7774702fdf6392f",
        "gas": "0xf07e752",
        "value": "0x0",
        "input": "0x5bb4780800000000000000000000000046da9f76c20a752132ddaefd2b14870e0a152d71",
        "nonce": "0xb7",
        "chainId": "0x138b"
      },
      "additionalContracts": [],
      "isFixedGasLimit": false
    }
  ],
  "receipts": [
    {
      "status": "0x1",
      "cumulativeGasUsed": "0x97da413",
      "logs": [],
      "logsBloom": "0x00000000000000000000000000000000000000000000000000000000000000000000000000000000000000000000000000000000000000000000000000000000000000000000000000000000000000000000000000000000000000000000000000000000000000000000000000000000000000000000000000000000000000000000000000000000000000000000000000000000000000000000000000000000000000000000000000000000000000000000000000000000000000000000000000000000000000000000000000000000000000000000000000000000000000000000000000000000000000000000000000000000000000000000000000000000",
      "type": "0x2",
      "transactionHash": "0xe60a313b4e5000e43a7740603cbba5136bfb21b87471a14f15f75d6ba3e065f4",
      "transactionIndex": "0x1",
      "blockHash": "0x67f0504181c1d454d4cf5e2f830792370ee4ce197d972600ff093672efdae638",
      "blockNumber": "0x1fe3449",
      "gasUsed": "0x97cecf6",
      "effectiveGasPrice": "0x216d210",
      "from": "0x0ece75f3c36f7df2136dac7633165dbff53de3cd",
      "to": "0xcda0bebc32bec4813e6307a3d7774702fdf6392f",
      "contractAddress": null,
      "l1Fee": "0x4bfde5d13ea1",
      "l1FeeScalar": "0.01",
      "l1GasPrice": "0x3c7cf5c0",
      "l1GasUsed": "0x97c",
      "tokenRatio": "0xd3f"
    }
  ],
  "libraries": [],
  "pending": [],
  "returns": {},
  "timestamp": 1768418166829,
  "chain": 5003,
  "commit": "8452902"
}