{
  "transactions": [
    {
      "hash": "0xd194a680902200509ca3e6dc521a0f3646f3cc33d9cee995054b4e92b6f83821",
      "transactionType": "CALL",
      "contractName": null,
      "contractAddress": "0x46638ad472507482b7d5ba45124e93d16bc97ece",
      "function": "grantRole(bytes32,address)",
      "arguments": [
        "0x0000000000000000000000000000000000000000000000000000000000000000",
        "0x46dA9F76c20a752132dDaefD2B14870e0A152D71"
      ],
      "transaction": {
        "from": "0x0ece75f3c36f7df2136dac7633165dbff53de3cd",
        "to": "0x46638ad472507482b7d5ba45124e93d16bc97ece",
        "gas": "0x11c2f372",
        "value": "0x0",
        "input": "0x2f2ff15d000000000000000000000000000000000000000000000000000000000000000000000000000000000000000046da9f76c20a752132ddaefd2b14870e0a152d71",
        "nonce": "0x40",
        "chainId": "0x138b"
      },
      "additionalContracts": [],
      "isFixedGasLimit": false
    },
    {
      "hash": "0xdb5ca99f6129c8ea771da873a5c2f7b166a3d913d1e4dcc999775b2efd7020a4",
      "transactionType": "CALL",
      "contractName": null,
      "contractAddress": "0x46638ad472507482b7d5ba45124e93d16bc97ece",
      "function": "grantRole(bytes32,address)",
      "arguments": [
        "0xa49807205ce4d355092ef5a8a18f56e8913cf4a201fbe287825b095693c21775",
        "0x46dA9F76c20a752132dDaefD2B14870e0A152D71"
      ],
      "transaction": {
        "from": "0x0ece75f3c36f7df2136dac7633165dbff53de3cd",
        "to": "0x46638ad472507482b7d5ba45124e93d16bc97ece",
        "gas": "0x11f02c75",
        "value": "0x0",
        "input": "0x2f2ff15da49807205ce4d355092ef5a8a18f56e8913cf4a201fbe287825b095693c2177500000000000000000000000046da9f76c20a752132ddaefd2b14870e0a152d71",
        "nonce": "0x41",
        "chainId": "0x138b"
      },
      "additionalContracts": [],
      "isFixedGasLimit": false
    }
  ],
  "receipts": [
    {
      "status": "0x1",
      "cumulativeGasUsed": "0xb4e576e",
      "logs": [
        {
          "address": "0x46638ad472507482b7d5ba45124e93d16bc97ece",
          "topics": [
            "0x2f8788117e7eff1d82e926ec794901d17c78024a50270940304540a733656f0d",
            "0x0000000000000000000000000000000000000000000000000000000000000000",
            "0x00000000000000000000000046da9f76c20a752132ddaefd2b14870e0a152d71",
            "0x0000000000000000000000000ece75f3c36f7df2136dac7633165dbff53de3cd"
          ],
          "data": "0x",
          "blockHash": "0x998ad262d72ca838f4e03dba0f1d3a39808a3ebc756d9e7fa9c302478800a431",
          "blockNumber": "0x1fcd567",
          "blockTimestamp": "0x69652daf",
          "transactionHash": "0xd194a680902200509ca3e6dc521a0f3646f3cc33d9cee995054b4e92b6f83821",
          "transactionIndex": "0x1",
          "logIndex": "0x0",
          "removed": false
        }
      ],
      "logsBloom": "0x00000004000000000000000000000000000000000000000000000000000000000000000000000000020000000000000000000000000000000000000000000000000000000000000010000000000000000000000000000000000000000000000000000000020000000000000000000800000000000000200000000000000000000000000000000000000000000000000000000000000800000000000000000000000000000000000000008800000000000000000000000000001000000004000000000000000000000000000000000000000000000000000100000000000020000020000000200000000000000000000000000000000000000000000000000000",
      "type": "0x2",
      "transactionHash": "0xd194a680902200509ca3e6dc521a0f3646f3cc33d9cee995054b4e92b6f83821",
      "transactionIndex": "0x1",
      "blockHash": "0x998ad262d72ca838f4e03dba0f1d3a39808a3ebc756d9e7fa9c302478800a431",
      "blockNumber": "0x1fcd567",
      "gasUsed": "0xb4da051",
      "effectiveGasPrice": "0x132b3a0",
      "from": "0x0ece75f3c36f7df2136dac7633165dbff53de3cd",
      "to": "0x46638ad472507482b7d5ba45124e93d16bc97ece",
      "contractAddress": null,
      "l1Fee": "0x4cf2da0d7572",
      "l1FeeScalar": "0.01",
      "l1GasPrice": "0x3c807e7d",
      "l1GasUsed": "0x9fc",
      "tokenRatio": "0xcbd"
    },
    {
      "status": "0x1",
      "cumulativeGasUsed": "0xb66f759",
      "logs": [
        {
          "address": "0x46638ad472507482b7d5ba45124e93d16bc97ece",
          "topics": [
            "0x2f8788117e7eff1d82e926ec794901d17c78024a50270940304540a733656f0d",
            "0xa49807205ce4d355092ef5a8a18f56e8913cf4a201fbe287825b095693c21775",
            "0x00000000000000000000000046da9f76c20a752132ddaefd2b14870e0a152d71",
            "0x0000000000000000000000000ece75f3c36f7df2136dac7633165dbff53de3cd"
          ],
          "data": "0x",
          "blockHash": "0x079d07c6701cbfada193acaa6edcca8dbeacf397bf0cbbcf28975bd5f9b090b1",
          "blockNumber": "0x1fcd56b",
          "blockTimestamp": "0x69652db7",
          "transactionHash": "0xdb5ca99f6129c8ea771da873a5c2f7b166a3d913d1e4dcc999775b2efd7020a4",
          "transactionIndex": "0x1",
          "logIndex": "0x0",
          "removed": false
        }
      ],
      "logsBloom": "0x00000004000000000000000000000000000000000000000000000000000000000000000000000000020000000000000000000000000000000000000000000000000000000000000010000000000000000000000020000000000000000000000000000000000000000000000000000000000000000000200800000000000000000000000000000000000000000000004000000000000800000000000000000000000000000000000000008800000000000000000000000000001000000004000000000000000000000000000000000000000000000000000100000000000000000020000000200000000000000000000000000000000000000000000000000000",
      "type": "0x2",
      "transactionHash": "0xdb5ca99f6129c8ea771da873a5c2f7b166a3d913d1e4dcc999775b2efd7020a4",
      "transactionIndex": "0x1",
      "blockHash": "0x079d07c6701cbfada193acaa6edcca8dbeacf397bf0cbbcf28975bd5f9b090b1",
      "blockNumber": "0x1fcd56b",
      "gasUsed": "0xb66403c",
      "effectiveGasPrice": "0x132b3a0",
      "from": "0x0ece75f3c36f7df2136dac7633165dbff53de3cd",
      "to": "0x46638ad472507482b7d5ba45124e93d16bc97ece",
      "contractAddress": null,
      "l1Fee": "0x5390ec676359",
      "l1FeeScalar": "0.01",
      "l1GasPrice": "0x395b73f6",
      "l1GasUsed": "0xb70",
      "tokenRatio": "0xcbd"
    }
  ],
  "libraries": [],
  "pending": [],
  "returns": {},
  "timestamp": 1768238523333,
  "chain": 5003,
  "commit": "584f810"
}