{
  "transactions": [
    {
      "hash": "0x5c217e6f1a8bd4767827c406e0b27a3524b8b448be4163397ff4a9e6034dcef9",
      "transactionType": "CALL",
      "contractName": null,
      "contractAddress": "0x33faba0e0ce340afc4fb03038151ff7ee1d5f95b",
      "function": "setFactory(address)",
      "arguments": [
        "0x46dA9F76c20a752132dDaefD2B14870e0A152D71"
      ],
      "transaction": {
        "from": "0x0ece75f3c36f7df2136dac7633165dbff53de3cd",
        "to": "0x33faba0e0ce340afc4fb03038151ff7ee1d5f95b",
        "gas": "0xedc7426",
        "value": "0x0",
        "input": "0x5bb4780800000000000000000000000046da9f76c20a752132ddaefd2b14870e0a152d71",
        "nonce": "0x42",
        "chainId": "0x138b"
      },
      "additionalContracts": [],
      "isFixedGasLimit": false
    }
  ],
  "receipts": [
    {
      "status": "0x1",
      "cumulativeGasUsed": "0x97d9c4a",
      "logs": [
        {
          "address": "0x33faba0e0ce340afc4fb03038151ff7ee1d5f95b",
          "topics": [
            "0x1edf3afd4ac789736e00d216cd88be164ddcef26a6eedcc30cdb0cb62f3741b1",
            "0x00000000000000000000000046da9f76c20a752132ddaefd2b14870e0a152d71"
          ],
          "data": "0x",
          "blockHash": "0xc5ee0521ac8669fbf620f9999bb8db8d4cae5e4338c8f5f6ecdfb47792b4a9a3",
          "blockNumber": "0x1fcd587",
          "blockTimestamp": "0x69652def",
          "transactionHash": "0x5c217e6f1a8bd4767827c406e0b27a3524b8b448be4163397ff4a9e6034dcef9",
          "transactionIndex": "0x1",
          "logIndex": "0x0",
          "removed": false
        }
      ],
      "logsBloom": "0x00000000000000000000000000000000000000000000000000000000000000020000000000000000000000100000000000000000000000000000000000000000000002000000000010000000000000000000000000000000000000000000000040000000000000000000000000000000000000000000000000000000000000000000000040000000000000000000000000000000000000000000000000000000000000000000000000008000000000000200000000000000000000000004000000000000000000000000000000000000000000000000000000000000000000000000000000000000000000000000000000000000000000000000000000000000",
      "type": "0x2",
      "transactionHash": "0x5c217e6f1a8bd4767827c406e0b27a3524b8b448be4163397ff4a9e6034dcef9",
      "transactionIndex": "0x1",
      "blockHash": "0xc5ee0521ac8669fbf620f9999bb8db8d4cae5e4338c8f5f6ecdfb47792b4a9a3",
      "blockNumber": "0x1fcd587",
      "gasUsed": "0x97ca261",
      "effectiveGasPrice": "0x132b3a0",
      "from": "0x0ece75f3c36f7df2136dac7633165dbff53de3cd",
      "to": "0x33faba0e0ce340afc4fb03038151ff7ee1d5f95b",
      "contractAddress": null,
      "l1Fee": "0x4e7d3c0fff94",
      "l1FeeScalar": "0.01",
      "l1GasPrice": "0x4165c834",
      "l1GasUsed": "0x96c",
      "tokenRatio": "0xcbd"
    }
  ],
  "libraries": [],
  "pending": [],
  "returns": {},
  "timestamp": 1768238581743,
  "chain": 5003,
  "commit": "584f810"
}