{
  "transactions": [
    {
      "hash": "0x79705fd235a8979c9d30107a8b82c9d0bbe9bc03a121189234f5ba6da465ff68",
      "transactionType": "CALL",
      "contractName": null,
      "contractAddress": "0x04c37dc1b538e00b31e6bc883e16d97cd7937a10",
      "function": "mint(address,uint256)",
      "arguments": [
        "0x0EcE75f3C36f7Df2136Dac7633165DBff53dE3CD",
        "100000000000"
      ],
      "transaction": {
        "from": "0x0ece75f3c36f7df2136dac7633165dbff53de3cd",
        "to": "0x04c37dc1b538e00b31e6bc883e16d97cd7937a10",
        "gas": "0x156807d0",
        "value": "0x0",
        "input": "0x40c10f190000000000000000000000000ece75f3c36f7df2136dac7633165dbff53de3cd000000000000000000000000000000000000000000000000000000174876e800",
        "nonce": "0x71",
        "chainId": "0x138b"
      },
      "additionalContracts": [],
      "isFixedGasLimit": false
    }
  ],
  "receipts": [
    {
      "status": "0x1",
      "cumulativeGasUsed": "0xda7662d",
      "logs": [
        {
          "address": "0x04c37dc1b538e00b31e6bc883e16d97cd7937a10",
          "topics": [
            "0xddf252ad1be2c89b69c2b068fc378daa952ba7f163c4a11628f55a4df523b3ef",
            "0x0000000000000000000000000000000000000000000000000000000000000000",
            "0x0000000000000000000000000ece75f3c36f7df2136dac7633165dbff53de3cd"
          ],
          "data": "0x000000000000000000000000000000000000000000000000000000174876e800",
          "blockHash": "0x0c33b22c0d040e0e04d856e613249137d234d4fb7ef84fe0db135b67f30e15cc",
          "blockNumber": "0x1fd529c",
          "blockTimestamp": "0x69662819",
          "transactionHash": "0x79705fd235a8979c9d30107a8b82c9d0bbe9bc03a121189234f5ba6da465ff68",
          "transactionIndex": "0x1",
          "logIndex": "0x0",
          "removed": false
        }
      ],
      "logsBloom": "0x00000000000000000000000000000000000000000000000000000000000000000000000000000000000000000000000000000000000000200000000000000000200000000000000000000008000000000000000000000000000000000000000000000000020000000000000000000800000000000000200000000010000000000000000000000000000000000000000000000000000000000000000000000000000000000000000000000800010000000000000000000000000000000000000000000002000000000000000000000000000000000000000000000000000020000000000000200000000000000000000000000000000000000000000000000000",
      "type": "0x2",
      "transactionHash": "0x79705fd235a8979c9d30107a8b82c9d0bbe9bc03a121189234f5ba6da465ff68",
      "transactionIndex": "0x1",
      "blockHash": "0x0c33b22c0d040e0e04d856e613249137d234d4fb7ef84fe0db135b67f30e15cc",
      "blockNumber": "0x1fd529c",
      "gasUsed": "0xda68e4c",
      "effectiveGasPrice": "0x132b3a0",
      "from": "0x0ece75f3c36f7df2136dac7633165dbff53de3cd",
      "to": "0x04c37dc1b538e00b31e6bc883e16d97cd7937a10",
      "contractAddress": null,
      "l1Fee": "0x51cdc72391a4",
      "l1FeeScalar": "0.01",
      "l1GasPrice": "0x3f2c2a02",
      "l1GasUsed": "0xa2c",
      "tokenRatio": "0xcbb"
    }
  ],
  "libraries": [],
  "pending": [],
  "returns": {},
  "timestamp": 1768302619668,
  "chain": 5003,
  "commit": "c0cd3ab"
}