{
  "transactions": [
    {
      "hash": "0x3e7619475bb032e4f7466be96b97f110fb257d0d5e717d4e7befb725419cc96f",
      "transactionType": "CALL",
      "contractName": null,
      "contractAddress": "0x46da9f76c20a752132ddaefd2b14870e0a152d71",
      "function": "setMinAmountSupplyLiquidity(address,uint256)",
      "arguments": [
        "0x56f9Cbd1aeb705b440357097eE13eBe8AA755357",
        "100000000000000"
      ],
      "transaction": {
        "from": "0x0ece75f3c36f7df2136dac7633165dbff53de3cd",
        "to": "0x46da9f76c20a752132ddaefd2b14870e0a152d71",
        "gas": "0x1186baa6",
        "value": "0x0",
        "input": "0x39a2e63800000000000000000000000056f9cbd1aeb705b440357097ee13ebe8aa75535700000000000000000000000000000000000000000000000000005af3107a4000",
        "nonce": "0xc8",
        "chainId": "0x138b"
      },
      "additionalContracts": [],
      "isFixedGasLimit": false
    },
    {
      "hash": "0x715bdbb7e7fdef8fb507d8ea4a7eb1b69bd223a68b66d4562336da3fe3ff6109",
      "transactionType": "CALL",
      "contractName": null,
      "contractAddress": "0x46da9f76c20a752132ddaefd2b14870e0a152d71",
      "function": "setMinAmountSupplyLiquidity(address,uint256)",
      "arguments": [
        "0xAF0C7edB6D33e166719f4d528D33042768367E28",
        "100000000000000"
      ],
      "transaction": {
        "from": "0x0ece75f3c36f7df2136dac7633165dbff53de3cd",
        "to": "0x46da9f76c20a752132ddaefd2b14870e0a152d71",
        "gas": "0x1186baa6",
        "value": "0x0",
        "input": "0x39a2e638000000000000000000000000af0c7edb6d33e166719f4d528d33042768367e2800000000000000000000000000000000000000000000000000005af3107a4000",
        "nonce": "0xc9",
        "chainId": "0x138b"
      },
      "additionalContracts": [],
      "isFixedGasLimit": false
    },
    {
      "hash": "0x9a885abeccfca671ab288cbd91fe8a745576d44fa7ea0bff7689c1c0c2fbb9cb",
      "transactionType": "CALL",
      "contractName": null,
      "contractAddress": "0x46da9f76c20a752132ddaefd2b14870e0a152d71",
      "function": "setMinAmountSupplyLiquidity(address,uint256)",
      "arguments": [
        "0x7Cc335F6693077B391B767df16295DABd9288144",
        "100000000000000"
      ],
      "transaction": {
        "from": "0x0ece75f3c36f7df2136dac7633165dbff53de3cd",
        "to": "0x46da9f76c20a752132ddaefd2b14870e0a152d71",
        "gas": "0x117c6df3",
        "value": "0x0",
        "input": "0x39a2e6380000000000000000000000007cc335f6693077b391b767df16295dabd928814400000000000000000000000000000000000000000000000000005af3107a4000",
        "nonce": "0xca",
        "chainId": "0x138b"
      },
      "additionalContracts": [],
      "isFixedGasLimit": false
    }
  ],
  "receipts": [
    {
      "status": "0x1",
      "cumulativeGasUsed": "0xb217fb8",
      "logs": [
        {
          "address": "0x46da9f76c20a752132ddaefd2b14870e0a152d71",
          "topics": [
            "0x6af2b431e7174c6e6362e963c769958410cf9e0615cd5bcced6584656ec99e9f",
            "0x00000000000000000000000056f9cbd1aeb705b440357097ee13ebe8aa755357",
            "0x00000000000000000000000000000000000000000000000000005af3107a4000"
          ],
          "data": "0x",
          "blockHash": "0xaff6fcd4b26b41a2ec87e27823dc2558417f94ce1a3e902f67c0514538eeb7a8",
          "blockNumber": "0x1fe3b78",
          "blockTimestamp": "0x6967f9d1",
          "transactionHash": "0x3e7619475bb032e4f7466be96b97f110fb257d0d5e717d4e7befb725419cc96f",
          "transactionIndex": "0x1",
          "logIndex": "0x0",
          "removed": false
        }
      ],
      "logsBloom": "0x00000000000000000000000000000000000000800000000000000000000000000000000000000000000000000000000000000000000000000000800000000000000000000000000000000000000000000000000000000000000000000000000000000000004000000100000000000000000800000000000000000000000080000000000000000000000000000000000000000000000000000000000000000000000000000000000000000000000000000080000000000000000000000000000000040000000000000800000000000000000000000008000000000000004000000000000000800000000000000000000000000000000000000000000000000000",
      "type": "0x2",
      "transactionHash": "0x3e7619475bb032e4f7466be96b97f110fb257d0d5e717d4e7befb725419cc96f",
      "transactionIndex": "0x1",
      "blockHash": "0xaff6fcd4b26b41a2ec87e27823dc2558417f94ce1a3e902f67c0514538eeb7a8",
      "blockNumber": "0x1fe3b78",
      "gasUsed": "0xb20c89b",
      "effectiveGasPrice": "0x132b3a0",
      "from": "0x0ece75f3c36f7df2136dac7633165dbff53de3cd",
      "to": "0x46da9f76c20a752132ddaefd2b14870e0a152d71",
      "contractAddress": null,
      "l1Fee": "0x4cd4098f4e0c",
      "l1FeeScalar": "0.01",
      "l1GasPrice": "0x38262cdf",
      "l1GasUsed": "0xa48",
      "tokenRatio": "0xd4f"
    },
    {
      "status": "0x1",
      "cumulativeGasUsed": "0xb29b9c8",
      "logs": [
        {
          "address": "0x46da9f76c20a752132ddaefd2b14870e0a152d71",
          "topics": [
            "0x6af2b431e7174c6e6362e963c769958410cf9e0615cd5bcced6584656ec99e9f",
            "0x000000000000000000000000af0c7edb6d33e166719f4d528d33042768367e28",
            "0x00000000000000000000000000000000000000000000000000005af3107a4000"
          ],
          "data": "0x",
          "blockHash": "0x11b659fb15d08a0d4daadf127cf3f42aac47e4c60d28fc26d5c85b3b22cf7dd3",
          "blockNumber": "0x1fe3b7b",
          "blockTimestamp": "0x6967f9d7",
          "transactionHash": "0x715bdbb7e7fdef8fb507d8ea4a7eb1b69bd223a68b66d4562336da3fe3ff6109",
          "transactionIndex": "0x1",
          "logIndex": "0x0",
          "removed": false
        }
      ],
      "logsBloom": "0x00000000000000000000000000000000000000800000000000000000000000000000000000000000000000000000000000000000400000000000000000000000000000000000000000000000000000000000000000000000000000000000000000000000004000000100000000000000000800000000000000000000000000000000000000000000000000000000000000000000000000000000000000000000000000000000000000000000000000000000000000000000000000000000000000040000000000000801000000000000000000000008000000000000404000000000000000800000000000000000000000000000000000000000000000000000",
      "type": "0x2",
      "transactionHash": "0x715bdbb7e7fdef8fb507d8ea4a7eb1b69bd223a68b66d4562336da3fe3ff6109",
      "transactionIndex": "0x1",
      "blockHash": "0x11b659fb15d08a0d4daadf127cf3f42aac47e4c60d28fc26d5c85b3b22cf7dd3",
      "blockNumber": "0x1fe3b7b",
      "gasUsed": "0xb28bfeb",
      "effectiveGasPrice": "0x132b3a0",
      "from": "0x0ece75f3c36f7df2136dac7633165dbff53de3cd",
      "to": "0x46da9f76c20a752132ddaefd2b14870e0a152d71",
      "contractAddress": null,
      "l1Fee": "0x5668b502b415",
      "l1FeeScalar": "0.01",
      "l1GasPrice": "0x3f26aecb",
      "l1GasUsed": "0xa48",
      "tokenRatio": "0xd4f"
    },
    {
      "status": "0x1",
      "cumulativeGasUsed": "0xb297c35",
      "logs": [
        {
          "address": "0x46da9f76c20a752132ddaefd2b14870e0a152d71",
          "topics": [
            "0x6af2b431e7174c6e6362e963c769958410cf9e0615cd5bcced6584656ec99e9f",
            "0x0000000000000000000000007cc335f6693077b391b767df16295dabd9288144",
            "0x00000000000000000000000000000000000000000000000000005af3107a4000"
          ],
          "data": "0x",
          "blockHash": "0xdb7c6328a8f78cb43dc3eae3955a317f4be962d67f02392d4af440fa054ca554",
          "blockNumber": "0x1fe3b7f",
          "blockTimestamp": "0x6967f9df",
          "transactionHash": "0x9a885abeccfca671ab288cbd91fe8a745576d44fa7ea0bff7689c1c0c2fbb9cb",
          "transactionIndex": "0x1",
          "logIndex": "0x0",
          "removed": false
        }
      ],
      "logsBloom": "0x00000000000000000000000000000000000000800000000000000000000000000000000000000000000000000000000000000000000000000000000000000000000000000000000000000000000000000000000000000000000000000000000000000000004000000300000000000000000800000000000000000000000000000000000000000000000000000000000000000000000000000000000000000000000000000000000000000000000000000000000000000000000000000000000000040000000000000800000000000000000000000008000000000000004008000000000000800000000000000000000000000000000000000000000100000000",
      "type": "0x2",
      "transactionHash": "0x9a885abeccfca671ab288cbd91fe8a745576d44fa7ea0bff7689c1c0c2fbb9cb",
      "transactionIndex": "0x1",
      "blockHash": "0xdb7c6328a8f78cb43dc3eae3955a317f4be962d67f02392d4af440fa054ca554",
      "blockNumber": "0x1fe3b7f",
      "gasUsed": "0xb28c524",
      "effectiveGasPrice": "0x132b3a0",
      "from": "0x0ece75f3c36f7df2136dac7633165dbff53de3cd",
      "to": "0x46da9f76c20a752132ddaefd2b14870e0a152d71",
      "contractAddress": null,
      "l1Fee": "0x5668b502b415",
      "l1FeeScalar": "0.01",
      "l1GasPrice": "0x3f26aecb",
      "l1GasUsed": "0xa48",
      "tokenRatio": "0xd4f"
    }
  ],
  "libraries": [],
  "pending": [],
  "returns": {},
  "timestamp": 1768421858487,
  "chain": 5003,
  "commit": "8996b37"
}