{
  "transactions": [
    {
      "hash": "0x12214a60d66329a37e0ce16df98cb4dab17fee6cb0798833ae4c5f1a7aa7495b",
      "transactionType": "CALL",
      "contractName": null,
      "contractAddress": "0x46da9f76c20a752132ddaefd2b14870e0a152d71",
      "function": "setMinAmountSupplyLiquidity(address,uint256)",
      "arguments": [
        "0xdF05e9AbF64dA281B3cBd8aC3581022eC4841FB2",
        "1000000"
      ],
      "transaction": {
        "from": "0x0ece75f3c36f7df2136dac7633165dbff53de3cd",
        "to": "0x46da9f76c20a752132ddaefd2b14870e0a152d71",
        "gas": "0xb8f50f2",
        "value": "0x0",
        "input": "0x39a2e638000000000000000000000000df05e9abf64da281b3cbd8ac3581022ec4841fb200000000000000000000000000000000000000000000000000000000000f4240",
        "nonce": "0x8a",
        "chainId": "0x138b"
      },
      "additionalContracts": [],
      "isFixedGasLimit": false
    },
    {
      "hash": "0xffb6d63d2d616f4c33f9934db7a8db2517e3840f56556b501cee6b9ffd2a6f42",
      "transactionType": "CALL",
      "contractName": null,
      "contractAddress": "0x46da9f76c20a752132ddaefd2b14870e0a152d71",
      "function": "setMinAmountSupplyLiquidity(address,uint256)",
      "arguments": [
        "0x04C37dc1b538E00b31e6bc883E16d97cD7937a10",
        "1000000"
      ],
      "transaction": {
        "from": "0x0ece75f3c36f7df2136dac7633165dbff53de3cd",
        "to": "0x46da9f76c20a752132ddaefd2b14870e0a152d71",
        "gas": "0xb8f50f2",
        "value": "0x0",
        "input": "0x39a2e63800000000000000000000000004c37dc1b538e00b31e6bc883e16d97cd7937a1000000000000000000000000000000000000000000000000000000000000f4240",
        "nonce": "0x8b",
        "chainId": "0x138b"
      },
      "additionalContracts": [],
      "isFixedGasLimit": false
    },
    {
      "hash": "0xb38cc5697dcc6ae0a0bf874f1e4de3002aeb94c5ae4fb3b0527c206ea7de3aab",
      "transactionType": "CALL",
      "contractName": null,
      "contractAddress": "0x46da9f76c20a752132ddaefd2b14870e0a152d71",
      "function": "setMinAmountSupplyLiquidity(address,uint256)",
      "arguments": [
        "0x15858A57854BBf0DF60A737811d50e1Ee785f9bc",
        "100000000000000000"
      ],
      "transaction": {
        "from": "0x0ece75f3c36f7df2136dac7633165dbff53de3cd",
        "to": "0x46da9f76c20a752132ddaefd2b14870e0a152d71",
        "gas": "0xb963df8",
        "value": "0x0",
        "input": "0x39a2e63800000000000000000000000015858a57854bbf0df60a737811d50e1ee785f9bc000000000000000000000000000000000000000000000000016345785d8a0000",
        "nonce": "0x8c",
        "chainId": "0x138b"
      },
      "additionalContracts": [],
      "isFixedGasLimit": false
    },
    {
      "hash": "0xffa428efe32eb4d696bf0eb9bb9a1092d26d2f0f888c2a4ca2e3ceb4b69f5650",
      "transactionType": "CALL",
      "contractName": null,
      "contractAddress": "0x46da9f76c20a752132ddaefd2b14870e0a152d71",
      "function": "setMinAmountSupplyLiquidity(address,uint256)",
      "arguments": [
        "0x0000000000000000000000000000000000000001",
        "100000000000000000"
      ],
      "transaction": {
        "from": "0x0ece75f3c36f7df2136dac7633165dbff53de3cd",
        "to": "0x46da9f76c20a752132ddaefd2b14870e0a152d71",
        "gas": "0xb6ac6be",
        "value": "0x0",
        "input": "0x39a2e6380000000000000000000000000000000000000000000000000000000000000001000000000000000000000000000000000000000000000000016345785d8a0000",
        "nonce": "0x8d",
        "chainId": "0x138b"
      },
      "additionalContracts": [],
      "isFixedGasLimit": false
    },
    {
      "hash": "0xa95a622a8f329b356fc858a688dd891984d1528cae4c70c583cebee6a931f913",
      "transactionType": "CALL",
      "contractName": null,
      "contractAddress": "0x46da9f76c20a752132ddaefd2b14870e0a152d71",
      "function": "setMinAmountSupplyLiquidity(address,uint256)",
      "arguments": [
        "0x4Ba8D8083e7F3652CCB084C32652e68566E9Ef23",
        "50000000000000"
      ],
      "transaction": {
        "from": "0x0ece75f3c36f7df2136dac7633165dbff53de3cd",
        "to": "0x46da9f76c20a752132ddaefd2b14870e0a152d71",
        "gas": "0xb93eef5",
        "value": "0x0",
        "input": "0x39a2e6380000000000000000000000004ba8d8083e7f3652ccb084c32652e68566e9ef2300000000000000000000000000000000000000000000000000002d79883d2000",
        "nonce": "0x8e",
        "chainId": "0x138b"
      },
      "additionalContracts": [],
      "isFixedGasLimit": false
    },
    {
      "hash": "0x5b5cd6677c38dcbb7c26113f23943513f70fcdd00ba4c43021f6aa62316c3a86",
      "transactionType": "CALL",
      "contractName": null,
      "contractAddress": "0x46da9f76c20a752132ddaefd2b14870e0a152d71",
      "function": "setMinAmountSupplyLiquidity(address,uint256)",
      "arguments": [
        "0x007F735Fd070DeD4B0B58D430c392Ff0190eC20F",
        "1000"
      ],
      "transaction": {
        "from": "0x0ece75f3c36f7df2136dac7633165dbff53de3cd",
        "to": "0x46da9f76c20a752132ddaefd2b14870e0a152d71",
        "gas": "0xb8ac751",
        "value": "0x0",
        "input": "0x39a2e638000000000000000000000000007f735fd070ded4b0b58d430c392ff0190ec20f00000000000000000000000000000000000000000000000000000000000003e8",
        "nonce": "0x8f",
        "chainId": "0x138b"
      },
      "additionalContracts": [],
      "isFixedGasLimit": false
    }
  ],
  "receipts": [
    {
      "status": "0x1",
      "cumulativeGasUsed": "0x7588917",
      "logs": [
        {
          "address": "0x46da9f76c20a752132ddaefd2b14870e0a152d71",
          "topics": [
            "0x6af2b431e7174c6e6362e963c769958410cf9e0615cd5bcced6584656ec99e9f",
            "0x000000000000000000000000df05e9abf64da281b3cbd8ac3581022ec4841fb2",
            "0x00000000000000000000000000000000000000000000000000000000000f4240"
          ],
          "data": "0x",
          "blockHash": "0xe3fbb04ed7b26ab937b7cdc5dc4ad516294bfdc2166d90d1d2fe9536e7367d53",
          "blockNumber": "0x1fd7a32",
          "blockTimestamp": "0x69667745",
          "transactionHash": "0x12214a60d66329a37e0ce16df98cb4dab17fee6cb0798833ae4c5f1a7aa7495b",
          "transactionIndex": "0x1",
          "logIndex": "0x0",
          "removed": false
        }
      ],
      "logsBloom": "0x00000000000000000000000000000000000000000000000000000080000000000000000000000000000000000000000000001000000000000000000000000000000000000000000000000000000000000000000000000000000000000000000000000000004000000100000000000000000800000000000000000000000000000000000000000000000000000010000000000000000000000000004000000000000000000000000000000000000000000000000000000000000000000000000000044000000000000000800000000000000000000008000000000000000000000000000000800000000000000000000000000000000000000000000000000000",
      "type": "0x2",
      "transactionHash": "0x12214a60d66329a37e0ce16df98cb4dab17fee6cb0798833ae4c5f1a7aa7495b",
      "transactionIndex": "0x1",
      "blockHash": "0xe3fbb04ed7b26ab937b7cdc5dc4ad516294bfdc2166d90d1d2fe9536e7367d53",
      "blockNumber": "0x1fd7a32",
      "gasUsed": "0x757d1fa",
      "effectiveGasPrice": "0x1331548",
      "from": "0x0ece75f3c36f7df2136dac7633165dbff53de3cd",
      "to": "0x46da9f76c20a752132ddaefd2b14870e0a152d71",
      "contractAddress": null,
      "l1Fee": "0xd3e2e4dc80fd",
      "l1FeeScalar": "0.01",
      "l1GasPrice": "0xa078cae7",
      "l1GasUsed": "0xa30",
      "tokenRatio": "0xcf6"
    },
    {
      "status": "0x1",
      "cumulativeGasUsed": "0x74e8de0",
      "logs": [
        {
          "address": "0x46da9f76c20a752132ddaefd2b14870e0a152d71",
          "topics": [
            "0x6af2b431e7174c6e6362e963c769958410cf9e0615cd5bcced6584656ec99e9f",
            "0x00000000000000000000000004c37dc1b538e00b31e6bc883e16d97cd7937a10",
            "0x00000000000000000000000000000000000000000000000000000000000f4240"
          ],
          "data": "0x",
          "blockHash": "0x541d74d86ea1fff7f09d9d8674636f163994d4e26c01f4c72c24f53eb3609dc0",
          "blockNumber": "0x1fd7a36",
          "blockTimestamp": "0x6966774d",
          "transactionHash": "0xffb6d63d2d616f4c33f9934db7a8db2517e3840f56556b501cee6b9ffd2a6f42",
          "transactionIndex": "0x1",
          "logIndex": "0x0",
          "removed": false
        }
      ],
      "logsBloom": "0x00000000000000000000000000000000000000000000000000000000000000000000000000000000080000000000000000001000000000000000000000000000000000000000000000000000000000000000000000000000000000000000000000000000004000000100000000000000000800000000000000000000000000000000000000000000000000000010000000000000000000000000000000000010000000000000000000000000000000000000000000000000000000000000000000040000000000000000800000000000000000000008020000000000000000000000000000800000000000000000000000000000000000000000000000000000",
      "type": "0x2",
      "transactionHash": "0xffb6d63d2d616f4c33f9934db7a8db2517e3840f56556b501cee6b9ffd2a6f42",
      "transactionIndex": "0x1",
      "blockHash": "0x541d74d86ea1fff7f09d9d8674636f163994d4e26c01f4c72c24f53eb3609dc0",
      "blockNumber": "0x1fd7a36",
      "gasUsed": "0x74db5ff",
      "effectiveGasPrice": "0x1331548",
      "from": "0x0ece75f3c36f7df2136dac7633165dbff53de3cd",
      "to": "0x46da9f76c20a752132ddaefd2b14870e0a152d71",
      "contractAddress": null,
      "l1Fee": "0xc7c511bb1c25",
      "l1FeeScalar": "0.01",
      "l1GasPrice": "0x974ba116",
      "l1GasUsed": "0xa30",
      "tokenRatio": "0xcf6"
    },
    {
      "status": "0x1",
      "cumulativeGasUsed": "0x7528e58",
      "logs": [
        {
          "address": "0x46da9f76c20a752132ddaefd2b14870e0a152d71",
          "topics": [
            "0x6af2b431e7174c6e6362e963c769958410cf9e0615cd5bcced6584656ec99e9f",
            "0x00000000000000000000000015858a57854bbf0df60a737811d50e1ee785f9bc",
            "0x000000000000000000000000000000000000000000000000016345785d8a0000"
          ],
          "data": "0x",
          "blockHash": "0x7a2cac1d62c8b94f21b330c8a5f2c47c5fe73374b1126f941133b901c8c925ec",
          "blockNumber": "0x1fd7a3b",
          "blockTimestamp": "0x69667757",
          "transactionHash": "0xb38cc5697dcc6ae0a0bf874f1e4de3002aeb94c5ae4fb3b0527c206ea7de3aab",
          "transactionIndex": "0x1",
          "logIndex": "0x0",
          "removed": false
        }
      ],
      "logsBloom": "0x0000000000000000000000000000000000000000000000000000000000000000000000000000000000000000000000000000000000000000000000000000000000000000000000000000000000000000000000000200000000000000000000000000000000c000000100000000000000000800000000000000000000000000000000000000000000000000000000000000000000000000000000000000000000000000001000000000000000000008000000000000000000000000000000000000040000000000000000000000000000000000000008000000100000000000000000000000800000000000000000000000000000000100000000000000000000",
      "type": "0x2",
      "transactionHash": "0xb38cc5697dcc6ae0a0bf874f1e4de3002aeb94c5ae4fb3b0527c206ea7de3aab",
      "transactionIndex": "0x1",
      "blockHash": "0x7a2cac1d62c8b94f21b330c8a5f2c47c5fe73374b1126f941133b901c8c925ec",
      "blockNumber": "0x1fd7a3b",
      "gasUsed": "0x751d73b",
      "effectiveGasPrice": "0x1331548",
      "from": "0x0ece75f3c36f7df2136dac7633165dbff53de3cd",
      "to": "0x46da9f76c20a752132ddaefd2b14870e0a152d71",
      "contractAddress": null,
      "l1Fee": "0xca8701179b5b",
      "l1FeeScalar": "0.01",
      "l1GasPrice": "0x974ba116",
      "l1GasUsed": "0xa54",
      "tokenRatio": "0xcf6"
    },
    {
      "status": "0x1",
      "cumulativeGasUsed": "0x72a49ab",
      "logs": [
        {
          "address": "0x46da9f76c20a752132ddaefd2b14870e0a152d71",
          "topics": [
            "0x6af2b431e7174c6e6362e963c769958410cf9e0615cd5bcced6584656ec99e9f",
            "0x0000000000000000000000000000000000000000000000000000000000000001",
            "0x000000000000000000000000000000000000000000000000016345785d8a0000"
          ],
          "data": "0x",
          "blockHash": "0x56b09540151fac98b7821bfe885113e5baf19bda002bb2e9dcccfd704661ac32",
          "blockNumber": "0x1fd7a3f",
          "blockTimestamp": "0x6966775f",
          "transactionHash": "0xffa428efe32eb4d696bf0eb9bb9a1092d26d2f0f888c2a4ca2e3ceb4b69f5650",
          "transactionIndex": "0x1",
          "logIndex": "0x0",
          "removed": false
        }
      ],
      "logsBloom": "0x0000000000000000000000000000000000000000000000000000000000000000000000000000000000000000000000000000000000000000000000000004000000000000000000000000000000000000000000000204000000000000000000000000000000c000000100000000000000000800000000000000000000000000000000000000000000000000000000000000000000000000000000000000000000000000001000000000000000000000000000000000000000000000000000000000040000000000000000000000000000000000000008000000000000000040000000000000800000000000000000000000000000000000000000000000000000",
      "type": "0x2",
      "transactionHash": "0xffa428efe32eb4d696bf0eb9bb9a1092d26d2f0f888c2a4ca2e3ceb4b69f5650",
      "transactionIndex": "0x1",
      "blockHash": "0x56b09540151fac98b7821bfe885113e5baf19bda002bb2e9dcccfd704661ac32",
      "blockNumber": "0x1fd7a3f",
      "gasUsed": "0x729929a",
      "effectiveGasPrice": "0x1331548",
      "from": "0x0ece75f3c36f7df2136dac7633165dbff53de3cd",
      "to": "0x46da9f76c20a752132ddaefd2b14870e0a152d71",
      "contractAddress": null,
      "l1Fee": "0xa80fa85b3938",
      "l1FeeScalar": "0.01",
      "l1GasPrice": "0x8ac64704",
      "l1GasUsed": "0x958",
      "tokenRatio": "0xcf6"
    },
    {
      "status": "0x1",
      "cumulativeGasUsed": "0x742dd87",
      "logs": [
        {
          "address": "0x46da9f76c20a752132ddaefd2b14870e0a152d71",
          "topics": [
            "0x6af2b431e7174c6e6362e963c769958410cf9e0615cd5bcced6584656ec99e9f",
            "0x0000000000000000000000004ba8d8083e7f3652ccb084c32652e68566e9ef23",
            "0x00000000000000000000000000000000000000000000000000002d79883d2000"
          ],
          "data": "0x",
          "blockHash": "0xd9bdb33b9b1626edaeaff3a21679dbf549a0115c68e167b36860e811cfdc36f3",
          "blockNumber": "0x1fd7a42",
          "blockTimestamp": "0x69667765",
          "transactionHash": "0xa95a622a8f329b356fc858a688dd891984d1528cae4c70c583cebee6a931f913",
          "transactionIndex": "0x1",
          "logIndex": "0x0",
          "removed": false
        }
      ],
      "logsBloom": "0x00000000000000000000000000000000000000000000000000000102000000000000000000000000040000000000000000000000000000000000000100000000000000000000000000000000000000000000000000001000000000000000000000000000004000000100000000000000000800000000000000000000000000000000000000000000000000000000000000000000000000000000000000000000000000000000000000000000000000000000000000000000000000000000000000040000000000000000000000000000000000000008000000000000000000000000000000800000000000000000000000000000000000000000000000000000",
      "type": "0x2",
      "transactionHash": "0xa95a622a8f329b356fc858a688dd891984d1528cae4c70c583cebee6a931f913",
      "transactionIndex": "0x1",
      "blockHash": "0xd9bdb33b9b1626edaeaff3a21679dbf549a0115c68e167b36860e811cfdc36f3",
      "blockNumber": "0x1fd7a42",
      "gasUsed": "0x74205a6",
      "effectiveGasPrice": "0x1331548",
      "from": "0x0ece75f3c36f7df2136dac7633165dbff53de3cd",
      "to": "0x46da9f76c20a752132ddaefd2b14870e0a152d71",
      "contractAddress": null,
      "l1Fee": "0xb843ade893a8",
      "l1FeeScalar": "0.01",
      "l1GasPrice": "0x8a47a719",
      "l1GasUsed": "0xa48",
      "tokenRatio": "0xcf6"
    },
    {
      "status": "0x1",
      "cumulativeGasUsed": "0x73b5be6",
      "logs": [
        {
          "address": "0x46da9f76c20a752132ddaefd2b14870e0a152d71",
          "topics": [
            "0x6af2b431e7174c6e6362e963c769958410cf9e0615cd5bcced6584656ec99e9f",
            "0x000000000000000000000000007f735fd070ded4b0b58d430c392ff0190ec20f",
            "0x00000000000000000000000000000000000000000000000000000000000003e8"
          ],
          "data": "0x",
          "blockHash": "0x7326ff830a1c13223743c754d60eca1c47891e511837538803d1ea4072cdad3c",
          "blockNumber": "0x1fd7a46",
          "blockTimestamp": "0x6966776d",
          "transactionHash": "0x5b5cd6677c38dcbb7c26113f23943513f70fcdd00ba4c43021f6aa62316c3a86",
          "transactionIndex": "0x1",
          "logIndex": "0x0",
          "removed": false
        }
      ],
      "logsBloom": "0x00000000000000000000000020000000000000000000000000000000000000000000000000000000000000000000004000000000000000000000000000000000000000000000000000000000000000000000000000000000000000000000001000000000004000000100000000000000000800000000000000000000000000000000000200000000000000000000000000000000000040000000000000000000000000000000000000000000000400000000000000000000000000000000000000040000000000000000000000000000000000000008000000000000000000000000000000800000000000000000000000000000000000000000000000000000",
      "type": "0x2",
      "transactionHash": "0x5b5cd6677c38dcbb7c26113f23943513f70fcdd00ba4c43021f6aa62316c3a86",
      "transactionIndex": "0x1",
      "blockHash": "0x7326ff830a1c13223743c754d60eca1c47891e511837538803d1ea4072cdad3c",
      "blockNumber": "0x1fd7a46",
      "gasUsed": "0x73aa4c9",
      "effectiveGasPrice": "0x1331548",
      "from": "0x0ece75f3c36f7df2136dac7633165dbff53de3cd",
      "to": "0x46da9f76c20a752132ddaefd2b14870e0a152d71",
      "contractAddress": null,
      "l1Fee": "0xb26233407928",
      "l1FeeScalar": "0.01",
      "l1GasPrice": "0x8a47a719",
      "l1GasUsed": "0x9f4",
      "tokenRatio": "0xcf6"
    }
  ],
  "libraries": [],
  "pending": [],
  "returns": {},
  "timestamp": 1768322929606,
  "chain": 5003,
  "commit": "a034454"
}