{
  "transactions": [
    {
      "hash": "0xb583dd158ec0c670d19303c4f217d9a6d6848cbbf604a035d8eb2e521c33c597",
      "transactionType": "CALL",
      "contractName": null,
      "contractAddress": "0x46da9f76c20a752132ddaefd2b14870e0a152d71",
      "function": "setMinAmountSupplyLiquidity(address,uint256)",
      "arguments": [
        "0xdF05e9AbF64dA281B3cBd8aC3581022eC4841FB2",
        "1000000"
      ],
      "transaction": {
        "from": "0x0ece75f3c36f7df2136dac7633165dbff53de3cd",
        "to": "0x46da9f76c20a752132ddaefd2b14870e0a152d71",
        "gas": "0x10baa807",
        "value": "0x0",
        "input": "0x39a2e638000000000000000000000000df05e9abf64da281b3cbd8ac3581022ec4841fb200000000000000000000000000000000000000000000000000000000000f4240",
        "nonce": "0x47",
        "chainId": "0x138b"
      },
      "additionalContracts": [],
      "isFixedGasLimit": false
    },
    {
      "hash": "0x75f4627d6982ec100f27359fc7be5526abb0cbb0cbfd41a95c54498599db637a",
      "transactionType": "CALL",
      "contractName": null,
      "contractAddress": "0x46da9f76c20a752132ddaefd2b14870e0a152d71",
      "function": "setMinAmountSupplyLiquidity(address,uint256)",
      "arguments": [
        "0x04C37dc1b538E00b31e6bc883E16d97cD7937a10",
        "1000000"
      ],
      "transaction": {
        "from": "0x0ece75f3c36f7df2136dac7633165dbff53de3cd",
        "to": "0x46da9f76c20a752132ddaefd2b14870e0a152d71",
        "gas": "0x10baa807",
        "value": "0x0",
        "input": "0x39a2e63800000000000000000000000004c37dc1b538e00b31e6bc883e16d97cd7937a1000000000000000000000000000000000000000000000000000000000000f4240",
        "nonce": "0x48",
        "chainId": "0x138b"
      },
      "additionalContracts": [],
      "isFixedGasLimit": false
    },
    {
      "hash": "0x940cd4a5cd82bebbcf00d702dc483e6f6792438bd31cd28b96eecb131e0c3503",
      "transactionType": "CALL",
      "contractName": null,
      "contractAddress": "0x46da9f76c20a752132ddaefd2b14870e0a152d71",
      "function": "setMinAmountSupplyLiquidity(address,uint256)",
      "arguments": [
        "0x15858A57854BBf0DF60A737811d50e1Ee785f9bc",
        "100000000000000000"
      ],
      "transaction": {
        "from": "0x0ece75f3c36f7df2136dac7633165dbff53de3cd",
        "to": "0x46da9f76c20a752132ddaefd2b14870e0a152d71",
        "gas": "0x10becd96",
        "value": "0x0",
        "input": "0x39a2e63800000000000000000000000015858a57854bbf0df60a737811d50e1ee785f9bc000000000000000000000000000000000000000000000000016345785d8a0000",
        "nonce": "0x49",
        "chainId": "0x138b"
      },
      "additionalContracts": [],
      "isFixedGasLimit": false
    },
    {
      "hash": "0x82742dd4af0018e9098abb66a1ddb1d0781301dc7a839a6d57c31fb908660aaa",
      "transactionType": "CALL",
      "contractName": null,
      "contractAddress": "0x46da9f76c20a752132ddaefd2b14870e0a152d71",
      "function": "setMinAmountSupplyLiquidity(address,uint256)",
      "arguments": [
        "0x0000000000000000000000000000000000000001",
        "100000000000000000"
      ],
      "transaction": {
        "from": "0x0ece75f3c36f7df2136dac7633165dbff53de3cd",
        "to": "0x46da9f76c20a752132ddaefd2b14870e0a152d71",
        "gas": "0x10a483b3",
        "value": "0x0",
        "input": "0x39a2e6380000000000000000000000000000000000000000000000000000000000000001000000000000000000000000000000000000000000000000016345785d8a0000",
        "nonce": "0x4a",
        "chainId": "0x138b"
      },
      "additionalContracts": [],
      "isFixedGasLimit": false
    },
    {
      "hash": "0x62013fcb26c17e7d227e8328ee2a4c7e5f254e9795aa3d1149eb4c8a863514db",
      "transactionType": "CALL",
      "contractName": null,
      "contractAddress": "0x46da9f76c20a752132ddaefd2b14870e0a152d71",
      "function": "setMinAmountSupplyLiquidity(address,uint256)",
      "arguments": [
        "0x4Ba8D8083e7F3652CCB084C32652e68566E9Ef23",
        "50000000000000"
      ],
      "transaction": {
        "from": "0x0ece75f3c36f7df2136dac7633165dbff53de3cd",
        "to": "0x46da9f76c20a752132ddaefd2b14870e0a152d71",
        "gas": "0x10bd7917",
        "value": "0x0",
        "input": "0x39a2e6380000000000000000000000004ba8d8083e7f3652ccb084c32652e68566e9ef2300000000000000000000000000000000000000000000000000002d79883d2000",
        "nonce": "0x4b",
        "chainId": "0x138b"
      },
      "additionalContracts": [],
      "isFixedGasLimit": false
    },
    {
      "hash": "0xd199df0426157b98dd65558abdbe41025bbf88892e0d5cfbda0b0f879f6b0d1b",
      "transactionType": "CALL",
      "contractName": null,
      "contractAddress": "0x46da9f76c20a752132ddaefd2b14870e0a152d71",
      "function": "setMinAmountSupplyLiquidity(address,uint256)",
      "arguments": [
        "0x007F735Fd070DeD4B0B58D430c392Ff0190eC20F",
        "1000"
      ],
      "transaction": {
        "from": "0x0ece75f3c36f7df2136dac7633165dbff53de3cd",
        "to": "0x46da9f76c20a752132ddaefd2b14870e0a152d71",
        "gas": "0x10b7eb00",
        "value": "0x0",
        "input": "0x39a2e638000000000000000000000000007f735fd070ded4b0b58d430c392ff0190ec20f00000000000000000000000000000000000000000000000000000000000003e8",
        "nonce": "0x4c",
        "chainId": "0x138b"
      },
      "additionalContracts": [],
      "isFixedGasLimit": false
    }
  ],
  "receipts": [
    {
      "status": "0x1",
      "cumulativeGasUsed": "0xaad31a2",
      "logs": [
        {
          "address": "0x46da9f76c20a752132ddaefd2b14870e0a152d71",
          "topics": [
            "0x6af2b431e7174c6e6362e963c769958410cf9e0615cd5bcced6584656ec99e9f",
            "0x000000000000000000000000df05e9abf64da281b3cbd8ac3581022ec4841fb2",
            "0x00000000000000000000000000000000000000000000000000000000000f4240"
          ],
          "data": "0x",
          "blockHash": "0x37ddc4aa6e5639f2e581060cdef137038ff82548be063ad798133b56597ddb51",
          "blockNumber": "0x1fcd612",
          "blockTimestamp": "0x69652f05",
          "transactionHash": "0xb583dd158ec0c670d19303c4f217d9a6d6848cbbf604a035d8eb2e521c33c597",
          "transactionIndex": "0x1",
          "logIndex": "0x0",
          "removed": false
        }
      ],
      "logsBloom": "0x00000000000000000000000000000000000000000000000000000080000000000000000000000000000000000000000000001000000000000000000000000000000000000000000000000000000000000000000000000000000000000000000000000000004000000100000000000000000800000000000000000000000000000000000000000000000000000010000000000000000000000000004000000000000000000000000000000000000000000000000000000000000000000000000000044000000000000000800000000000000000000008000000000000000000000000000000800000000000000000000000000000000000000000000000000000",
      "type": "0x2",
      "transactionHash": "0xb583dd158ec0c670d19303c4f217d9a6d6848cbbf604a035d8eb2e521c33c597",
      "transactionIndex": "0x1",
      "blockHash": "0x37ddc4aa6e5639f2e581060cdef137038ff82548be063ad798133b56597ddb51",
      "blockNumber": "0x1fcd612",
      "gasUsed": "0xaac7a85",
      "effectiveGasPrice": "0x132b3a0",
      "from": "0x0ece75f3c36f7df2136dac7633165dbff53de3cd",
      "to": "0x46da9f76c20a752132ddaefd2b14870e0a152d71",
      "contractAddress": null,
      "l1Fee": "0x51e8bbb94ab7",
      "l1FeeScalar": "0.01",
      "l1GasPrice": "0x4019ea04",
      "l1GasUsed": "0xa08",
      "tokenRatio": "0xcbd"
    },
    {
      "status": "0x1",
      "cumulativeGasUsed": "0xaa8eb24",
      "logs": [
        {
          "address": "0x46da9f76c20a752132ddaefd2b14870e0a152d71",
          "topics": [
            "0x6af2b431e7174c6e6362e963c769958410cf9e0615cd5bcced6584656ec99e9f",
            "0x00000000000000000000000004c37dc1b538e00b31e6bc883e16d97cd7937a10",
            "0x00000000000000000000000000000000000000000000000000000000000f4240"
          ],
          "data": "0x",
          "blockHash": "0xdc0ddc9ba007d529fbc6df2d1710e366c2ef0ea8e7e3525f64550cc90d76142b",
          "blockNumber": "0x1fcd617",
          "blockTimestamp": "0x69652f0f",
          "transactionHash": "0x75f4627d6982ec100f27359fc7be5526abb0cbb0cbfd41a95c54498599db637a",
          "transactionIndex": "0x1",
          "logIndex": "0x0",
          "removed": false
        }
      ],
      "logsBloom": "0x00000000000000000000000000000000000000000000000000000000000000000000000000000000080000000000000000001000000000000000000000000000000000000000000000000000000000000000000000000000000000000000000000000000004000000100000000000000000800000000000000000000000000000000000000000000000000000010000000000000000000000000000000000010000000000000000000000000000000000000000000000000000000000000000000040000000000000000800000000000000000000008020000000000000000000000000000800000000000000000000000000000000000000000000000000000",
      "type": "0x2",
      "transactionHash": "0x75f4627d6982ec100f27359fc7be5526abb0cbb0cbfd41a95c54498599db637a",
      "transactionIndex": "0x1",
      "blockHash": "0xdc0ddc9ba007d529fbc6df2d1710e366c2ef0ea8e7e3525f64550cc90d76142b",
      "blockNumber": "0x1fcd617",
      "gasUsed": "0xaa7f13b",
      "effectiveGasPrice": "0x132b3a0",
      "from": "0x0ece75f3c36f7df2136dac7633165dbff53de3cd",
      "to": "0x46da9f76c20a752132ddaefd2b14870e0a152d71",
      "contractAddress": null,
      "l1Fee": "0x4c79511aed50",
      "l1FeeScalar": "0.01",
      "l1GasPrice": "0x3b4b2511",
      "l1GasUsed": "0xa20",
      "tokenRatio": "0xcbd"
    },
    {
      "status": "0x1",
      "cumulativeGasUsed": "0xaaaa80c",
      "logs": [
        {
          "address": "0x46da9f76c20a752132ddaefd2b14870e0a152d71",
          "topics": [
            "0x6af2b431e7174c6e6362e963c769958410cf9e0615cd5bcced6584656ec99e9f",
            "0x00000000000000000000000015858a57854bbf0df60a737811d50e1ee785f9bc",
            "0x000000000000000000000000000000000000000000000000016345785d8a0000"
          ],
          "data": "0x",
          "blockHash": "0x4fbcb3135986fd1bb7288bf7f8925e0a15cdb3084bf91d78aeb41536bf7ea911",
          "blockNumber": "0x1fcd61a",
          "blockTimestamp": "0x69652f15",
          "transactionHash": "0x940cd4a5cd82bebbcf00d702dc483e6f6792438bd31cd28b96eecb131e0c3503",
          "transactionIndex": "0x1",
          "logIndex": "0x0",
          "removed": false
        }
      ],
      "logsBloom": "0x0000000000000000000000000000000000000000000000000000000000000000000000000000000000000000000000000000000000000000000000000000000000000000000000000000000000000000000000000200000000000000000000000000000000c000000100000000000000000800000000000000000000000000000000000000000000000000000000000000000000000000000000000000000000000000001000000000000000000008000000000000000000000000000000000000040000000000000000000000000000000000000008000000100000000000000000000000800000000000000000000000000000000100000000000000000000",
      "type": "0x2",
      "transactionHash": "0x940cd4a5cd82bebbcf00d702dc483e6f6792438bd31cd28b96eecb131e0c3503",
      "transactionIndex": "0x1",
      "blockHash": "0x4fbcb3135986fd1bb7288bf7f8925e0a15cdb3084bf91d78aeb41536bf7ea911",
      "blockNumber": "0x1fcd61a",
      "gasUsed": "0xaa9f0ef",
      "effectiveGasPrice": "0x132b3a0",
      "from": "0x0ece75f3c36f7df2136dac7633165dbff53de3cd",
      "to": "0x46da9f76c20a752132ddaefd2b14870e0a152d71",
      "contractAddress": null,
      "l1Fee": "0x4cb5bd9a3852",
      "l1FeeScalar": "0.01",
      "l1GasPrice": "0x3b4b2511",
      "l1GasUsed": "0xa28",
      "tokenRatio": "0xcbd"
    },
    {
      "status": "0x1",
      "cumulativeGasUsed": "0xaa12fad",
      "logs": [
        {
          "address": "0x46da9f76c20a752132ddaefd2b14870e0a152d71",
          "topics": [
            "0x6af2b431e7174c6e6362e963c769958410cf9e0615cd5bcced6584656ec99e9f",
            "0x0000000000000000000000000000000000000000000000000000000000000001",
            "0x000000000000000000000000000000000000000000000000016345785d8a0000"
          ],
          "data": "0x",
          "blockHash": "0x690ebca22742df7d8ce5cfa861f7d51b320fda6c9a1ba4d6ec974178c3a00d54",
          "blockNumber": "0x1fcd61e",
          "blockTimestamp": "0x69652f1d",
          "transactionHash": "0x82742dd4af0018e9098abb66a1ddb1d0781301dc7a839a6d57c31fb908660aaa",
          "transactionIndex": "0x1",
          "logIndex": "0x0",
          "removed": false
        }
      ],
      "logsBloom": "0x0000000000000000000000000000000000000000000000000000000000000000000000000000000000000000000000000000000000000000000000000004000000000000000000000000000000000000000000000204000000000000000000000000000000c000000100000000000000000800000000000000000000000000000000000000000000000000000000000000000000000000000000000000000000000000001000000000000000000000000000000000000000000000000000000000040000000000000000000000000000000000000008000000000000000040000000000000800000000000000000000000000000000000000000000000000000",
      "type": "0x2",
      "transactionHash": "0x82742dd4af0018e9098abb66a1ddb1d0781301dc7a839a6d57c31fb908660aaa",
      "transactionIndex": "0x1",
      "blockHash": "0x690ebca22742df7d8ce5cfa861f7d51b320fda6c9a1ba4d6ec974178c3a00d54",
      "blockNumber": "0x1fcd61e",
      "gasUsed": "0xaa07890",
      "effectiveGasPrice": "0x132b3a0",
      "from": "0x0ece75f3c36f7df2136dac7633165dbff53de3cd",
      "to": "0x46da9f76c20a752132ddaefd2b14870e0a152d71",
      "contractAddress": null,
      "l1Fee": "0x4efa1e14d5a8",
      "l1FeeScalar": "0.01",
      "l1GasPrice": "0x42221073",
      "l1GasUsed": "0x960",
      "tokenRatio": "0xcbd"
    },
    {
      "status": "0x1",
      "cumulativeGasUsed": "0xab18bdf",
      "logs": [
        {
          "address": "0x46da9f76c20a752132ddaefd2b14870e0a152d71",
          "topics": [
            "0x6af2b431e7174c6e6362e963c769958410cf9e0615cd5bcced6584656ec99e9f",
            "0x0000000000000000000000004ba8d8083e7f3652ccb084c32652e68566e9ef23",
            "0x00000000000000000000000000000000000000000000000000002d79883d2000"
          ],
          "data": "0x",
          "blockHash": "0xecf6872c3f6514316e120afeaa23a082d085b5b39e6493f1a11420f2ba002af5",
          "blockNumber": "0x1fcd621",
          "blockTimestamp": "0x69652f23",
          "transactionHash": "0x62013fcb26c17e7d227e8328ee2a4c7e5f254e9795aa3d1149eb4c8a863514db",
          "transactionIndex": "0x1",
          "logIndex": "0x0",
          "removed": false
        }
      ],
      "logsBloom": "0x00000000000000000000000000000000000000000000000000000102000000000000000000000000040000000000000000000000000000000000000100000000000000000000000000000000000000000000000000001000000000000000000000000000004000000100000000000000000800000000000000000000000000000000000000000000000000000000000000000000000000000000000000000000000000000000000000000000000000000000000000000000000000000000000000040000000000000000000000000000000000000008000000000000000000000000000000800000000000000000000000000000000000000000000000000000",
      "type": "0x2",
      "transactionHash": "0x62013fcb26c17e7d227e8328ee2a4c7e5f254e9795aa3d1149eb4c8a863514db",
      "transactionIndex": "0x1",
      "blockHash": "0xecf6872c3f6514316e120afeaa23a082d085b5b39e6493f1a11420f2ba002af5",
      "blockNumber": "0x1fcd621",
      "gasUsed": "0xab0d4c2",
      "effectiveGasPrice": "0x132b3a0",
      "from": "0x0ece75f3c36f7df2136dac7633165dbff53de3cd",
      "to": "0x46da9f76c20a752132ddaefd2b14870e0a152d71",
      "contractAddress": null,
      "l1Fee": "0x55b0a8517c4c",
      "l1FeeScalar": "0.01",
      "l1GasPrice": "0x42221073",
      "l1GasUsed": "0xa2c",
      "tokenRatio": "0xcbd"
    },
    {
      "status": "0x1",
      "cumulativeGasUsed": "0xaa914a6",
      "logs": [
        {
          "address": "0x46da9f76c20a752132ddaefd2b14870e0a152d71",
          "topics": [
            "0x6af2b431e7174c6e6362e963c769958410cf9e0615cd5bcced6584656ec99e9f",
            "0x000000000000000000000000007f735fd070ded4b0b58d430c392ff0190ec20f",
            "0x00000000000000000000000000000000000000000000000000000000000003e8"
          ],
          "data": "0x",
          "blockHash": "0xaa508c751c0bcd20fb42fa4e66106b44895dab6046acca02c946c9800314f89e",
          "blockNumber": "0x1fcd625",
          "blockTimestamp": "0x69652f2b",
          "transactionHash": "0xd199df0426157b98dd65558abdbe41025bbf88892e0d5cfbda0b0f879f6b0d1b",
          "transactionIndex": "0x1",
          "logIndex": "0x0",
          "removed": false
        }
      ],
      "logsBloom": "0x00000000000000000000000020000000000000000000000000000000000000000000000000000000000000000000004000000000000000000000000000000000000000000000000000000000000000000000000000000000000000000000001000000000004000000100000000000000000800000000000000000000000000000000000200000000000000000000000000000000000040000000000000000000000000000000000000000000000400000000000000000000000000000000000000040000000000000000000000000000000000000008000000000000000000000000000000800000000000000000000000000000000000000000000000000000",
      "type": "0x2",
      "transactionHash": "0xd199df0426157b98dd65558abdbe41025bbf88892e0d5cfbda0b0f879f6b0d1b",
      "transactionIndex": "0x1",
      "blockHash": "0xaa508c751c0bcd20fb42fa4e66106b44895dab6046acca02c946c9800314f89e",
      "blockNumber": "0x1fcd625",
      "gasUsed": "0xaa85d89",
      "effectiveGasPrice": "0x132b3a0",
      "from": "0x0ece75f3c36f7df2136dac7633165dbff53de3cd",
      "to": "0x46da9f76c20a752132ddaefd2b14870e0a152d71",
      "contractAddress": null,
      "l1Fee": "0x4e6161d5dc3e",
      "l1FeeScalar": "0.01",
      "l1GasPrice": "0x3d56f5fb",
      "l1GasUsed": "0xa08",
      "tokenRatio": "0xcbd"
    }
  ],
  "libraries": [],
  "pending": [],
  "returns": {},
  "timestamp": 1768238892407,
  "chain": 5003,
  "commit": "584f810"
}