{
  "transactions": [
    {
      "hash": "0xe5532481759e4ef7f6e18f67b434a6c21c8a243a33060d2f6da0f18cd261c6e1",
      "transactionType": "CALL",
      "contractName": null,
      "contractAddress": "0xe2e025ff8a8adb2561e3c631b5a03842b9a1ae88",
      "function": "setFactory(address)",
      "arguments": [
        "0x46dA9F76c20a752132dDaefD2B14870e0A152D71"
      ],
      "transaction": {
        "from": "0x0ece75f3c36f7df2136dac7633165dbff53de3cd",
        "to": "0xe2e025ff8a8adb2561e3c631b5a03842b9a1ae88",
        "gas": "0xaba0bfc",
        "value": "0x0",
        "input": "0x5bb4780800000000000000000000000046da9f76c20a752132ddaefd2b14870e0a152d71",
        "nonce": "0x4e",
        "chainId": "0x138b"
      },
      "additionalContracts": [],
      "isFixedGasLimit": false
    }
  ],
  "receipts": [
    {
      "status": "0x1",
      "cumulativeGasUsed": "0x6a88365",
      "logs": [
        {
          "address": "0xe2e025ff8a8adb2561e3c631b5a03842b9a1ae88",
          "topics": [
            "0x1edf3afd4ac789736e00d216cd88be164ddcef26a6eedcc30cdb0cb62f3741b1"
          ],
          "data": "0x00000000000000000000000046da9f76c20a752132ddaefd2b14870e0a152d71",
          "blockHash": "0xd0e605a96bc51892f1c4fd044833a96a6c605fa1143951bd9b9cbe0d0be18a50",
          "blockNumber": "0x1fcd649",
          "blockTimestamp": "0x69652f73",
          "transactionHash": "0xe5532481759e4ef7f6e18f67b434a6c21c8a243a33060d2f6da0f18cd261c6e1",
          "transactionIndex": "0x1",
          "logIndex": "0x0",
          "removed": false
        }
      ],
      "logsBloom": "0x00000000000000000000000000000000000000000000000000000000000000000000000000000000000000100000000000000000000000000000000000000000000002000000000000000000000000000000000000000000000000000000000000000000000000000000000000000000000000000000000000000000000000000000000040000000000000000000000000000000000800000000000000000000000000000000000000000000000000000000000000040000000000000000000000000000000000000000000000000000000000000000000000000000000000000000000000000000000000000000000080000000000000000000000000000000",
      "type": "0x2",
      "transactionHash": "0xe5532481759e4ef7f6e18f67b434a6c21c8a243a33060d2f6da0f18cd261c6e1",
      "transactionIndex": "0x1",
      "blockHash": "0xd0e605a96bc51892f1c4fd044833a96a6c605fa1143951bd9b9cbe0d0be18a50",
      "blockNumber": "0x1fcd649",
      "gasUsed": "0x6a7cc48",
      "effectiveGasPrice": "0x132b3a0",
      "from": "0x0ece75f3c36f7df2136dac7633165dbff53de3cd",
      "to": "0xe2e025ff8a8adb2561e3c631b5a03842b9a1ae88",
      "contractAddress": null,
      "l1Fee": "0x4a2dd0dac933",
      "l1FeeScalar": "0.01",
      "l1GasPrice": "0x3dce6878",
      "l1GasUsed": "0x96c",
      "tokenRatio": "0xcbd"
    }
  ],
  "libraries": [],
  "pending": [],
  "returns": {},
  "timestamp": 1768238964634,
  "chain": 5003,
  "commit": "584f810"
}