{
  "transactions": [
    {
      "hash": "0x256281a3c366265bf7dedc5538066a7230ad9eadeaab2456cb9f5525df24400a",
      "transactionType": "CALL",
      "contractName": null,
      "contractAddress": "0x6edce65403992e310a62460808c4b910d972f10f",
      "function": "setConfig(address,address,(uint32,uint32,bytes)[])",
      "arguments": [
        "0x64493Bd2F250cC05D75bCa93cc95447e2834638b",
        "0x9A289B849b32FF69A95F8584a03343a33Ff6e5Fd",
        "[(40246, 1, 0x00000000000000000000000000000000000000000000000000000000000027100000000000000000000000008beee743829af63f5b37e52d5ef8477ef12511de), (40246, 2, 0x0000000000000000000000000000000000000000000000000000000000000020000000000000000000000000000000000000000000000000000000000000000f000000000000000000000000000000000000000000000000000000000000000100000000000000000000000000000000000000000000000000000000000000ff000000000000000000000000000000000000000000000000000000000000000000000000000000000000000000000000000000000000000000000000000000c0000000000000000000000000000000000000000000000000000000000000010000000000000000000000000000000000000000000000000000000000000000010000000000000000000000009454f0eabc7c4ea9ebf89190b8bf9051a0468e030000000000000000000000000000000000000000000000000000000000000000), (40245, 1, 0x00000000000000000000000000000000000000000000000000000000000027100000000000000000000000008beee743829af63f5b37e52d5ef8477ef12511de), (40245, 2, 0x0000000000000000000000000000000000000000000000000000000000000020000000000000000000000000000000000000000000000000000000000000000f000000000000000000000000000000000000000000000000000000000000000100000000000000000000000000000000000000000000000000000000000000ff000000000000000000000000000000000000000000000000000000000000000000000000000000000000000000000000000000000000000000000000000000c0000000000000000000000000000000000000000000000000000000000000010000000000000000000000000000000000000000000000000000000000000000010000000000000000000000009454f0eabc7c4ea9ebf89190b8bf9051a0468e030000000000000000000000000000000000000000000000000000000000000000)]"
      ],
      "transaction": {
        "from": "0x0ece75f3c36f7df2136dac7633165dbff53de3cd",
        "to": "0x6edce65403992e310a62460808c4b910d972f10f",
        "gas": "0x501c6154",
        "value": "0x0",
        "input": "0x6dbd9f9000000000000000000000000064493bd2f250cc05d75bca93cc95447e2834638b0000000000000000000000009a289b849b32ff69a95f8584a03343a33ff6e5fd0000000000000000000000000000000000000000000000000000000000000060000000000000000000000000000000000000000000000000000000000000000400000000000000000000000000000000000000000000000000000000000000800000000000000000000000000000000000000000000000000000000000000140000000000000000000000000000000000000000000000000000000000000030000000000000000000000000000000000000000000000000000000000000003c00000000000000000000000000000000000000000000000000000000000009d3600000000000000000000000000000000000000000000000000000000000000010000000000000000000000000000000000000000000000000000000000000060000000000000000000000000000000000000000000000000000000000000004000000000000000000000000000000000000000000000000000000000000027100000000000000000000000008beee743829af63f5b37e52d5ef8477ef12511de0000000000000000000000000000000000000000000000000000000000009d360000000000000000000000000000000000000000000000000000000000000002000000000000000000000000000000000000000000000000000000000000006000000000000000000000000000000000000000000000000000000000000001400000000000000000000000000000000000000000000000000000000000000020000000000000000000000000000000000000000000000000000000000000000f000000000000000000000000000000000000000000000000000000000000000100000000000000000000000000000000000000000000000000000000000000ff000000000000000000000000000000000000000000000000000000000000000000000000000000000000000000000000000000000000000000000000000000c0000000000000000000000000000000000000000000000000000000000000010000000000000000000000000000000000000000000000000000000000000000010000000000000000000000009454f0eabc7c4ea9ebf89190b8bf9051a0468e0300000000000000000000000000000000000000000000000000000000000000000000000000000000000000000000000000000000000000000000000000009d3500000000000000000000000000000000000000000000000000000000000000010000000000000000000000000000000000000000000000000000000000000060000000000000000000000000000000000000000000000000000000000000004000000000000000000000000000000000000000000000000000000000000027100000000000000000000000008beee743829af63f5b37e52d5ef8477ef12511de0000000000000000000000000000000000000000000000000000000000009d350000000000000000000000000000000000000000000000000000000000000002000000000000000000000000000000000000000000000000000000000000006000000000000000000000000000000000000000000000000000000000000001400000000000000000000000000000000000000000000000000000000000000020000000000000000000000000000000000000000000000000000000000000000f000000000000000000000000000000000000000000000000000000000000000100000000000000000000000000000000000000000000000000000000000000ff000000000000000000000000000000000000000000000000000000000000000000000000000000000000000000000000000000000000000000000000000000c0000000000000000000000000000000000000000000000000000000000000010000000000000000000000000000000000000000000000000000000000000000010000000000000000000000009454f0eabc7c4ea9ebf89190b8bf9051a0468e030000000000000000000000000000000000000000000000000000000000000000",
        "nonce": "0x64",
        "chainId": "0x138b"
      },
      "additionalContracts": [],
      "isFixedGasLimit": false
    },
    {
      "hash": "0x738dd4be103484fa34ec61d756976e9b8c3a74621149fbc81946c934d4aafdb7",
      "transactionType": "CALL",
      "contractName": null,
      "contractAddress": "0x6edce65403992e310a62460808c4b910d972f10f",
      "function": "setConfig(address,address,(uint32,uint32,bytes)[])",
      "arguments": [
        "0xa7f7368b6CBdF2bE4d508ad85d2CC1F3248a9ED5",
        "0x9A289B849b32FF69A95F8584a03343a33Ff6e5Fd",
        "[(40246, 1, 0x00000000000000000000000000000000000000000000000000000000000027100000000000000000000000008beee743829af63f5b37e52d5ef8477ef12511de), (40246, 2, 0x0000000000000000000000000000000000000000000000000000000000000020000000000000000000000000000000000000000000000000000000000000000f000000000000000000000000000000000000000000000000000000000000000100000000000000000000000000000000000000000000000000000000000000ff000000000000000000000000000000000000000000000000000000000000000000000000000000000000000000000000000000000000000000000000000000c0000000000000000000000000000000000000000000000000000000000000010000000000000000000000000000000000000000000000000000000000000000010000000000000000000000009454f0eabc7c4ea9ebf89190b8bf9051a0468e030000000000000000000000000000000000000000000000000000000000000000), (40245, 1, 0x00000000000000000000000000000000000000000000000000000000000027100000000000000000000000008beee743829af63f5b37e52d5ef8477ef12511de), (40245, 2, 0x0000000000000000000000000000000000000000000000000000000000000020000000000000000000000000000000000000000000000000000000000000000f000000000000000000000000000000000000000000000000000000000000000100000000000000000000000000000000000000000000000000000000000000ff000000000000000000000000000000000000000000000000000000000000000000000000000000000000000000000000000000000000000000000000000000c0000000000000000000000000000000000000000000000000000000000000010000000000000000000000000000000000000000000000000000000000000000010000000000000000000000009454f0eabc7c4ea9ebf89190b8bf9051a0468e030000000000000000000000000000000000000000000000000000000000000000)]"
      ],
      "transaction": {
        "from": "0x0ece75f3c36f7df2136dac7633165dbff53de3cd",
        "to": "0x6edce65403992e310a62460808c4b910d972f10f",
        "gas": "0x501c6154",
        "value": "0x0",
        "input": "0x6dbd9f90000000000000000000000000a7f7368b6cbdf2be4d508ad85d2cc1f3248a9ed50000000000000000000000009a289b849b32ff69a95f8584a03343a33ff6e5fd0000000000000000000000000000000000000000000000000000000000000060000000000000000000000000000000000000000000000000000000000000000400000000000000000000000000000000000000000000000000000000000000800000000000000000000000000000000000000000000000000000000000000140000000000000000000000000000000000000000000000000000000000000030000000000000000000000000000000000000000000000000000000000000003c00000000000000000000000000000000000000000000000000000000000009d3600000000000000000000000000000000000000000000000000000000000000010000000000000000000000000000000000000000000000000000000000000060000000000000000000000000000000000000000000000000000000000000004000000000000000000000000000000000000000000000000000000000000027100000000000000000000000008beee743829af63f5b37e52d5ef8477ef12511de0000000000000000000000000000000000000000000000000000000000009d360000000000000000000000000000000000000000000000000000000000000002000000000000000000000000000000000000000000000000000000000000006000000000000000000000000000000000000000000000000000000000000001400000000000000000000000000000000000000000000000000000000000000020000000000000000000000000000000000000000000000000000000000000000f000000000000000000000000000000000000000000000000000000000000000100000000000000000000000000000000000000000000000000000000000000ff000000000000000000000000000000000000000000000000000000000000000000000000000000000000000000000000000000000000000000000000000000c0000000000000000000000000000000000000000000000000000000000000010000000000000000000000000000000000000000000000000000000000000000010000000000000000000000009454f0eabc7c4ea9ebf89190b8bf9051a0468e0300000000000000000000000000000000000000000000000000000000000000000000000000000000000000000000000000000000000000000000000000009d3500000000000000000000000000000000000000000000000000000000000000010000000000000000000000000000000000000000000000000000000000000060000000000000000000000000000000000000000000000000000000000000004000000000000000000000000000000000000000000000000000000000000027100000000000000000000000008beee743829af63f5b37e52d5ef8477ef12511de0000000000000000000000000000000000000000000000000000000000009d350000000000000000000000000000000000000000000000000000000000000002000000000000000000000000000000000000000000000000000000000000006000000000000000000000000000000000000000000000000000000000000001400000000000000000000000000000000000000000000000000000000000000020000000000000000000000000000000000000000000000000000000000000000f000000000000000000000000000000000000000000000000000000000000000100000000000000000000000000000000000000000000000000000000000000ff000000000000000000000000000000000000000000000000000000000000000000000000000000000000000000000000000000000000000000000000000000c0000000000000000000000000000000000000000000000000000000000000010000000000000000000000000000000000000000000000000000000000000000010000000000000000000000009454f0eabc7c4ea9ebf89190b8bf9051a0468e030000000000000000000000000000000000000000000000000000000000000000",
        "nonce": "0x65",
        "chainId": "0x138b"
      },
      "additionalContracts": [],
      "isFixedGasLimit": false
    }
  ],
  "receipts": [
    {
      "status": "0x1",
      "cumulativeGasUsed": "0x60fcdac0",
      "logs": [
        {
          "address": "0x9a289b849b32ff69a95f8584a03343a33ff6e5fd",
          "topics": [
            "0x779cb2dd9d2bb1be1737d05435d744facbfb84a2a4912e21379d39beddcdc805"
          ],
          "data": "0x00000000000000000000000064493bd2f250cc05d75bca93cc95447e2834638b0000000000000000000000000000000000000000000000000000000000009d3600000000000000000000000000000000000000000000000000000000000027100000000000000000000000008beee743829af63f5b37e52d5ef8477ef12511de",
          "blockHash": "0x488feb43d3232b19c7043a04f8d90c407fd5b33334b317408eadf722376d6b0c",
          "blockNumber": "0x1fd509d",
          "blockTimestamp": "0x6966241b",
          "transactionHash": "0x256281a3c366265bf7dedc5538066a7230ad9eadeaab2456cb9f5525df24400a",
          "transactionIndex": "0x2",
          "logIndex": "0x1",
          "removed": false
        },
        {
          "address": "0x9a289b849b32ff69a95f8584a03343a33ff6e5fd",
          "topics": [
            "0x82118522aa536ac0e96cc5c689407ae42b89d592aa133890a01f1509842f5081"
          ],
          "data": "0x00000000000000000000000064493bd2f250cc05d75bca93cc95447e2834638b0000000000000000000000000000000000000000000000000000000000009d360000000000000000000000000000000000000000000000000000000000000060000000000000000000000000000000000000000000000000000000000000000f000000000000000000000000000000000000000000000000000000000000000100000000000000000000000000000000000000000000000000000000000000ff000000000000000000000000000000000000000000000000000000000000000000000000000000000000000000000000000000000000000000000000000000c0000000000000000000000000000000000000000000000000000000000000010000000000000000000000000000000000000000000000000000000000000000010000000000000000000000009454f0eabc7c4ea9ebf89190b8bf9051a0468e030000000000000000000000000000000000000000000000000000000000000000",
          "blockHash": "0x488feb43d3232b19c7043a04f8d90c407fd5b33334b317408eadf722376d6b0c",
          "blockNumber": "0x1fd509d",
          "blockTimestamp": "0x6966241b",
          "transactionHash": "0x256281a3c366265bf7dedc5538066a7230ad9eadeaab2456cb9f5525df24400a",
          "transactionIndex": "0x2",
          "logIndex": "0x2",
          "removed": false
        },
        {
          "address": "0x9a289b849b32ff69a95f8584a03343a33ff6e5fd",
          "topics": [
            "0x779cb2dd9d2bb1be1737d05435d744facbfb84a2a4912e21379d39beddcdc805"
          ],
          "data": "0x00000000000000000000000064493bd2f250cc05d75bca93cc95447e2834638b0000000000000000000000000000000000000000000000000000000000009d3500000000000000000000000000000000000000000000000000000000000027100000000000000000000000008beee743829af63f5b37e52d5ef8477ef12511de",
          "blockHash": "0x488feb43d3232b19c7043a04f8d90c407fd5b33334b317408eadf722376d6b0c",
          "blockNumber": "0x1fd509d",
          "blockTimestamp": "0x6966241b",
          "transactionHash": "0x256281a3c366265bf7dedc5538066a7230ad9eadeaab2456cb9f5525df24400a",
          "transactionIndex": "0x2",
          "logIndex": "0x3",
          "removed": false
        },
        {
          "address": "0x9a289b849b32ff69a95f8584a03343a33ff6e5fd",
          "topics": [
            "0x82118522aa536ac0e96cc5c689407ae42b89d592aa133890a01f1509842f5081"
          ],
          "data": "0x00000000000000000000000064493bd2f250cc05d75bca93cc95447e2834638b0000000000000000000000000000000000000000000000000000000000009d350000000000000000000000000000000000000000000000000000000000000060000000000000000000000000000000000000000000000000000000000000000f000000000000000000000000000000000000000000000000000000000000000100000000000000000000000000000000000000000000000000000000000000ff000000000000000000000000000000000000000000000000000000000000000000000000000000000000000000000000000000000000000000000000000000c0000000000000000000000000000000000000000000000000000000000000010000000000000000000000000000000000000000000000000000000000000000010000000000000000000000009454f0eabc7c4ea9ebf89190b8bf9051a0468e030000000000000000000000000000000000000000000000000000000000000000",
          "blockHash": "0x488feb43d3232b19c7043a04f8d90c407fd5b33334b317408eadf722376d6b0c",
          "blockNumber": "0x1fd509d",
          "blockTimestamp": "0x6966241b",
          "transactionHash": "0x256281a3c366265bf7dedc5538066a7230ad9eadeaab2456cb9f5525df24400a",
          "transactionIndex": "0x2",
          "logIndex": "0x4",
          "removed": false
        }
      ],
      "logsBloom": "0x00400000000000000000000000000000000000000000000000000000000000000000000000000000000000000000000400000000000000000000000000000000000000000000000000000040000000000000000000000000002000000000000000000000000000000000000000000000000000000000000000000000000000000000000000000000000000000000000000000000000000000000000000000000000000000000000000000002000000000000000000000000000000000000000200000000000000000000000000000000000000000000000000000000000000000008000000080000000000000000000000000000000000000000000000000010",
      "type": "0x2",
      "transactionHash": "0x256281a3c366265bf7dedc5538066a7230ad9eadeaab2456cb9f5525df24400a",
      "transactionIndex": "0x2",
      "blockHash": "0x488feb43d3232b19c7043a04f8d90c407fd5b33334b317408eadf722376d6b0c",
      "blockNumber": "0x1fd509d",
      "gasUsed": "0x32ac70c0",
      "effectiveGasPrice": "0x1312d01",
      "from": "0x0ece75f3c36f7df2136dac7633165dbff53de3cd",
      "to": "0x6edce65403992e310a62460808c4b910d972f10f",
      "contractAddress": null,
      "l1Fee": "0x13e4849294edf",
      "l1FeeScalar": "0.01",
      "l1GasPrice": "0x3ecd390c",
      "l1GasUsed": "0x27dc",
      "tokenRatio": "0xcb7"
    },
    {
      "status": "0x1",
      "cumulativeGasUsed": "0x32a78e0c",
      "logs": [
        {
          "address": "0x9a289b849b32ff69a95f8584a03343a33ff6e5fd",
          "topics": [
            "0x779cb2dd9d2bb1be1737d05435d744facbfb84a2a4912e21379d39beddcdc805"
          ],
          "data": "0x000000000000000000000000a7f7368b6cbdf2be4d508ad85d2cc1f3248a9ed50000000000000000000000000000000000000000000000000000000000009d3600000000000000000000000000000000000000000000000000000000000027100000000000000000000000008beee743829af63f5b37e52d5ef8477ef12511de",
          "blockHash": "0xf922bbb27c971f34f42287a9ea22722319b6becbf324263d09604e64fb079824",
          "blockNumber": "0x1fd50a0",
          "blockTimestamp": "0x69662421",
          "transactionHash": "0x738dd4be103484fa34ec61d756976e9b8c3a74621149fbc81946c934d4aafdb7",
          "transactionIndex": "0x1",
          "logIndex": "0x0",
          "removed": false
        },
        {
          "address": "0x9a289b849b32ff69a95f8584a03343a33ff6e5fd",
          "topics": [
            "0x82118522aa536ac0e96cc5c689407ae42b89d592aa133890a01f1509842f5081"
          ],
          "data": "0x000000000000000000000000a7f7368b6cbdf2be4d508ad85d2cc1f3248a9ed50000000000000000000000000000000000000000000000000000000000009d360000000000000000000000000000000000000000000000000000000000000060000000000000000000000000000000000000000000000000000000000000000f000000000000000000000000000000000000000000000000000000000000000100000000000000000000000000000000000000000000000000000000000000ff000000000000000000000000000000000000000000000000000000000000000000000000000000000000000000000000000000000000000000000000000000c0000000000000000000000000000000000000000000000000000000000000010000000000000000000000000000000000000000000000000000000000000000010000000000000000000000009454f0eabc7c4ea9ebf89190b8bf9051a0468e030000000000000000000000000000000000000000000000000000000000000000",
          "blockHash": "0xf922bbb27c971f34f42287a9ea22722319b6becbf324263d09604e64fb079824",
          "blockNumber": "0x1fd50a0",
          "blockTimestamp": "0x69662421",
          "transactionHash": "0x738dd4be103484fa34ec61d756976e9b8c3a74621149fbc81946c934d4aafdb7",
          "transactionIndex": "0x1",
          "logIndex": "0x1",
          "removed": false
        },
        {
          "address": "0x9a289b849b32ff69a95f8584a03343a33ff6e5fd",
          "topics": [
            "0x779cb2dd9d2bb1be1737d05435d744facbfb84a2a4912e21379d39beddcdc805"
          ],
          "data": "0x000000000000000000000000a7f7368b6cbdf2be4d508ad85d2cc1f3248a9ed50000000000000000000000000000000000000000000000000000000000009d3500000000000000000000000000000000000000000000000000000000000027100000000000000000000000008beee743829af63f5b37e52d5ef8477ef12511de",
          "blockHash": "0xf922bbb27c971f34f42287a9ea22722319b6becbf324263d09604e64fb079824",
          "blockNumber": "0x1fd50a0",
          "blockTimestamp": "0x69662421",
          "transactionHash": "0x738dd4be103484fa34ec61d756976e9b8c3a74621149fbc81946c934d4aafdb7",
          "transactionIndex": "0x1",
          "logIndex": "0x2",
          "removed": false
        },
        {
          "address": "0x9a289b849b32ff69a95f8584a03343a33ff6e5fd",
          "topics": [
            "0x82118522aa536ac0e96cc5c689407ae42b89d592aa133890a01f1509842f5081"
          ],
          "data": "0x000000000000000000000000a7f7368b6cbdf2be4d508ad85d2cc1f3248a9ed50000000000000000000000000000000000000000000000000000000000009d350000000000000000000000000000000000000000000000000000000000000060000000000000000000000000000000000000000000000000000000000000000f000000000000000000000000000000000000000000000000000000000000000100000000000000000000000000000000000000000000000000000000000000ff000000000000000000000000000000000000000000000000000000000000000000000000000000000000000000000000000000000000000000000000000000c0000000000000000000000000000000000000000000000000000000000000010000000000000000000000000000000000000000000000000000000000000000010000000000000000000000009454f0eabc7c4ea9ebf89190b8bf9051a0468e030000000000000000000000000000000000000000000000000000000000000000",
          "blockHash": "0xf922bbb27c971f34f42287a9ea22722319b6becbf324263d09604e64fb079824",
          "blockNumber": "0x1fd50a0",
          "blockTimestamp": "0x69662421",
          "transactionHash": "0x738dd4be103484fa34ec61d756976e9b8c3a74621149fbc81946c934d4aafdb7",
          "transactionIndex": "0x1",
          "logIndex": "0x3",
          "removed": false
        }
      ],
      "logsBloom": "0x00400000000000000000000000000000000000000000000000000000000000000000000000000000000000000000000400000000000000000000000000000000000000000000000000000040000000000000000000000000002000000000000000000000000000000000000000000000000000000000000000000000000000000000000000000000000000000000000000000000000000000000000000000000000000000000000000000002000000000000000000000000000000000000000200000000000000000000000000000000000000000000000000000000000000000008000000080000000000000000000000000000000000000000000000000010",
      "type": "0x2",
      "transactionHash": "0x738dd4be103484fa34ec61d756976e9b8c3a74621149fbc81946c934d4aafdb7",
      "transactionIndex": "0x1",
      "blockHash": "0xf922bbb27c971f34f42287a9ea22722319b6becbf324263d09604e64fb079824",
      "blockNumber": "0x1fd50a0",
      "gasUsed": "0x32a6d6ef",
      "effectiveGasPrice": "0x1312d01",
      "from": "0x0ece75f3c36f7df2136dac7633165dbff53de3cd",
      "to": "0x6edce65403992e310a62460808c4b910d972f10f",
      "contractAddress": null,
      "l1Fee": "0x137a431ee030c",
      "l1FeeScalar": "0.01",
      "l1GasPrice": "0x3d904e11",
      "l1GasUsed": "0x27d0",
      "tokenRatio": "0xcb7"
    }
  ],
  "libraries": [],
  "pending": [],
  "returns": {},
  "timestamp": 1768301603194,
  "chain": 5003,
  "commit": "c0cd3ab"
}