{
  "transactions": [
    {
      "hash": "0xd93ec00320de38c93d1f97986542f04ebfa8531ceecb13ee9fcb6b4300f458e9",
      "transactionType": "CALL",
      "contractName": null,
      "contractAddress": "0x6edce65403992e310a62460808c4b910d972f10f",
      "function": "setConfig(address,address,(uint32,uint32,bytes)[])",
      "arguments": [
        "0x886ba47579DC4f5DcB53ffd20429089A7788C072",
        "0x9A289B849b32FF69A95F8584a03343a33Ff6e5Fd",
        "[(40246, 1, 0x00000000000000000000000000000000000000000000000000000000000027100000000000000000000000008beee743829af63f5b37e52d5ef8477ef12511de), (40246, 2, 0x0000000000000000000000000000000000000000000000000000000000000020000000000000000000000000000000000000000000000000000000000000000f000000000000000000000000000000000000000000000000000000000000000100000000000000000000000000000000000000000000000000000000000000ff000000000000000000000000000000000000000000000000000000000000000000000000000000000000000000000000000000000000000000000000000000c0000000000000000000000000000000000000000000000000000000000000010000000000000000000000000000000000000000000000000000000000000000010000000000000000000000009454f0eabc7c4ea9ebf89190b8bf9051a0468e030000000000000000000000000000000000000000000000000000000000000000), (40245, 1, 0x00000000000000000000000000000000000000000000000000000000000027100000000000000000000000008beee743829af63f5b37e52d5ef8477ef12511de), (40245, 2, 0x0000000000000000000000000000000000000000000000000000000000000020000000000000000000000000000000000000000000000000000000000000000f000000000000000000000000000000000000000000000000000000000000000100000000000000000000000000000000000000000000000000000000000000ff000000000000000000000000000000000000000000000000000000000000000000000000000000000000000000000000000000000000000000000000000000c0000000000000000000000000000000000000000000000000000000000000010000000000000000000000000000000000000000000000000000000000000000010000000000000000000000009454f0eabc7c4ea9ebf89190b8bf9051a0468e030000000000000000000000000000000000000000000000000000000000000000)]"
      ],
      "transaction": {
        "from": "0x0ece75f3c36f7df2136dac7633165dbff53de3cd",
        "to": "0x6edce65403992e310a62460808c4b910d972f10f",
        "gas": "0x4f774c2f",
        "value": "0x0",
        "input": "0x6dbd9f90000000000000000000000000886ba47579dc4f5dcb53ffd20429089a7788c0720000000000000000000000009a289b849b32ff69a95f8584a03343a33ff6e5fd0000000000000000000000000000000000000000000000000000000000000060000000000000000000000000000000000000000000000000000000000000000400000000000000000000000000000000000000000000000000000000000000800000000000000000000000000000000000000000000000000000000000000140000000000000000000000000000000000000000000000000000000000000030000000000000000000000000000000000000000000000000000000000000003c00000000000000000000000000000000000000000000000000000000000009d3600000000000000000000000000000000000000000000000000000000000000010000000000000000000000000000000000000000000000000000000000000060000000000000000000000000000000000000000000000000000000000000004000000000000000000000000000000000000000000000000000000000000027100000000000000000000000008beee743829af63f5b37e52d5ef8477ef12511de0000000000000000000000000000000000000000000000000000000000009d360000000000000000000000000000000000000000000000000000000000000002000000000000000000000000000000000000000000000000000000000000006000000000000000000000000000000000000000000000000000000000000001400000000000000000000000000000000000000000000000000000000000000020000000000000000000000000000000000000000000000000000000000000000f000000000000000000000000000000000000000000000000000000000000000100000000000000000000000000000000000000000000000000000000000000ff000000000000000000000000000000000000000000000000000000000000000000000000000000000000000000000000000000000000000000000000000000c0000000000000000000000000000000000000000000000000000000000000010000000000000000000000000000000000000000000000000000000000000000010000000000000000000000009454f0eabc7c4ea9ebf89190b8bf9051a0468e0300000000000000000000000000000000000000000000000000000000000000000000000000000000000000000000000000000000000000000000000000009d3500000000000000000000000000000000000000000000000000000000000000010000000000000000000000000000000000000000000000000000000000000060000000000000000000000000000000000000000000000000000000000000004000000000000000000000000000000000000000000000000000000000000027100000000000000000000000008beee743829af63f5b37e52d5ef8477ef12511de0000000000000000000000000000000000000000000000000000000000009d350000000000000000000000000000000000000000000000000000000000000002000000000000000000000000000000000000000000000000000000000000006000000000000000000000000000000000000000000000000000000000000001400000000000000000000000000000000000000000000000000000000000000020000000000000000000000000000000000000000000000000000000000000000f000000000000000000000000000000000000000000000000000000000000000100000000000000000000000000000000000000000000000000000000000000ff000000000000000000000000000000000000000000000000000000000000000000000000000000000000000000000000000000000000000000000000000000c0000000000000000000000000000000000000000000000000000000000000010000000000000000000000000000000000000000000000000000000000000000010000000000000000000000009454f0eabc7c4ea9ebf89190b8bf9051a0468e030000000000000000000000000000000000000000000000000000000000000000",
        "nonce": "0x1b",
        "chainId": "0x138b"
      },
      "additionalContracts": [],
      "isFixedGasLimit": false
    },
    {
      "hash": "0xe095a8e281aa631aa9d2b662ce31310497811f06e1dd2a5202856cbcd0117600",
      "transactionType": "CALL",
      "contractName": null,
      "contractAddress": "0x6edce65403992e310a62460808c4b910d972f10f",
      "function": "setConfig(address,address,(uint32,uint32,bytes)[])",
      "arguments": [
        "0xC327486Db1417644f201d84414bbeA6C8A948bef",
        "0x9A289B849b32FF69A95F8584a03343a33Ff6e5Fd",
        "[(40246, 1, 0x00000000000000000000000000000000000000000000000000000000000027100000000000000000000000008beee743829af63f5b37e52d5ef8477ef12511de), (40246, 2, 0x0000000000000000000000000000000000000000000000000000000000000020000000000000000000000000000000000000000000000000000000000000000f000000000000000000000000000000000000000000000000000000000000000100000000000000000000000000000000000000000000000000000000000000ff000000000000000000000000000000000000000000000000000000000000000000000000000000000000000000000000000000000000000000000000000000c0000000000000000000000000000000000000000000000000000000000000010000000000000000000000000000000000000000000000000000000000000000010000000000000000000000009454f0eabc7c4ea9ebf89190b8bf9051a0468e030000000000000000000000000000000000000000000000000000000000000000), (40245, 1, 0x00000000000000000000000000000000000000000000000000000000000027100000000000000000000000008beee743829af63f5b37e52d5ef8477ef12511de), (40245, 2, 0x0000000000000000000000000000000000000000000000000000000000000020000000000000000000000000000000000000000000000000000000000000000f000000000000000000000000000000000000000000000000000000000000000100000000000000000000000000000000000000000000000000000000000000ff000000000000000000000000000000000000000000000000000000000000000000000000000000000000000000000000000000000000000000000000000000c0000000000000000000000000000000000000000000000000000000000000010000000000000000000000000000000000000000000000000000000000000000010000000000000000000000009454f0eabc7c4ea9ebf89190b8bf9051a0468e030000000000000000000000000000000000000000000000000000000000000000)]"
      ],
      "transaction": {
        "from": "0x0ece75f3c36f7df2136dac7633165dbff53de3cd",
        "to": "0x6edce65403992e310a62460808c4b910d972f10f",
        "gas": "0x4f774c2f",
        "value": "0x0",
        "input": "0x6dbd9f90000000000000000000000000c327486db1417644f201d84414bbea6c8a948bef0000000000000000000000009a289b849b32ff69a95f8584a03343a33ff6e5fd0000000000000000000000000000000000000000000000000000000000000060000000000000000000000000000000000000000000000000000000000000000400000000000000000000000000000000000000000000000000000000000000800000000000000000000000000000000000000000000000000000000000000140000000000000000000000000000000000000000000000000000000000000030000000000000000000000000000000000000000000000000000000000000003c00000000000000000000000000000000000000000000000000000000000009d3600000000000000000000000000000000000000000000000000000000000000010000000000000000000000000000000000000000000000000000000000000060000000000000000000000000000000000000000000000000000000000000004000000000000000000000000000000000000000000000000000000000000027100000000000000000000000008beee743829af63f5b37e52d5ef8477ef12511de0000000000000000000000000000000000000000000000000000000000009d360000000000000000000000000000000000000000000000000000000000000002000000000000000000000000000000000000000000000000000000000000006000000000000000000000000000000000000000000000000000000000000001400000000000000000000000000000000000000000000000000000000000000020000000000000000000000000000000000000000000000000000000000000000f000000000000000000000000000000000000000000000000000000000000000100000000000000000000000000000000000000000000000000000000000000ff000000000000000000000000000000000000000000000000000000000000000000000000000000000000000000000000000000000000000000000000000000c0000000000000000000000000000000000000000000000000000000000000010000000000000000000000000000000000000000000000000000000000000000010000000000000000000000009454f0eabc7c4ea9ebf89190b8bf9051a0468e0300000000000000000000000000000000000000000000000000000000000000000000000000000000000000000000000000000000000000000000000000009d3500000000000000000000000000000000000000000000000000000000000000010000000000000000000000000000000000000000000000000000000000000060000000000000000000000000000000000000000000000000000000000000004000000000000000000000000000000000000000000000000000000000000027100000000000000000000000008beee743829af63f5b37e52d5ef8477ef12511de0000000000000000000000000000000000000000000000000000000000009d350000000000000000000000000000000000000000000000000000000000000002000000000000000000000000000000000000000000000000000000000000006000000000000000000000000000000000000000000000000000000000000001400000000000000000000000000000000000000000000000000000000000000020000000000000000000000000000000000000000000000000000000000000000f000000000000000000000000000000000000000000000000000000000000000100000000000000000000000000000000000000000000000000000000000000ff000000000000000000000000000000000000000000000000000000000000000000000000000000000000000000000000000000000000000000000000000000c0000000000000000000000000000000000000000000000000000000000000010000000000000000000000000000000000000000000000000000000000000000010000000000000000000000009454f0eabc7c4ea9ebf89190b8bf9051a0468e030000000000000000000000000000000000000000000000000000000000000000",
        "nonce": "0x1c",
        "chainId": "0x138b"
      },
      "additionalContracts": [],
      "isFixedGasLimit": false
    }
  ],
  "receipts": [
    {
      "status": "0x1",
      "cumulativeGasUsed": "0x31df92ca",
      "logs": [
        {
          "address": "0x9a289b849b32ff69a95f8584a03343a33ff6e5fd",
          "topics": [
            "0x779cb2dd9d2bb1be1737d05435d744facbfb84a2a4912e21379d39beddcdc805"
          ],
          "data": "0x000000000000000000000000886ba47579dc4f5dcb53ffd20429089a7788c0720000000000000000000000000000000000000000000000000000000000009d3600000000000000000000000000000000000000000000000000000000000027100000000000000000000000008beee743829af63f5b37e52d5ef8477ef12511de",
          "blockHash": "0x21acf03ea17d4fcf42bf6ce099b7b12f24a19899d798cc581ae13134643d5bfb",
          "blockNumber": "0x1fccfc0",
          "blockTimestamp": "0x69652261",
          "transactionHash": "0xd93ec00320de38c93d1f97986542f04ebfa8531ceecb13ee9fcb6b4300f458e9",
          "transactionIndex": "0x1",
          "logIndex": "0x0",
          "removed": false
        },
        {
          "address": "0x9a289b849b32ff69a95f8584a03343a33ff6e5fd",
          "topics": [
            "0x82118522aa536ac0e96cc5c689407ae42b89d592aa133890a01f1509842f5081"
          ],
          "data": "0x000000000000000000000000886ba47579dc4f5dcb53ffd20429089a7788c0720000000000000000000000000000000000000000000000000000000000009d360000000000000000000000000000000000000000000000000000000000000060000000000000000000000000000000000000000000000000000000000000000f000000000000000000000000000000000000000000000000000000000000000100000000000000000000000000000000000000000000000000000000000000ff000000000000000000000000000000000000000000000000000000000000000000000000000000000000000000000000000000000000000000000000000000c0000000000000000000000000000000000000000000000000000000000000010000000000000000000000000000000000000000000000000000000000000000010000000000000000000000009454f0eabc7c4ea9ebf89190b8bf9051a0468e030000000000000000000000000000000000000000000000000000000000000000",
          "blockHash": "0x21acf03ea17d4fcf42bf6ce099b7b12f24a19899d798cc581ae13134643d5bfb",
          "blockNumber": "0x1fccfc0",
          "blockTimestamp": "0x69652261",
          "transactionHash": "0xd93ec00320de38c93d1f97986542f04ebfa8531ceecb13ee9fcb6b4300f458e9",
          "transactionIndex": "0x1",
          "logIndex": "0x1",
          "removed": false
        },
        {
          "address": "0x9a289b849b32ff69a95f8584a03343a33ff6e5fd",
          "topics": [
            "0x779cb2dd9d2bb1be1737d05435d744facbfb84a2a4912e21379d39beddcdc805"
          ],
          "data": "0x000000000000000000000000886ba47579dc4f5dcb53ffd20429089a7788c0720000000000000000000000000000000000000000000000000000000000009d3500000000000000000000000000000000000000000000000000000000000027100000000000000000000000008beee743829af63f5b37e52d5ef8477ef12511de",
          "blockHash": "0x21acf03ea17d4fcf42bf6ce099b7b12f24a19899d798cc581ae13134643d5bfb",
          "blockNumber": "0x1fccfc0",
          "blockTimestamp": "0x69652261",
          "transactionHash": "0xd93ec00320de38c93d1f97986542f04ebfa8531ceecb13ee9fcb6b4300f458e9",
          "transactionIndex": "0x1",
          "logIndex": "0x2",
          "removed": false
        },
        {
          "address": "0x9a289b849b32ff69a95f8584a03343a33ff6e5fd",
          "topics": [
            "0x82118522aa536ac0e96cc5c689407ae42b89d592aa133890a01f1509842f5081"
          ],
          "data": "0x000000000000000000000000886ba47579dc4f5dcb53ffd20429089a7788c0720000000000000000000000000000000000000000000000000000000000009d350000000000000000000000000000000000000000000000000000000000000060000000000000000000000000000000000000000000000000000000000000000f000000000000000000000000000000000000000000000000000000000000000100000000000000000000000000000000000000000000000000000000000000ff000000000000000000000000000000000000000000000000000000000000000000000000000000000000000000000000000000000000000000000000000000c0000000000000000000000000000000000000000000000000000000000000010000000000000000000000000000000000000000000000000000000000000000010000000000000000000000009454f0eabc7c4ea9ebf89190b8bf9051a0468e030000000000000000000000000000000000000000000000000000000000000000",
          "blockHash": "0x21acf03ea17d4fcf42bf6ce099b7b12f24a19899d798cc581ae13134643d5bfb",
          "blockNumber": "0x1fccfc0",
          "blockTimestamp": "0x69652261",
          "transactionHash": "0xd93ec00320de38c93d1f97986542f04ebfa8531ceecb13ee9fcb6b4300f458e9",
          "transactionIndex": "0x1",
          "logIndex": "0x3",
          "removed": false
        }
      ],
      "logsBloom": "0x00400000000000000000000000000000000000000000000000000000000000000000000000000000000000000000000400000000000000000000000000000000000000000000000000000040000000000000000000000000002000000000000000000000000000000000000000000000000000000000000000000000000000000000000000000000000000000000000000000000000000000000000000000000000000000000000000000002000000000000000000000000000000000000000200000000000000000000000000000000000000000000000000000000000000000008000000080000000000000000000000000000000000000000000000000010",
      "type": "0x2",
      "transactionHash": "0xd93ec00320de38c93d1f97986542f04ebfa8531ceecb13ee9fcb6b4300f458e9",
      "transactionIndex": "0x1",
      "blockHash": "0x21acf03ea17d4fcf42bf6ce099b7b12f24a19899d798cc581ae13134643d5bfb",
      "blockNumber": "0x1fccfc0",
      "gasUsed": "0x31dedbad",
      "effectiveGasPrice": "0x1e66bed0",
      "from": "0x0ece75f3c36f7df2136dac7633165dbff53de3cd",
      "to": "0x6edce65403992e310a62460808c4b910d972f10f",
      "contractAddress": null,
      "l1Fee": "0x5800e1002577",
      "l1FeeScalar": "0.01",
      "l1GasPrice": "0x112d4c4a",
      "l1GasUsed": "0x281c",
      "tokenRatio": "0xcc6"
    },
    {
      "status": "0x1",
      "cumulativeGasUsed": "0x31dfe690",
      "logs": [
        {
          "address": "0x9a289b849b32ff69a95f8584a03343a33ff6e5fd",
          "topics": [
            "0x779cb2dd9d2bb1be1737d05435d744facbfb84a2a4912e21379d39beddcdc805"
          ],
          "data": "0x000000000000000000000000c327486db1417644f201d84414bbea6c8a948bef0000000000000000000000000000000000000000000000000000000000009d3600000000000000000000000000000000000000000000000000000000000027100000000000000000000000008beee743829af63f5b37e52d5ef8477ef12511de",
          "blockHash": "0x8f39b75213c9e7065af9acbd8e5d9a841f91bbb78f1f74bfd00d47cd9d820a29",
          "blockNumber": "0x1fccfc4",
          "blockTimestamp": "0x69652269",
          "transactionHash": "0xe095a8e281aa631aa9d2b662ce31310497811f06e1dd2a5202856cbcd0117600",
          "transactionIndex": "0x1",
          "logIndex": "0x0",
          "removed": false
        },
        {
          "address": "0x9a289b849b32ff69a95f8584a03343a33ff6e5fd",
          "topics": [
            "0x82118522aa536ac0e96cc5c689407ae42b89d592aa133890a01f1509842f5081"
          ],
          "data": "0x000000000000000000000000c327486db1417644f201d84414bbea6c8a948bef0000000000000000000000000000000000000000000000000000000000009d360000000000000000000000000000000000000000000000000000000000000060000000000000000000000000000000000000000000000000000000000000000f000000000000000000000000000000000000000000000000000000000000000100000000000000000000000000000000000000000000000000000000000000ff000000000000000000000000000000000000000000000000000000000000000000000000000000000000000000000000000000000000000000000000000000c0000000000000000000000000000000000000000000000000000000000000010000000000000000000000000000000000000000000000000000000000000000010000000000000000000000009454f0eabc7c4ea9ebf89190b8bf9051a0468e030000000000000000000000000000000000000000000000000000000000000000",
          "blockHash": "0x8f39b75213c9e7065af9acbd8e5d9a841f91bbb78f1f74bfd00d47cd9d820a29",
          "blockNumber": "0x1fccfc4",
          "blockTimestamp": "0x69652269",
          "transactionHash": "0xe095a8e281aa631aa9d2b662ce31310497811f06e1dd2a5202856cbcd0117600",
          "transactionIndex": "0x1",
          "logIndex": "0x1",
          "removed": false
        },
        {
          "address": "0x9a289b849b32ff69a95f8584a03343a33ff6e5fd",
          "topics": [
            "0x779cb2dd9d2bb1be1737d05435d744facbfb84a2a4912e21379d39beddcdc805"
          ],
          "data": "0x000000000000000000000000c327486db1417644f201d84414bbea6c8a948bef0000000000000000000000000000000000000000000000000000000000009d3500000000000000000000000000000000000000000000000000000000000027100000000000000000000000008beee743829af63f5b37e52d5ef8477ef12511de",
          "blockHash": "0x8f39b75213c9e7065af9acbd8e5d9a841f91bbb78f1f74bfd00d47cd9d820a29",
          "blockNumber": "0x1fccfc4",
          "blockTimestamp": "0x69652269",
          "transactionHash": "0xe095a8e281aa631aa9d2b662ce31310497811f06e1dd2a5202856cbcd0117600",
          "transactionIndex": "0x1",
          "logIndex": "0x2",
          "removed": false
        },
        {
          "address": "0x9a289b849b32ff69a95f8584a03343a33ff6e5fd",
          "topics": [
            "0x82118522aa536ac0e96cc5c689407ae42b89d592aa133890a01f1509842f5081"
          ],
          "data": "0x000000000000000000000000c327486db1417644f201d84414bbea6c8a948bef0000000000000000000000000000000000000000000000000000000000009d350000000000000000000000000000000000000000000000000000000000000060000000000000000000000000000000000000000000000000000000000000000f000000000000000000000000000000000000000000000000000000000000000100000000000000000000000000000000000000000000000000000000000000ff000000000000000000000000000000000000000000000000000000000000000000000000000000000000000000000000000000000000000000000000000000c0000000000000000000000000000000000000000000000000000000000000010000000000000000000000000000000000000000000000000000000000000000010000000000000000000000009454f0eabc7c4ea9ebf89190b8bf9051a0468e030000000000000000000000000000000000000000000000000000000000000000",
          "blockHash": "0x8f39b75213c9e7065af9acbd8e5d9a841f91bbb78f1f74bfd00d47cd9d820a29",
          "blockNumber": "0x1fccfc4",
          "blockTimestamp": "0x69652269",
          "transactionHash": "0xe095a8e281aa631aa9d2b662ce31310497811f06e1dd2a5202856cbcd0117600",
          "transactionIndex": "0x1",
          "logIndex": "0x3",
          "removed": false
        }
      ],
      "logsBloom": "0x00400000000000000000000000000000000000000000000000000000000000000000000000000000000000000000000400000000000000000000000000000000000000000000000000000040000000000000000000000000002000000000000000000000000000000000000000000000000000000000000000000000000000000000000000000000000000000000000000000000000000000000000000000000000000000000000000000002000000000000000000000000000000000000000200000000000000000000000000000000000000000000000000000000000000000008000000080000000000000000000000000000000000000000000000000010",
      "type": "0x2",
      "transactionHash": "0xe095a8e281aa631aa9d2b662ce31310497811f06e1dd2a5202856cbcd0117600",
      "transactionIndex": "0x1",
      "blockHash": "0x8f39b75213c9e7065af9acbd8e5d9a841f91bbb78f1f74bfd00d47cd9d820a29",
      "blockNumber": "0x1fccfc4",
      "gasUsed": "0x31df2f73",
      "effectiveGasPrice": "0x1e66bed0",
      "from": "0x0ece75f3c36f7df2136dac7633165dbff53de3cd",
      "to": "0x6edce65403992e310a62460808c4b910d972f10f",
      "contractAddress": null,
      "l1Fee": "0x6114d9c2d0de",
      "l1FeeScalar": "0.01",
      "l1GasPrice": "0x12f2e6fd",
      "l1GasUsed": "0x281c",
      "tokenRatio": "0xcc6"
    }
  ],
  "libraries": [],
  "pending": [],
  "returns": {},
  "timestamp": 1768235629774,
  "chain": 5003,
  "commit": "584f810"
}