{
  "transactions": [
    {
      "hash": "0x561f665759b4710ef4d51c8b16b0a94fc4417442b38e4937ff457c61c6103da0",
      "transactionType": "CALL",
      "contractName": null,
      "contractAddress": "0xc635db9f6a988ee1e83cb9fb786eb3ec3670f991",
      "function": "borrowDebtCrossChain(((uint32,bytes32,uint256,uint256,bytes,bytes,bytes),(uint256,uint256),uint256,uint256,uint128))",
      "arguments": [
        "((40245, 0x0000000000000000000000000ece75f3c36f7df2136dac7633165dbff53de3cd, 1000000, 0, 0x, 0x, 0x), (207799595721857548, 0), 1000000, 84532, 200000)"
      ],
      "transaction": {
        "from": "0x0ece75f3c36f7df2136dac7633165dbff53de3cd",
        "to": "0xc635db9f6a988ee1e83cb9fb786eb3ec3670f991",
        "gas": "0xeaf37ccb",
        "value": "0x2e240a19f789a0c",
        "input": "0x0f89fc31000000000000000000000000000000000000000000000000000000000000002000000000000000000000000000000000000000000000000000000000000000c000000000000000000000000000000000000000000000000002e240a19f789a0c000000000000000000000000000000000000000000000000000000000000000000000000000000000000000000000000000000000000000000000000000f42400000000000000000000000000000000000000000000000000000000000014a340000000000000000000000000000000000000000000000000000000000030d400000000000000000000000000000000000000000000000000000000000009d350000000000000000000000000ece75f3c36f7df2136dac7633165dbff53de3cd00000000000000000000000000000000000000000000000000000000000f4240000000000000000000000000000000000000000000000000000000000000000000000000000000000000000000000000000000000000000000000000000000e000000000000000000000000000000000000000000000000000000000000001000000000000000000000000000000000000000000000000000000000000000120000000000000000000000000000000000000000000000000000000000000000000000000000000000000000000000000000000000000000000000000000000000000000000000000000000000000000000000000000000000000000000000000",
        "nonce": "0xab",
        "chainId": "0x138b"
      },
      "additionalContracts": [],
      "isFixedGasLimit": false
    }
  ],
  "receipts": [
    {
      "status": "0x1",
      "cumulativeGasUsed": "0x917d81df",
      "logs": [
        {
          "address": "0x115bb47975fe256437f85cffa72c9b65def0bcd4",
          "topics": [
            "0xe9d95e658b0c714da9de2e12fbed253a24a632058a074dc7c90b8b6618675c7c"
          ],
          "data": "0x000000000000000000000000000000000000000000000000000000000000028700000000000000000000000000000000000000000000000000000000000002460000000000000000000000000000000000000000000000000000000000000040",
          "blockHash": "0xb1edf6671755c59eb10e29f47aa8c3f018faaf0f559f404429b759779338a2cb",
          "blockNumber": "0x1fdc728",
          "blockTimestamp": "0x69671131",
          "transactionHash": "0x561f665759b4710ef4d51c8b16b0a94fc4417442b38e4937ff457c61c6103da0",
          "transactionIndex": "0x1",
          "logIndex": "0x0",
          "removed": false
        },
        {
          "address": "0xdf05e9abf64da281b3cbd8ac3581022ec4841fb2",
          "topics": [
            "0xddf252ad1be2c89b69c2b068fc378daa952ba7f163c4a11628f55a4df523b3ef",
            "0x000000000000000000000000c635db9f6a988ee1e83cb9fb786eb3ec3670f991",
            "0x0000000000000000000000005e6aad48fb0a23e9540a5eaffb87846e8ef04c42"
          ],
          "data": "0x00000000000000000000000000000000000000000000000000000000000003e8",
          "blockHash": "0xb1edf6671755c59eb10e29f47aa8c3f018faaf0f559f404429b759779338a2cb",
          "blockNumber": "0x1fdc728",
          "blockTimestamp": "0x69671131",
          "transactionHash": "0x561f665759b4710ef4d51c8b16b0a94fc4417442b38e4937ff457c61c6103da0",
          "transactionIndex": "0x1",
          "logIndex": "0x1",
          "removed": false
        },
        {
          "address": "0xdf05e9abf64da281b3cbd8ac3581022ec4841fb2",
          "topics": [
            "0xddf252ad1be2c89b69c2b068fc378daa952ba7f163c4a11628f55a4df523b3ef",
            "0x000000000000000000000000c635db9f6a988ee1e83cb9fb786eb3ec3670f991",
            "0x0000000000000000000000000ece75f3c36f7df2136dac7633165dbff53de3cd"
          ],
          "data": "0x0000000000000000000000000000000000000000000000000000000000000064",
          "blockHash": "0xb1edf6671755c59eb10e29f47aa8c3f018faaf0f559f404429b759779338a2cb",
          "blockNumber": "0x1fdc728",
          "blockTimestamp": "0x69671131",
          "transactionHash": "0x561f665759b4710ef4d51c8b16b0a94fc4417442b38e4937ff457c61c6103da0",
          "transactionIndex": "0x1",
          "logIndex": "0x2",
          "removed": false
        },
        {
          "address": "0xdf05e9abf64da281b3cbd8ac3581022ec4841fb2",
          "topics": [
            "0x8c5be1e5ebec7d5bd14f71427d1e84f3dd0314c0f7b2291e5b200ac8c7c3b925",
            "0x000000000000000000000000c635db9f6a988ee1e83cb9fb786eb3ec3670f991",
            "0x000000000000000000000000a7f7368b6cbdf2be4d508ad85d2cc1f3248a9ed5"
          ],
          "data": "0x00000000000000000000000000000000000000000000000000000000000f3df4",
          "blockHash": "0xb1edf6671755c59eb10e29f47aa8c3f018faaf0f559f404429b759779338a2cb",
          "blockNumber": "0x1fdc728",
          "blockTimestamp": "0x69671131",
          "transactionHash": "0x561f665759b4710ef4d51c8b16b0a94fc4417442b38e4937ff457c61c6103da0",
          "transactionIndex": "0x1",
          "logIndex": "0x3",
          "removed": false
        },
        {
          "address": "0xdf05e9abf64da281b3cbd8ac3581022ec4841fb2",
          "topics": [
            "0xddf252ad1be2c89b69c2b068fc378daa952ba7f163c4a11628f55a4df523b3ef",
            "0x000000000000000000000000c635db9f6a988ee1e83cb9fb786eb3ec3670f991",
            "0x000000000000000000000000a7f7368b6cbdf2be4d508ad85d2cc1f3248a9ed5"
          ],
          "data": "0x0000000000000000000000000000000000000000000000000000000000000000",
          "blockHash": "0xb1edf6671755c59eb10e29f47aa8c3f018faaf0f559f404429b759779338a2cb",
          "blockNumber": "0x1fdc728",
          "blockTimestamp": "0x69671131",
          "transactionHash": "0x561f665759b4710ef4d51c8b16b0a94fc4417442b38e4937ff457c61c6103da0",
          "transactionIndex": "0x1",
          "logIndex": "0x4",
          "removed": false
        },
        {
          "address": "0xa7f7368b6cbdf2be4d508ad85d2cc1f3248a9ed5",
          "topics": [
            "0x59c79d79be0fadf59fe689b6952b7ebe90201a3a1f00d4a31982377890bc6046"
          ],
          "data": "0x000000000000000000000000c635db9f6a988ee1e83cb9fb786eb3ec3670f99100000000000000000000000000000000000000000000000000000000000f3df4",
          "blockHash": "0xb1edf6671755c59eb10e29f47aa8c3f018faaf0f559f404429b759779338a2cb",
          "blockNumber": "0x1fdc728",
          "blockTimestamp": "0x69671131",
          "transactionHash": "0x561f665759b4710ef4d51c8b16b0a94fc4417442b38e4937ff457c61c6103da0",
          "transactionIndex": "0x1",
          "logIndex": "0x5",
          "removed": false
        },
        {
          "address": "0x9a289b849b32ff69a95f8584a03343a33ff6e5fd",
          "topics": [
            "0x61ed099e74a97a1d7f8bb0952a88ca8b7b8ebd00c126ea04671f92a81213318a"
          ],
          "data": "0x0000000000000000000000008beee743829af63f5b37e52d5ef8477ef12511de00000000000000000000000000000000000000000000000002bdec8e5cd94ea8",
          "blockHash": "0xb1edf6671755c59eb10e29f47aa8c3f018faaf0f559f404429b759779338a2cb",
          "blockNumber": "0x1fdc728",
          "blockTimestamp": "0x69671131",
          "transactionHash": "0x561f665759b4710ef4d51c8b16b0a94fc4417442b38e4937ff457c61c6103da0",
          "transactionIndex": "0x1",
          "logIndex": "0x6",
          "removed": false
        },
        {
          "address": "0x9a289b849b32ff69a95f8584a03343a33ff6e5fd",
          "topics": [
            "0x07ea52d82345d6e838192107d8fd7123d9c2ec8e916cd0aad13fd2b60db24644"
          ],
          "data": "0x000000000000000000000000000000000000000000000000000000000000006000000000000000000000000000000000000000000000000000000000000000a000000000000000000000000000000000000000000000000000000000000000c000000000000000000000000000000000000000000000000000000000000000010000000000000000000000009454f0eabc7c4ea9ebf89190b8bf9051a0468e030000000000000000000000000000000000000000000000000000000000000000000000000000000000000000000000000000000000000000000000000000000100000000000000000000000000000000000000000000000000245413429f4b64",
          "blockHash": "0xb1edf6671755c59eb10e29f47aa8c3f018faaf0f559f404429b759779338a2cb",
          "blockNumber": "0x1fdc728",
          "blockTimestamp": "0x69671131",
          "transactionHash": "0x561f665759b4710ef4d51c8b16b0a94fc4417442b38e4937ff457c61c6103da0",
          "transactionIndex": "0x1",
          "logIndex": "0x7",
          "removed": false
        },
        {
          "address": "0x6edce65403992e310a62460808c4b910d972f10f",
          "topics": [
            "0x1ab700d4ced0c005b164c0f789fd09fcbb0156d4c2041b8a3bfbcd961cd1567f"
          ],
          "data": "0x000000000000000000000000000000000000000000000000000000000000006000000000000000000000000000000000000000000000000000000000000001200000000000000000000000009a289b849b32ff69a95f8584a03343a33ff6e5fd000000000000000000000000000000000000000000000000000000000000009901000000000000000100009d36000000000000000000000000a7f7368b6cbdf2be4d508ad85d2cc1f3248a9ed500009d3500000000000000000000000002a66b51fc24e08535a6cfe1e11e532d8a089212294c3f5c06b41b2bd45137f85b07e07a907db974f7643079395122ee415c4e780000000000000000000000000ece75f3c36f7df2136dac7633165dbff53de3cd0000000000000000000000000000000000000000000000000000000000000000000000000000000000000000000016000301001101000000000000000000000000000186a000000000000000000000",
          "blockHash": "0xb1edf6671755c59eb10e29f47aa8c3f018faaf0f559f404429b759779338a2cb",
          "blockNumber": "0x1fdc728",
          "blockTimestamp": "0x69671131",
          "transactionHash": "0x561f665759b4710ef4d51c8b16b0a94fc4417442b38e4937ff457c61c6103da0",
          "transactionIndex": "0x1",
          "logIndex": "0x8",
          "removed": false
        },
        {
          "address": "0xa7f7368b6cbdf2be4d508ad85d2cc1f3248a9ed5",
          "topics": [
            "0x85496b760a4b7f8d66384b9df21b381f5d1b1e79f229a47aaf4c232edc2fe59a",
            "0x294c3f5c06b41b2bd45137f85b07e07a907db974f7643079395122ee415c4e78",
            "0x000000000000000000000000c635db9f6a988ee1e83cb9fb786eb3ec3670f991"
          ],
          "data": "0x0000000000000000000000000000000000000000000000000000000000009d3500000000000000000000000000000000000000000000000000000000000000000000000000000000000000000000000000000000000000000000000000000000",
          "blockHash": "0xb1edf6671755c59eb10e29f47aa8c3f018faaf0f559f404429b759779338a2cb",
          "blockNumber": "0x1fdc728",
          "blockTimestamp": "0x69671131",
          "transactionHash": "0x561f665759b4710ef4d51c8b16b0a94fc4417442b38e4937ff457c61c6103da0",
          "transactionIndex": "0x1",
          "logIndex": "0x9",
          "removed": false
        },
        {
          "address": "0xc635db9f6a988ee1e83cb9fb786eb3ec3670f991",
          "topics": [
            "0x7625176ac7826c81414fa702cc32f41ce7445b1831f316608842267322702c2b"
          ],
          "data": "0x0000000000000000000000000ece75f3c36f7df2136dac7633165dbff53de3cd00000000000000000000000000000000000000000000000000000000000003e800000000000000000000000000000000000000000000000000000000000f3df400000000000000000000000000000000000000000000000000000000000f422d00000000000000000000000000000000000000000000000000000000000000a000000000000000000000000000000000000000000000000000000000000000c000000000000000000000000000000000000000000000000002e240a19f789a0c000000000000000000000000000000000000000000000000000000000000000000000000000000000000000000000000000000000000000000000000000f42400000000000000000000000000000000000000000000000000000000000014a340000000000000000000000000000000000000000000000000000000000030d400000000000000000000000000000000000000000000000000000000000009d350000000000000000000000000ece75f3c36f7df2136dac7633165dbff53de3cd00000000000000000000000000000000000000000000000000000000000f4240000000000000000000000000000000000000000000000000000000000000000000000000000000000000000000000000000000000000000000000000000000e000000000000000000000000000000000000000000000000000000000000001000000000000000000000000000000000000000000000000000000000000000120000000000000000000000000000000000000000000000000000000000000000000000000000000000000000000000000000000000000000000000000000000000000000000000000000000000000000000000000000000000000000000000000",
          "blockHash": "0xb1edf6671755c59eb10e29f47aa8c3f018faaf0f559f404429b759779338a2cb",
          "blockNumber": "0x1fdc728",
          "blockTimestamp": "0x69671131",
          "transactionHash": "0x561f665759b4710ef4d51c8b16b0a94fc4417442b38e4937ff457c61c6103da0",
          "transactionIndex": "0x1",
          "logIndex": "0xa",
          "removed": false
        }
      ],
      "logsBloom": "0x00400000000000000000000000000000000000000000000000000000000000000000000000000008200000000000000400000000040000000000000000200000000402001000000000000008004000000018010000000000000000000000000000000010090000008200000400000000000000000000200400008010000000000000000000000022000000080040000800000000000000000000000000000000020040008000000000100800000000000000081000400002000440800008000000000002000000000100404080000000000000000200000000000000000000000010240000290000000000000000002000080000008000000000000000400000",
      "type": "0x2",
      "transactionHash": "0x561f665759b4710ef4d51c8b16b0a94fc4417442b38e4937ff457c61c6103da0",
      "transactionIndex": "0x1",
      "blockHash": "0xb1edf6671755c59eb10e29f47aa8c3f018faaf0f559f404429b759779338a2cb",
      "blockNumber": "0x1fdc728",
      "gasUsed": "0x917ccac2",
      "effectiveGasPrice": "0x132b3a0",
      "from": "0x0ece75f3c36f7df2136dac7633165dbff53de3cd",
      "to": "0xc635db9f6a988ee1e83cb9fb786eb3ec3670f991",
      "contractAddress": null,
      "l1Fee": "0xa31df17b8ee2",
      "l1FeeScalar": "0.01",
      "l1GasPrice": "0x3fa6d0fb",
      "l1GasUsed": "0x137c",
      "tokenRatio": "0xd27"
    }
  ],
  "libraries": [],
  "pending": [],
  "returns": {},
  "timestamp": 1768362304785,
  "chain": 5003,
  "commit": "1e39656"
}