{
  "transactions": [
    {
      "hash": "0x0fd9ce7c133c363b10ef7d8c532c985fa31aff934d718b3a5c99e55441ac97d8",
      "transactionType": "CALL",
      "contractName": null,
      "contractAddress": "0x64493bd2f250cc05d75bca93cc95447e2834638b",
      "function": "setPeer(uint32,bytes32)",
      "arguments": [
        "40246",
        "0x00000000000000000000000064493bd2f250cc05d75bca93cc95447e2834638b"
      ],
      "transaction": {
        "from": "0x0ece75f3c36f7df2136dac7633165dbff53de3cd",
        "to": "0x64493bd2f250cc05d75bca93cc95447e2834638b",
        "gas": "0xf2676c1",
        "value": "0x0",
        "input": "0x3400288b0000000000000000000000000000000000000000000000000000000000009d3600000000000000000000000064493bd2f250cc05d75bca93cc95447e2834638b",
        "nonce": "0x68",
        "chainId": "0x138b"
      },
      "additionalContracts": [],
      "isFixedGasLimit": false
    },
    {
      "hash": "0xd0e8236db44b5d5e58793b003cf8bb0e876a1c53adfc766e4a280a8a6f64d3e7",
      "transactionType": "CALL",
      "contractName": null,
      "contractAddress": "0x64493bd2f250cc05d75bca93cc95447e2834638b",
      "function": "setPeer(uint32,bytes32)",
      "arguments": [
        "40245",
        "0x000000000000000000000000175867caf278eb0610f216f3e0a6e671f2382e22"
      ],
      "transaction": {
        "from": "0x0ece75f3c36f7df2136dac7633165dbff53de3cd",
        "to": "0x64493bd2f250cc05d75bca93cc95447e2834638b",
        "gas": "0xf2676c1",
        "value": "0x0",
        "input": "0x3400288b0000000000000000000000000000000000000000000000000000000000009d35000000000000000000000000175867caf278eb0610f216f3e0a6e671f2382e22",
        "nonce": "0x69",
        "chainId": "0x138b"
      },
      "additionalContracts": [],
      "isFixedGasLimit": false
    },
    {
      "hash": "0xae360012f99098951e537c7533a81f315787940ae62dabc8cb1974977c1d37fc",
      "transactionType": "CALL",
      "contractName": null,
      "contractAddress": "0xa7f7368b6cbdf2be4d508ad85d2cc1f3248a9ed5",
      "function": "setPeer(uint32,bytes32)",
      "arguments": [
        "40246",
        "0x000000000000000000000000a7f7368b6cbdf2be4d508ad85d2cc1f3248a9ed5"
      ],
      "transaction": {
        "from": "0x0ece75f3c36f7df2136dac7633165dbff53de3cd",
        "to": "0xa7f7368b6cbdf2be4d508ad85d2cc1f3248a9ed5",
        "gas": "0xf2676c1",
        "value": "0x0",
        "input": "0x3400288b0000000000000000000000000000000000000000000000000000000000009d36000000000000000000000000a7f7368b6cbdf2be4d508ad85d2cc1f3248a9ed5",
        "nonce": "0x6a",
        "chainId": "0x138b"
      },
      "additionalContracts": [],
      "isFixedGasLimit": false
    },
    {
      "hash": "0xf4092c8a3cd539b49506b1439264c0ed44e369c8a3367c6f6980f79047c2f3c8",
      "transactionType": "CALL",
      "contractName": null,
      "contractAddress": "0xa7f7368b6cbdf2be4d508ad85d2cc1f3248a9ed5",
      "function": "setPeer(uint32,bytes32)",
      "arguments": [
        "40245",
        "0x00000000000000000000000039926da4905f5edb956f5db5f2e2ff044e0882b2"
      ],
      "transaction": {
        "from": "0x0ece75f3c36f7df2136dac7633165dbff53de3cd",
        "to": "0xa7f7368b6cbdf2be4d508ad85d2cc1f3248a9ed5",
        "gas": "0xf2676c1",
        "value": "0x0",
        "input": "0x3400288b0000000000000000000000000000000000000000000000000000000000009d3500000000000000000000000039926da4905f5edb956f5db5f2e2ff044e0882b2",
        "nonce": "0x6b",
        "chainId": "0x138b"
      },
      "additionalContracts": [],
      "isFixedGasLimit": false
    }
  ],
  "receipts": [
    {
      "status": "0x1",
      "cumulativeGasUsed": "0x9a2186c",
      "logs": [
        {
          "address": "0x64493bd2f250cc05d75bca93cc95447e2834638b",
          "topics": [
            "0x238399d427b947898edb290f5ff0f9109849b1c3ba196a42e35f00c50a54b98b"
          ],
          "data": "0x0000000000000000000000000000000000000000000000000000000000009d3600000000000000000000000064493bd2f250cc05d75bca93cc95447e2834638b",
          "blockHash": "0xd61013f2a923b73ba5ce2749c0d20c6908a6c69ed6304bd6e747de93d4e5389f",
          "blockNumber": "0x1fd5123",
          "blockTimestamp": "0x69662527",
          "transactionHash": "0x0fd9ce7c133c363b10ef7d8c532c985fa31aff934d718b3a5c99e55441ac97d8",
          "transactionIndex": "0x1",
          "logIndex": "0x0",
          "removed": false
        }
      ],
      "logsBloom": "0x00000000000000000000000000000000000000000000000000000000000000000000000000000000000000000000000000000000000000000800000000000000000000000000000000000000000000000000000000000000000000000000000000000000000000000000000000000000000000000000000002000000000000000000000000000000000000000000000000000000000000000000000200000008000000000000000000000000000000000000000000000000000002000000000000000000000000000000000000000000000000000000000000040000000000000000000000000000000000000000000000000000000000000000000000000000",
      "type": "0x2",
      "transactionHash": "0x0fd9ce7c133c363b10ef7d8c532c985fa31aff934d718b3a5c99e55441ac97d8",
      "transactionIndex": "0x1",
      "blockHash": "0xd61013f2a923b73ba5ce2749c0d20c6908a6c69ed6304bd6e747de93d4e5389f",
      "blockNumber": "0x1fd5123",
      "gasUsed": "0x9a11e83",
      "effectiveGasPrice": "0x1312d01",
      "from": "0x0ece75f3c36f7df2136dac7633165dbff53de3cd",
      "to": "0x64493bd2f250cc05d75bca93cc95447e2834638b",
      "contractAddress": null,
      "l1Fee": "0x4d050369cbde",
      "l1FeeScalar": "0.01",
      "l1GasPrice": "0x3d893a13",
      "l1GasUsed": "0x9d8",
      "tokenRatio": "0xcb7"
    },
    {
      "status": "0x1",
      "cumulativeGasUsed": "0x99de2cc",
      "logs": [
        {
          "address": "0x64493bd2f250cc05d75bca93cc95447e2834638b",
          "topics": [
            "0x238399d427b947898edb290f5ff0f9109849b1c3ba196a42e35f00c50a54b98b"
          ],
          "data": "0x0000000000000000000000000000000000000000000000000000000000009d35000000000000000000000000175867caf278eb0610f216f3e0a6e671f2382e22",
          "blockHash": "0x2c2d47255d2db200c7627b20a57a7531518bdea0dd649d1280507136a85e5f93",
          "blockNumber": "0x1fd5128",
          "blockTimestamp": "0x69662531",
          "transactionHash": "0xd0e8236db44b5d5e58793b003cf8bb0e876a1c53adfc766e4a280a8a6f64d3e7",
          "transactionIndex": "0x1",
          "logIndex": "0x0",
          "removed": false
        }
      ],
      "logsBloom": "0x00000000000000000000000000000000000000000000000000000000000000000000000000000000000000000000000000000000000000000800000000000000000000000000000000000000000000000000000000000000000000000000000000000000000000000000000000000000000000000000000002000000000000000000000000000000000000000000000000000000000000000000000200000008000000000000000000000000000000000000000000000000000002000000000000000000000000000000000000000000000000000000000000040000000000000000000000000000000000000000000000000000000000000000000000000000",
      "type": "0x2",
      "transactionHash": "0xd0e8236db44b5d5e58793b003cf8bb0e876a1c53adfc766e4a280a8a6f64d3e7",
      "transactionIndex": "0x1",
      "blockHash": "0x2c2d47255d2db200c7627b20a57a7531518bdea0dd649d1280507136a85e5f93",
      "blockNumber": "0x1fd5128",
      "gasUsed": "0x99d0aeb",
      "effectiveGasPrice": "0x1312d01",
      "from": "0x0ece75f3c36f7df2136dac7633165dbff53de3cd",
      "to": "0x64493bd2f250cc05d75bca93cc95447e2834638b",
      "contractAddress": null,
      "l1Fee": "0x482e2ce718f6",
      "l1FeeScalar": "0.01",
      "l1GasPrice": "0x39ab6fef",
      "l1GasUsed": "0x9d8",
      "tokenRatio": "0xcb7"
    },
    {
      "status": "0x1",
      "cumulativeGasUsed": "0x99dc8ad",
      "logs": [
        {
          "address": "0xa7f7368b6cbdf2be4d508ad85d2cc1f3248a9ed5",
          "topics": [
            "0x238399d427b947898edb290f5ff0f9109849b1c3ba196a42e35f00c50a54b98b"
          ],
          "data": "0x0000000000000000000000000000000000000000000000000000000000009d36000000000000000000000000a7f7368b6cbdf2be4d508ad85d2cc1f3248a9ed5",
          "blockHash": "0x58fa6203896bfc0724608e6085e4adf751185a7fb52d292076c11428be4a8e84",
          "blockNumber": "0x1fd512c",
          "blockTimestamp": "0x69662539",
          "transactionHash": "0xae360012f99098951e537c7533a81f315787940ae62dabc8cb1974977c1d37fc",
          "transactionIndex": "0x1",
          "logIndex": "0x0",
          "removed": false
        }
      ],
      "logsBloom": "0x00000000000000000000000000000000000000000000000000000000000000000000000000000000000000000000000000000000000000000800000000000000000000000000000000000000000000000008000000000000000000000000000000000010010000000000000000000000000000000000000000000000000000000000000000000000000000000000000000000000000000000000000000000000000000000000000000000000000000000000000000000000000002000000000000000000000000000000000000000000000000000000000000040000000000000000000000000000000000000000000000000000000000000000000000000000",
      "type": "0x2",
      "transactionHash": "0xae360012f99098951e537c7533a81f315787940ae62dabc8cb1974977c1d37fc",
      "transactionIndex": "0x1",
      "blockHash": "0x58fa6203896bfc0724608e6085e4adf751185a7fb52d292076c11428be4a8e84",
      "blockNumber": "0x1fd512c",
      "gasUsed": "0x99d1190",
      "effectiveGasPrice": "0x1312d01",
      "from": "0x0ece75f3c36f7df2136dac7633165dbff53de3cd",
      "to": "0xa7f7368b6cbdf2be4d508ad85d2cc1f3248a9ed5",
      "contractAddress": null,
      "l1Fee": "0x482e2ce718f6",
      "l1FeeScalar": "0.01",
      "l1GasPrice": "0x39ab6fef",
      "l1GasUsed": "0x9d8",
      "tokenRatio": "0xcb7"
    },
    {
      "status": "0x1",
      "cumulativeGasUsed": "0x9a55095",
      "logs": [
        {
          "address": "0xa7f7368b6cbdf2be4d508ad85d2cc1f3248a9ed5",
          "topics": [
            "0x238399d427b947898edb290f5ff0f9109849b1c3ba196a42e35f00c50a54b98b"
          ],
          "data": "0x0000000000000000000000000000000000000000000000000000000000009d3500000000000000000000000039926da4905f5edb956f5db5f2e2ff044e0882b2",
          "blockHash": "0x5a8e2aef790339b828fc03645c9d29d22bbb08f7786932f4590f0e970df3e9ee",
          "blockNumber": "0x1fd5130",
          "blockTimestamp": "0x69662541",
          "transactionHash": "0xf4092c8a3cd539b49506b1439264c0ed44e369c8a3367c6f6980f79047c2f3c8",
          "transactionIndex": "0x1",
          "logIndex": "0x0",
          "removed": false
        }
      ],
      "logsBloom": "0x00000000000000000000000000000000000000000000000000000000000000000000000000000000000000000000000000000000000000000800000000000000000000000000000000000000000000000008000000000000000000000000000000000010010000000000000000000000000000000000000000000000000000000000000000000000000000000000000000000000000000000000000000000000000000000000000000000000000000000000000000000000000002000000000000000000000000000000000000000000000000000000000000040000000000000000000000000000000000000000000000000000000000000000000000000000",
      "type": "0x2",
      "transactionHash": "0xf4092c8a3cd539b49506b1439264c0ed44e369c8a3367c6f6980f79047c2f3c8",
      "transactionIndex": "0x1",
      "blockHash": "0x5a8e2aef790339b828fc03645c9d29d22bbb08f7786932f4590f0e970df3e9ee",
      "blockNumber": "0x1fd5130",
      "gasUsed": "0x9a49978",
      "effectiveGasPrice": "0x1312d01",
      "from": "0x0ece75f3c36f7df2136dac7633165dbff53de3cd",
      "to": "0xa7f7368b6cbdf2be4d508ad85d2cc1f3248a9ed5",
      "contractAddress": null,
      "l1Fee": "0x51328ce05376",
      "l1FeeScalar": "0.01",
      "l1GasPrice": "0x40dfc02f",
      "l1GasUsed": "0x9d8",
      "tokenRatio": "0xcb7"
    }
  ],
  "libraries": [],
  "pending": [],
  "returns": {},
  "timestamp": 1768301890859,
  "chain": 5003,
  "commit": "c0cd3ab"
}