{
  "transactions": [
    {
      "hash": "0x74e3bd6f0e4ab328aac2ba882251a723ddd64a36226aa7e6aa2a47bcfbc349d4",
      "transactionType": "CALL",
      "contractName": null,
      "contractAddress": "0x64493bd2f250cc05d75bca93cc95447e2834638b",
      "function": "setPeer(uint32,bytes32)",
      "arguments": [
        "40246",
        "0x00000000000000000000000064493bd2f250cc05d75bca93cc95447e2834638b"
      ],
      "transaction": {
        "from": "0x0ece75f3c36f7df2136dac7633165dbff53de3cd",
        "to": "0x64493bd2f250cc05d75bca93cc95447e2834638b",
        "gas": "0x9082dbb",
        "value": "0x0",
        "input": "0x3400288b0000000000000000000000000000000000000000000000000000000000009d3600000000000000000000000064493bd2f250cc05d75bca93cc95447e2834638b",
        "nonce": "0x74",
        "chainId": "0x138b"
      },
      "additionalContracts": [],
      "isFixedGasLimit": false
    },
    {
      "hash": "0x4a3a3c40c536e6a2aa34377cefdff6c485369633bde04dc6687b356c097350a8",
      "transactionType": "CALL",
      "contractName": null,
      "contractAddress": "0x64493bd2f250cc05d75bca93cc95447e2834638b",
      "function": "setPeer(uint32,bytes32)",
      "arguments": [
        "40245",
        "0x00000000000000000000000033faba0e0ce340afc4fb03038151ff7ee1d5f95b"
      ],
      "transaction": {
        "from": "0x0ece75f3c36f7df2136dac7633165dbff53de3cd",
        "to": "0x64493bd2f250cc05d75bca93cc95447e2834638b",
        "gas": "0x9e2ea26",
        "value": "0x0",
        "input": "0x3400288b0000000000000000000000000000000000000000000000000000000000009d3500000000000000000000000033faba0e0ce340afc4fb03038151ff7ee1d5f95b",
        "nonce": "0x75",
        "chainId": "0x138b"
      },
      "additionalContracts": [],
      "isFixedGasLimit": false
    },
    {
      "hash": "0xc4058939912d65c0038e74e31e805e476b49e6499833ad9c846c04e18767db60",
      "transactionType": "CALL",
      "contractName": null,
      "contractAddress": "0xa7f7368b6cbdf2be4d508ad85d2cc1f3248a9ed5",
      "function": "setPeer(uint32,bytes32)",
      "arguments": [
        "40246",
        "0x000000000000000000000000a7f7368b6cbdf2be4d508ad85d2cc1f3248a9ed5"
      ],
      "transaction": {
        "from": "0x0ece75f3c36f7df2136dac7633165dbff53de3cd",
        "to": "0xa7f7368b6cbdf2be4d508ad85d2cc1f3248a9ed5",
        "gas": "0x9082dbb",
        "value": "0x0",
        "input": "0x3400288b0000000000000000000000000000000000000000000000000000000000009d36000000000000000000000000a7f7368b6cbdf2be4d508ad85d2cc1f3248a9ed5",
        "nonce": "0x76",
        "chainId": "0x138b"
      },
      "additionalContracts": [],
      "isFixedGasLimit": false
    },
    {
      "hash": "0x9829c86b4d474cfad33b515692dcfdbdf450dab43c57b57e0c666bd053d326db",
      "transactionType": "CALL",
      "contractName": null,
      "contractAddress": "0xa7f7368b6cbdf2be4d508ad85d2cc1f3248a9ed5",
      "function": "setPeer(uint32,bytes32)",
      "arguments": [
        "40245",
        "0x00000000000000000000000002a66b51fc24e08535a6cfe1e11e532d8a089212"
      ],
      "transaction": {
        "from": "0x0ece75f3c36f7df2136dac7633165dbff53de3cd",
        "to": "0xa7f7368b6cbdf2be4d508ad85d2cc1f3248a9ed5",
        "gas": "0x9e2ea26",
        "value": "0x0",
        "input": "0x3400288b0000000000000000000000000000000000000000000000000000000000009d3500000000000000000000000002a66b51fc24e08535a6cfe1e11e532d8a089212",
        "nonce": "0x77",
        "chainId": "0x138b"
      },
      "additionalContracts": [],
      "isFixedGasLimit": false
    }
  ],
  "receipts": [
    {
      "status": "0x1",
      "cumulativeGasUsed": "0x5c86453",
      "logs": [
        {
          "address": "0x64493bd2f250cc05d75bca93cc95447e2834638b",
          "topics": [
            "0x238399d427b947898edb290f5ff0f9109849b1c3ba196a42e35f00c50a54b98b"
          ],
          "data": "0x0000000000000000000000000000000000000000000000000000000000009d3600000000000000000000000064493bd2f250cc05d75bca93cc95447e2834638b",
          "blockHash": "0xd8854d97963979f048d4bf148c82c2812d8c52b97444a2c4deb16079a779f8fa",
          "blockNumber": "0x1fd6472",
          "blockTimestamp": "0x69664bc5",
          "transactionHash": "0x74e3bd6f0e4ab328aac2ba882251a723ddd64a36226aa7e6aa2a47bcfbc349d4",
          "transactionIndex": "0x1",
          "logIndex": "0x0",
          "removed": false
        }
      ],
      "logsBloom": "0x00000000000000000000000000000000000000000000000000000000000000000000000000000000000000000000000000000000000000000800000000000000000000000000000000000000000000000000000000000000000000000000000000000000000000000000000000000000000000000000000002000000000000000000000000000000000000000000000000000000000000000000000200000008000000000000000000000000000000000000000000000000000002000000000000000000000000000000000000000000000000000000000000040000000000000000000000000000000000000000000000000000000000000000000000000000",
      "type": "0x2",
      "transactionHash": "0x74e3bd6f0e4ab328aac2ba882251a723ddd64a36226aa7e6aa2a47bcfbc349d4",
      "transactionIndex": "0x1",
      "blockHash": "0xd8854d97963979f048d4bf148c82c2812d8c52b97444a2c4deb16079a779f8fa",
      "blockNumber": "0x1fd6472",
      "gasUsed": "0x5c7ad36",
      "effectiveGasPrice": "0x132e474",
      "from": "0x0ece75f3c36f7df2136dac7633165dbff53de3cd",
      "to": "0x64493bd2f250cc05d75bca93cc95447e2834638b",
      "contractAddress": null,
      "l1Fee": "0x507882e770c7",
      "l1FeeScalar": "0.01",
      "l1GasPrice": "0x3f128121",
      "l1GasUsed": "0xa08",
      "tokenRatio": "0xcb8"
    },
    {
      "status": "0x1",
      "cumulativeGasUsed": "0x64fdb03",
      "logs": [
        {
          "address": "0x64493bd2f250cc05d75bca93cc95447e2834638b",
          "topics": [
            "0x238399d427b947898edb290f5ff0f9109849b1c3ba196a42e35f00c50a54b98b"
          ],
          "data": "0x0000000000000000000000000000000000000000000000000000000000009d3500000000000000000000000033faba0e0ce340afc4fb03038151ff7ee1d5f95b",
          "blockHash": "0xb23c2c5e511ae43167113206f405264ce32033170af85ecee91a8ae7931479fe",
          "blockNumber": "0x1fd6476",
          "blockTimestamp": "0x69664bcd",
          "transactionHash": "0x4a3a3c40c536e6a2aa34377cefdff6c485369633bde04dc6687b356c097350a8",
          "transactionIndex": "0x1",
          "logIndex": "0x0",
          "removed": false
        }
      ],
      "logsBloom": "0x00000000000000000000000000000000000000000000000000000000000000000000000000000000000000000000000000000000000000000800000000000000000000000000000000000000000000000000000000000000000000000000000000000000000000000000000000000000000000000000000002000000000000000000000000000000000000000000000000000000000000000000000200000008000000000000000000000000000000000000000000000000000002000000000000000000000000000000000000000000000000000000000000040000000000000000000000000000000000000000000000000000000000000000000000000000",
      "type": "0x2",
      "transactionHash": "0x4a3a3c40c536e6a2aa34377cefdff6c485369633bde04dc6687b356c097350a8",
      "transactionIndex": "0x1",
      "blockHash": "0xb23c2c5e511ae43167113206f405264ce32033170af85ecee91a8ae7931479fe",
      "blockNumber": "0x1fd6476",
      "gasUsed": "0x64f23e6",
      "effectiveGasPrice": "0x132e474",
      "from": "0x0ece75f3c36f7df2136dac7633165dbff53de3cd",
      "to": "0x64493bd2f250cc05d75bca93cc95447e2834638b",
      "contractAddress": null,
      "l1Fee": "0x4c18c01168c9",
      "l1FeeScalar": "0.01",
      "l1GasPrice": "0x3bec87ad",
      "l1GasUsed": "0x9fc",
      "tokenRatio": "0xcb8"
    },
    {
      "status": "0x1",
      "cumulativeGasUsed": "0x5c2fa3c",
      "logs": [
        {
          "address": "0xa7f7368b6cbdf2be4d508ad85d2cc1f3248a9ed5",
          "topics": [
            "0x238399d427b947898edb290f5ff0f9109849b1c3ba196a42e35f00c50a54b98b"
          ],
          "data": "0x0000000000000000000000000000000000000000000000000000000000009d36000000000000000000000000a7f7368b6cbdf2be4d508ad85d2cc1f3248a9ed5",
          "blockHash": "0x75b97e8bd119f7b3a9bb1052a834b4fb1fb508d328a9b999a960a623f832fae7",
          "blockNumber": "0x1fd647a",
          "blockTimestamp": "0x69664bd5",
          "transactionHash": "0xc4058939912d65c0038e74e31e805e476b49e6499833ad9c846c04e18767db60",
          "transactionIndex": "0x1",
          "logIndex": "0x0",
          "removed": false
        }
      ],
      "logsBloom": "0x00000000000000000000000000000000000000000000000000000000000000000000000000000000000000000000000000000000000000000800000000000000000000000000000000000000000000000008000000000000000000000000000000000010010000000000000000000000000000000000000000000000000000000000000000000000000000000000000000000000000000000000000000000000000000000000000000000000000000000000000000000000000002000000000000000000000000000000000000000000000000000000000000040000000000000000000000000000000000000000000000000000000000000000000000000000",
      "type": "0x2",
      "transactionHash": "0xc4058939912d65c0038e74e31e805e476b49e6499833ad9c846c04e18767db60",
      "transactionIndex": "0x1",
      "blockHash": "0x75b97e8bd119f7b3a9bb1052a834b4fb1fb508d328a9b999a960a623f832fae7",
      "blockNumber": "0x1fd647a",
      "gasUsed": "0x5c2225b",
      "effectiveGasPrice": "0x132e474",
      "from": "0x0ece75f3c36f7df2136dac7633165dbff53de3cd",
      "to": "0xa7f7368b6cbdf2be4d508ad85d2cc1f3248a9ed5",
      "contractAddress": null,
      "l1Fee": "0x49d08f04e0a0",
      "l1FeeScalar": "0.01",
      "l1GasPrice": "0x39daf5fd",
      "l1GasUsed": "0xa08",
      "tokenRatio": "0xcb8"
    },
    {
      "status": "0x1",
      "cumulativeGasUsed": "0x64df440",
      "logs": [
        {
          "address": "0xa7f7368b6cbdf2be4d508ad85d2cc1f3248a9ed5",
          "topics": [
            "0x238399d427b947898edb290f5ff0f9109849b1c3ba196a42e35f00c50a54b98b"
          ],
          "data": "0x0000000000000000000000000000000000000000000000000000000000009d3500000000000000000000000002a66b51fc24e08535a6cfe1e11e532d8a089212",
          "blockHash": "0xcd6553646a30fa1e08f3eb312990fb6b616c0a9e2d78b76dba77235b6ef2a360",
          "blockNumber": "0x1fd647d",
          "blockTimestamp": "0x69664bdb",
          "transactionHash": "0x9829c86b4d474cfad33b515692dcfdbdf450dab43c57b57e0c666bd053d326db",
          "transactionIndex": "0x1",
          "logIndex": "0x0",
          "removed": false
        }
      ],
      "logsBloom": "0x00000000000000000000000000000000000000000000000000000000000000000000000000000000000000000000000000000000000000000800000000000000000000000000000000000000000000000008000000000000000000000000000000000010010000000000000000000000000000000000000000000000000000000000000000000000000000000000000000000000000000000000000000000000000000000000000000000000000000000000000000000000000002000000000000000000000000000000000000000000000000000000000000040000000000000000000000000000000000000000000000000000000000000000000000000000",
      "type": "0x2",
      "transactionHash": "0x9829c86b4d474cfad33b515692dcfdbdf450dab43c57b57e0c666bd053d326db",
      "transactionIndex": "0x1",
      "blockHash": "0xcd6553646a30fa1e08f3eb312990fb6b616c0a9e2d78b76dba77235b6ef2a360",
      "blockNumber": "0x1fd647d",
      "gasUsed": "0x64d3d23",
      "effectiveGasPrice": "0x132e474",
      "from": "0x0ece75f3c36f7df2136dac7633165dbff53de3cd",
      "to": "0xa7f7368b6cbdf2be4d508ad85d2cc1f3248a9ed5",
      "contractAddress": null,
      "l1Fee": "0x49d08f04e0a0",
      "l1FeeScalar": "0.01",
      "l1GasPrice": "0x39daf5fd",
      "l1GasUsed": "0xa08",
      "tokenRatio": "0xcb8"
    }
  ],
  "libraries": [],
  "pending": [],
  "returns": {},
  "timestamp": 1768311773970,
  "chain": 5003,
  "commit": "c0cd3ab"
}