{
  "transactions": [
    {
      "hash": "0xab78b41c0223220315e2101d20ffd16014d2fb02121041012037d8f9b908298f",
      "transactionType": "CALL",
      "contractName": null,
      "contractAddress": "0x175867caf278eb0610f216f3e0a6e671f2382e22",
      "function": "setPeer(uint32,bytes32)",
      "arguments": [
        "40245",
        "0x000000000000000000000000175867caf278eb0610f216f3e0a6e671f2382e22"
      ],
      "transaction": {
        "from": "0x0ece75f3c36f7df2136dac7633165dbff53de3cd",
        "to": "0x175867caf278eb0610f216f3e0a6e671f2382e22",
        "gas": "0x9965",
        "value": "0x0",
        "input": "0x3400288b0000000000000000000000000000000000000000000000000000000000009d35000000000000000000000000175867caf278eb0610f216f3e0a6e671f2382e22",
        "nonce": "0x20",
        "chainId": "0x14a34"
      },
      "additionalContracts": [],
      "isFixedGasLimit": false
    },
    {
      "hash": "0xe7f6d2d8724346160f7f9b35c3dc2054ac225ff7d2c6ff7e32678caf6f10b8cb",
      "transactionType": "CALL",
      "contractName": null,
      "contractAddress": "0x175867caf278eb0610f216f3e0a6e671f2382e22",
      "function": "setPeer(uint32,bytes32)",
      "arguments": [
        "40246",
        "0x00000000000000000000000064493bd2f250cc05d75bca93cc95447e2834638b"
      ],
      "transaction": {
        "from": "0x0ece75f3c36f7df2136dac7633165dbff53de3cd",
        "to": "0x175867caf278eb0610f216f3e0a6e671f2382e22",
        "gas": "0x9965",
        "value": "0x0",
        "input": "0x3400288b0000000000000000000000000000000000000000000000000000000000009d3600000000000000000000000064493bd2f250cc05d75bca93cc95447e2834638b",
        "nonce": "0x21",
        "chainId": "0x14a34"
      },
      "additionalContracts": [],
      "isFixedGasLimit": false
    },
    {
      "hash": "0xc3645732d26997d51fd545e3e2bfadeeda0d09b64d02d51f15a6962e991b0a34",
      "transactionType": "CALL",
      "contractName": null,
      "contractAddress": "0x39926da4905f5edb956f5db5f2e2ff044e0882b2",
      "function": "setPeer(uint32,bytes32)",
      "arguments": [
        "40245",
        "0x00000000000000000000000039926da4905f5edb956f5db5f2e2ff044e0882b2"
      ],
      "transaction": {
        "from": "0x0ece75f3c36f7df2136dac7633165dbff53de3cd",
        "to": "0x39926da4905f5edb956f5db5f2e2ff044e0882b2",
        "gas": "0x9965",
        "value": "0x0",
        "input": "0x3400288b0000000000000000000000000000000000000000000000000000000000009d3500000000000000000000000039926da4905f5edb956f5db5f2e2ff044e0882b2",
        "nonce": "0x22",
        "chainId": "0x14a34"
      },
      "additionalContracts": [],
      "isFixedGasLimit": false
    },
    {
      "hash": "0x43040fe6fba0bd77c8eb269f512ba89541c4b320940279c8001bb0436d169bf2",
      "transactionType": "CALL",
      "contractName": null,
      "contractAddress": "0x39926da4905f5edb956f5db5f2e2ff044e0882b2",
      "function": "setPeer(uint32,bytes32)",
      "arguments": [
        "40246",
        "0x000000000000000000000000a7f7368b6cbdf2be4d508ad85d2cc1f3248a9ed5"
      ],
      "transaction": {
        "from": "0x0ece75f3c36f7df2136dac7633165dbff53de3cd",
        "to": "0x39926da4905f5edb956f5db5f2e2ff044e0882b2",
        "gas": "0x9965",
        "value": "0x0",
        "input": "0x3400288b0000000000000000000000000000000000000000000000000000000000009d36000000000000000000000000a7f7368b6cbdf2be4d508ad85d2cc1f3248a9ed5",
        "nonce": "0x23",
        "chainId": "0x14a34"
      },
      "additionalContracts": [],
      "isFixedGasLimit": false
    }
  ],
  "receipts": [
    {
      "status": "0x1",
      "cumulativeGasUsed": "0x171876",
      "logs": [
        {
          "address": "0x175867caf278eb0610f216f3e0a6e671f2382e22",
          "topics": [
            "0x238399d427b947898edb290f5ff0f9109849b1c3ba196a42e35f00c50a54b98b"
          ],
          "data": "0x0000000000000000000000000000000000000000000000000000000000009d35000000000000000000000000175867caf278eb0610f216f3e0a6e671f2382e22",
          "blockHash": "0x934c1e95a3dbae89e61e44fbd7215160acd403e78eaceeb12dea054521240e9f",
          "blockNumber": "0x2296368",
          "blockTimestamp": "0x696625b0",
          "transactionHash": "0xab78b41c0223220315e2101d20ffd16014d2fb02121041012037d8f9b908298f",
          "transactionIndex": "0x2",
          "logIndex": "0x0",
          "removed": false
        }
      ],
      "logsBloom": "0x00000000000000000000000000000000800000000000000000000000000000000000000000000000000000000000000000000000000000000800000000000000000000000000000000000000000000000000000000000000000000000000000000000000000000000000000000000000000000000000000000000000000000000000000000000000000000000000000000000000000000000000000000000000000004000000000000000000000000000000000000000000000002000000000000000000000200000000000000000000000000000000000000040000000000000000000000000000000000000000000000000000000000000000000000000000",
      "type": "0x2",
      "transactionHash": "0xab78b41c0223220315e2101d20ffd16014d2fb02121041012037d8f9b908298f",
      "transactionIndex": "0x2",
      "blockHash": "0x934c1e95a3dbae89e61e44fbd7215160acd403e78eaceeb12dea054521240e9f",
      "blockNumber": "0x2296368",
      "gasUsed": "0x6f0f",
      "effectiveGasPrice": "0x124f80",
      "blobGasUsed": "0x79e0",
      "from": "0x0ece75f3c36f7df2136dac7633165dbff53de3cd",
      "to": "0x175867caf278eb0610f216f3e0a6e671f2382e22",
      "contractAddress": null,
      "daFootprintGasScalar": "0x138",
      "l1BaseFeeScalar": "0x44d",
      "l1BlobBaseFee": "0x3904295",
      "l1BlobBaseFeeScalar": "0xa118b",
      "l1Fee": "0x14ecc3934",
      "l1GasPrice": "0x3892a877",
      "l1GasUsed": "0x640"
    },
    {
      "status": "0x1",
      "cumulativeGasUsed": "0x189d03",
      "logs": [
        {
          "address": "0x175867caf278eb0610f216f3e0a6e671f2382e22",
          "topics": [
            "0x238399d427b947898edb290f5ff0f9109849b1c3ba196a42e35f00c50a54b98b"
          ],
          "data": "0x0000000000000000000000000000000000000000000000000000000000009d3600000000000000000000000064493bd2f250cc05d75bca93cc95447e2834638b",
          "blockHash": "0x98b847977abd37e24e5daf1639090d07ad19659afe7887fa8b1c85b3d15153eb",
          "blockNumber": "0x2296369",
          "blockTimestamp": "0x696625b2",
          "transactionHash": "0xc3645732d26997d51fd545e3e2bfadeeda0d09b64d02d51f15a6962e991b0a34",
          "transactionIndex": "0x10",
          "logIndex": "0x13",
          "removed": false
        }
      ],
      "logsBloom": "0x00000000000000000000000000000000800000000000000000000000000000000000000000000000000000000000000000000000000000000800000000000000000000000000000000000000000000000000000000000000000000000000000000000000000000000000000000000000000000000000000000000000000000000000000000000000000000000000000000000000000000000000000000000000000004000000000000000000000000000000000000000000000002000000000000000000000200000000000000000000000000000000000000040000000000000000000000000000000000000000000000000000000000000000000000000000",
      "type": "0x2",
      "transactionHash": "0xc3645732d26997d51fd545e3e2bfadeeda0d09b64d02d51f15a6962e991b0a34",
      "transactionIndex": "0x10",
      "blockHash": "0x98b847977abd37e24e5daf1639090d07ad19659afe7887fa8b1c85b3d15153eb",
      "blockNumber": "0x2296369",
      "gasUsed": "0x6f0f",
      "effectiveGasPrice": "0x124f80",
      "blobGasUsed": "0x79e0",
      "from": "0x0ece75f3c36f7df2136dac7633165dbff53de3cd",
      "to": "0x175867caf278eb0610f216f3e0a6e671f2382e22",
      "contractAddress": null,
      "daFootprintGasScalar": "0x138",
      "l1BaseFeeScalar": "0x44d",
      "l1BlobBaseFee": "0x3904295",
      "l1BlobBaseFeeScalar": "0xa118b",
      "l1Fee": "0x14ecc3934",
      "l1GasPrice": "0x3892a877",
      "l1GasUsed": "0x640"
    },
    {
      "status": "0x1",
      "cumulativeGasUsed": "0x190c12",
      "logs": [
        {
          "address": "0x39926da4905f5edb956f5db5f2e2ff044e0882b2",
          "topics": [
            "0x238399d427b947898edb290f5ff0f9109849b1c3ba196a42e35f00c50a54b98b"
          ],
          "data": "0x0000000000000000000000000000000000000000000000000000000000009d3500000000000000000000000039926da4905f5edb956f5db5f2e2ff044e0882b2",
          "blockHash": "0x98b847977abd37e24e5daf1639090d07ad19659afe7887fa8b1c85b3d15153eb",
          "blockNumber": "0x2296369",
          "blockTimestamp": "0x696625b2",
          "transactionHash": "0x43040fe6fba0bd77c8eb269f512ba89541c4b320940279c8001bb0436d169bf2",
          "transactionIndex": "0x11",
          "logIndex": "0x14",
          "removed": false
        }
      ],
      "logsBloom": "0x00000000000000000000000000000000000000000000000000000000000000000000000000000000000000000000000000000000000000000800000000000000000000020000000000000000000000000000000000000000000000000000000000000000000000000000000000000000000000000000000000000000000000000000000000000000000000008000000000000000000000000000000000000000000000000000000000000000000000000000000000000000000002000000000000000000000000000000000000000000000000000000000000040000000000000000000080000000000000000000000000000000000000000000000000000000",
      "type": "0x2",
      "transactionHash": "0x43040fe6fba0bd77c8eb269f512ba89541c4b320940279c8001bb0436d169bf2",
      "transactionIndex": "0x11",
      "blockHash": "0x98b847977abd37e24e5daf1639090d07ad19659afe7887fa8b1c85b3d15153eb",
      "blockNumber": "0x2296369",
      "gasUsed": "0x6f0f",
      "effectiveGasPrice": "0x124f80",
      "blobGasUsed": "0x79e0",
      "from": "0x0ece75f3c36f7df2136dac7633165dbff53de3cd",
      "to": "0x39926da4905f5edb956f5db5f2e2ff044e0882b2",
      "contractAddress": null,
      "daFootprintGasScalar": "0x138",
      "l1BaseFeeScalar": "0x44d",
      "l1BlobBaseFee": "0x3904295",
      "l1BlobBaseFeeScalar": "0xa118b",
      "l1Fee": "0x14ecc3934",
      "l1GasPrice": "0x3892a877",
      "l1GasUsed": "0x640"
    },
    {
      "status": "0x1",
      "cumulativeGasUsed": "0x197b21",
      "logs": [
        {
          "address": "0x39926da4905f5edb956f5db5f2e2ff044e0882b2",
          "topics": [
            "0x238399d427b947898edb290f5ff0f9109849b1c3ba196a42e35f00c50a54b98b"
          ],
          "data": "0x0000000000000000000000000000000000000000000000000000000000009d36000000000000000000000000a7f7368b6cbdf2be4d508ad85d2cc1f3248a9ed5",
          "blockHash": "0x98b847977abd37e24e5daf1639090d07ad19659afe7887fa8b1c85b3d15153eb",
          "blockNumber": "0x2296369",
          "blockTimestamp": "0x696625b2",
          "transactionHash": "0xe7f6d2d8724346160f7f9b35c3dc2054ac225ff7d2c6ff7e32678caf6f10b8cb",
          "transactionIndex": "0x12",
          "logIndex": "0x15",
          "removed": false
        }
      ],
      "logsBloom": "0x00000000000000000000000000000000000000000000000000000000000000000000000000000000000000000000000000000000000000000800000000000000000000020000000000000000000000000000000000000000000000000000000000000000000000000000000000000000000000000000000000000000000000000000000000000000000000008000000000000000000000000000000000000000000000000000000000000000000000000000000000000000000002000000000000000000000000000000000000000000000000000000000000040000000000000000000080000000000000000000000000000000000000000000000000000000",
      "type": "0x2",
      "transactionHash": "0xe7f6d2d8724346160f7f9b35c3dc2054ac225ff7d2c6ff7e32678caf6f10b8cb",
      "transactionIndex": "0x12",
      "blockHash": "0x98b847977abd37e24e5daf1639090d07ad19659afe7887fa8b1c85b3d15153eb",
      "blockNumber": "0x2296369",
      "gasUsed": "0x6f0f",
      "effectiveGasPrice": "0x124f80",
      "blobGasUsed": "0x79e0",
      "from": "0x0ece75f3c36f7df2136dac7633165dbff53de3cd",
      "to": "0x39926da4905f5edb956f5db5f2e2ff044e0882b2",
      "contractAddress": null,
      "daFootprintGasScalar": "0x138",
      "l1BaseFeeScalar": "0x44d",
      "l1BlobBaseFee": "0x3904295",
      "l1BlobBaseFeeScalar": "0xa118b",
      "l1Fee": "0x14ecc3934",
      "l1GasPrice": "0x3892a877",
      "l1GasUsed": "0x640"
    }
  ],
  "libraries": [],
  "pending": [],
  "returns": {},
  "timestamp": 1768302000851,
  "chain": 84532,
  "commit": "c0cd3ab"
}