{
  "transactions": [
    {
      "hash": "0xb750e901d31416592ebfd5c42960521f0e289d412b05a02461e7d97ae9d81711",
      "transactionType": "CALL",
      "contractName": null,
      "contractAddress": "0x33faba0e0ce340afc4fb03038151ff7ee1d5f95b",
      "function": "setPeer(uint32,bytes32)",
      "arguments": [
        "40245",
        "0x00000000000000000000000033faba0e0ce340afc4fb03038151ff7ee1d5f95b"
      ],
      "transaction": {
        "from": "0x0ece75f3c36f7df2136dac7633165dbff53de3cd",
        "to": "0x33faba0e0ce340afc4fb03038151ff7ee1d5f95b",
        "gas": "0x1141b",
        "value": "0x0",
        "input": "0x3400288b0000000000000000000000000000000000000000000000000000000000009d3500000000000000000000000033faba0e0ce340afc4fb03038151ff7ee1d5f95b",
        "nonce": "0x3a",
        "chainId": "0x14a34"
      },
      "additionalContracts": [],
      "isFixedGasLimit": false
    },
    {
      "hash": "0x990ab30545c8014c085915a546968397428eeb3f93b8cfe92f32e0ab6ad329e0",
      "transactionType": "CALL",
      "contractName": null,
      "contractAddress": "0x33faba0e0ce340afc4fb03038151ff7ee1d5f95b",
      "function": "setPeer(uint32,bytes32)",
      "arguments": [
        "40246",
        "0x00000000000000000000000064493bd2f250cc05d75bca93cc95447e2834638b"
      ],
      "transaction": {
        "from": "0x0ece75f3c36f7df2136dac7633165dbff53de3cd",
        "to": "0x33faba0e0ce340afc4fb03038151ff7ee1d5f95b",
        "gas": "0x1141b",
        "value": "0x0",
        "input": "0x3400288b0000000000000000000000000000000000000000000000000000000000009d3600000000000000000000000064493bd2f250cc05d75bca93cc95447e2834638b",
        "nonce": "0x3b",
        "chainId": "0x14a34"
      },
      "additionalContracts": [],
      "isFixedGasLimit": false
    },
    {
      "hash": "0xa762f256913f6a8ba3a0e2f5d2086c16537eecb06cd08eee537e38acc1b0dc9b",
      "transactionType": "CALL",
      "contractName": null,
      "contractAddress": "0x02a66b51fc24e08535a6cfe1e11e532d8a089212",
      "function": "setPeer(uint32,bytes32)",
      "arguments": [
        "40245",
        "0x00000000000000000000000002a66b51fc24e08535a6cfe1e11e532d8a089212"
      ],
      "transaction": {
        "from": "0x0ece75f3c36f7df2136dac7633165dbff53de3cd",
        "to": "0x02a66b51fc24e08535a6cfe1e11e532d8a089212",
        "gas": "0x1141b",
        "value": "0x0",
        "input": "0x3400288b0000000000000000000000000000000000000000000000000000000000009d3500000000000000000000000002a66b51fc24e08535a6cfe1e11e532d8a089212",
        "nonce": "0x3c",
        "chainId": "0x14a34"
      },
      "additionalContracts": [],
      "isFixedGasLimit": false
    },
    {
      "hash": "0x550b46a2685fe1eef8ba640095471ed3269dacbee521f1e28b06800015524bc3",
      "transactionType": "CALL",
      "contractName": null,
      "contractAddress": "0x02a66b51fc24e08535a6cfe1e11e532d8a089212",
      "function": "setPeer(uint32,bytes32)",
      "arguments": [
        "40246",
        "0x000000000000000000000000a7f7368b6cbdf2be4d508ad85d2cc1f3248a9ed5"
      ],
      "transaction": {
        "from": "0x0ece75f3c36f7df2136dac7633165dbff53de3cd",
        "to": "0x02a66b51fc24e08535a6cfe1e11e532d8a089212",
        "gas": "0x1141b",
        "value": "0x0",
        "input": "0x3400288b0000000000000000000000000000000000000000000000000000000000009d36000000000000000000000000a7f7368b6cbdf2be4d508ad85d2cc1f3248a9ed5",
        "nonce": "0x3d",
        "chainId": "0x14a34"
      },
      "additionalContracts": [],
      "isFixedGasLimit": false
    }
  ],
  "receipts": [
    {
      "status": "0x1",
      "cumulativeGasUsed": "0x114148",
      "logs": [
        {
          "address": "0x33faba0e0ce340afc4fb03038151ff7ee1d5f95b",
          "topics": [
            "0x238399d427b947898edb290f5ff0f9109849b1c3ba196a42e35f00c50a54b98b"
          ],
          "data": "0x0000000000000000000000000000000000000000000000000000000000009d3500000000000000000000000033faba0e0ce340afc4fb03038151ff7ee1d5f95b",
          "blockHash": "0x7734cc651f4022e1d62fd1887f7c63a3e0f4a5a1da26ce1fdeb6e05f43fc5b79",
          "blockNumber": "0x229757d",
          "blockTimestamp": "0x696649da",
          "transactionHash": "0xa762f256913f6a8ba3a0e2f5d2086c16537eecb06cd08eee537e38acc1b0dc9b",
          "transactionIndex": "0x13",
          "logIndex": "0x1b",
          "removed": false
        }
      ],
      "logsBloom": "0x00000000000000000000000000000000000000000000000000000000000000020000000000000000000000000000000000000000000000000800000000000000000000000000000000000000000000000000000000000000000000000000000040000000000000000000000000000000000000000000000000000000000000000000000000000000000000000000000000000000000000000000000000000000000000000000000000000000000000000200000000000000000002000000000000000000000000000000000000000000000000000000000000040000000000000000000000000000000000000000000000000000000000000000000000000000",
      "type": "0x2",
      "transactionHash": "0xa762f256913f6a8ba3a0e2f5d2086c16537eecb06cd08eee537e38acc1b0dc9b",
      "transactionIndex": "0x13",
      "blockHash": "0x7734cc651f4022e1d62fd1887f7c63a3e0f4a5a1da26ce1fdeb6e05f43fc5b79",
      "blockNumber": "0x229757d",
      "gasUsed": "0xbccb",
      "effectiveGasPrice": "0x124f80",
      "blobGasUsed": "0x79e0",
      "from": "0x0ece75f3c36f7df2136dac7633165dbff53de3cd",
      "to": "0x33faba0e0ce340afc4fb03038151ff7ee1d5f95b",
      "contractAddress": null,
      "daFootprintGasScalar": "0x138",
      "l1BaseFeeScalar": "0x44d",
      "l1BlobBaseFee": "0x39dfea2",
      "l1BlobBaseFeeScalar": "0xa118b",
      "l1Fee": "0x164430d1f",
      "l1GasPrice": "0x42bf6bcf",
      "l1GasUsed": "0x640"
    },
    {
      "status": "0x1",
      "cumulativeGasUsed": "0x11fe13",
      "logs": [
        {
          "address": "0x33faba0e0ce340afc4fb03038151ff7ee1d5f95b",
          "topics": [
            "0x238399d427b947898edb290f5ff0f9109849b1c3ba196a42e35f00c50a54b98b"
          ],
          "data": "0x0000000000000000000000000000000000000000000000000000000000009d3600000000000000000000000064493bd2f250cc05d75bca93cc95447e2834638b",
          "blockHash": "0x7734cc651f4022e1d62fd1887f7c63a3e0f4a5a1da26ce1fdeb6e05f43fc5b79",
          "blockNumber": "0x229757d",
          "blockTimestamp": "0x696649da",
          "transactionHash": "0x550b46a2685fe1eef8ba640095471ed3269dacbee521f1e28b06800015524bc3",
          "transactionIndex": "0x14",
          "logIndex": "0x1c",
          "removed": false
        }
      ],
      "logsBloom": "0x00000000000000000000000000000000000000000000000000000000000000020000000000000000000000000000000000000000000000000800000000000000000000000000000000000000000000000000000000000000000000000000000040000000000000000000000000000000000000000000000000000000000000000000000000000000000000000000000000000000000000000000000000000000000000000000000000000000000000000200000000000000000002000000000000000000000000000000000000000000000000000000000000040000000000000000000000000000000000000000000000000000000000000000000000000000",
      "type": "0x2",
      "transactionHash": "0x550b46a2685fe1eef8ba640095471ed3269dacbee521f1e28b06800015524bc3",
      "transactionIndex": "0x14",
      "blockHash": "0x7734cc651f4022e1d62fd1887f7c63a3e0f4a5a1da26ce1fdeb6e05f43fc5b79",
      "blockNumber": "0x229757d",
      "gasUsed": "0xbccb",
      "effectiveGasPrice": "0x124f80",
      "blobGasUsed": "0x79e0",
      "from": "0x0ece75f3c36f7df2136dac7633165dbff53de3cd",
      "to": "0x33faba0e0ce340afc4fb03038151ff7ee1d5f95b",
      "contractAddress": null,
      "daFootprintGasScalar": "0x138",
      "l1BaseFeeScalar": "0x44d",
      "l1BlobBaseFee": "0x39dfea2",
      "l1BlobBaseFeeScalar": "0xa118b",
      "l1Fee": "0x164430d1f",
      "l1GasPrice": "0x42bf6bcf",
      "l1GasUsed": "0x640"
    },
    {
      "status": "0x1",
      "cumulativeGasUsed": "0x12bade",
      "logs": [
        {
          "address": "0x02a66b51fc24e08535a6cfe1e11e532d8a089212",
          "topics": [
            "0x238399d427b947898edb290f5ff0f9109849b1c3ba196a42e35f00c50a54b98b"
          ],
          "data": "0x0000000000000000000000000000000000000000000000000000000000009d3500000000000000000000000002a66b51fc24e08535a6cfe1e11e532d8a089212",
          "blockHash": "0x7734cc651f4022e1d62fd1887f7c63a3e0f4a5a1da26ce1fdeb6e05f43fc5b79",
          "blockNumber": "0x229757d",
          "blockTimestamp": "0x696649da",
          "transactionHash": "0xb750e901d31416592ebfd5c42960521f0e289d412b05a02461e7d97ae9d81711",
          "transactionIndex": "0x15",
          "logIndex": "0x1d",
          "removed": false
        }
      ],
      "logsBloom": "0x00000000000000000000000000000000000000000000000000000000000000000000000000000000000000000000000000000000000000000800000000000000000000000000000000000000000000000000000000000000000000000000000000000000000000000000000000000000000000000000000000000000000000000000000000000000000000000000000000000000000000000000000000000000000000000000100000000000000000000000000000000000000002000000000000000000000000000000000002000000000000000000000000040000000000000000000000000000000000000000000000000000000020000000000000000000",
      "type": "0x2",
      "transactionHash": "0xb750e901d31416592ebfd5c42960521f0e289d412b05a02461e7d97ae9d81711",
      "transactionIndex": "0x15",
      "blockHash": "0x7734cc651f4022e1d62fd1887f7c63a3e0f4a5a1da26ce1fdeb6e05f43fc5b79",
      "blockNumber": "0x229757d",
      "gasUsed": "0xbccb",
      "effectiveGasPrice": "0x124f80",
      "blobGasUsed": "0x79e0",
      "from": "0x0ece75f3c36f7df2136dac7633165dbff53de3cd",
      "to": "0x02a66b51fc24e08535a6cfe1e11e532d8a089212",
      "contractAddress": null,
      "daFootprintGasScalar": "0x138",
      "l1BaseFeeScalar": "0x44d",
      "l1BlobBaseFee": "0x39dfea2",
      "l1BlobBaseFeeScalar": "0xa118b",
      "l1Fee": "0x164430d1f",
      "l1GasPrice": "0x42bf6bcf",
      "l1GasUsed": "0x640"
    },
    {
      "status": "0x1",
      "cumulativeGasUsed": "0x1377a9",
      "logs": [
        {
          "address": "0x02a66b51fc24e08535a6cfe1e11e532d8a089212",
          "topics": [
            "0x238399d427b947898edb290f5ff0f9109849b1c3ba196a42e35f00c50a54b98b"
          ],
          "data": "0x0000000000000000000000000000000000000000000000000000000000009d36000000000000000000000000a7f7368b6cbdf2be4d508ad85d2cc1f3248a9ed5",
          "blockHash": "0x7734cc651f4022e1d62fd1887f7c63a3e0f4a5a1da26ce1fdeb6e05f43fc5b79",
          "blockNumber": "0x229757d",
          "blockTimestamp": "0x696649da",
          "transactionHash": "0x990ab30545c8014c085915a546968397428eeb3f93b8cfe92f32e0ab6ad329e0",
          "transactionIndex": "0x16",
          "logIndex": "0x1e",
          "removed": false
        }
      ],
      "logsBloom": "0x00000000000000000000000000000000000000000000000000000000000000000000000000000000000000000000000000000000000000000800000000000000000000000000000000000000000000000000000000000000000000000000000000000000000000000000000000000000000000000000000000000000000000000000000000000000000000000000000000000000000000000000000000000000000000000000100000000000000000000000000000000000000002000000000000000000000000000000000002000000000000000000000000040000000000000000000000000000000000000000000000000000000020000000000000000000",
      "type": "0x2",
      "transactionHash": "0x990ab30545c8014c085915a546968397428eeb3f93b8cfe92f32e0ab6ad329e0",
      "transactionIndex": "0x16",
      "blockHash": "0x7734cc651f4022e1d62fd1887f7c63a3e0f4a5a1da26ce1fdeb6e05f43fc5b79",
      "blockNumber": "0x229757d",
      "gasUsed": "0xbccb",
      "effectiveGasPrice": "0x124f80",
      "blobGasUsed": "0x79e0",
      "from": "0x0ece75f3c36f7df2136dac7633165dbff53de3cd",
      "to": "0x02a66b51fc24e08535a6cfe1e11e532d8a089212",
      "contractAddress": null,
      "daFootprintGasScalar": "0x138",
      "l1BaseFeeScalar": "0x44d",
      "l1BlobBaseFee": "0x39dfea2",
      "l1BlobBaseFeeScalar": "0xa118b",
      "l1Fee": "0x164430d1f",
      "l1GasPrice": "0x42bf6bcf",
      "l1GasUsed": "0x640"
    }
  ],
  "libraries": [],
  "pending": [],
  "returns": {},
  "timestamp": 1768311258388,
  "chain": 84532,
  "commit": "c0cd3ab"
}