{
  "transactions": [
    {
      "hash": "0xf350a9f98b2b56c3d5d0117abe5e13d8af1b5c27fa692689a1c6c4d2f5b7094d",
      "transactionType": "CALL",
      "contractName": null,
      "contractAddress": "0x175867caf278eb0610f216f3e0a6e671f2382e22",
      "function": "setPeer(uint32,bytes32)",
      "arguments": [
        "40245",
        "0x000000000000000000000000175867caf278eb0610f216f3e0a6e671f2382e22"
      ],
      "transaction": {
        "from": "0x0ece75f3c36f7df2136dac7633165dbff53de3cd",
        "to": "0x175867caf278eb0610f216f3e0a6e671f2382e22",
        "gas": "0x1141b",
        "value": "0x0",
        "input": "0x3400288b0000000000000000000000000000000000000000000000000000000000009d35000000000000000000000000175867caf278eb0610f216f3e0a6e671f2382e22",
        "nonce": "0x16",
        "chainId": "0x14a34"
      },
      "additionalContracts": [],
      "isFixedGasLimit": false
    },
    {
      "hash": "0x9f19239632f2901bcffcff581bde760e3b4153821f023bffcabe7ba551254fd2",
      "transactionType": "CALL",
      "contractName": null,
      "contractAddress": "0x175867caf278eb0610f216f3e0a6e671f2382e22",
      "function": "setPeer(uint32,bytes32)",
      "arguments": [
        "40246",
        "0x000000000000000000000000886ba47579dc4f5dcb53ffd20429089a7788c072"
      ],
      "transaction": {
        "from": "0x0ece75f3c36f7df2136dac7633165dbff53de3cd",
        "to": "0x175867caf278eb0610f216f3e0a6e671f2382e22",
        "gas": "0x1141b",
        "value": "0x0",
        "input": "0x3400288b0000000000000000000000000000000000000000000000000000000000009d36000000000000000000000000886ba47579dc4f5dcb53ffd20429089a7788c072",
        "nonce": "0x17",
        "chainId": "0x14a34"
      },
      "additionalContracts": [],
      "isFixedGasLimit": false
    },
    {
      "hash": "0x534a8004412cec1992c66d8c0fa6c9e925d60a82f6caa79fe8e63cbca7453ef6",
      "transactionType": "CALL",
      "contractName": null,
      "contractAddress": "0x39926da4905f5edb956f5db5f2e2ff044e0882b2",
      "function": "setPeer(uint32,bytes32)",
      "arguments": [
        "40245",
        "0x00000000000000000000000039926da4905f5edb956f5db5f2e2ff044e0882b2"
      ],
      "transaction": {
        "from": "0x0ece75f3c36f7df2136dac7633165dbff53de3cd",
        "to": "0x39926da4905f5edb956f5db5f2e2ff044e0882b2",
        "gas": "0x1141b",
        "value": "0x0",
        "input": "0x3400288b0000000000000000000000000000000000000000000000000000000000009d3500000000000000000000000039926da4905f5edb956f5db5f2e2ff044e0882b2",
        "nonce": "0x18",
        "chainId": "0x14a34"
      },
      "additionalContracts": [],
      "isFixedGasLimit": false
    },
    {
      "hash": "0x565caeb5c8cbf6a5fbfad74098a83d13107f09a98684009b63eb8f6c5c0872d2",
      "transactionType": "CALL",
      "contractName": null,
      "contractAddress": "0x39926da4905f5edb956f5db5f2e2ff044e0882b2",
      "function": "setPeer(uint32,bytes32)",
      "arguments": [
        "40246",
        "0x000000000000000000000000c327486db1417644f201d84414bbea6c8a948bef"
      ],
      "transaction": {
        "from": "0x0ece75f3c36f7df2136dac7633165dbff53de3cd",
        "to": "0x39926da4905f5edb956f5db5f2e2ff044e0882b2",
        "gas": "0x1141b",
        "value": "0x0",
        "input": "0x3400288b0000000000000000000000000000000000000000000000000000000000009d36000000000000000000000000c327486db1417644f201d84414bbea6c8a948bef",
        "nonce": "0x19",
        "chainId": "0x14a34"
      },
      "additionalContracts": [],
      "isFixedGasLimit": false
    }
  ],
  "receipts": [
    {
      "status": "0x1",
      "cumulativeGasUsed": "0x57e00a",
      "logs": [
        {
          "address": "0x175867caf278eb0610f216f3e0a6e671f2382e22",
          "topics": [
            "0x238399d427b947898edb290f5ff0f9109849b1c3ba196a42e35f00c50a54b98b"
          ],
          "data": "0x0000000000000000000000000000000000000000000000000000000000009d35000000000000000000000000175867caf278eb0610f216f3e0a6e671f2382e22",
          "blockHash": "0x3c0523a4d53e19a0562ff625e662814e41684aa9665b9238b40ccbb1537bb58c",
          "blockNumber": "0x2296077",
          "blockTimestamp": "0x69661fce",
          "transactionHash": "0x565caeb5c8cbf6a5fbfad74098a83d13107f09a98684009b63eb8f6c5c0872d2",
          "transactionIndex": "0xc",
          "logIndex": "0x44",
          "removed": false
        }
      ],
      "logsBloom": "0x00000000000000000000000000000000800000000000000000000000000000000000000000000000000000000000000000000000000000000800000000000000000000000000000000000000000000000000000000000000000000000000000000000000000000000000000000000000000000000000000000000000000000000000000000000000000000000000000000000000000000000000000000000000000004000000000000000000000000000000000000000000000002000000000000000000000200000000000000000000000000000000000000040000000000000000000000000000000000000000000000000000000000000000000000000000",
      "type": "0x2",
      "transactionHash": "0x565caeb5c8cbf6a5fbfad74098a83d13107f09a98684009b63eb8f6c5c0872d2",
      "transactionIndex": "0xc",
      "blockHash": "0x3c0523a4d53e19a0562ff625e662814e41684aa9665b9238b40ccbb1537bb58c",
      "blockNumber": "0x2296077",
      "gasUsed": "0xbccb",
      "effectiveGasPrice": "0x126a34",
      "blobGasUsed": "0x79e0",
      "from": "0x0ece75f3c36f7df2136dac7633165dbff53de3cd",
      "to": "0x175867caf278eb0610f216f3e0a6e671f2382e22",
      "contractAddress": null,
      "daFootprintGasScalar": "0x138",
      "l1BaseFeeScalar": "0x44d",
      "l1BlobBaseFee": "0x3a87467",
      "l1BlobBaseFeeScalar": "0xa118b",
      "l1Fee": "0x16375c669",
      "l1GasPrice": "0x40c31611",
      "l1GasUsed": "0x640"
    },
    {
      "status": "0x1",
      "cumulativeGasUsed": "0x589cd5",
      "logs": [
        {
          "address": "0x175867caf278eb0610f216f3e0a6e671f2382e22",
          "topics": [
            "0x238399d427b947898edb290f5ff0f9109849b1c3ba196a42e35f00c50a54b98b"
          ],
          "data": "0x0000000000000000000000000000000000000000000000000000000000009d36000000000000000000000000886ba47579dc4f5dcb53ffd20429089a7788c072",
          "blockHash": "0x3c0523a4d53e19a0562ff625e662814e41684aa9665b9238b40ccbb1537bb58c",
          "blockNumber": "0x2296077",
          "blockTimestamp": "0x69661fce",
          "transactionHash": "0x534a8004412cec1992c66d8c0fa6c9e925d60a82f6caa79fe8e63cbca7453ef6",
          "transactionIndex": "0xd",
          "logIndex": "0x45",
          "removed": false
        }
      ],
      "logsBloom": "0x00000000000000000000000000000000800000000000000000000000000000000000000000000000000000000000000000000000000000000800000000000000000000000000000000000000000000000000000000000000000000000000000000000000000000000000000000000000000000000000000000000000000000000000000000000000000000000000000000000000000000000000000000000000000004000000000000000000000000000000000000000000000002000000000000000000000200000000000000000000000000000000000000040000000000000000000000000000000000000000000000000000000000000000000000000000",
      "type": "0x2",
      "transactionHash": "0x534a8004412cec1992c66d8c0fa6c9e925d60a82f6caa79fe8e63cbca7453ef6",
      "transactionIndex": "0xd",
      "blockHash": "0x3c0523a4d53e19a0562ff625e662814e41684aa9665b9238b40ccbb1537bb58c",
      "blockNumber": "0x2296077",
      "gasUsed": "0xbccb",
      "effectiveGasPrice": "0x126a34",
      "blobGasUsed": "0x79e0",
      "from": "0x0ece75f3c36f7df2136dac7633165dbff53de3cd",
      "to": "0x175867caf278eb0610f216f3e0a6e671f2382e22",
      "contractAddress": null,
      "daFootprintGasScalar": "0x138",
      "l1BaseFeeScalar": "0x44d",
      "l1BlobBaseFee": "0x3a87467",
      "l1BlobBaseFeeScalar": "0xa118b",
      "l1Fee": "0x16375c669",
      "l1GasPrice": "0x40c31611",
      "l1GasUsed": "0x640"
    },
    {
      "status": "0x1",
      "cumulativeGasUsed": "0x5959a0",
      "logs": [
        {
          "address": "0x39926da4905f5edb956f5db5f2e2ff044e0882b2",
          "topics": [
            "0x238399d427b947898edb290f5ff0f9109849b1c3ba196a42e35f00c50a54b98b"
          ],
          "data": "0x0000000000000000000000000000000000000000000000000000000000009d3500000000000000000000000039926da4905f5edb956f5db5f2e2ff044e0882b2",
          "blockHash": "0x3c0523a4d53e19a0562ff625e662814e41684aa9665b9238b40ccbb1537bb58c",
          "blockNumber": "0x2296077",
          "blockTimestamp": "0x69661fce",
          "transactionHash": "0x9f19239632f2901bcffcff581bde760e3b4153821f023bffcabe7ba551254fd2",
          "transactionIndex": "0xe",
          "logIndex": "0x46",
          "removed": false
        }
      ],
      "logsBloom": "0x00000000000000000000000000000000000000000000000000000000000000000000000000000000000000000000000000000000000000000800000000000000000000020000000000000000000000000000000000000000000000000000000000000000000000000000000000000000000000000000000000000000000000000000000000000000000000008000000000000000000000000000000000000000000000000000000000000000000000000000000000000000000002000000000000000000000000000000000000000000000000000000000000040000000000000000000080000000000000000000000000000000000000000000000000000000",
      "type": "0x2",
      "transactionHash": "0x9f19239632f2901bcffcff581bde760e3b4153821f023bffcabe7ba551254fd2",
      "transactionIndex": "0xe",
      "blockHash": "0x3c0523a4d53e19a0562ff625e662814e41684aa9665b9238b40ccbb1537bb58c",
      "blockNumber": "0x2296077",
      "gasUsed": "0xbccb",
      "effectiveGasPrice": "0x126a34",
      "blobGasUsed": "0x79e0",
      "from": "0x0ece75f3c36f7df2136dac7633165dbff53de3cd",
      "to": "0x39926da4905f5edb956f5db5f2e2ff044e0882b2",
      "contractAddress": null,
      "daFootprintGasScalar": "0x138",
      "l1BaseFeeScalar": "0x44d",
      "l1BlobBaseFee": "0x3a87467",
      "l1BlobBaseFeeScalar": "0xa118b",
      "l1Fee": "0x16375c669",
      "l1GasPrice": "0x40c31611",
      "l1GasUsed": "0x640"
    },
    {
      "status": "0x1",
      "cumulativeGasUsed": "0x5a166b",
      "logs": [
        {
          "address": "0x39926da4905f5edb956f5db5f2e2ff044e0882b2",
          "topics": [
            "0x238399d427b947898edb290f5ff0f9109849b1c3ba196a42e35f00c50a54b98b"
          ],
          "data": "0x0000000000000000000000000000000000000000000000000000000000009d36000000000000000000000000c327486db1417644f201d84414bbea6c8a948bef",
          "blockHash": "0x3c0523a4d53e19a0562ff625e662814e41684aa9665b9238b40ccbb1537bb58c",
          "blockNumber": "0x2296077",
          "blockTimestamp": "0x69661fce",
          "transactionHash": "0xf350a9f98b2b56c3d5d0117abe5e13d8af1b5c27fa692689a1c6c4d2f5b7094d",
          "transactionIndex": "0xf",
          "logIndex": "0x47",
          "removed": false
        }
      ],
      "logsBloom": "0x00000000000000000000000000000000000000000000000000000000000000000000000000000000000000000000000000000000000000000800000000000000000000020000000000000000000000000000000000000000000000000000000000000000000000000000000000000000000000000000000000000000000000000000000000000000000000008000000000000000000000000000000000000000000000000000000000000000000000000000000000000000000002000000000000000000000000000000000000000000000000000000000000040000000000000000000080000000000000000000000000000000000000000000000000000000",
      "type": "0x2",
      "transactionHash": "0xf350a9f98b2b56c3d5d0117abe5e13d8af1b5c27fa692689a1c6c4d2f5b7094d",
      "transactionIndex": "0xf",
      "blockHash": "0x3c0523a4d53e19a0562ff625e662814e41684aa9665b9238b40ccbb1537bb58c",
      "blockNumber": "0x2296077",
      "gasUsed": "0xbccb",
      "effectiveGasPrice": "0x126a34",
      "blobGasUsed": "0x79e0",
      "from": "0x0ece75f3c36f7df2136dac7633165dbff53de3cd",
      "to": "0x39926da4905f5edb956f5db5f2e2ff044e0882b2",
      "contractAddress": null,
      "daFootprintGasScalar": "0x138",
      "l1BaseFeeScalar": "0x44d",
      "l1BlobBaseFee": "0x3a87467",
      "l1BlobBaseFeeScalar": "0xa118b",
      "l1Fee": "0x16375c669",
      "l1GasPrice": "0x40c31611",
      "l1GasUsed": "0x640"
    }
  ],
  "libraries": [],
  "pending": [],
  "returns": {},
  "timestamp": 1768300493313,
  "chain": 84532,
  "commit": "c0cd3ab"
}