{
  "transactions": [
    {
      "hash": "0x914e29afc6c6b3af594915828a8993477dbbe81a48c12704dfc2ab1ad36df12b",
      "transactionType": "CALL",
      "contractName": null,
      "contractAddress": "0x175867caf278eb0610f216f3e0a6e671f2382e22",
      "function": "setPeer(uint32,bytes32)",
      "arguments": [
        "40245",
        "0x000000000000000000000000175867caf278eb0610f216f3e0a6e671f2382e22"
      ],
      "transaction": {
        "from": "0x0ece75f3c36f7df2136dac7633165dbff53de3cd",
        "to": "0x175867caf278eb0610f216f3e0a6e671f2382e22",
        "gas": "0x9965",
        "value": "0x0",
        "input": "0x3400288b0000000000000000000000000000000000000000000000000000000000009d35000000000000000000000000175867caf278eb0610f216f3e0a6e671f2382e22",
        "nonce": "0x1c",
        "chainId": "0x14a34"
      },
      "additionalContracts": [],
      "isFixedGasLimit": false
    },
    {
      "hash": null,
      "transactionType": "CALL",
      "contractName": null,
      "contractAddress": "0x175867caf278eb0610f216f3e0a6e671f2382e22",
      "function": "setPeer(uint32,bytes32)",
      "arguments": [
        "40246",
        "0x00000000000000000000000064493bd2f250cc05d75bca93cc95447e2834638b"
      ],
      "transaction": {
        "from": "0x0ece75f3c36f7df2136dac7633165dbff53de3cd",
        "to": "0x175867caf278eb0610f216f3e0a6e671f2382e22",
        "gas": "0xa880",
        "value": "0x0",
        "input": "0x3400288b0000000000000000000000000000000000000000000000000000000000009d3600000000000000000000000064493bd2f250cc05d75bca93cc95447e2834638b",
        "nonce": "0x1d",
        "chainId": "0x14a34"
      },
      "additionalContracts": [],
      "isFixedGasLimit": false
    },
    {
      "hash": null,
      "transactionType": "CALL",
      "contractName": null,
      "contractAddress": "0x39926da4905f5edb956f5db5f2e2ff044e0882b2",
      "function": "setPeer(uint32,bytes32)",
      "arguments": [
        "40245",
        "0x00000000000000000000000039926da4905f5edb956f5db5f2e2ff044e0882b2"
      ],
      "transaction": {
        "from": "0x0ece75f3c36f7df2136dac7633165dbff53de3cd",
        "to": "0x39926da4905f5edb956f5db5f2e2ff044e0882b2",
        "gas": "0x9965",
        "value": "0x0",
        "input": "0x3400288b0000000000000000000000000000000000000000000000000000000000009d3500000000000000000000000039926da4905f5edb956f5db5f2e2ff044e0882b2",
        "nonce": "0x1e",
        "chainId": "0x14a34"
      },
      "additionalContracts": [],
      "isFixedGasLimit": false
    },
    {
      "hash": null,
      "transactionType": "CALL",
      "contractName": null,
      "contractAddress": "0x39926da4905f5edb956f5db5f2e2ff044e0882b2",
      "function": "setPeer(uint32,bytes32)",
      "arguments": [
        "40246",
        "0x000000000000000000000000a7f7368b6cbdf2be4d508ad85d2cc1f3248a9ed5"
      ],
      "transaction": {
        "from": "0x0ece75f3c36f7df2136dac7633165dbff53de3cd",
        "to": "0x39926da4905f5edb956f5db5f2e2ff044e0882b2",
        "gas": "0xa880",
        "value": "0x0",
        "input": "0x3400288b0000000000000000000000000000000000000000000000000000000000009d36000000000000000000000000a7f7368b6cbdf2be4d508ad85d2cc1f3248a9ed5",
        "nonce": "0x1f",
        "chainId": "0x14a34"
      },
      "additionalContracts": [],
      "isFixedGasLimit": false
    }
  ],
  "receipts": [],
  "libraries": [],
  "pending": [
    "0x914e29afc6c6b3af594915828a8993477dbbe81a48c12704dfc2ab1ad36df12b"
  ],
  "returns": {},
  "timestamp": 1768301983618,
  "chain": 84532,
  "commit": "c0cd3ab"
}