{
  "transactions": [
    {
      "hash": "0xf83102780bf635bfe7d9363fa82b7415d5252729771bcc87ee49284e4c04a6c7",
      "transactionType": "CALL",
      "contractName": null,
      "contractAddress": "0x39926da4905f5edb956f5db5f2e2ff044e0882b2",
      "function": "setEnforcedOptions((uint32,uint16,bytes)[])",
      "arguments": [
        "[(40245, 1, 0x00030100110100000000000000000000000000013880), (40246, 1, 0x000301001101000000000000000000000000000186a0)]"
      ],
      "transaction": {
        "from": "0x0ece75f3c36f7df2136dac7633165dbff53de3cd",
        "to": "0x39926da4905f5edb956f5db5f2e2ff044e0882b2",
        "gas": "0x1bd43",
        "value": "0x0",
        "input": "0xb98bd07000000000000000000000000000000000000000000000000000000000000000200000000000000000000000000000000000000000000000000000000000000002000000000000000000000000000000000000000000000000000000000000004000000000000000000000000000000000000000000000000000000000000000e00000000000000000000000000000000000000000000000000000000000009d3500000000000000000000000000000000000000000000000000000000000000010000000000000000000000000000000000000000000000000000000000000060000000000000000000000000000000000000000000000000000000000000001600030100110100000000000000000000000000013880000000000000000000000000000000000000000000000000000000000000000000000000000000009d36000000000000000000000000000000000000000000000000000000000000000100000000000000000000000000000000000000000000000000000000000000600000000000000000000000000000000000000000000000000000000000000016000301001101000000000000000000000000000186a000000000000000000000",
        "nonce": "0x1a",
        "chainId": "0x14a34"
      },
      "additionalContracts": [],
      "isFixedGasLimit": false
    },
    {
      "hash": "0xd83e805863250fdb5f0d1bea6abc966f006ef129ebdd718191fef879a7f4261b",
      "transactionType": "CALL",
      "contractName": null,
      "contractAddress": "0x175867caf278eb0610f216f3e0a6e671f2382e22",
      "function": "setEnforcedOptions((uint32,uint16,bytes)[])",
      "arguments": [
        "[(40245, 1, 0x00030100110100000000000000000000000000013880), (40246, 1, 0x000301001101000000000000000000000000000186a0)]"
      ],
      "transaction": {
        "from": "0x0ece75f3c36f7df2136dac7633165dbff53de3cd",
        "to": "0x175867caf278eb0610f216f3e0a6e671f2382e22",
        "gas": "0x1bd43",
        "value": "0x0",
        "input": "0xb98bd07000000000000000000000000000000000000000000000000000000000000000200000000000000000000000000000000000000000000000000000000000000002000000000000000000000000000000000000000000000000000000000000004000000000000000000000000000000000000000000000000000000000000000e00000000000000000000000000000000000000000000000000000000000009d3500000000000000000000000000000000000000000000000000000000000000010000000000000000000000000000000000000000000000000000000000000060000000000000000000000000000000000000000000000000000000000000001600030100110100000000000000000000000000013880000000000000000000000000000000000000000000000000000000000000000000000000000000009d36000000000000000000000000000000000000000000000000000000000000000100000000000000000000000000000000000000000000000000000000000000600000000000000000000000000000000000000000000000000000000000000016000301001101000000000000000000000000000186a000000000000000000000",
        "nonce": "0x1b",
        "chainId": "0x14a34"
      },
      "additionalContracts": [],
      "isFixedGasLimit": false
    }
  ],
  "receipts": [
    {
      "status": "0x1",
      "cumulativeGasUsed": "0x47be22",
      "logs": [
        {
          "address": "0x39926da4905f5edb956f5db5f2e2ff044e0882b2",
          "topics": [
            "0xbe4864a8e820971c0247f5992e2da559595f7bf076a21cb5928d443d2a13b674"
          ],
          "data": "0x00000000000000000000000000000000000000000000000000000000000000200000000000000000000000000000000000000000000000000000000000000002000000000000000000000000000000000000000000000000000000000000004000000000000000000000000000000000000000000000000000000000000000e00000000000000000000000000000000000000000000000000000000000009d3500000000000000000000000000000000000000000000000000000000000000010000000000000000000000000000000000000000000000000000000000000060000000000000000000000000000000000000000000000000000000000000001600030100110100000000000000000000000000013880000000000000000000000000000000000000000000000000000000000000000000000000000000009d36000000000000000000000000000000000000000000000000000000000000000100000000000000000000000000000000000000000000000000000000000000600000000000000000000000000000000000000000000000000000000000000016000301001101000000000000000000000000000186a000000000000000000000",
          "blockHash": "0xa1d4cb22f37722138fe7861cb73b338b587cc51b3f702257a4b1d25a486f712a",
          "blockNumber": "0x2296081",
          "blockTimestamp": "0x69661fe2",
          "transactionHash": "0xf83102780bf635bfe7d9363fa82b7415d5252729771bcc87ee49284e4c04a6c7",
          "transactionIndex": "0x9",
          "logIndex": "0x26",
          "removed": false
        }
      ],
      "logsBloom": "0x00000000000000000000000000000000000000000000000000000000000000000000000000000000000000000000000000000000000000000000400000000000000000020000000000000000000000000000000000000000000000000000000000000000000000000000000000000000000000000000000000000000000000000000000000000000000000008000000000000000000000000000000000080000000000000000000000000000000000000000000000000000000000000000000000000000000000000000000002000000000000000000000000000000000000000000000080000000000000000000000000000000000000000000000000000000",
      "type": "0x2",
      "transactionHash": "0xf83102780bf635bfe7d9363fa82b7415d5252729771bcc87ee49284e4c04a6c7",
      "transactionIndex": "0x9",
      "blockHash": "0xa1d4cb22f37722138fe7861cb73b338b587cc51b3f702257a4b1d25a486f712a",
      "blockNumber": "0x2296081",
      "gasUsed": "0x1425e",
      "effectiveGasPrice": "0x124f80",
      "blobGasUsed": "0xa830",
      "from": "0x0ece75f3c36f7df2136dac7633165dbff53de3cd",
      "to": "0x39926da4905f5edb956f5db5f2e2ff044e0882b2",
      "contractAddress": null,
      "daFootprintGasScalar": "0x138",
      "l1BaseFeeScalar": "0x44d",
      "l1BlobBaseFee": "0x40fd061",
      "l1BlobBaseFeeScalar": "0xa118b",
      "l1Fee": "0x175a252e5",
      "l1GasPrice": "0x3bf499b0",
      "l1GasUsed": "0x8a1"
    },
    {
      "status": "0x1",
      "cumulativeGasUsed": "0x490080",
      "logs": [
        {
          "address": "0x175867caf278eb0610f216f3e0a6e671f2382e22",
          "topics": [
            "0xbe4864a8e820971c0247f5992e2da559595f7bf076a21cb5928d443d2a13b674"
          ],
          "data": "0x00000000000000000000000000000000000000000000000000000000000000200000000000000000000000000000000000000000000000000000000000000002000000000000000000000000000000000000000000000000000000000000004000000000000000000000000000000000000000000000000000000000000000e00000000000000000000000000000000000000000000000000000000000009d3500000000000000000000000000000000000000000000000000000000000000010000000000000000000000000000000000000000000000000000000000000060000000000000000000000000000000000000000000000000000000000000001600030100110100000000000000000000000000013880000000000000000000000000000000000000000000000000000000000000000000000000000000009d36000000000000000000000000000000000000000000000000000000000000000100000000000000000000000000000000000000000000000000000000000000600000000000000000000000000000000000000000000000000000000000000016000301001101000000000000000000000000000186a000000000000000000000",
          "blockHash": "0xa1d4cb22f37722138fe7861cb73b338b587cc51b3f702257a4b1d25a486f712a",
          "blockNumber": "0x2296081",
          "blockTimestamp": "0x69661fe2",
          "transactionHash": "0xd83e805863250fdb5f0d1bea6abc966f006ef129ebdd718191fef879a7f4261b",
          "transactionIndex": "0xa",
          "logIndex": "0x27",
          "removed": false
        }
      ],
      "logsBloom": "0x00000000000000000000000000000000800000000000000000000000000000000000000000000000000000000000000000000000000000000000400000000000000000000000000000000000000000000000000000000000000000000000000000000000000000000000000000000000000000000000000000000000000000000000000000000000000000000000000000000000000000000000000000080000000004000000000000000000000000000000000000000000000000000000000000000000000200000000000002000000000000000000000000000000000000000000000000000000000000000000000000000000000000000000000000000000",
      "type": "0x2",
      "transactionHash": "0xd83e805863250fdb5f0d1bea6abc966f006ef129ebdd718191fef879a7f4261b",
      "transactionIndex": "0xa",
      "blockHash": "0xa1d4cb22f37722138fe7861cb73b338b587cc51b3f702257a4b1d25a486f712a",
      "blockNumber": "0x2296081",
      "gasUsed": "0x1425e",
      "effectiveGasPrice": "0x124f80",
      "blobGasUsed": "0xa830",
      "from": "0x0ece75f3c36f7df2136dac7633165dbff53de3cd",
      "to": "0x175867caf278eb0610f216f3e0a6e671f2382e22",
      "contractAddress": null,
      "daFootprintGasScalar": "0x138",
      "l1BaseFeeScalar": "0x44d",
      "l1BlobBaseFee": "0x40fd061",
      "l1BlobBaseFeeScalar": "0xa118b",
      "l1Fee": "0x175a252e5",
      "l1GasPrice": "0x3bf499b0",
      "l1GasUsed": "0x8a1"
    }
  ],
  "libraries": [],
  "pending": [],
  "returns": {},
  "timestamp": 1768300513068,
  "chain": 84532,
  "commit": "c0cd3ab"
}