{
  "transactions": [
    {
      "hash": "0x7add1268a94918446625d460df41803a00a6c9201f67e2a17eb8c1f5b6c55020",
      "transactionType": "CALL",
      "contractName": null,
      "contractAddress": "0x02a66b51fc24e08535a6cfe1e11e532d8a089212",
      "function": "setEnforcedOptions((uint32,uint16,bytes)[])",
      "arguments": [
        "[(40245, 1, 0x00030100110100000000000000000000000000013880), (40246, 1, 0x000301001101000000000000000000000000000186a0)]"
      ],
      "transaction": {
        "from": "0x0ece75f3c36f7df2136dac7633165dbff53de3cd",
        "to": "0x02a66b51fc24e08535a6cfe1e11e532d8a089212",
        "gas": "0x1bd43",
        "value": "0x0",
        "input": "0xb98bd07000000000000000000000000000000000000000000000000000000000000000200000000000000000000000000000000000000000000000000000000000000002000000000000000000000000000000000000000000000000000000000000004000000000000000000000000000000000000000000000000000000000000000e00000000000000000000000000000000000000000000000000000000000009d3500000000000000000000000000000000000000000000000000000000000000010000000000000000000000000000000000000000000000000000000000000060000000000000000000000000000000000000000000000000000000000000001600030100110100000000000000000000000000013880000000000000000000000000000000000000000000000000000000000000000000000000000000009d36000000000000000000000000000000000000000000000000000000000000000100000000000000000000000000000000000000000000000000000000000000600000000000000000000000000000000000000000000000000000000000000016000301001101000000000000000000000000000186a000000000000000000000",
        "nonce": "0x3e",
        "chainId": "0x14a34"
      },
      "additionalContracts": [],
      "isFixedGasLimit": false
    },
    {
      "hash": "0x4b45aec12d9453a51c74f508ac9df6c6ab815ee125e77c80b03686181e2d4698",
      "transactionType": "CALL",
      "contractName": null,
      "contractAddress": "0x33faba0e0ce340afc4fb03038151ff7ee1d5f95b",
      "function": "setEnforcedOptions((uint32,uint16,bytes)[])",
      "arguments": [
        "[(40245, 1, 0x00030100110100000000000000000000000000013880), (40246, 1, 0x000301001101000000000000000000000000000186a0)]"
      ],
      "transaction": {
        "from": "0x0ece75f3c36f7df2136dac7633165dbff53de3cd",
        "to": "0x33faba0e0ce340afc4fb03038151ff7ee1d5f95b",
        "gas": "0x1bd43",
        "value": "0x0",
        "input": "0xb98bd07000000000000000000000000000000000000000000000000000000000000000200000000000000000000000000000000000000000000000000000000000000002000000000000000000000000000000000000000000000000000000000000004000000000000000000000000000000000000000000000000000000000000000e00000000000000000000000000000000000000000000000000000000000009d3500000000000000000000000000000000000000000000000000000000000000010000000000000000000000000000000000000000000000000000000000000060000000000000000000000000000000000000000000000000000000000000001600030100110100000000000000000000000000013880000000000000000000000000000000000000000000000000000000000000000000000000000000009d36000000000000000000000000000000000000000000000000000000000000000100000000000000000000000000000000000000000000000000000000000000600000000000000000000000000000000000000000000000000000000000000016000301001101000000000000000000000000000186a000000000000000000000",
        "nonce": "0x3f",
        "chainId": "0x14a34"
      },
      "additionalContracts": [],
      "isFixedGasLimit": false
    }
  ],
  "receipts": [
    {
      "status": "0x1",
      "cumulativeGasUsed": "0x1df6f1",
      "logs": [
        {
          "address": "0x02a66b51fc24e08535a6cfe1e11e532d8a089212",
          "topics": [
            "0xbe4864a8e820971c0247f5992e2da559595f7bf076a21cb5928d443d2a13b674"
          ],
          "data": "0x00000000000000000000000000000000000000000000000000000000000000200000000000000000000000000000000000000000000000000000000000000002000000000000000000000000000000000000000000000000000000000000004000000000000000000000000000000000000000000000000000000000000000e00000000000000000000000000000000000000000000000000000000000009d3500000000000000000000000000000000000000000000000000000000000000010000000000000000000000000000000000000000000000000000000000000060000000000000000000000000000000000000000000000000000000000000001600030100110100000000000000000000000000013880000000000000000000000000000000000000000000000000000000000000000000000000000000009d36000000000000000000000000000000000000000000000000000000000000000100000000000000000000000000000000000000000000000000000000000000600000000000000000000000000000000000000000000000000000000000000016000301001101000000000000000000000000000186a000000000000000000000",
          "blockHash": "0x5cfb09a06e752eb1b641332a928b0d2180c7d6185a572930d495b80add446fcd",
          "blockNumber": "0x2297584",
          "blockTimestamp": "0x696649e8",
          "transactionHash": "0x7add1268a94918446625d460df41803a00a6c9201f67e2a17eb8c1f5b6c55020",
          "transactionIndex": "0x9",
          "logIndex": "0x27",
          "removed": false
        }
      ],
      "logsBloom": "0x00000000000000000000000000000000000000000000000000000000000000000000000000000000000000000000000000000000000000000000400000000000000000000000000000000000000000000000000000000000000000000000000000000000000000000000000000000000000000000000000000000000000000000000000000000000000000000000000000000000000000000000000000080000000000000000100000000000000000000000000000000000000000000000000000000000000000000000000002000000000000000000000000000000000000000000000000000000000000000000000000000000000020000000000000000000",
      "type": "0x2",
      "transactionHash": "0x7add1268a94918446625d460df41803a00a6c9201f67e2a17eb8c1f5b6c55020",
      "transactionIndex": "0x9",
      "blockHash": "0x5cfb09a06e752eb1b641332a928b0d2180c7d6185a572930d495b80add446fcd",
      "blockNumber": "0x2297584",
      "gasUsed": "0x1425e",
      "effectiveGasPrice": "0x124f80",
      "blobGasUsed": "0xa830",
      "from": "0x0ece75f3c36f7df2136dac7633165dbff53de3cd",
      "to": "0x02a66b51fc24e08535a6cfe1e11e532d8a089212",
      "contractAddress": null,
      "daFootprintGasScalar": "0x138",
      "l1BaseFeeScalar": "0x44d",
      "l1BlobBaseFee": "0x3c87d73",
      "l1BlobBaseFeeScalar": "0xa118b",
      "l1Fee": "0x1f50c2110",
      "l1GasPrice": "0x40408ec1",
      "l1GasUsed": "0x8a1"
    },
    {
      "status": "0x1",
      "cumulativeGasUsed": "0x1f394f",
      "logs": [
        {
          "address": "0x33faba0e0ce340afc4fb03038151ff7ee1d5f95b",
          "topics": [
            "0xbe4864a8e820971c0247f5992e2da559595f7bf076a21cb5928d443d2a13b674"
          ],
          "data": "0x00000000000000000000000000000000000000000000000000000000000000200000000000000000000000000000000000000000000000000000000000000002000000000000000000000000000000000000000000000000000000000000004000000000000000000000000000000000000000000000000000000000000000e00000000000000000000000000000000000000000000000000000000000009d3500000000000000000000000000000000000000000000000000000000000000010000000000000000000000000000000000000000000000000000000000000060000000000000000000000000000000000000000000000000000000000000001600030100110100000000000000000000000000013880000000000000000000000000000000000000000000000000000000000000000000000000000000009d36000000000000000000000000000000000000000000000000000000000000000100000000000000000000000000000000000000000000000000000000000000600000000000000000000000000000000000000000000000000000000000000016000301001101000000000000000000000000000186a000000000000000000000",
          "blockHash": "0x5cfb09a06e752eb1b641332a928b0d2180c7d6185a572930d495b80add446fcd",
          "blockNumber": "0x2297584",
          "blockTimestamp": "0x696649e8",
          "transactionHash": "0x4b45aec12d9453a51c74f508ac9df6c6ab815ee125e77c80b03686181e2d4698",
          "transactionIndex": "0xa",
          "logIndex": "0x28",
          "removed": false
        }
      ],
      "logsBloom": "0x00000000000000000000000000000000000000000000000000000000000000020000000000000000000000000000000000000000000000000000400000000000000000000000000000000000000000000000000000000000000000000000000040000000000000000000000000000000000000000000000000000000000000000000000000000000000000000000000000000000000000000000000000080000000000000000000000000000000000000200000000000000000000000000000000000000000000000000000002000000000000000000000000000000000000000000000000000000000000000000000000000000000000000000000000000000",
      "type": "0x2",
      "transactionHash": "0x4b45aec12d9453a51c74f508ac9df6c6ab815ee125e77c80b03686181e2d4698",
      "transactionIndex": "0xa",
      "blockHash": "0x5cfb09a06e752eb1b641332a928b0d2180c7d6185a572930d495b80add446fcd",
      "blockNumber": "0x2297584",
      "gasUsed": "0x1425e",
      "effectiveGasPrice": "0x124f80",
      "blobGasUsed": "0xa830",
      "from": "0x0ece75f3c36f7df2136dac7633165dbff53de3cd",
      "to": "0x33faba0e0ce340afc4fb03038151ff7ee1d5f95b",
      "contractAddress": null,
      "daFootprintGasScalar": "0x138",
      "l1BaseFeeScalar": "0x44d",
      "l1BlobBaseFee": "0x3c87d73",
      "l1BlobBaseFeeScalar": "0xa118b",
      "l1Fee": "0x1f50c2110",
      "l1GasPrice": "0x40408ec1",
      "l1GasUsed": "0x8a1"
    }
  ],
  "libraries": [],
  "pending": [],
  "returns": {},
  "timestamp": 1768311271108,
  "chain": 84532,
  "commit": "c0cd3ab"
}