{
  "transactions": [
    {
      "hash": "0x274a40a2f2ed0cf7b9e031f949cb075b4dfbdcc768781fd51ccf3fcfae75b10a",
      "transactionType": "CALL",
      "contractName": null,
      "contractAddress": "0x10fd0d8280e94d0dbc3013b778ef26d47105ea7b",
      "function": "setTokenPriceFeed(address,address)",
      "arguments": [
        "0x56f9Cbd1aeb705b440357097eE13eBe8AA755357",
        "0xc28446267B3c9a733D6C7419535B883908e55813"
      ],
      "transaction": {
        "from": "0x0ece75f3c36f7df2136dac7633165dbff53de3cd",
        "to": "0x10fd0d8280e94d0dbc3013b778ef26d47105ea7b",
        "gas": "0x11bab4c8",
        "value": "0x0",
        "input": "0x674417ae00000000000000000000000056f9cbd1aeb705b440357097ee13ebe8aa755357000000000000000000000000c28446267b3c9a733d6c7419535b883908e55813",
        "nonce": "0xc5",
        "chainId": "0x138b"
      },
      "additionalContracts": [],
      "isFixedGasLimit": false
    },
    {
      "hash": "0x756e8bb2ff3c30ba4d61723ebf31eefeb66ba79fcaf55f68a5221c4378825062",
      "transactionType": "CALL",
      "contractName": null,
      "contractAddress": "0x10fd0d8280e94d0dbc3013b778ef26d47105ea7b",
      "function": "setTokenPriceFeed(address,address)",
      "arguments": [
        "0xAF0C7edB6D33e166719f4d528D33042768367E28",
        "0xc84252C9dAc057361194E9e17e5aEd3e130556F5"
      ],
      "transaction": {
        "from": "0x0ece75f3c36f7df2136dac7633165dbff53de3cd",
        "to": "0x10fd0d8280e94d0dbc3013b778ef26d47105ea7b",
        "gas": "0x11bab4c8",
        "value": "0x0",
        "input": "0x674417ae000000000000000000000000af0c7edb6d33e166719f4d528d33042768367e28000000000000000000000000c84252c9dac057361194e9e17e5aed3e130556f5",
        "nonce": "0xc6",
        "chainId": "0x138b"
      },
      "additionalContracts": [],
      "isFixedGasLimit": false
    },
    {
      "hash": "0x59425e166e0a17973571de1f10941bd8cc91c3b4d17c1f15aead7f32b4091b8b",
      "transactionType": "CALL",
      "contractName": null,
      "contractAddress": "0x10fd0d8280e94d0dbc3013b778ef26d47105ea7b",
      "function": "setTokenPriceFeed(address,address)",
      "arguments": [
        "0x7Cc335F6693077B391B767df16295DABd9288144",
        "0x60377628d1733fe0FB64D8B84466b461974DA60A"
      ],
      "transaction": {
        "from": "0x0ece75f3c36f7df2136dac7633165dbff53de3cd",
        "to": "0x10fd0d8280e94d0dbc3013b778ef26d47105ea7b",
        "gas": "0x11bab4c8",
        "value": "0x0",
        "input": "0x674417ae0000000000000000000000007cc335f6693077b391b767df16295dabd928814400000000000000000000000060377628d1733fe0fb64d8b84466b461974da60a",
        "nonce": "0xc7",
        "chainId": "0x138b"
      },
      "additionalContracts": [],
      "isFixedGasLimit": false
    }
  ],
  "receipts": [
    {
      "status": "0x1",
      "cumulativeGasUsed": "0xb4379b5",
      "logs": [
        {
          "address": "0x10fd0d8280e94d0dbc3013b778ef26d47105ea7b",
          "topics": [
            "0x06450d77a493ade91a66792442980e4499d56e1565b15d80f0790f2a962a135d"
          ],
          "data": "0x00000000000000000000000056f9cbd1aeb705b440357097ee13ebe8aa755357000000000000000000000000c28446267b3c9a733d6c7419535b883908e55813",
          "blockHash": "0x63943d0010c005b7071b55137c02533457b39b69e3d53ed693b584934c04d0a8",
          "blockNumber": "0x1fe3b58",
          "blockTimestamp": "0x6967f991",
          "transactionHash": "0x274a40a2f2ed0cf7b9e031f949cb075b4dfbdcc768781fd51ccf3fcfae75b10a",
          "transactionIndex": "0x1",
          "logIndex": "0x0",
          "removed": false
        }
      ],
      "logsBloom": "0x00000000000000000000000000000000000000000000000000000000000000000000400000000000000000000008000000000000002000000000000000000000000000000000000000000000100000000000000000000000000000000000000000000000000000000000000000000000000000000000000000000000000000000000000000000000000000000000000000000000000000000000000000000000000000000000000000000000000000000000000000000000000000000000000000000000800000000000000000001000000000000000000000000000000000000000000000000000000000000000000000000000000000000000000000000000",
      "type": "0x2",
      "transactionHash": "0x274a40a2f2ed0cf7b9e031f949cb075b4dfbdcc768781fd51ccf3fcfae75b10a",
      "transactionIndex": "0x1",
      "blockHash": "0x63943d0010c005b7071b55137c02533457b39b69e3d53ed693b584934c04d0a8",
      "blockNumber": "0x1fe3b58",
      "gasUsed": "0xb42c298",
      "effectiveGasPrice": "0x132e474",
      "from": "0x0ece75f3c36f7df2136dac7633165dbff53de3cd",
      "to": "0x10fd0d8280e94d0dbc3013b778ef26d47105ea7b",
      "contractAddress": null,
      "l1Fee": "0x55ad3c5514c7",
      "l1FeeScalar": "0.01",
      "l1GasPrice": "0x3a89fede",
      "l1GasUsed": "0xafc",
      "tokenRatio": "0xd53"
    },
    {
      "status": "0x1",
      "cumulativeGasUsed": "0xb432a27",
      "logs": [
        {
          "address": "0x10fd0d8280e94d0dbc3013b778ef26d47105ea7b",
          "topics": [
            "0x06450d77a493ade91a66792442980e4499d56e1565b15d80f0790f2a962a135d"
          ],
          "data": "0x000000000000000000000000af0c7edb6d33e166719f4d528d33042768367e28000000000000000000000000c84252c9dac057361194e9e17e5aed3e130556f5",
          "blockHash": "0x25c5089a418d8d0057c264a8e2307016ef428456a86d9f3b1ddbc61b9cdab0b5",
          "blockNumber": "0x1fe3b5b",
          "blockTimestamp": "0x6967f997",
          "transactionHash": "0x756e8bb2ff3c30ba4d61723ebf31eefeb66ba79fcaf55f68a5221c4378825062",
          "transactionIndex": "0x1",
          "logIndex": "0x0",
          "removed": false
        }
      ],
      "logsBloom": "0x00000000000000000000000000000000000000000000000000000000000000000000400000000000000000000008000000000000002000000000000000000000000000000000000000000000100000000000000000000000000000000000000000000000000000000000000000000000000000000000000000000000000000000000000000000000000000000000000000000000000000000000000000000000000000000000000000000000000000000000000000000000000000000000000000000000800000000000000000001000000000000000000000000000000000000000000000000000000000000000000000000000000000000000000000000000",
      "type": "0x2",
      "transactionHash": "0x756e8bb2ff3c30ba4d61723ebf31eefeb66ba79fcaf55f68a5221c4378825062",
      "transactionIndex": "0x1",
      "blockHash": "0x25c5089a418d8d0057c264a8e2307016ef428456a86d9f3b1ddbc61b9cdab0b5",
      "blockNumber": "0x1fe3b5b",
      "gasUsed": "0xb42730a",
      "effectiveGasPrice": "0x132e474",
      "from": "0x0ece75f3c36f7df2136dac7633165dbff53de3cd",
      "to": "0x10fd0d8280e94d0dbc3013b778ef26d47105ea7b",
      "contractAddress": null,
      "l1Fee": "0x554fa3215f58",
      "l1FeeScalar": "0.01",
      "l1GasPrice": "0x3a89fede",
      "l1GasUsed": "0xaf0",
      "tokenRatio": "0xd53"
    },
    {
      "status": "0x1",
      "cumulativeGasUsed": "0xb4c5e5e",
      "logs": [
        {
          "address": "0x10fd0d8280e94d0dbc3013b778ef26d47105ea7b",
          "topics": [
            "0x06450d77a493ade91a66792442980e4499d56e1565b15d80f0790f2a962a135d"
          ],
          "data": "0x0000000000000000000000007cc335f6693077b391b767df16295dabd928814400000000000000000000000060377628d1733fe0fb64d8b84466b461974da60a",
          "blockHash": "0x3887c2950d763324d23b753f39a4504ee2a701e0b4ae78e7a1a06fcb4d11dd99",
          "blockNumber": "0x1fe3b5f",
          "blockTimestamp": "0x6967f99f",
          "transactionHash": "0x59425e166e0a17973571de1f10941bd8cc91c3b4d17c1f15aead7f32b4091b8b",
          "transactionIndex": "0x1",
          "logIndex": "0x0",
          "removed": false
        }
      ],
      "logsBloom": "0x00000000000000000000000000000000000000000000000000000000000000000000400000000000000000000008000000000000002000000000000000000000000000000000000000000000100000000000000000000000000000000000000000000000000000000000000000000000000000000000000000000000000000000000000000000000000000000000000000000000000000000000000000000000000000000000000000000000000000000000000000000000000000000000000000000000800000000000000000001000000000000000000000000000000000000000000000000000000000000000000000000000000000000000000000000000",
      "type": "0x2",
      "transactionHash": "0x59425e166e0a17973571de1f10941bd8cc91c3b4d17c1f15aead7f32b4091b8b",
      "transactionIndex": "0x1",
      "blockHash": "0x3887c2950d763324d23b753f39a4504ee2a701e0b4ae78e7a1a06fcb4d11dd99",
      "blockNumber": "0x1fe3b5f",
      "gasUsed": "0xb4ba741",
      "effectiveGasPrice": "0x132e474",
      "from": "0x0ece75f3c36f7df2136dac7633165dbff53de3cd",
      "to": "0x10fd0d8280e94d0dbc3013b778ef26d47105ea7b",
      "contractAddress": null,
      "l1Fee": "0x605de5d33810",
      "l1FeeScalar": "0.01",
      "l1GasPrice": "0x41d7d57e",
      "l1GasUsed": "0xafc",
      "tokenRatio": "0xd53"
    }
  ],
  "libraries": [],
  "pending": [],
  "returns": {},
  "timestamp": 1768421794835,
  "chain": 5003,
  "commit": "8996b37"
}