{
  "transactions": [
    {
      "hash": "0xf31d8506c1d8597ac28e95164a7fa5c0c3d62d3775648bd77e2711ad28d9007f",
      "transactionType": "CALL",
      "contractName": null,
      "contractAddress": "0x10fd0d8280e94d0dbc3013b778ef26d47105ea7b",
      "function": "setTokenPriceFeed(address,address)",
      "arguments": [
        "0xdF05e9AbF64dA281B3cBd8aC3581022eC4841FB2",
        "0x71c184d899c1774d597d8D80526FB02dF708A69a"
      ],
      "transaction": {
        "from": "0x0ece75f3c36f7df2136dac7633165dbff53de3cd",
        "to": "0x10fd0d8280e94d0dbc3013b778ef26d47105ea7b",
        "gas": "0x1090545a",
        "value": "0x0",
        "input": "0x674417ae000000000000000000000000df05e9abf64da281b3cbd8ac3581022ec4841fb200000000000000000000000071c184d899c1774d597d8d80526fb02df708a69a",
        "nonce": "0x21",
        "chainId": "0x138b"
      },
      "additionalContracts": [],
      "isFixedGasLimit": false
    },
    {
      "hash": "0x03944ba4ea4fcbe01a23d82b58bb84a9f475026814e7bc6e5b9d1df518623ad7",
      "transactionType": "CALL",
      "contractName": null,
      "contractAddress": "0x10fd0d8280e94d0dbc3013b778ef26d47105ea7b",
      "function": "setTokenPriceFeed(address,address)",
      "arguments": [
        "0x15858A57854BBf0DF60A737811d50e1Ee785f9bc",
        "0x4c8962833Db7206fd45671e9DC806e4FcC0dCB78"
      ],
      "transaction": {
        "from": "0x0ece75f3c36f7df2136dac7633165dbff53de3cd",
        "to": "0x10fd0d8280e94d0dbc3013b778ef26d47105ea7b",
        "gas": "0x1090545a",
        "value": "0x0",
        "input": "0x674417ae00000000000000000000000015858a57854bbf0df60a737811d50e1ee785f9bc0000000000000000000000004c8962833db7206fd45671e9dc806e4fcc0dcb78",
        "nonce": "0x22",
        "chainId": "0x138b"
      },
      "additionalContracts": [],
      "isFixedGasLimit": false
    },
    {
      "hash": "0xc0d21987aae6aae33c57482e39798344eeb69a13cea6c0175ca810922c140dcf",
      "transactionType": "CALL",
      "contractName": null,
      "contractAddress": "0x10fd0d8280e94d0dbc3013b778ef26d47105ea7b",
      "function": "setTokenPriceFeed(address,address)",
      "arguments": [
        "0x0000000000000000000000000000000000000001",
        "0x4c8962833Db7206fd45671e9DC806e4FcC0dCB78"
      ],
      "transaction": {
        "from": "0x0ece75f3c36f7df2136dac7633165dbff53de3cd",
        "to": "0x10fd0d8280e94d0dbc3013b778ef26d47105ea7b",
        "gas": "0x107dd629",
        "value": "0x0",
        "input": "0x674417ae00000000000000000000000000000000000000000000000000000000000000010000000000000000000000004c8962833db7206fd45671e9dc806e4fcc0dcb78",
        "nonce": "0x23",
        "chainId": "0x138b"
      },
      "additionalContracts": [],
      "isFixedGasLimit": false
    },
    {
      "hash": "0x40f2c4b81176186bd68c5291f51751faa6127501fdf7bb5a8b6f5c300433622c",
      "transactionType": "CALL",
      "contractName": null,
      "contractAddress": "0x10fd0d8280e94d0dbc3013b778ef26d47105ea7b",
      "function": "setTokenPriceFeed(address,address)",
      "arguments": [
        "0x4Ba8D8083e7F3652CCB084C32652e68566E9Ef23",
        "0x9bD31B110C559884c49d1bA3e60C1724F2E336a7"
      ],
      "transaction": {
        "from": "0x0ece75f3c36f7df2136dac7633165dbff53de3cd",
        "to": "0x10fd0d8280e94d0dbc3013b778ef26d47105ea7b",
        "gas": "0x1090545a",
        "value": "0x0",
        "input": "0x674417ae0000000000000000000000004ba8d8083e7f3652ccb084c32652e68566e9ef230000000000000000000000009bd31b110c559884c49d1ba3e60c1724f2e336a7",
        "nonce": "0x24",
        "chainId": "0x138b"
      },
      "additionalContracts": [],
      "isFixedGasLimit": false
    },
    {
      "hash": "0x05dc8b8d9e8349f632c999946976f9149a6c8ccbff7d90e1e20e0dd92edb9de5",
      "transactionType": "CALL",
      "contractName": null,
      "contractAddress": "0x10fd0d8280e94d0dbc3013b778ef26d47105ea7b",
      "function": "setTokenPriceFeed(address,address)",
      "arguments": [
        "0x007F735Fd070DeD4B0B58D430c392Ff0190eC20F",
        "0xecC446a3219da4594d5Ede8314f500212e496E17"
      ],
      "transaction": {
        "from": "0x0ece75f3c36f7df2136dac7633165dbff53de3cd",
        "to": "0x10fd0d8280e94d0dbc3013b778ef26d47105ea7b",
        "gas": "0x108e72e8",
        "value": "0x0",
        "input": "0x674417ae000000000000000000000000007f735fd070ded4b0b58d430c392ff0190ec20f000000000000000000000000ecc446a3219da4594d5ede8314f500212e496e17",
        "nonce": "0x25",
        "chainId": "0x138b"
      },
      "additionalContracts": [],
      "isFixedGasLimit": false
    }
  ],
  "receipts": [
    {
      "status": "0x1",
      "cumulativeGasUsed": "0xa89b475",
      "logs": [
        {
          "address": "0x10fd0d8280e94d0dbc3013b778ef26d47105ea7b",
          "topics": [
            "0x06450d77a493ade91a66792442980e4499d56e1565b15d80f0790f2a962a135d"
          ],
          "data": "0x000000000000000000000000df05e9abf64da281b3cbd8ac3581022ec4841fb200000000000000000000000071c184d899c1774d597d8d80526fb02df708a69a",
          "blockHash": "0x63d47aa763d126fac33584af3ac4b977a74de37fb3a3d57fccee96ebc97b01a8",
          "blockNumber": "0x1fcd28e",
          "blockTimestamp": "0x696527fd",
          "transactionHash": "0xf31d8506c1d8597ac28e95164a7fa5c0c3d62d3775648bd77e2711ad28d9007f",
          "transactionIndex": "0x1",
          "logIndex": "0x0",
          "removed": false
        }
      ],
      "logsBloom": "0x00000000000000000000000000000000000000000000000000000000000000000000400000000000000000000008000000000000002000000000000000000000000000000000000000000000100000000000000000000000000000000000000000000000000000000000000000000000000000000000000000000000000000000000000000000000000000000000000000000000000000000000000000000000000000000000000000000000000000000000000000000000000000000000000000000000800000000000000000001000000000000000000000000000000000000000000000000000000000000000000000000000000000000000000000000000",
      "type": "0x2",
      "transactionHash": "0xf31d8506c1d8597ac28e95164a7fa5c0c3d62d3775648bd77e2711ad28d9007f",
      "transactionIndex": "0x1",
      "blockHash": "0x63d47aa763d126fac33584af3ac4b977a74de37fb3a3d57fccee96ebc97b01a8",
      "blockNumber": "0x1fcd28e",
      "gasUsed": "0xa88fd58",
      "effectiveGasPrice": "0x1515f30",
      "from": "0x0ece75f3c36f7df2136dac7633165dbff53de3cd",
      "to": "0x10fd0d8280e94d0dbc3013b778ef26d47105ea7b",
      "contractAddress": null,
      "l1Fee": "0x6e07c643dd1",
      "l1FeeScalar": "0.01",
      "l1GasPrice": "0x4f4e628",
      "l1GasUsed": "0xae0",
      "tokenRatio": "0xcc2"
    },
    {
      "status": "0x1",
      "cumulativeGasUsed": "0xa8a0f5e",
      "logs": [
        {
          "address": "0x10fd0d8280e94d0dbc3013b778ef26d47105ea7b",
          "topics": [
            "0x06450d77a493ade91a66792442980e4499d56e1565b15d80f0790f2a962a135d"
          ],
          "data": "0x00000000000000000000000015858a57854bbf0df60a737811d50e1ee785f9bc0000000000000000000000004c8962833db7206fd45671e9dc806e4fcc0dcb78",
          "blockHash": "0x551e480d8d320d1cb650f8621a78a4e3fa8f926a4693c9c639eaf470b88c7aa7",
          "blockNumber": "0x1fcd298",
          "blockTimestamp": "0x69652811",
          "transactionHash": "0x03944ba4ea4fcbe01a23d82b58bb84a9f475026814e7bc6e5b9d1df518623ad7",
          "transactionIndex": "0x1",
          "logIndex": "0x0",
          "removed": false
        }
      ],
      "logsBloom": "0x00000000000000000000000000000000000000000000000000000000000000000000400000000000000000000008000000000000002000000000000000000000000000000000000000000000100000000000000000000000000000000000000000000000000000000000000000000000000000000000000000000000000000000000000000000000000000000000000000000000000000000000000000000000000000000000000000000000000000000000000000000000000000000000000000000000800000000000000000001000000000000000000000000000000000000000000000000000000000000000000000000000000000000000000000000000",
      "type": "0x2",
      "transactionHash": "0x03944ba4ea4fcbe01a23d82b58bb84a9f475026814e7bc6e5b9d1df518623ad7",
      "transactionIndex": "0x1",
      "blockHash": "0x551e480d8d320d1cb650f8621a78a4e3fa8f926a4693c9c639eaf470b88c7aa7",
      "blockNumber": "0x1fcd298",
      "gasUsed": "0xa89377d",
      "effectiveGasPrice": "0x1515f30",
      "from": "0x0ece75f3c36f7df2136dac7633165dbff53de3cd",
      "to": "0x10fd0d8280e94d0dbc3013b778ef26d47105ea7b",
      "contractAddress": null,
      "l1Fee": "0x7284a04fdfd",
      "l1FeeScalar": "0.01",
      "l1GasPrice": "0x528a704",
      "l1GasUsed": "0xae0",
      "tokenRatio": "0xcc2"
    },
    {
      "status": "0x1",
      "cumulativeGasUsed": "0xa7e20b7",
      "logs": [
        {
          "address": "0x10fd0d8280e94d0dbc3013b778ef26d47105ea7b",
          "topics": [
            "0x06450d77a493ade91a66792442980e4499d56e1565b15d80f0790f2a962a135d"
          ],
          "data": "0x00000000000000000000000000000000000000000000000000000000000000010000000000000000000000004c8962833db7206fd45671e9dc806e4fcc0dcb78",
          "blockHash": "0x8edbc3036de1ccc414d6b7c308b19567755a47ab15b93cdeb70933af09aa06c4",
          "blockNumber": "0x1fcd29d",
          "blockTimestamp": "0x6965281b",
          "transactionHash": "0xc0d21987aae6aae33c57482e39798344eeb69a13cea6c0175ca810922c140dcf",
          "transactionIndex": "0x1",
          "logIndex": "0x0",
          "removed": false
        }
      ],
      "logsBloom": "0x00000000000000000000000000000000000000000000000000000000000000000000400000000000000000000008000000000000002000000000000000000000000000000000000000000000100000000000000000000000000000000000000000000000000000000000000000000000000000000000000000000000000000000000000000000000000000000000000000000000000000000000000000000000000000000000000000000000000000000000000000000000000000000000000000000000800000000000000000001000000000000000000000000000000000000000000000000000000000000000000000000000000000000000000000000000",
      "type": "0x2",
      "transactionHash": "0xc0d21987aae6aae33c57482e39798344eeb69a13cea6c0175ca810922c140dcf",
      "transactionIndex": "0x1",
      "blockHash": "0x8edbc3036de1ccc414d6b7c308b19567755a47ab15b93cdeb70933af09aa06c4",
      "blockNumber": "0x1fcd29d",
      "gasUsed": "0xa7d699a",
      "effectiveGasPrice": "0x1515f30",
      "from": "0x0ece75f3c36f7df2136dac7633165dbff53de3cd",
      "to": "0x10fd0d8280e94d0dbc3013b778ef26d47105ea7b",
      "contractAddress": null,
      "l1Fee": "0x69a20f75d0a",
      "l1FeeScalar": "0.01",
      "l1GasPrice": "0x528a704",
      "l1GasUsed": "0xa08",
      "tokenRatio": "0xcc2"
    },
    {
      "status": "0x1",
      "cumulativeGasUsed": "0xa8953a7",
      "logs": [
        {
          "address": "0x10fd0d8280e94d0dbc3013b778ef26d47105ea7b",
          "topics": [
            "0x06450d77a493ade91a66792442980e4499d56e1565b15d80f0790f2a962a135d"
          ],
          "data": "0x0000000000000000000000004ba8d8083e7f3652ccb084c32652e68566e9ef230000000000000000000000009bd31b110c559884c49d1ba3e60c1724f2e336a7",
          "blockHash": "0x44e690bc5e7ee39fcfa7fc96539448cac74b57abda9d00d9d405eabfab67179a",
          "blockNumber": "0x1fcd2a8",
          "blockTimestamp": "0x69652831",
          "transactionHash": "0x40f2c4b81176186bd68c5291f51751faa6127501fdf7bb5a8b6f5c300433622c",
          "transactionIndex": "0x1",
          "logIndex": "0x0",
          "removed": false
        }
      ],
      "logsBloom": "0x00000000000000000000000000000000000000000000000000000000000000000000400000000000000000000008000000000000002000000000000000000000000000000000000000000000100000000000000000000000000000000000000000000000000000000000000000000000000000000000000000000000000000000000000000000000000000000000000000000000000000000000000000000000000000000000000000000000000000000000000000000000000000000000000000000000800000000000000000001000000000000000000000000000000000000000000000000000000000000000000000000000000000000000000000000000",
      "type": "0x2",
      "transactionHash": "0x40f2c4b81176186bd68c5291f51751faa6127501fdf7bb5a8b6f5c300433622c",
      "transactionIndex": "0x1",
      "blockHash": "0x44e690bc5e7ee39fcfa7fc96539448cac74b57abda9d00d9d405eabfab67179a",
      "blockNumber": "0x1fcd2a8",
      "gasUsed": "0xa889c96",
      "effectiveGasPrice": "0x1515f30",
      "from": "0x0ece75f3c36f7df2136dac7633165dbff53de3cd",
      "to": "0x10fd0d8280e94d0dbc3013b778ef26d47105ea7b",
      "contractAddress": null,
      "l1Fee": "0x6608b01893e",
      "l1FeeScalar": "0.01",
      "l1GasPrice": "0x498ae9e",
      "l1GasUsed": "0xae0",
      "tokenRatio": "0xcc2"
    },
    {
      "status": "0x1",
      "cumulativeGasUsed": "0xa87e09b",
      "logs": [
        {
          "address": "0x10fd0d8280e94d0dbc3013b778ef26d47105ea7b",
          "topics": [
            "0x06450d77a493ade91a66792442980e4499d56e1565b15d80f0790f2a962a135d"
          ],
          "data": "0x000000000000000000000000007f735fd070ded4b0b58d430c392ff0190ec20f000000000000000000000000ecc446a3219da4594d5ede8314f500212e496e17",
          "blockHash": "0x8a62f339b75fae46823c5b205497c65a36cd5b4faeeee6d5485f11727b3db94a",
          "blockNumber": "0x1fcd2ad",
          "blockTimestamp": "0x6965283b",
          "transactionHash": "0x05dc8b8d9e8349f632c999946976f9149a6c8ccbff7d90e1e20e0dd92edb9de5",
          "transactionIndex": "0x1",
          "logIndex": "0x0",
          "removed": false
        }
      ],
      "logsBloom": "0x00000000000000000000000000000000000000000000000000000000000000000000400000000000000000000008000000000000002000000000000000000000000000000000000000000000100000000000000000000000000000000000000000000000000000000000000000000000000000000000000000000000000000000000000000000000000000000000000000000000000000000000000000000000000000000000000000000000000000000000000000000000000000000000000000000000800000000000000000001000000000000000000000000000000000000000000000000000000000000000000000000000000000000000000000000000",
      "type": "0x2",
      "transactionHash": "0x05dc8b8d9e8349f632c999946976f9149a6c8ccbff7d90e1e20e0dd92edb9de5",
      "transactionIndex": "0x1",
      "blockHash": "0x8a62f339b75fae46823c5b205497c65a36cd5b4faeeee6d5485f11727b3db94a",
      "blockNumber": "0x1fcd2ad",
      "gasUsed": "0xa87298a",
      "effectiveGasPrice": "0x1515f30",
      "from": "0x0ece75f3c36f7df2136dac7633165dbff53de3cd",
      "to": "0x10fd0d8280e94d0dbc3013b778ef26d47105ea7b",
      "contractAddress": null,
      "l1Fee": "0x60aa08edb44",
      "l1FeeScalar": "0.01",
      "l1GasPrice": "0x45f9529",
      "l1GasUsed": "0xad4",
      "tokenRatio": "0xcc2"
    }
  ],
  "libraries": [],
  "pending": [],
  "returns": {},
  "timestamp": 1768237116893,
  "chain": 5003,
  "commit": "584f810"
}