{
  "transactions": [
    {
      "hash": "0xcea9d8b3d82b1105fb9d6d010514a1088f0f6347c268e4546c639104dfbf9d85",
      "transactionType": "CALL",
      "contractName": null,
      "contractAddress": "0xbdc661eecb0dcfb940a34008e0190c9103013c41",
      "function": "grantRole(bytes32,address)",
      "arguments": [
        "0xb19546dff01e856fb3f010c267a7b1c60363cf8a4664e21cc89c26224620214e",
        "0x46dA9F76c20a752132dDaefD2B14870e0A152D71"
      ],
      "transaction": {
        "from": "0x0ece75f3c36f7df2136dac7633165dbff53de3cd",
        "to": "0xbdc661eecb0dcfb940a34008e0190c9103013c41",
        "gas": "0x1205606e",
        "value": "0x0",
        "input": "0x2f2ff15db19546dff01e856fb3f010c267a7b1c60363cf8a4664e21cc89c26224620214e00000000000000000000000046da9f76c20a752132ddaefd2b14870e0a152d71",
        "nonce": "0x4f",
        "chainId": "0x138b"
      },
      "additionalContracts": [],
      "isFixedGasLimit": false
    }
  ],
  "receipts": [
    {
      "status": "0x1",
      "cumulativeGasUsed": "0xb78f264",
      "logs": [
        {
          "address": "0xbdc661eecb0dcfb940a34008e0190c9103013c41",
          "topics": [
            "0x2f8788117e7eff1d82e926ec794901d17c78024a50270940304540a733656f0d",
            "0xb19546dff01e856fb3f010c267a7b1c60363cf8a4664e21cc89c26224620214e",
            "0x00000000000000000000000046da9f76c20a752132ddaefd2b14870e0a152d71",
            "0x0000000000000000000000000ece75f3c36f7df2136dac7633165dbff53de3cd"
          ],
          "data": "0x",
          "blockHash": "0x654a7cf71b302cee7a6f2b92bac030b5236bcfcf673170bfb448bc361b51d5af",
          "blockNumber": "0x1fcd65d",
          "blockTimestamp": "0x69652f9b",
          "transactionHash": "0xcea9d8b3d82b1105fb9d6d010514a1088f0f6347c268e4546c639104dfbf9d85",
          "transactionIndex": "0x1",
          "logIndex": "0x0",
          "removed": false
        }
      ],
      "logsBloom": "0x00000004000000000000000000000000000080000000000000000000008000000000000000000000000000000000000000400000000000000000000000000000000000000000000010000000000000000000000000000000000000000000000000000000000000000000000000000000000000000000200000000000000000000000000000000008000000000000000000000000000000000000000000000000002000000000000000008800000000000000000000000000001000000004000000000000000000000000000000000000000000000000000100000000000000000000000000200000000000000000001000000000000000000000000000000000",
      "type": "0x2",
      "transactionHash": "0xcea9d8b3d82b1105fb9d6d010514a1088f0f6347c268e4546c639104dfbf9d85",
      "transactionIndex": "0x1",
      "blockHash": "0x654a7cf71b302cee7a6f2b92bac030b5236bcfcf673170bfb448bc361b51d5af",
      "blockNumber": "0x1fcd65d",
      "gasUsed": "0xb783b47",
      "effectiveGasPrice": "0x132b3a0",
      "from": "0x0ece75f3c36f7df2136dac7633165dbff53de3cd",
      "to": "0xbdc661eecb0dcfb940a34008e0190c9103013c41",
      "contractAddress": null,
      "l1Fee": "0x691a6cd68306",
      "l1FeeScalar": "0.01",
      "l1GasPrice": "0x47d85fe0",
      "l1GasUsed": "0xb7c",
      "tokenRatio": "0xcbd"
    }
  ],
  "libraries": [],
  "pending": [],
  "returns": {},
  "timestamp": 1768239005796,
  "chain": 5003,
  "commit": "584f810"
}