{
  "transactions": [
    {
      "hash": "0xd99cc7398b83b8e76082cedbf42bb1e84e7663632beaf52219b3b529615b07d2",
      "transactionType": "CALL",
      "contractName": null,
      "contractAddress": "0x46da9f76c20a752132ddaefd2b14870e0a152d71",
      "function": "setIsHealthy(address)",
      "arguments": [
        "0xE2e025Ff8a8adB2561e3C631B5a03842b9A1Ae88"
      ],
      "transaction": {
        "from": "0x0ece75f3c36f7df2136dac7633165dbff53de3cd",
        "to": "0x46da9f76c20a752132ddaefd2b14870e0a152d71",
        "gas": "0x108497b1",
        "value": "0x0",
        "input": "0x59917d7d000000000000000000000000e2e025ff8a8adb2561e3c631b5a03842b9a1ae88",
        "nonce": "0x37",
        "chainId": "0x138b"
      },
      "additionalContracts": [],
      "isFixedGasLimit": false
    },
    {
      "hash": "0x2a863100f17cb7323680250921326ba054654b81f9a3c40313b03d880064d40f",
      "transactionType": "CALL",
      "contractName": null,
      "contractAddress": "0x46da9f76c20a752132ddaefd2b14870e0a152d71",
      "function": "setLendingPoolRouterDeployer(address)",
      "arguments": [
        "0x02a66B51Fc24E08535a6Cfe1e11E532D8A089212"
      ],
      "transaction": {
        "from": "0x0ece75f3c36f7df2136dac7633165dbff53de3cd",
        "to": "0x46da9f76c20a752132ddaefd2b14870e0a152d71",
        "gas": "0x1084abba",
        "value": "0x0",
        "input": "0x8dc15a6600000000000000000000000002a66b51fc24e08535a6cfe1e11e532d8a089212",
        "nonce": "0x38",
        "chainId": "0x138b"
      },
      "additionalContracts": [],
      "isFixedGasLimit": false
    },
    {
      "hash": "0xfa5cb6dfd27d10195c978e181297b5ecca76aaa55e84f5ee7ce1fe0c4cafb19e",
      "transactionType": "CALL",
      "contractName": null,
      "contractAddress": "0x46da9f76c20a752132ddaefd2b14870e0a152d71",
      "function": "setLendingPoolDeployer(address)",
      "arguments": [
        "0x31fC86E13108A098830eea63A8A9f6d80DfC89Aa"
      ],
      "transaction": {
        "from": "0x0ece75f3c36f7df2136dac7633165dbff53de3cd",
        "to": "0x46da9f76c20a752132ddaefd2b14870e0a152d71",
        "gas": "0x10818a8a",
        "value": "0x0",
        "input": "0x00546b2a00000000000000000000000031fc86e13108a098830eea63a8a9f6d80dfc89aa",
        "nonce": "0x39",
        "chainId": "0x138b"
      },
      "additionalContracts": [],
      "isFixedGasLimit": false
    },
    {
      "hash": "0x5c7126841d2d6e891bfce862b6284904fa61cf5299618088e2e0ac11a85cc53b",
      "transactionType": "CALL",
      "contractName": null,
      "contractAddress": "0x46da9f76c20a752132ddaefd2b14870e0a152d71",
      "function": "setProtocol(address)",
      "arguments": [
        "0x5E6AAd48fB0a23E9540A5EAFfb87846E8ef04C42"
      ],
      "transaction": {
        "from": "0x0ece75f3c36f7df2136dac7633165dbff53de3cd",
        "to": "0x46da9f76c20a752132ddaefd2b14870e0a152d71",
        "gas": "0x108ba257",
        "value": "0x0",
        "input": "0x0a9d793d0000000000000000000000005e6aad48fb0a23e9540a5eaffb87846e8ef04c42",
        "nonce": "0x3a",
        "chainId": "0x138b"
      },
      "additionalContracts": [],
      "isFixedGasLimit": false
    },
    {
      "hash": "0x4bcf173d7819e04f336bb1da6f121a028fea113e7cef246df6a444f518147718",
      "transactionType": "CALL",
      "contractName": null,
      "contractAddress": "0x46da9f76c20a752132ddaefd2b14870e0a152d71",
      "function": "setPositionDeployer(address)",
      "arguments": [
        "0x4852Bc014401415C4CE4788A04cAB019d1527aAa"
      ],
      "transaction": {
        "from": "0x0ece75f3c36f7df2136dac7633165dbff53de3cd",
        "to": "0x46da9f76c20a752132ddaefd2b14870e0a152d71",
        "gas": "0x1089ad9b",
        "value": "0x0",
        "input": "0xf8446dcd0000000000000000000000004852bc014401415c4ce4788a04cab019d1527aaa",
        "nonce": "0x3b",
        "chainId": "0x138b"
      },
      "additionalContracts": [],
      "isFixedGasLimit": false
    },
    {
      "hash": "0x1359489f680330af16ccffd1aff811fb63c7455e61964618ed2c532fce1c2baa",
      "transactionType": "CALL",
      "contractName": null,
      "contractAddress": "0x46da9f76c20a752132ddaefd2b14870e0a152d71",
      "function": "setProxyDeployer(address)",
      "arguments": [
        "0xb516190F8192CCEaF8B1DA7D9Ca1C6C75b9F410c"
      ],
      "transaction": {
        "from": "0x0ece75f3c36f7df2136dac7633165dbff53de3cd",
        "to": "0x46da9f76c20a752132ddaefd2b14870e0a152d71",
        "gas": "0x108497b1",
        "value": "0x0",
        "input": "0xaf52c133000000000000000000000000b516190f8192cceaf8b1da7d9ca1c6c75b9f410c",
        "nonce": "0x3c",
        "chainId": "0x138b"
      },
      "additionalContracts": [],
      "isFixedGasLimit": false
    },
    {
      "hash": "0x20edd29175f0453c4211022f1954179ca2bc722fed7a29bfa1efb8e99f60ea54",
      "transactionType": "CALL",
      "contractName": null,
      "contractAddress": "0x46da9f76c20a752132ddaefd2b14870e0a152d71",
      "function": "setDexRouter(address)",
      "arguments": [
        "0x0000000000000000000000000000000000000000"
      ],
      "transaction": {
        "from": "0x0ece75f3c36f7df2136dac7633165dbff53de3cd",
        "to": "0x46da9f76c20a752132ddaefd2b14870e0a152d71",
        "gas": "0xaa93d3e",
        "value": "0x0",
        "input": "0xf72f863b0000000000000000000000000000000000000000000000000000000000000000",
        "nonce": "0x3d",
        "chainId": "0x138b"
      },
      "additionalContracts": [],
      "isFixedGasLimit": false
    },
    {
      "hash": "0xf7747206ec48232d7633e1f6ea166fbc6e4c09cb3b905f113e8c960b96883b70",
      "transactionType": "CALL",
      "contractName": null,
      "contractAddress": "0x46da9f76c20a752132ddaefd2b14870e0a152d71",
      "function": "setSharesTokenDeployer(address)",
      "arguments": [
        "0x33FaBa0e0cE340AfC4fb03038151FF7EE1d5f95b"
      ],
      "transaction": {
        "from": "0x0ece75f3c36f7df2136dac7633165dbff53de3cd",
        "to": "0x46da9f76c20a752132ddaefd2b14870e0a152d71",
        "gas": "0x108808fe",
        "value": "0x0",
        "input": "0xc06f77f200000000000000000000000033faba0e0ce340afc4fb03038151ff7ee1d5f95b",
        "nonce": "0x3e",
        "chainId": "0x138b"
      },
      "additionalContracts": [],
      "isFixedGasLimit": false
    },
    {
      "hash": "0x902811712cccfbcada7ff8713e7c1cf5fd31b11838b045d00e1a7bad48fac2c0",
      "transactionType": "CALL",
      "contractName": null,
      "contractAddress": "0x46da9f76c20a752132ddaefd2b14870e0a152d71",
      "function": "setSupalaEmitter(address)",
      "arguments": [
        "0x46638aD472507482B7D5ba45124E93D16bc97eCE"
      ],
      "transaction": {
        "from": "0x0ece75f3c36f7df2136dac7633165dbff53de3cd",
        "to": "0x46da9f76c20a752132ddaefd2b14870e0a152d71",
        "gas": "0x1088310b",
        "value": "0x0",
        "input": "0x36395ce300000000000000000000000046638ad472507482b7d5ba45124e93d16bc97ece",
        "nonce": "0x3f",
        "chainId": "0x138b"
      },
      "additionalContracts": [],
      "isFixedGasLimit": false
    }
  ],
  "receipts": [
    {
      "status": "0x1",
      "cumulativeGasUsed": "0xa803cf6",
      "logs": [
        {
          "address": "0x46da9f76c20a752132ddaefd2b14870e0a152d71",
          "topics": [
            "0xdfccf581ae27a41845f39125ccb5ef00c0a079c5bf3bf751ecd2045e2d6d442f",
            "0x000000000000000000000000e2e025ff8a8adb2561e3c631b5a03842b9a1ae88"
          ],
          "data": "0x",
          "blockHash": "0xa2691f837713e668f8b1c5cabde9cffebaf9dcc0d9ea6a7fa05a6795f6ea7574",
          "blockNumber": "0x1fcd512",
          "blockTimestamp": "0x69652d05",
          "transactionHash": "0xd99cc7398b83b8e76082cedbf42bb1e84e7663632beaf52219b3b529615b07d2",
          "transactionIndex": "0x1",
          "logIndex": "0x0",
          "removed": false
        }
      ],
      "logsBloom": "0x00000000000000000000000000000000000000000000000000000000000000000000000000000000000000000000000000000000000000000000000000000000000000000000000000000000000000000000000000000000000000000000000000000000000000000000000000000000000800000000000000014000000000000000000000000000000800000000000000000000000000000000000000000000000000000000000000000000000000000000000400000000000000000000000000040000000000000000000100000001000000000000000000000000000000000000000000800000000000000000000000000000000000000000000000000000",
      "type": "0x2",
      "transactionHash": "0xd99cc7398b83b8e76082cedbf42bb1e84e7663632beaf52219b3b529615b07d2",
      "transactionIndex": "0x1",
      "blockHash": "0xa2691f837713e668f8b1c5cabde9cffebaf9dcc0d9ea6a7fa05a6795f6ea7574",
      "blockNumber": "0x1fcd512",
      "gasUsed": "0xa7f85d9",
      "effectiveGasPrice": "0x132b3a0",
      "from": "0x0ece75f3c36f7df2136dac7633165dbff53de3cd",
      "to": "0x46da9f76c20a752132ddaefd2b14870e0a152d71",
      "contractAddress": null,
      "l1Fee": "0x4a346f88c3b0",
      "l1FeeScalar": "0.01",
      "l1GasPrice": "0x3e23103a",
      "l1GasUsed": "0x960",
      "tokenRatio": "0xcbd"
    },
    {
      "status": "0x1",
      "cumulativeGasUsed": "0x32d0c567d",
      "logs": [
        {
          "address": "0x46da9f76c20a752132ddaefd2b14870e0a152d71",
          "topics": [
            "0x1f4863d4b849d378969f0cf16d48d4a72c921b296c978602cab2cb4aa5d32d4e",
            "0x00000000000000000000000002a66b51fc24e08535a6cfe1e11e532d8a089212"
          ],
          "data": "0x",
          "blockHash": "0x5831dbcd70b524c7534526345efea9ab7fcf794d28c481cc50bb5d6c87575d80",
          "blockNumber": "0x1fcd516",
          "blockTimestamp": "0x69652d0d",
          "transactionHash": "0x2a863100f17cb7323680250921326ba054654b81f9a3c40313b03d880064d40f",
          "transactionIndex": "0x3",
          "logIndex": "0x3",
          "removed": false
        }
      ],
      "logsBloom": "0x00000000000000000000000000000000000000000000000000000000000000000000000000000000000000000000000000000000000000000000000000000000000000000000000000000000000000000000000000000000000010000000000000000000000000000000000000000000000800000000000000000000000000000000000000000000000000000000004000000000000000000000000000000000000000010000000000000000000000200000000000000000000000000000000000040000040000000000000000000000020000000000000000000000000000000000000000800000000000000000000000000000000000000000000000000000",
      "type": "0x2",
      "transactionHash": "0x2a863100f17cb7323680250921326ba054654b81f9a3c40313b03d880064d40f",
      "transactionIndex": "0x3",
      "blockHash": "0x5831dbcd70b524c7534526345efea9ab7fcf794d28c481cc50bb5d6c87575d80",
      "blockNumber": "0x1fcd516",
      "gasUsed": "0xa7a5094",
      "effectiveGasPrice": "0x132b3a0",
      "from": "0x0ece75f3c36f7df2136dac7633165dbff53de3cd",
      "to": "0x46da9f76c20a752132ddaefd2b14870e0a152d71",
      "contractAddress": null,
      "l1Fee": "0x43de2429631c",
      "l1FeeScalar": "0.01",
      "l1GasPrice": "0x388c3856",
      "l1GasUsed": "0x96c",
      "tokenRatio": "0xcbd"
    },
    {
      "status": "0x1",
      "cumulativeGasUsed": "0xa753452",
      "logs": [
        {
          "address": "0x46da9f76c20a752132ddaefd2b14870e0a152d71",
          "topics": [
            "0xb01c17406179a638da96eaa4686f4c1b6367270061946142c4a8ea461023d517",
            "0x00000000000000000000000031fc86e13108a098830eea63a8a9f6d80dfc89aa"
          ],
          "data": "0x",
          "blockHash": "0xfd52c11b8241261366fc5c8ad308743382dc714c3a517979a83ab21fd02af889",
          "blockNumber": "0x1fcd51a",
          "blockTimestamp": "0x69652d15",
          "transactionHash": "0xfa5cb6dfd27d10195c978e181297b5ecca76aaa55e84f5ee7ce1fe0c4cafb19e",
          "transactionIndex": "0x1",
          "logIndex": "0x0",
          "removed": false
        }
      ],
      "logsBloom": "0x00000000000000000000000000000400000000000000000000000000000000000000000000000000000000000000000000000000000000000040000000000000000000000000000000000000000000000000000000000000000001000000000000000000000000000000000000000000000800000000000000000000000000000000000000000000000000000000000000000000000000000000000000000000000000000000000000000000000000000000000000000000000000000000000000040000000000000000800000000000000000000000000000000000000000000000000000800000000000001000800000000000000000000000000000000000",
      "type": "0x2",
      "transactionHash": "0xfa5cb6dfd27d10195c978e181297b5ecca76aaa55e84f5ee7ce1fe0c4cafb19e",
      "transactionIndex": "0x1",
      "blockHash": "0xfd52c11b8241261366fc5c8ad308743382dc714c3a517979a83ab21fd02af889",
      "blockNumber": "0x1fcd51a",
      "gasUsed": "0xa745c71",
      "effectiveGasPrice": "0x132b3a0",
      "from": "0x0ece75f3c36f7df2136dac7633165dbff53de3cd",
      "to": "0x46da9f76c20a752132ddaefd2b14870e0a152d71",
      "contractAddress": null,
      "l1Fee": "0x3eb2e9569950",
      "l1FeeScalar": "0.01",
      "l1GasPrice": "0x34809126",
      "l1GasUsed": "0x960",
      "tokenRatio": "0xcbd"
    },
    {
      "status": "0x1",
      "cumulativeGasUsed": "0xa7ada13",
      "logs": [
        {
          "address": "0x46da9f76c20a752132ddaefd2b14870e0a152d71",
          "topics": [
            "0x9269d63ac6e0360a152db45a73e3e9e471a002419dff28abc7b58efaa211a2ba",
            "0x0000000000000000000000005e6aad48fb0a23e9540a5eaffb87846e8ef04c42"
          ],
          "data": "0x",
          "blockHash": "0xfff2f77285e8ba3a9adddee899a46bc7bc9ca39deed424b88ee156693a81afd3",
          "blockNumber": "0x1fcd51f",
          "blockTimestamp": "0x69652d1f",
          "transactionHash": "0x5c7126841d2d6e891bfce862b6284904fa61cf5299618088e2e0ac11a85cc53b",
          "transactionIndex": "0x1",
          "logIndex": "0x0",
          "removed": false
        }
      ],
      "logsBloom": "0x00000000000000000000000000000000000000000000000000000000000000000000000000000000000000000000000000000000000000000000000000000000000400000000000000000000000000000000000000000000000000000000000000000000000000000000000000000000000800000000000000000000000000000000000000000002000000000000000000000000008000000000000000000000000000001000000000000000000000000000000000000000800000800000000000040000000000000000000000000000000000000000000000000000000000000000000000800000000000000000000000000000000000000000000000000000",
      "type": "0x2",
      "transactionHash": "0x5c7126841d2d6e891bfce862b6284904fa61cf5299618088e2e0ac11a85cc53b",
      "transactionIndex": "0x1",
      "blockHash": "0xfff2f77285e8ba3a9adddee899a46bc7bc9ca39deed424b88ee156693a81afd3",
      "blockNumber": "0x1fcd51f",
      "gasUsed": "0xa7a22f6",
      "effectiveGasPrice": "0x132b3a0",
      "from": "0x0ece75f3c36f7df2136dac7633165dbff53de3cd",
      "to": "0x46da9f76c20a752132ddaefd2b14870e0a152d71",
      "contractAddress": null,
      "l1Fee": "0x3e62a82bed06",
      "l1FeeScalar": "0.01",
      "l1GasPrice": "0x34809126",
      "l1GasUsed": "0x954",
      "tokenRatio": "0xcbd"
    },
    {
      "status": "0x1",
      "cumulativeGasUsed": "0xa80b764",
      "logs": [
        {
          "address": "0x46da9f76c20a752132ddaefd2b14870e0a152d71",
          "topics": [
            "0x87f38b33506619f9f981cdf0439928c07e8478960e3b27545f27bae983b1ff8b",
            "0x0000000000000000000000004852bc014401415c4ce4788a04cab019d1527aaa"
          ],
          "data": "0x",
          "blockHash": "0xb0fa131f3f2bb8e05e1c6b0332f2569e69a9a04531b0e267ce05af72972b9fef",
          "blockNumber": "0x1fcd522",
          "blockTimestamp": "0x69652d25",
          "transactionHash": "0x4bcf173d7819e04f336bb1da6f121a028fea113e7cef246df6a444f518147718",
          "transactionIndex": "0x1",
          "logIndex": "0x0",
          "removed": false
        }
      ],
      "logsBloom": "0x00000000000000000000000000000000000000000000000000000000000000000000000000000000000000000000000000000000000000000000000000000000000000000000001000000000000000000000000000000000000000000000000000000000000000000000000000000000000800000000000000000000000000000000000000000000000800000000000000000000000000000000000000000000000000800000000000000000000000000000000000000080000000000000000000040000000000000000000000000000000000000000000000000000800000000000000000804000000000000000000000000000000000000000000000000000",
      "type": "0x2",
      "transactionHash": "0x4bcf173d7819e04f336bb1da6f121a028fea113e7cef246df6a444f518147718",
      "transactionIndex": "0x1",
      "blockHash": "0xb0fa131f3f2bb8e05e1c6b0332f2569e69a9a04531b0e267ce05af72972b9fef",
      "blockNumber": "0x1fcd522",
      "gasUsed": "0xa800047",
      "effectiveGasPrice": "0x132b3a0",
      "from": "0x0ece75f3c36f7df2136dac7633165dbff53de3cd",
      "to": "0x46da9f76c20a752132ddaefd2b14870e0a152d71",
      "contractAddress": null,
      "l1Fee": "0x46e26e78b78c",
      "l1FeeScalar": "0.01",
      "l1GasPrice": "0x3b0fb235",
      "l1GasUsed": "0x96c",
      "tokenRatio": "0xcbd"
    },
    {
      "status": "0x1",
      "cumulativeGasUsed": "0xa851cd5",
      "logs": [
        {
          "address": "0x46da9f76c20a752132ddaefd2b14870e0a152d71",
          "topics": [
            "0x9accaad01ff0db4556869245d0b39a4b908f678e12ccfe038dac21062c22d7fb",
            "0x000000000000000000000000b516190f8192cceaf8b1da7d9ca1c6c75b9f410c"
          ],
          "data": "0x",
          "blockHash": "0x6fcbc9fc2e66a8878bead2ddfc96c32e4dc7005b0392087e2b3b6e7d938b526d",
          "blockNumber": "0x1fcd527",
          "blockTimestamp": "0x69652d2f",
          "transactionHash": "0x1359489f680330af16ccffd1aff811fb63c7455e61964618ed2c532fce1c2baa",
          "transactionIndex": "0x1",
          "logIndex": "0x0",
          "removed": false
        }
      ],
      "logsBloom": "0x00000000000000000000000000011000000000000000000000000000000000000000000000000000000000000040000000000000000000000000000000000000000000000000000000000000000000000000008000000000000000000000000000000000000000000000000000000000000800000000000000000000000000000000000000000000000000000000000000000000000000000000000000000000000000000000000000000000000000000000000000000000000000000000000000040000000000000000000000000000000000400000000000000000000000000000000008800000000000000000000000000000000000000000000000000000",
      "type": "0x2",
      "transactionHash": "0x1359489f680330af16ccffd1aff811fb63c7455e61964618ed2c532fce1c2baa",
      "transactionIndex": "0x1",
      "blockHash": "0x6fcbc9fc2e66a8878bead2ddfc96c32e4dc7005b0392087e2b3b6e7d938b526d",
      "blockNumber": "0x1fcd527",
      "gasUsed": "0xa8422ec",
      "effectiveGasPrice": "0x132b3a0",
      "from": "0x0ece75f3c36f7df2136dac7633165dbff53de3cd",
      "to": "0x46da9f76c20a752132ddaefd2b14870e0a152d71",
      "contractAddress": null,
      "l1Fee": "0x4fbc983f7037",
      "l1FeeScalar": "0.01",
      "l1GasPrice": "0x426fdfdc",
      "l1GasUsed": "0x96c",
      "tokenRatio": "0xcbd"
    },
    {
      "status": "0x1",
      "cumulativeGasUsed": "0x102bf539",
      "logs": [
        {
          "address": "0x46da9f76c20a752132ddaefd2b14870e0a152d71",
          "topics": [
            "0x0b7d876ae8d87054bd191d9a2294c7bc50817a9efd22cb0376d4b14838eb271c",
            "0x0000000000000000000000000000000000000000000000000000000000000000"
          ],
          "data": "0x",
          "blockHash": "0x1b89d8c2b9ae2e3df929a5803afc0153fa8fad4e379ffdfb39d83e34ac8795d0",
          "blockNumber": "0x1fcd52a",
          "blockTimestamp": "0x69652d35",
          "transactionHash": "0x20edd29175f0453c4211022f1954179ca2bc722fed7a29bfa1efb8e99f60ea54",
          "transactionIndex": "0x3",
          "logIndex": "0x1",
          "removed": false
        }
      ],
      "logsBloom": "0x00000000004000000000000000000000000020000000000000000000000000000000000000000000000000000000000000000000000000000000000000000000000000000000000000000000000000000000000000000000000000000000000000000000020000000000000000000800000800000000000000000000000000000000000000000000000000000000000000000000000000000000000000000000000000000000000000000000000000000000000000000000000000000000000000040000000000000000000000000000000000000000000001000000000020000000000000800000000000000000000000000000000000000000000000000000",
      "type": "0x2",
      "transactionHash": "0x20edd29175f0453c4211022f1954179ca2bc722fed7a29bfa1efb8e99f60ea54",
      "transactionIndex": "0x3",
      "blockHash": "0x1b89d8c2b9ae2e3df929a5803afc0153fa8fad4e379ffdfb39d83e34ac8795d0",
      "blockNumber": "0x1fcd52a",
      "gasUsed": "0x6958c4e",
      "effectiveGasPrice": "0x132b3a0",
      "from": "0x0ece75f3c36f7df2136dac7633165dbff53de3cd",
      "to": "0x46da9f76c20a752132ddaefd2b14870e0a152d71",
      "contractAddress": null,
      "l1Fee": "0x47cd7da2d667",
      "l1FeeScalar": "0.01",
      "l1GasPrice": "0x426fdfdc",
      "l1GasUsed": "0x87c",
      "tokenRatio": "0xcbd"
    },
    {
      "status": "0x1",
      "cumulativeGasUsed": "0xa81a01c",
      "logs": [
        {
          "address": "0x46da9f76c20a752132ddaefd2b14870e0a152d71",
          "topics": [
            "0xdc3a4d4738b334cf6f84c1e51035f979f0e2ec5061a106e19a1c4a61f13c60ef",
            "0x00000000000000000000000033faba0e0ce340afc4fb03038151ff7ee1d5f95b"
          ],
          "data": "0x",
          "blockHash": "0xe68e9d3a12a1724388f8fe99a07e5d7308b6d2977d9914f3cd1c577e8de8a501",
          "blockNumber": "0x1fcd52f",
          "blockTimestamp": "0x69652d3f",
          "transactionHash": "0xf7747206ec48232d7633e1f6ea166fbc6e4c09cb3b905f113e8c960b96883b70",
          "transactionIndex": "0x1",
          "logIndex": "0x0",
          "removed": false
        }
      ],
      "logsBloom": "0x00000000000000000000000000000000000000000010000000000000000000000000000000000000020000000000000000000000000000000000000000000000000000000000000000000000000000000000000000000000000000000000000000000000000000800000000000000000000801000000000000000000000000000000000000000000000000000000000000200000000000000000000000000000000000000000000000000000000000000080000000000000000000000000000000040000000000000000000000000000000000000000000000000000000000000000000000800000000000000000000000000000000000000000000000000000",
      "type": "0x2",
      "transactionHash": "0xf7747206ec48232d7633e1f6ea166fbc6e4c09cb3b905f113e8c960b96883b70",
      "transactionIndex": "0x1",
      "blockHash": "0xe68e9d3a12a1724388f8fe99a07e5d7308b6d2977d9914f3cd1c577e8de8a501",
      "blockNumber": "0x1fcd52f",
      "gasUsed": "0xa80e8ff",
      "effectiveGasPrice": "0x132b3a0",
      "from": "0x0ece75f3c36f7df2136dac7633165dbff53de3cd",
      "to": "0x46da9f76c20a752132ddaefd2b14870e0a152d71",
      "contractAddress": null,
      "l1Fee": "0x4935dd07408b",
      "l1FeeScalar": "0.01",
      "l1GasPrice": "0x3cffd019",
      "l1GasUsed": "0x96c",
      "tokenRatio": "0xcbd"
    },
    {
      "status": "0x1",
      "cumulativeGasUsed": "0xa7e2f33",
      "logs": [
        {
          "address": "0x46da9f76c20a752132ddaefd2b14870e0a152d71",
          "topics": [
            "0x25a81c5d432e9c6b101507eaa806f49aac98e50902acb359ff58a9e93c686de2",
            "0x00000000000000000000000046638ad472507482b7d5ba45124e93d16bc97ece"
          ],
          "data": "0x",
          "blockHash": "0xb71a015f105d790bf80f2d479f06935f06601711748f232f10fa719f5869bf0c",
          "blockNumber": "0x1fcd534",
          "blockTimestamp": "0x69652d49",
          "transactionHash": "0x902811712cccfbcada7ff8713e7c1cf5fd31b11838b045d00e1a7bad48fac2c0",
          "transactionIndex": "0x1",
          "logIndex": "0x0",
          "removed": false
        }
      ],
      "logsBloom": "0x00000000000000000000000000000000000000000000000000000000000040000000000000000000000000000000010000000000000000000000010000000000000000000000000000000000000000000000000000000000000000000002000000000000000000000000000000000000000800000000000000000000000000000000000000000000000000000000000000000000000000000000000000000000000000000000000000000000000000000000000000000000000000000040000000040000000004000000000000000000000000000000000000000000000000000000000000800000000000000000000000000000000000000000000000000000",
      "type": "0x2",
      "transactionHash": "0x902811712cccfbcada7ff8713e7c1cf5fd31b11838b045d00e1a7bad48fac2c0",
      "transactionIndex": "0x1",
      "blockHash": "0xb71a015f105d790bf80f2d479f06935f06601711748f232f10fa719f5869bf0c",
      "blockNumber": "0x1fcd534",
      "gasUsed": "0xa7d7816",
      "effectiveGasPrice": "0x132b3a0",
      "from": "0x0ece75f3c36f7df2136dac7633165dbff53de3cd",
      "to": "0x46da9f76c20a752132ddaefd2b14870e0a152d71",
      "contractAddress": null,
      "l1Fee": "0x44fdb3e682b4",
      "l1FeeScalar": "0.01",
      "l1GasPrice": "0x397bd155",
      "l1GasUsed": "0x96c",
      "tokenRatio": "0xcbd"
    }
  ],
  "libraries": [],
  "pending": [],
  "returns": {},
  "timestamp": 1768238411668,
  "chain": 5003,
  "commit": "584f810"
}