{
  "transactions": [
    {
      "hash": "0x7601ae82552125a208dc6adf6a5a01f2509598aef4c09486f87717d1b4e274ad",
      "transactionType": "CALL",
      "contractName": null,
      "contractAddress": "0x46da9f76c20a752132ddaefd2b14870e0a152d71",
      "function": "setLendingPoolDeployer(address)",
      "arguments": [
        "0xcDA0BeBC32BEC4813e6307a3d7774702Fdf6392f"
      ],
      "transaction": {
        "from": "0x0ece75f3c36f7df2136dac7633165dbff53de3cd",
        "to": "0x46da9f76c20a752132ddaefd2b14870e0a152d71",
        "gas": "0xbbec68b",
        "value": "0x0",
        "input": "0x00546b2a000000000000000000000000cda0bebc32bec4813e6307a3d7774702fdf6392f",
        "nonce": "0xb8",
        "chainId": "0x138b"
      },
      "additionalContracts": [],
      "isFixedGasLimit": false
    }
  ],
  "receipts": [
    {
      "status": "0x1",
      "cumulativeGasUsed": "0x77b1cf3",
      "logs": [
        {
          "address": "0x46da9f76c20a752132ddaefd2b14870e0a152d71",
          "topics": [
            "0xb01c17406179a638da96eaa4686f4c1b6367270061946142c4a8ea461023d517",
            "0x000000000000000000000000cda0bebc32bec4813e6307a3d7774702fdf6392f"
          ],
          "data": "0x",
          "blockHash": "0xaf2678d50f8051467478a0628120d884918e839e76359dda66a1210f70a41e9c",
          "blockNumber": "0x1fe3469",
          "blockTimestamp": "0x6967ebb3",
          "transactionHash": "0x7601ae82552125a208dc6adf6a5a01f2509598aef4c09486f87717d1b4e274ad",
          "transactionIndex": "0x1",
          "logIndex": "0x0",
          "removed": false
        }
      ],
      "logsBloom": "0x00000000000000000000000000000400000000000000000000000000000000000000000000000000080000000000000000000000000022000040000000000000000000000000000000000000000000000000000000000000000000000000000000000000000000000000000000000000000800000000000000000000000000000000000000000000000000000000000000000000000000000000000000000000000000000000000000000000000000000000000000000000000000000000000000040000000000000000800000000000000000000000000000000000000000000000000000800000000000000000000000000000000000000000000000000000",
      "type": "0x2",
      "transactionHash": "0x7601ae82552125a208dc6adf6a5a01f2509598aef4c09486f87717d1b4e274ad",
      "transactionIndex": "0x1",
      "blockHash": "0xaf2678d50f8051467478a0628120d884918e839e76359dda66a1210f70a41e9c",
      "blockNumber": "0x1fe3469",
      "gasUsed": "0x77a65d6",
      "effectiveGasPrice": "0x132b3a0",
      "from": "0x0ece75f3c36f7df2136dac7633165dbff53de3cd",
      "to": "0x46da9f76c20a752132ddaefd2b14870e0a152d71",
      "contractAddress": null,
      "l1Fee": "0x51f370b797fd",
      "l1FeeScalar": "0.01",
      "l1GasPrice": "0x417a6f7d",
      "l1GasUsed": "0x970",
      "tokenRatio": "0xd43"
    }
  ],
  "libraries": [],
  "pending": [],
  "returns": {},
  "timestamp": 1768418230806,
  "chain": 5003,
  "commit": "8452902"
}