{
  "transactions": [
    {
      "hash": "0x43365f1a44bb25e14c673884bc8edea53df16e68f0d579da360b447621aca78e",
      "transactionType": "CALL",
      "contractName": null,
      "contractAddress": "0x6edce65403992e310a62460808c4b910d972f10f",
      "function": "setSendLibrary(address,uint32,address)",
      "arguments": [
        "0xC327486Db1417644f201d84414bbeA6C8A948bef",
        "40246",
        "0x9A289B849b32FF69A95F8584a03343a33Ff6e5Fd"
      ],
      "transaction": {
        "from": "0x0ece75f3c36f7df2136dac7633165dbff53de3cd",
        "to": "0x6edce65403992e310a62460808c4b910d972f10f",
        "gas": "0x11cad332",
        "value": "0x0",
        "input": "0x9535ff30000000000000000000000000c327486db1417644f201d84414bbea6c8a948bef0000000000000000000000000000000000000000000000000000000000009d360000000000000000000000009a289b849b32ff69a95f8584a03343a33ff6e5fd",
        "nonce": "0x18",
        "chainId": "0x138b"
      },
      "additionalContracts": [],
      "isFixedGasLimit": false
    },
    {
      "hash": "0xc7b0b7d77143a5de4e8b1fa16552451861964facd605b267f811951c6904aa39",
      "transactionType": "CALL",
      "contractName": null,
      "contractAddress": "0x6edce65403992e310a62460808c4b910d972f10f",
      "function": "setSendLibrary(address,uint32,address)",
      "arguments": [
        "0xC327486Db1417644f201d84414bbeA6C8A948bef",
        "40245",
        "0x9A289B849b32FF69A95F8584a03343a33Ff6e5Fd"
      ],
      "transaction": {
        "from": "0x0ece75f3c36f7df2136dac7633165dbff53de3cd",
        "to": "0x6edce65403992e310a62460808c4b910d972f10f",
        "gas": "0x11cad332",
        "value": "0x0",
        "input": "0x9535ff30000000000000000000000000c327486db1417644f201d84414bbea6c8a948bef0000000000000000000000000000000000000000000000000000000000009d350000000000000000000000009a289b849b32ff69a95f8584a03343a33ff6e5fd",
        "nonce": "0x19",
        "chainId": "0x138b"
      },
      "additionalContracts": [],
      "isFixedGasLimit": false
    },
    {
      "hash": "0x2d7420fef31f2bc4c56860f59d54cf0ea7c924ea3d5a026ef192dec97c951b13",
      "transactionType": "CALL",
      "contractName": null,
      "contractAddress": "0x6edce65403992e310a62460808c4b910d972f10f",
      "function": "setReceiveLibrary(address,uint32,address,uint256)",
      "arguments": [
        "0xC327486Db1417644f201d84414bbeA6C8A948bef",
        "40246",
        "0x8A3D588D9f6AC041476b094f97FF94ec30169d3D",
        "0"
      ],
      "transaction": {
        "from": "0x0ece75f3c36f7df2136dac7633165dbff53de3cd",
        "to": "0x6edce65403992e310a62460808c4b910d972f10f",
        "gas": "0x13d79dd1",
        "value": "0x0",
        "input": "0x6a14d715000000000000000000000000c327486db1417644f201d84414bbea6c8a948bef0000000000000000000000000000000000000000000000000000000000009d360000000000000000000000008a3d588d9f6ac041476b094f97ff94ec30169d3d0000000000000000000000000000000000000000000000000000000000000000",
        "nonce": "0x1a",
        "chainId": "0x138b"
      },
      "additionalContracts": [],
      "isFixedGasLimit": false
    }
  ],
  "receipts": [
    {
      "status": "0x1",
      "cumulativeGasUsed": "0xb51efd4",
      "logs": [
        {
          "address": "0x6edce65403992e310a62460808c4b910d972f10f",
          "topics": [
            "0x4cff966ebee29a156dcb34cf72c1d06231fb1777f6bdf6e8089819232f002b1c"
          ],
          "data": "0x000000000000000000000000c327486db1417644f201d84414bbea6c8a948bef0000000000000000000000000000000000000000000000000000000000009d360000000000000000000000009a289b849b32ff69a95f8584a03343a33ff6e5fd",
          "blockHash": "0x99978a6ca753b4af4ce4a433f6c2ccb8aee2f5899aff53e1ef4bbb2cc49be8ad",
          "blockNumber": "0x1fccf76",
          "blockTimestamp": "0x696521cd",
          "transactionHash": "0x43365f1a44bb25e14c673884bc8edea53df16e68f0d579da360b447621aca78e",
          "transactionIndex": "0x1",
          "logIndex": "0x0",
          "removed": false
        }
      ],
      "logsBloom": "0x00000000000000000000000000000000000200000000000000000000000000000000000000000000200000000000000000000000000000000000000001000000000000000000000000000000000000000000000000000000000000000000000000000000000000000200000000000000000000000000000000000000000000000000000000000020000000000000000000000000000000000000000000000000000000000000000000000000000000000000000000000000000000000000000000000000000000000000000000000000000000000000000000000000000000000040000000000000000000000000000000000000000000000000000000000000",
      "type": "0x2",
      "transactionHash": "0x43365f1a44bb25e14c673884bc8edea53df16e68f0d579da360b447621aca78e",
      "transactionIndex": "0x1",
      "blockHash": "0x99978a6ca753b4af4ce4a433f6c2ccb8aee2f5899aff53e1ef4bbb2cc49be8ad",
      "blockNumber": "0x1fccf76",
      "gasUsed": "0xb5138c3",
      "effectiveGasPrice": "0x132b3a0",
      "from": "0x0ece75f3c36f7df2136dac7633165dbff53de3cd",
      "to": "0x6edce65403992e310a62460808c4b910d972f10f",
      "contractAddress": null,
      "l1Fee": "0x133ee63c17a5",
      "l1FeeScalar": "0.01",
      "l1GasPrice": "0xd157cdb",
      "l1GasUsed": "0xb84",
      "tokenRatio": "0xcc6"
    },
    {
      "status": "0x1",
      "cumulativeGasUsed": "0xb51ecf9",
      "logs": [
        {
          "address": "0x6edce65403992e310a62460808c4b910d972f10f",
          "topics": [
            "0x4cff966ebee29a156dcb34cf72c1d06231fb1777f6bdf6e8089819232f002b1c"
          ],
          "data": "0x000000000000000000000000c327486db1417644f201d84414bbea6c8a948bef0000000000000000000000000000000000000000000000000000000000009d350000000000000000000000009a289b849b32ff69a95f8584a03343a33ff6e5fd",
          "blockHash": "0xea578c5b908548be646aee76313907c631dc4e5ef93dafd545828b0438c4db6d",
          "blockNumber": "0x1fccf7a",
          "blockTimestamp": "0x696521d5",
          "transactionHash": "0xc7b0b7d77143a5de4e8b1fa16552451861964facd605b267f811951c6904aa39",
          "transactionIndex": "0x1",
          "logIndex": "0x0",
          "removed": false
        }
      ],
      "logsBloom": "0x00000000000000000000000000000000000200000000000000000000000000000000000000000000200000000000000000000000000000000000000001000000000000000000000000000000000000000000000000000000000000000000000000000000000000000200000000000000000000000000000000000000000000000000000000000020000000000000000000000000000000000000000000000000000000000000000000000000000000000000000000000000000000000000000000000000000000000000000000000000000000000000000000000000000000000040000000000000000000000000000000000000000000000000000000000000",
      "type": "0x2",
      "transactionHash": "0xc7b0b7d77143a5de4e8b1fa16552451861964facd605b267f811951c6904aa39",
      "transactionIndex": "0x1",
      "blockHash": "0xea578c5b908548be646aee76313907c631dc4e5ef93dafd545828b0438c4db6d",
      "blockNumber": "0x1fccf7a",
      "gasUsed": "0xb511524",
      "effectiveGasPrice": "0x132b3a0",
      "from": "0x0ece75f3c36f7df2136dac7633165dbff53de3cd",
      "to": "0x6edce65403992e310a62460808c4b910d972f10f",
      "contractAddress": null,
      "l1Fee": "0x131ecf015f66",
      "l1FeeScalar": "0.01",
      "l1GasPrice": "0xcffabd7",
      "l1GasUsed": "0xb84",
      "tokenRatio": "0xcc6"
    },
    {
      "status": "0x1",
      "cumulativeGasUsed": "0x207b4566",
      "logs": [
        {
          "address": "0x6edce65403992e310a62460808c4b910d972f10f",
          "topics": [
            "0xcd6f92f5ac6185a5acfa02c92090746cec64d777269cbcd0ed031e396657a1c2"
          ],
          "data": "0x000000000000000000000000c327486db1417644f201d84414bbea6c8a948bef0000000000000000000000000000000000000000000000000000000000009d360000000000000000000000008a3d588d9f6ac041476b094f97ff94ec30169d3d",
          "blockHash": "0x40deed52aebaaed7bb5009851c2016d6da51e8479899b2392d9bbf87ec0616a2",
          "blockNumber": "0x1fccf7e",
          "blockTimestamp": "0x696521dd",
          "transactionHash": "0x2d7420fef31f2bc4c56860f59d54cf0ea7c924ea3d5a026ef192dec97c951b13",
          "transactionIndex": "0x2",
          "logIndex": "0x1",
          "removed": false
        },
        {
          "address": "0x6edce65403992e310a62460808c4b910d972f10f",
          "topics": [
            "0x4e0a5bbfa0c11a64effb1ada324b5437a17272e1aed9320398715ef71bb20928"
          ],
          "data": "0x000000000000000000000000c327486db1417644f201d84414bbea6c8a948bef0000000000000000000000000000000000000000000000000000000000009d3600000000000000000000000000000000000000000000000000000000000000000000000000000000000000000000000000000000000000000000000000000000",
          "blockHash": "0x40deed52aebaaed7bb5009851c2016d6da51e8479899b2392d9bbf87ec0616a2",
          "blockNumber": "0x1fccf7e",
          "blockTimestamp": "0x696521dd",
          "transactionHash": "0x2d7420fef31f2bc4c56860f59d54cf0ea7c924ea3d5a026ef192dec97c951b13",
          "transactionIndex": "0x2",
          "logIndex": "0x2",
          "removed": false
        }
      ],
      "logsBloom": "0x00000000000000000000020800000000000000000000000000000000000000020400000000000000200000000000000000000000000000000000000000000000000000000000000000000000000000000000000000800000000000000000000000000000000000000200000000000000000000000000000000000000000000100000000000000020000000000000000000000000000000000000000000000000000000000000000000000000000000000000000000000000000000000000000000000000000000000000000000000000000000000000000000000000000000000000000000000000000000000000000000000000000000000000000000000000",
      "type": "0x2",
      "transactionHash": "0x2d7420fef31f2bc4c56860f59d54cf0ea7c924ea3d5a026ef192dec97c951b13",
      "transactionIndex": "0x2",
      "blockHash": "0x40deed52aebaaed7bb5009851c2016d6da51e8479899b2392d9bbf87ec0616a2",
      "blockNumber": "0x1fccf7e",
      "gasUsed": "0xc9ed3cf",
      "effectiveGasPrice": "0x132b3a0",
      "from": "0x0ece75f3c36f7df2136dac7633165dbff53de3cd",
      "to": "0x6edce65403992e310a62460808c4b910d972f10f",
      "contractAddress": null,
      "l1Fee": "0x13f3566e2773",
      "l1FeeScalar": "0.01",
      "l1GasPrice": "0xcffabd7",
      "l1GasUsed": "0xc04",
      "tokenRatio": "0xcc6"
    }
  ],
  "libraries": [],
  "pending": [],
  "returns": {},
  "timestamp": 1768235489515,
  "chain": 5003,
  "commit": "584f810"
}