{
  "transactions": [
    {
      "hash": "0x51bf7665e62cae0b00f1e7debea8c2d3561d71cf237bc774a1376cc59bf025e4",
      "transactionType": "CALL",
      "contractName": null,
      "contractAddress": "0x6edce65403992e310a62460808c4b910d972f10f",
      "function": "setSendLibrary(address,uint32,address)",
      "arguments": [
        "0xa7f7368b6CBdF2bE4d508ad85d2CC1F3248a9ED5",
        "40246",
        "0x9A289B849b32FF69A95F8584a03343a33Ff6e5Fd"
      ],
      "transaction": {
        "from": "0x0ece75f3c36f7df2136dac7633165dbff53de3cd",
        "to": "0x6edce65403992e310a62460808c4b910d972f10f",
        "gas": "0x120e4013",
        "value": "0x0",
        "input": "0x9535ff30000000000000000000000000a7f7368b6cbdf2be4d508ad85d2cc1f3248a9ed50000000000000000000000000000000000000000000000000000000000009d360000000000000000000000009a289b849b32ff69a95f8584a03343a33ff6e5fd",
        "nonce": "0x5e",
        "chainId": "0x138b"
      },
      "additionalContracts": [],
      "isFixedGasLimit": false
    },
    {
      "hash": "0xfc4e3e72716dc81b804ce121f6d9dcb16dad0c1def6b093c0c0f1df252fec401",
      "transactionType": "CALL",
      "contractName": null,
      "contractAddress": "0x6edce65403992e310a62460808c4b910d972f10f",
      "function": "setSendLibrary(address,uint32,address)",
      "arguments": [
        "0xa7f7368b6CBdF2bE4d508ad85d2CC1F3248a9ED5",
        "40245",
        "0x9A289B849b32FF69A95F8584a03343a33Ff6e5Fd"
      ],
      "transaction": {
        "from": "0x0ece75f3c36f7df2136dac7633165dbff53de3cd",
        "to": "0x6edce65403992e310a62460808c4b910d972f10f",
        "gas": "0x120e4013",
        "value": "0x0",
        "input": "0x9535ff30000000000000000000000000a7f7368b6cbdf2be4d508ad85d2cc1f3248a9ed50000000000000000000000000000000000000000000000000000000000009d350000000000000000000000009a289b849b32ff69a95f8584a03343a33ff6e5fd",
        "nonce": "0x5f",
        "chainId": "0x138b"
      },
      "additionalContracts": [],
      "isFixedGasLimit": false
    },
    {
      "hash": "0x648d23c4b931b7beae343861606bbc8c237db378ac5287875be30ce80920bd13",
      "transactionType": "CALL",
      "contractName": null,
      "contractAddress": "0x6edce65403992e310a62460808c4b910d972f10f",
      "function": "setReceiveLibrary(address,uint32,address,uint256)",
      "arguments": [
        "0xa7f7368b6CBdF2bE4d508ad85d2CC1F3248a9ED5",
        "40246",
        "0x8A3D588D9f6AC041476b094f97FF94ec30169d3D",
        "0"
      ],
      "transaction": {
        "from": "0x0ece75f3c36f7df2136dac7633165dbff53de3cd",
        "to": "0x6edce65403992e310a62460808c4b910d972f10f",
        "gas": "0x141c8a0d",
        "value": "0x0",
        "input": "0x6a14d715000000000000000000000000a7f7368b6cbdf2be4d508ad85d2cc1f3248a9ed50000000000000000000000000000000000000000000000000000000000009d360000000000000000000000008a3d588d9f6ac041476b094f97ff94ec30169d3d0000000000000000000000000000000000000000000000000000000000000000",
        "nonce": "0x60",
        "chainId": "0x138b"
      },
      "additionalContracts": [],
      "isFixedGasLimit": false
    },
    {
      "hash": "0x1b0f80bfc5a4d44ff8857f6dba58315e26d22722f7b63a0d4924e981510ec6f2",
      "transactionType": "CALL",
      "contractName": null,
      "contractAddress": "0x6edce65403992e310a62460808c4b910d972f10f",
      "function": "setSendLibrary(address,uint32,address)",
      "arguments": [
        "0x64493Bd2F250cC05D75bCa93cc95447e2834638b",
        "40246",
        "0x9A289B849b32FF69A95F8584a03343a33Ff6e5Fd"
      ],
      "transaction": {
        "from": "0x0ece75f3c36f7df2136dac7633165dbff53de3cd",
        "to": "0x6edce65403992e310a62460808c4b910d972f10f",
        "gas": "0x120e4013",
        "value": "0x0",
        "input": "0x9535ff3000000000000000000000000064493bd2f250cc05d75bca93cc95447e2834638b0000000000000000000000000000000000000000000000000000000000009d360000000000000000000000009a289b849b32ff69a95f8584a03343a33ff6e5fd",
        "nonce": "0x61",
        "chainId": "0x138b"
      },
      "additionalContracts": [],
      "isFixedGasLimit": false
    },
    {
      "hash": "0x5bff86eae293aceefc6d5f4f3b93d8316cf949716333046b0ec996997e89ede6",
      "transactionType": "CALL",
      "contractName": null,
      "contractAddress": "0x6edce65403992e310a62460808c4b910d972f10f",
      "function": "setSendLibrary(address,uint32,address)",
      "arguments": [
        "0x64493Bd2F250cC05D75bCa93cc95447e2834638b",
        "40245",
        "0x9A289B849b32FF69A95F8584a03343a33Ff6e5Fd"
      ],
      "transaction": {
        "from": "0x0ece75f3c36f7df2136dac7633165dbff53de3cd",
        "to": "0x6edce65403992e310a62460808c4b910d972f10f",
        "gas": "0x120e4013",
        "value": "0x0",
        "input": "0x9535ff3000000000000000000000000064493bd2f250cc05d75bca93cc95447e2834638b0000000000000000000000000000000000000000000000000000000000009d350000000000000000000000009a289b849b32ff69a95f8584a03343a33ff6e5fd",
        "nonce": "0x62",
        "chainId": "0x138b"
      },
      "additionalContracts": [],
      "isFixedGasLimit": false
    },
    {
      "hash": "0xb9da3e6b1cfc8bbbeee266da350484d20c65cba3f07915b641264e10962ecf78",
      "transactionType": "CALL",
      "contractName": null,
      "contractAddress": "0x6edce65403992e310a62460808c4b910d972f10f",
      "function": "setReceiveLibrary(address,uint32,address,uint256)",
      "arguments": [
        "0x64493Bd2F250cC05D75bCa93cc95447e2834638b",
        "40246",
        "0x8A3D588D9f6AC041476b094f97FF94ec30169d3D",
        "0"
      ],
      "transaction": {
        "from": "0x0ece75f3c36f7df2136dac7633165dbff53de3cd",
        "to": "0x6edce65403992e310a62460808c4b910d972f10f",
        "gas": "0x141c8a0d",
        "value": "0x0",
        "input": "0x6a14d71500000000000000000000000064493bd2f250cc05d75bca93cc95447e2834638b0000000000000000000000000000000000000000000000000000000000009d360000000000000000000000008a3d588d9f6ac041476b094f97ff94ec30169d3d0000000000000000000000000000000000000000000000000000000000000000",
        "nonce": "0x63",
        "chainId": "0x138b"
      },
      "additionalContracts": [],
      "isFixedGasLimit": false
    }
  ],
  "receipts": [
    {
      "status": "0x1",
      "cumulativeGasUsed": "0xb7972fa",
      "logs": [
        {
          "address": "0x6edce65403992e310a62460808c4b910d972f10f",
          "topics": [
            "0x4cff966ebee29a156dcb34cf72c1d06231fb1777f6bdf6e8089819232f002b1c"
          ],
          "data": "0x000000000000000000000000a7f7368b6cbdf2be4d508ad85d2cc1f3248a9ed50000000000000000000000000000000000000000000000000000000000009d360000000000000000000000009a289b849b32ff69a95f8584a03343a33ff6e5fd",
          "blockHash": "0xfdf3b0790e5b4b4423ebaec3585607cf71e405375e8145c686f83dbddbde3827",
          "blockNumber": "0x1fd505a",
          "blockTimestamp": "0x69662395",
          "transactionHash": "0x51bf7665e62cae0b00f1e7debea8c2d3561d71cf237bc774a1376cc59bf025e4",
          "transactionIndex": "0x1",
          "logIndex": "0x0",
          "removed": false
        }
      ],
      "logsBloom": "0x00000000000000000000000000000000000200000000000000000000000000000000000000000000200000000000000000000000000000000000000001000000000000000000000000000000000000000000000000000000000000000000000000000000000000000200000000000000000000000000000000000000000000000000000000000020000000000000000000000000000000000000000000000000000000000000000000000000000000000000000000000000000000000000000000000000000000000000000000000000000000000000000000000000000000000040000000000000000000000000000000000000000000000000000000000000",
      "type": "0x2",
      "transactionHash": "0x51bf7665e62cae0b00f1e7debea8c2d3561d71cf237bc774a1376cc59bf025e4",
      "transactionIndex": "0x1",
      "blockHash": "0xfdf3b0790e5b4b4423ebaec3585607cf71e405375e8145c686f83dbddbde3827",
      "blockNumber": "0x1fd505a",
      "gasUsed": "0xb78bbdd",
      "effectiveGasPrice": "0x132b3a0",
      "from": "0x0ece75f3c36f7df2136dac7633165dbff53de3cd",
      "to": "0x6edce65403992e310a62460808c4b910d972f10f",
      "contractAddress": null,
      "l1Fee": "0x527669d8972c",
      "l1FeeScalar": "0.01",
      "l1GasPrice": "0x388cb3a3",
      "l1GasUsed": "0xb78",
      "tokenRatio": "0xcb7"
    },
    {
      "status": "0x1",
      "cumulativeGasUsed": "0xb79bf97",
      "logs": [
        {
          "address": "0x6edce65403992e310a62460808c4b910d972f10f",
          "topics": [
            "0x4cff966ebee29a156dcb34cf72c1d06231fb1777f6bdf6e8089819232f002b1c"
          ],
          "data": "0x000000000000000000000000a7f7368b6cbdf2be4d508ad85d2cc1f3248a9ed50000000000000000000000000000000000000000000000000000000000009d350000000000000000000000009a289b849b32ff69a95f8584a03343a33ff6e5fd",
          "blockHash": "0x8ac0dc6285a478ad8b2888e501ede7e3c16705879722d265729feb365d5ae17b",
          "blockNumber": "0x1fd5060",
          "blockTimestamp": "0x696623a1",
          "transactionHash": "0xfc4e3e72716dc81b804ce121f6d9dcb16dad0c1def6b093c0c0f1df252fec401",
          "transactionIndex": "0x1",
          "logIndex": "0x0",
          "removed": false
        }
      ],
      "logsBloom": "0x00000000000000000000000000000000000200000000000000000000000000000000000000000000200000000000000000000000000000000000000001000000000000000000000000000000000000000000000000000000000000000000000000000000000000000200000000000000000000000000000000000000000000000000000000000020000000000000000000000000000000000000000000000000000000000000000000000000000000000000000000000000000000000000000000000000000000000000000000000000000000000000000000000000000000000040000000000000000000000000000000000000000000000000000000000000",
      "type": "0x2",
      "transactionHash": "0xfc4e3e72716dc81b804ce121f6d9dcb16dad0c1def6b093c0c0f1df252fec401",
      "transactionIndex": "0x1",
      "blockHash": "0x8ac0dc6285a478ad8b2888e501ede7e3c16705879722d265729feb365d5ae17b",
      "blockNumber": "0x1fd5060",
      "gasUsed": "0xb79087a",
      "effectiveGasPrice": "0x132b3a0",
      "from": "0x0ece75f3c36f7df2136dac7633165dbff53de3cd",
      "to": "0x6edce65403992e310a62460808c4b910d972f10f",
      "contractAddress": null,
      "l1Fee": "0x52ccb22046e0",
      "l1FeeScalar": "0.01",
      "l1GasPrice": "0x388cb3a3",
      "l1GasUsed": "0xb84",
      "tokenRatio": "0xcb7"
    },
    {
      "status": "0x1",
      "cumulativeGasUsed": "0xcccbb86",
      "logs": [
        {
          "address": "0x6edce65403992e310a62460808c4b910d972f10f",
          "topics": [
            "0xcd6f92f5ac6185a5acfa02c92090746cec64d777269cbcd0ed031e396657a1c2"
          ],
          "data": "0x000000000000000000000000a7f7368b6cbdf2be4d508ad85d2cc1f3248a9ed50000000000000000000000000000000000000000000000000000000000009d360000000000000000000000008a3d588d9f6ac041476b094f97ff94ec30169d3d",
          "blockHash": "0x7ba7bd89269bbd086cb5d4c28c65a354f5c889894278cc657207d8713df47af5",
          "blockNumber": "0x1fd506c",
          "blockTimestamp": "0x696623b9",
          "transactionHash": "0x648d23c4b931b7beae343861606bbc8c237db378ac5287875be30ce80920bd13",
          "transactionIndex": "0x1",
          "logIndex": "0x0",
          "removed": false
        },
        {
          "address": "0x6edce65403992e310a62460808c4b910d972f10f",
          "topics": [
            "0x4e0a5bbfa0c11a64effb1ada324b5437a17272e1aed9320398715ef71bb20928"
          ],
          "data": "0x000000000000000000000000a7f7368b6cbdf2be4d508ad85d2cc1f3248a9ed50000000000000000000000000000000000000000000000000000000000009d3600000000000000000000000000000000000000000000000000000000000000000000000000000000000000000000000000000000000000000000000000000000",
          "blockHash": "0x7ba7bd89269bbd086cb5d4c28c65a354f5c889894278cc657207d8713df47af5",
          "blockNumber": "0x1fd506c",
          "blockTimestamp": "0x696623b9",
          "transactionHash": "0x648d23c4b931b7beae343861606bbc8c237db378ac5287875be30ce80920bd13",
          "transactionIndex": "0x1",
          "logIndex": "0x1",
          "removed": false
        }
      ],
      "logsBloom": "0x00000000000000000000020800000000000000000000000000000000000000020400000000000000200000000000000000000000000000000000000000000000000000000000000000000000000000000000000000800000000000000000000000000000000000000200000000000000000000000000000000000000000000100000000000000020000000000000000000000000000000000000000000000000000000000000000000000000000000000000000000000000000000000000000000000000000000000000000000000000000000000000000000000000000000000000000000000000000000000000000000000000000000000000000000000000",
      "type": "0x2",
      "transactionHash": "0x648d23c4b931b7beae343861606bbc8c237db378ac5287875be30ce80920bd13",
      "transactionIndex": "0x1",
      "blockHash": "0x7ba7bd89269bbd086cb5d4c28c65a354f5c889894278cc657207d8713df47af5",
      "blockNumber": "0x1fd506c",
      "gasUsed": "0xccc0469",
      "effectiveGasPrice": "0x132b3a0",
      "from": "0x0ece75f3c36f7df2136dac7633165dbff53de3cd",
      "to": "0x6edce65403992e310a62460808c4b910d972f10f",
      "contractAddress": null,
      "l1Fee": "0x5bc025441341",
      "l1FeeScalar": "0.01",
      "l1GasPrice": "0x3c4a5eb7",
      "l1GasUsed": "0xbf8",
      "tokenRatio": "0xcb7"
    },
    {
      "status": "0x1",
      "cumulativeGasUsed": "0xb777169",
      "logs": [
        {
          "address": "0x6edce65403992e310a62460808c4b910d972f10f",
          "topics": [
            "0x4cff966ebee29a156dcb34cf72c1d06231fb1777f6bdf6e8089819232f002b1c"
          ],
          "data": "0x00000000000000000000000064493bd2f250cc05d75bca93cc95447e2834638b0000000000000000000000000000000000000000000000000000000000009d360000000000000000000000009a289b849b32ff69a95f8584a03343a33ff6e5fd",
          "blockHash": "0x2c27bc1d75e8a27e9f959db167420e35e89219f29a8db86d97bf0934b62aef27",
          "blockNumber": "0x1fd5071",
          "blockTimestamp": "0x696623c3",
          "transactionHash": "0x1b0f80bfc5a4d44ff8857f6dba58315e26d22722f7b63a0d4924e981510ec6f2",
          "transactionIndex": "0x1",
          "logIndex": "0x0",
          "removed": false
        }
      ],
      "logsBloom": "0x00000000000000000000000000000000000200000000000000000000000000000000000000000000200000000000000000000000000000000000000001000000000000000000000000000000000000000000000000000000000000000000000000000000000000000200000000000000000000000000000000000000000000000000000000000020000000000000000000000000000000000000000000000000000000000000000000000000000000000000000000000000000000000000000000000000000000000000000000000000000000000000000000000000000000000040000000000000000000000000000000000000000000000000000000000000",
      "type": "0x2",
      "transactionHash": "0x1b0f80bfc5a4d44ff8857f6dba58315e26d22722f7b63a0d4924e981510ec6f2",
      "transactionIndex": "0x1",
      "blockHash": "0x2c27bc1d75e8a27e9f959db167420e35e89219f29a8db86d97bf0934b62aef27",
      "blockNumber": "0x1fd5071",
      "gasUsed": "0xb76ba4c",
      "effectiveGasPrice": "0x132b3a0",
      "from": "0x0ece75f3c36f7df2136dac7633165dbff53de3cd",
      "to": "0x6edce65403992e310a62460808c4b910d972f10f",
      "contractAddress": null,
      "l1Fee": "0x500a4a6738ec",
      "l1FeeScalar": "0.01",
      "l1GasPrice": "0x36e37210",
      "l1GasUsed": "0xb78",
      "tokenRatio": "0xcb7"
    },
    {
      "status": "0x1",
      "cumulativeGasUsed": "0xb806866",
      "logs": [
        {
          "address": "0x6edce65403992e310a62460808c4b910d972f10f",
          "topics": [
            "0x4cff966ebee29a156dcb34cf72c1d06231fb1777f6bdf6e8089819232f002b1c"
          ],
          "data": "0x00000000000000000000000064493bd2f250cc05d75bca93cc95447e2834638b0000000000000000000000000000000000000000000000000000000000009d350000000000000000000000009a289b849b32ff69a95f8584a03343a33ff6e5fd",
          "blockHash": "0x3024bd9795ab206aa5586780c228143327b74efa371e3f3625309cd9ea7cd30a",
          "blockNumber": "0x1fd507b",
          "blockTimestamp": "0x696623d7",
          "transactionHash": "0x5bff86eae293aceefc6d5f4f3b93d8316cf949716333046b0ec996997e89ede6",
          "transactionIndex": "0x1",
          "logIndex": "0x0",
          "removed": false
        }
      ],
      "logsBloom": "0x00000000000000000000000000000000000200000000000000000000000000000000000000000000200000000000000000000000000000000000000001000000000000000000000000000000000000000000000000000000000000000000000000000000000000000200000000000000000000000000000000000000000000000000000000000020000000000000000000000000000000000000000000000000000000000000000000000000000000000000000000000000000000000000000000000000000000000000000000000000000000000000000000000000000000000040000000000000000000000000000000000000000000000000000000000000",
      "type": "0x2",
      "transactionHash": "0x5bff86eae293aceefc6d5f4f3b93d8316cf949716333046b0ec996997e89ede6",
      "transactionIndex": "0x1",
      "blockHash": "0x3024bd9795ab206aa5586780c228143327b74efa371e3f3625309cd9ea7cd30a",
      "blockNumber": "0x1fd507b",
      "gasUsed": "0xb7f6e7d",
      "effectiveGasPrice": "0x132b3a0",
      "from": "0x0ece75f3c36f7df2136dac7633165dbff53de3cd",
      "to": "0x6edce65403992e310a62460808c4b910d972f10f",
      "contractAddress": null,
      "l1Fee": "0x5a7fe1a352b7",
      "l1FeeScalar": "0.01",
      "l1GasPrice": "0x3dcef639",
      "l1GasUsed": "0xb84",
      "tokenRatio": "0xcb7"
    },
    {
      "status": "0x1",
      "cumulativeGasUsed": "0xcc8cf45",
      "logs": [
        {
          "address": "0x6edce65403992e310a62460808c4b910d972f10f",
          "topics": [
            "0xcd6f92f5ac6185a5acfa02c92090746cec64d777269cbcd0ed031e396657a1c2"
          ],
          "data": "0x00000000000000000000000064493bd2f250cc05d75bca93cc95447e2834638b0000000000000000000000000000000000000000000000000000000000009d360000000000000000000000008a3d588d9f6ac041476b094f97ff94ec30169d3d",
          "blockHash": "0x8098bf6df54571d83f859b13e78a49877c41b7f2551532c302bfb4d9b4d8a889",
          "blockNumber": "0x1fd5081",
          "blockTimestamp": "0x696623e3",
          "transactionHash": "0xb9da3e6b1cfc8bbbeee266da350484d20c65cba3f07915b641264e10962ecf78",
          "transactionIndex": "0x1",
          "logIndex": "0x0",
          "removed": false
        },
        {
          "address": "0x6edce65403992e310a62460808c4b910d972f10f",
          "topics": [
            "0x4e0a5bbfa0c11a64effb1ada324b5437a17272e1aed9320398715ef71bb20928"
          ],
          "data": "0x00000000000000000000000064493bd2f250cc05d75bca93cc95447e2834638b0000000000000000000000000000000000000000000000000000000000009d3600000000000000000000000000000000000000000000000000000000000000000000000000000000000000000000000000000000000000000000000000000000",
          "blockHash": "0x8098bf6df54571d83f859b13e78a49877c41b7f2551532c302bfb4d9b4d8a889",
          "blockNumber": "0x1fd5081",
          "blockTimestamp": "0x696623e3",
          "transactionHash": "0xb9da3e6b1cfc8bbbeee266da350484d20c65cba3f07915b641264e10962ecf78",
          "transactionIndex": "0x1",
          "logIndex": "0x1",
          "removed": false
        }
      ],
      "logsBloom": "0x00000000000000000000020800000000000000000000000000000000000000020400000000000000200000000000000000000000000000000000000000000000000000000000000000000000000000000000000000800000000000000000000000000000000000000200000000000000000000000000000000000000000000100000000000000020000000000000000000000000000000000000000000000000000000000000000000000000000000000000000000000000000000000000000000000000000000000000000000000000000000000000000000000000000000000000000000000000000000000000000000000000000000000000000000000000",
      "type": "0x2",
      "transactionHash": "0xb9da3e6b1cfc8bbbeee266da350484d20c65cba3f07915b641264e10962ecf78",
      "transactionIndex": "0x1",
      "blockHash": "0x8098bf6df54571d83f859b13e78a49877c41b7f2551532c302bfb4d9b4d8a889",
      "blockNumber": "0x1fd5081",
      "gasUsed": "0xcc7d55c",
      "effectiveGasPrice": "0x132b3a0",
      "from": "0x0ece75f3c36f7df2136dac7633165dbff53de3cd",
      "to": "0x6edce65403992e310a62460808c4b910d972f10f",
      "contractAddress": null,
      "l1Fee": "0x56bf0af7220f",
      "l1FeeScalar": "0.01",
      "l1GasPrice": "0x38c79ccd",
      "l1GasUsed": "0xc04",
      "tokenRatio": "0xcb7"
    }
  ],
  "libraries": [],
  "pending": [],
  "returns": {},
  "timestamp": 1768301546940,
  "chain": 5003,
  "commit": "c0cd3ab"
}