{
  "transactions": [
    {
      "hash": "0x373cb21f06535728100e01103f847a74c7f78ea1d73765c761a01472a5b31e3d",
      "transactionType": "CALL",
      "contractName": null,
      "contractAddress": "0x6edce65403992e310a62460808c4b910d972f10f",
      "function": "setSendLibrary(address,uint32,address)",
      "arguments": [
        "0x886ba47579DC4f5DcB53ffd20429089A7788C072",
        "40246",
        "0x9A289B849b32FF69A95F8584a03343a33Ff6e5Fd"
      ],
      "transaction": {
        "from": "0x0ece75f3c36f7df2136dac7633165dbff53de3cd",
        "to": "0x6edce65403992e310a62460808c4b910d972f10f",
        "gas": "0x11cbec61",
        "value": "0x0",
        "input": "0x9535ff30000000000000000000000000886ba47579dc4f5dcb53ffd20429089a7788c0720000000000000000000000000000000000000000000000000000000000009d360000000000000000000000009a289b849b32ff69a95f8584a03343a33ff6e5fd",
        "nonce": "0x15",
        "chainId": "0x138b"
      },
      "additionalContracts": [],
      "isFixedGasLimit": false
    },
    {
      "hash": "0x928a423def90d36a94fe0f061e8e6a926766a8b1e4545d38a6b2b62977549ab0",
      "transactionType": "CALL",
      "contractName": null,
      "contractAddress": "0x6edce65403992e310a62460808c4b910d972f10f",
      "function": "setSendLibrary(address,uint32,address)",
      "arguments": [
        "0x886ba47579DC4f5DcB53ffd20429089A7788C072",
        "40245",
        "0x9A289B849b32FF69A95F8584a03343a33Ff6e5Fd"
      ],
      "transaction": {
        "from": "0x0ece75f3c36f7df2136dac7633165dbff53de3cd",
        "to": "0x6edce65403992e310a62460808c4b910d972f10f",
        "gas": "0x11cbec61",
        "value": "0x0",
        "input": "0x9535ff30000000000000000000000000886ba47579dc4f5dcb53ffd20429089a7788c0720000000000000000000000000000000000000000000000000000000000009d350000000000000000000000009a289b849b32ff69a95f8584a03343a33ff6e5fd",
        "nonce": "0x16",
        "chainId": "0x138b"
      },
      "additionalContracts": [],
      "isFixedGasLimit": false
    },
    {
      "hash": "0x63ae894c21aceda850cd1ece6af7b35ab50ff3637e0c8b69f0d7630301ca7347",
      "transactionType": "CALL",
      "contractName": null,
      "contractAddress": "0x6edce65403992e310a62460808c4b910d972f10f",
      "function": "setReceiveLibrary(address,uint32,address,uint256)",
      "arguments": [
        "0x886ba47579DC4f5DcB53ffd20429089A7788C072",
        "40246",
        "0x8A3D588D9f6AC041476b094f97FF94ec30169d3D",
        "0"
      ],
      "transaction": {
        "from": "0x0ece75f3c36f7df2136dac7633165dbff53de3cd",
        "to": "0x6edce65403992e310a62460808c4b910d972f10f",
        "gas": "0x13d8cb18",
        "value": "0x0",
        "input": "0x6a14d715000000000000000000000000886ba47579dc4f5dcb53ffd20429089a7788c0720000000000000000000000000000000000000000000000000000000000009d360000000000000000000000008a3d588d9f6ac041476b094f97ff94ec30169d3d0000000000000000000000000000000000000000000000000000000000000000",
        "nonce": "0x17",
        "chainId": "0x138b"
      },
      "additionalContracts": [],
      "isFixedGasLimit": false
    }
  ],
  "receipts": [
    {
      "status": "0x1",
      "cumulativeGasUsed": "0x1aff3f38",
      "logs": [
        {
          "address": "0x6edce65403992e310a62460808c4b910d972f10f",
          "topics": [
            "0x4cff966ebee29a156dcb34cf72c1d06231fb1777f6bdf6e8089819232f002b1c"
          ],
          "data": "0x000000000000000000000000886ba47579dc4f5dcb53ffd20429089a7788c0720000000000000000000000000000000000000000000000000000000000009d360000000000000000000000009a289b849b32ff69a95f8584a03343a33ff6e5fd",
          "blockHash": "0x633efd903cec328ded4d6b6bfeecec4b18bbcac5983517cb9fbb3de4ba572412",
          "blockNumber": "0x1fccf59",
          "blockTimestamp": "0x69652193",
          "transactionHash": "0x373cb21f06535728100e01103f847a74c7f78ea1d73765c761a01472a5b31e3d",
          "transactionIndex": "0x2",
          "logIndex": "0x1",
          "removed": false
        }
      ],
      "logsBloom": "0x00000000000000000000000000000000000200000000000000000000000000000000000000000000200000000000000000000000000000000000000001000000000000000000000000000000000000000000000000000000000000000000000000000000000000000200000000000000000000000000000000000000000000000000000000000020000000000000000000000000000000000000000000000000000000000000000000000000000000000000000000000000000000000000000000000000000000000000000000000000000000000000000000000000000000000040000000000000000000000000000000000000000000000000000000000000",
      "type": "0x2",
      "transactionHash": "0x373cb21f06535728100e01103f847a74c7f78ea1d73765c761a01472a5b31e3d",
      "transactionIndex": "0x2",
      "blockHash": "0x633efd903cec328ded4d6b6bfeecec4b18bbcac5983517cb9fbb3de4ba572412",
      "blockNumber": "0x1fccf59",
      "gasUsed": "0xb521bf3",
      "effectiveGasPrice": "0x132b3a0",
      "from": "0x0ece75f3c36f7df2136dac7633165dbff53de3cd",
      "to": "0x6edce65403992e310a62460808c4b910d972f10f",
      "contractAddress": null,
      "l1Fee": "0x1459fe46b39a",
      "l1FeeScalar": "0.01",
      "l1GasPrice": "0xdd5f205",
      "l1GasUsed": "0xb84",
      "tokenRatio": "0xcc6"
    },
    {
      "status": "0x1",
      "cumulativeGasUsed": "0xb52db2d",
      "logs": [
        {
          "address": "0x6edce65403992e310a62460808c4b910d972f10f",
          "topics": [
            "0x4cff966ebee29a156dcb34cf72c1d06231fb1777f6bdf6e8089819232f002b1c"
          ],
          "data": "0x000000000000000000000000886ba47579dc4f5dcb53ffd20429089a7788c0720000000000000000000000000000000000000000000000000000000000009d350000000000000000000000009a289b849b32ff69a95f8584a03343a33ff6e5fd",
          "blockHash": "0xc1ea2a2969d3c9184339bf1134d48635dc7d32c3fc3e353bff0340f9dc102e16",
          "blockNumber": "0x1fccf5e",
          "blockTimestamp": "0x6965219d",
          "transactionHash": "0x928a423def90d36a94fe0f061e8e6a926766a8b1e4545d38a6b2b62977549ab0",
          "transactionIndex": "0x1",
          "logIndex": "0x0",
          "removed": false
        }
      ],
      "logsBloom": "0x00000000000000000000000000000000000200000000000000000000000000000000000000000000200000000000000000000000000000000000000001000000000000000000000000000000000000000000000000000000000000000000000000000000000000000200000000000000000000000000000000000000000000000000000000000020000000000000000000000000000000000000000000000000000000000000000000000000000000000000000000000000000000000000000000000000000000000000000000000000000000000000000000000000000000000040000000000000000000000000000000000000000000000000000000000000",
      "type": "0x2",
      "transactionHash": "0x928a423def90d36a94fe0f061e8e6a926766a8b1e4545d38a6b2b62977549ab0",
      "transactionIndex": "0x1",
      "blockHash": "0xc1ea2a2969d3c9184339bf1134d48635dc7d32c3fc3e353bff0340f9dc102e16",
      "blockNumber": "0x1fccf5e",
      "gasUsed": "0xb522410",
      "effectiveGasPrice": "0x132b3a0",
      "from": "0x0ece75f3c36f7df2136dac7633165dbff53de3cd",
      "to": "0x6edce65403992e310a62460808c4b910d972f10f",
      "contractAddress": null,
      "l1Fee": "0x1459fe46b39a",
      "l1FeeScalar": "0.01",
      "l1GasPrice": "0xdd5f205",
      "l1GasUsed": "0xb84",
      "tokenRatio": "0xcc6"
    },
    {
      "status": "0x1",
      "cumulativeGasUsed": "0x1868c25f",
      "logs": [
        {
          "address": "0x6edce65403992e310a62460808c4b910d972f10f",
          "topics": [
            "0xcd6f92f5ac6185a5acfa02c92090746cec64d777269cbcd0ed031e396657a1c2"
          ],
          "data": "0x000000000000000000000000886ba47579dc4f5dcb53ffd20429089a7788c0720000000000000000000000000000000000000000000000000000000000009d360000000000000000000000008a3d588d9f6ac041476b094f97ff94ec30169d3d",
          "blockHash": "0x75b8ac94eac7d33c25125266cd9426939410db00024263fa3b4069e86ff4af7f",
          "blockNumber": "0x1fccf61",
          "blockTimestamp": "0x696521a3",
          "transactionHash": "0x63ae894c21aceda850cd1ece6af7b35ab50ff3637e0c8b69f0d7630301ca7347",
          "transactionIndex": "0x2",
          "logIndex": "0x1",
          "removed": false
        },
        {
          "address": "0x6edce65403992e310a62460808c4b910d972f10f",
          "topics": [
            "0x4e0a5bbfa0c11a64effb1ada324b5437a17272e1aed9320398715ef71bb20928"
          ],
          "data": "0x000000000000000000000000886ba47579dc4f5dcb53ffd20429089a7788c0720000000000000000000000000000000000000000000000000000000000009d3600000000000000000000000000000000000000000000000000000000000000000000000000000000000000000000000000000000000000000000000000000000",
          "blockHash": "0x75b8ac94eac7d33c25125266cd9426939410db00024263fa3b4069e86ff4af7f",
          "blockNumber": "0x1fccf61",
          "blockTimestamp": "0x696521a3",
          "transactionHash": "0x63ae894c21aceda850cd1ece6af7b35ab50ff3637e0c8b69f0d7630301ca7347",
          "transactionIndex": "0x2",
          "logIndex": "0x2",
          "removed": false
        }
      ],
      "logsBloom": "0x00000000000000000000020800000000000000000000000000000000000000020400000000000000200000000000000000000000000000000000000000000000000000000000000000000000000000000000000000800000000000000000000000000000000000000200000000000000000000000000000000000000000000100000000000000020000000000000000000000000000000000000000000000000000000000000000000000000000000000000000000000000000000000000000000000000000000000000000000000000000000000000000000000000000000000000000000000000000000000000000000000000000000000000000000000000",
      "type": "0x2",
      "transactionHash": "0x63ae894c21aceda850cd1ece6af7b35ab50ff3637e0c8b69f0d7630301ca7347",
      "transactionIndex": "0x2",
      "blockHash": "0x75b8ac94eac7d33c25125266cd9426939410db00024263fa3b4069e86ff4af7f",
      "blockNumber": "0x1fccf61",
      "gasUsed": "0xc9fe685",
      "effectiveGasPrice": "0x132b3a0",
      "from": "0x0ece75f3c36f7df2136dac7633165dbff53de3cd",
      "to": "0x6edce65403992e310a62460808c4b910d972f10f",
      "contractAddress": null,
      "l1Fee": "0x153c35155227",
      "l1FeeScalar": "0.01",
      "l1GasPrice": "0xdd5f205",
      "l1GasUsed": "0xc04",
      "tokenRatio": "0xcc6"
    }
  ],
  "libraries": [],
  "pending": [],
  "returns": {},
  "timestamp": 1768235430488,
  "chain": 5003,
  "commit": "584f810"
}