{
  "transactions": [
    {
      "hash": "0xb6a1283d12a1ef7bb89366fb8b594d02b318224a3beec7653b88a108367d1044",
      "transactionType": "CALL",
      "contractName": null,
      "contractAddress": "0x6edce65403992e310a62460808c4b910d972f10f",
      "function": "setSendLibrary(address,uint32,address)",
      "arguments": [
        "0x175867CAF278eB0610F216F3E0a6E671f2382E22",
        "40245",
        "0xC1868e054425D378095A003EcbA3823a5D0135C9"
      ],
      "transaction": {
        "from": "0x0ece75f3c36f7df2136dac7633165dbff53de3cd",
        "to": "0x6edce65403992e310a62460808c4b910d972f10f",
        "gas": "0x149cd",
        "value": "0x0",
        "input": "0x9535ff30000000000000000000000000175867caf278eb0610f216f3e0a6e671f2382e220000000000000000000000000000000000000000000000000000000000009d35000000000000000000000000c1868e054425d378095a003ecba3823a5d0135c9",
        "nonce": "0xe",
        "chainId": "0x14a34"
      },
      "additionalContracts": [],
      "isFixedGasLimit": false
    },
    {
      "hash": "0xec5eca3dcaca2500d00938e10643cdd042c15df51f1af8f797ea2c3a8972d4aa",
      "transactionType": "CALL",
      "contractName": null,
      "contractAddress": "0x6edce65403992e310a62460808c4b910d972f10f",
      "function": "setSendLibrary(address,uint32,address)",
      "arguments": [
        "0x175867CAF278eB0610F216F3E0a6E671f2382E22",
        "40246",
        "0xC1868e054425D378095A003EcbA3823a5D0135C9"
      ],
      "transaction": {
        "from": "0x0ece75f3c36f7df2136dac7633165dbff53de3cd",
        "to": "0x6edce65403992e310a62460808c4b910d972f10f",
        "gas": "0x149cd",
        "value": "0x0",
        "input": "0x9535ff30000000000000000000000000175867caf278eb0610f216f3e0a6e671f2382e220000000000000000000000000000000000000000000000000000000000009d36000000000000000000000000c1868e054425d378095a003ecba3823a5d0135c9",
        "nonce": "0xf",
        "chainId": "0x14a34"
      },
      "additionalContracts": [],
      "isFixedGasLimit": false
    },
    {
      "hash": "0x7d4ce0a1afb14b7805694abd50e1bed476b00d23660a56d21140f3f5619fd31d",
      "transactionType": "CALL",
      "contractName": null,
      "contractAddress": "0x6edce65403992e310a62460808c4b910d972f10f",
      "function": "setReceiveLibrary(address,uint32,address,uint256)",
      "arguments": [
        "0x175867CAF278eB0610F216F3E0a6E671f2382E22",
        "40245",
        "0x12523de19dc41c91F7d2093E0CFbB76b17012C8d",
        "0"
      ],
      "transaction": {
        "from": "0x0ece75f3c36f7df2136dac7633165dbff53de3cd",
        "to": "0x6edce65403992e310a62460808c4b910d972f10f",
        "gas": "0x17001",
        "value": "0x0",
        "input": "0x6a14d715000000000000000000000000175867caf278eb0610f216f3e0a6e671f2382e220000000000000000000000000000000000000000000000000000000000009d3500000000000000000000000012523de19dc41c91f7d2093e0cfbb76b17012c8d0000000000000000000000000000000000000000000000000000000000000000",
        "nonce": "0x10",
        "chainId": "0x14a34"
      },
      "additionalContracts": [],
      "isFixedGasLimit": false
    }
  ],
  "receipts": [
    {
      "status": "0x1",
      "cumulativeGasUsed": "0x800c4",
      "logs": [
        {
          "address": "0x6edce65403992e310a62460808c4b910d972f10f",
          "topics": [
            "0x4cff966ebee29a156dcb34cf72c1d06231fb1777f6bdf6e8089819232f002b1c"
          ],
          "data": "0x000000000000000000000000175867caf278eb0610f216f3e0a6e671f2382e220000000000000000000000000000000000000000000000000000000000009d35000000000000000000000000c1868e054425d378095a003ecba3823a5d0135c9",
          "blockHash": "0x6b5e27023f2f0d5b55638af5b1a1e5e65e85ef4a32e105d1ce217c76cdc2ca84",
          "blockNumber": "0x2295eff",
          "blockTimestamp": "0x69661cde",
          "transactionHash": "0xb6a1283d12a1ef7bb89366fb8b594d02b318224a3beec7653b88a108367d1044",
          "transactionIndex": "0x5",
          "logIndex": "0xe",
          "removed": false
        }
      ],
      "logsBloom": "0x00000000000000000000000000000000000200000000000000000000000000000000000000000000200000000000000000000000000000000000000001000000000000000000000000000000000000000000000000000000000000000000000000000000000000000200000000000000000000000000000000000000000000000000000000000020000000000000000000000000000000000000000000000000000000000000000000000000000000000000000000000000000000000000000000000000000000000000000000000000000000000000000000000000000000000040000000000000000000000000000000000000000000000000000000000000",
      "type": "0x2",
      "transactionHash": "0xb6a1283d12a1ef7bb89366fb8b594d02b318224a3beec7653b88a108367d1044",
      "transactionIndex": "0x5",
      "blockHash": "0x6b5e27023f2f0d5b55638af5b1a1e5e65e85ef4a32e105d1ce217c76cdc2ca84",
      "blockNumber": "0x2295eff",
      "gasUsed": "0xe182",
      "effectiveGasPrice": "0x12615f",
      "blobGasUsed": "0x8130",
      "from": "0x0ece75f3c36f7df2136dac7633165dbff53de3cd",
      "to": "0x6edce65403992e310a62460808c4b910d972f10f",
      "contractAddress": null,
      "daFootprintGasScalar": "0x138",
      "l1BaseFeeScalar": "0x44d",
      "l1BlobBaseFee": "0x3e230b4",
      "l1BlobBaseFeeScalar": "0xa118b",
      "l1Fee": "0x1812ceebe",
      "l1GasPrice": "0x3c33ba6c",
      "l1GasUsed": "0x6a4"
    },
    {
      "status": "0x1",
      "cumulativeGasUsed": "0x8e246",
      "logs": [
        {
          "address": "0x6edce65403992e310a62460808c4b910d972f10f",
          "topics": [
            "0x4cff966ebee29a156dcb34cf72c1d06231fb1777f6bdf6e8089819232f002b1c"
          ],
          "data": "0x000000000000000000000000175867caf278eb0610f216f3e0a6e671f2382e220000000000000000000000000000000000000000000000000000000000009d36000000000000000000000000c1868e054425d378095a003ecba3823a5d0135c9",
          "blockHash": "0x6b5e27023f2f0d5b55638af5b1a1e5e65e85ef4a32e105d1ce217c76cdc2ca84",
          "blockNumber": "0x2295eff",
          "blockTimestamp": "0x69661cde",
          "transactionHash": "0xec5eca3dcaca2500d00938e10643cdd042c15df51f1af8f797ea2c3a8972d4aa",
          "transactionIndex": "0x6",
          "logIndex": "0xf",
          "removed": false
        }
      ],
      "logsBloom": "0x00000000000000000000000000000000000200000000000000000000000000000000000000000000200000000000000000000000000000000000000001000000000000000000000000000000000000000000000000000000000000000000000000000000000000000200000000000000000000000000000000000000000000000000000000000020000000000000000000000000000000000000000000000000000000000000000000000000000000000000000000000000000000000000000000000000000000000000000000000000000000000000000000000000000000000040000000000000000000000000000000000000000000000000000000000000",
      "type": "0x2",
      "transactionHash": "0xec5eca3dcaca2500d00938e10643cdd042c15df51f1af8f797ea2c3a8972d4aa",
      "transactionIndex": "0x6",
      "blockHash": "0x6b5e27023f2f0d5b55638af5b1a1e5e65e85ef4a32e105d1ce217c76cdc2ca84",
      "blockNumber": "0x2295eff",
      "gasUsed": "0xe182",
      "effectiveGasPrice": "0x12615f",
      "blobGasUsed": "0x8130",
      "from": "0x0ece75f3c36f7df2136dac7633165dbff53de3cd",
      "to": "0x6edce65403992e310a62460808c4b910d972f10f",
      "contractAddress": null,
      "daFootprintGasScalar": "0x138",
      "l1BaseFeeScalar": "0x44d",
      "l1BlobBaseFee": "0x3e230b4",
      "l1BlobBaseFeeScalar": "0xa118b",
      "l1Fee": "0x1812ceebe",
      "l1GasPrice": "0x3c33ba6c",
      "l1GasUsed": "0x6a4"
    },
    {
      "status": "0x1",
      "cumulativeGasUsed": "0x9dde7",
      "logs": [
        {
          "address": "0x6edce65403992e310a62460808c4b910d972f10f",
          "topics": [
            "0xcd6f92f5ac6185a5acfa02c92090746cec64d777269cbcd0ed031e396657a1c2"
          ],
          "data": "0x000000000000000000000000175867caf278eb0610f216f3e0a6e671f2382e220000000000000000000000000000000000000000000000000000000000009d3500000000000000000000000012523de19dc41c91f7d2093e0cfbb76b17012c8d",
          "blockHash": "0x6b5e27023f2f0d5b55638af5b1a1e5e65e85ef4a32e105d1ce217c76cdc2ca84",
          "blockNumber": "0x2295eff",
          "blockTimestamp": "0x69661cde",
          "transactionHash": "0x7d4ce0a1afb14b7805694abd50e1bed476b00d23660a56d21140f3f5619fd31d",
          "transactionIndex": "0x7",
          "logIndex": "0x10",
          "removed": false
        },
        {
          "address": "0x6edce65403992e310a62460808c4b910d972f10f",
          "topics": [
            "0x4e0a5bbfa0c11a64effb1ada324b5437a17272e1aed9320398715ef71bb20928"
          ],
          "data": "0x000000000000000000000000175867caf278eb0610f216f3e0a6e671f2382e220000000000000000000000000000000000000000000000000000000000009d3500000000000000000000000000000000000000000000000000000000000000000000000000000000000000000000000000000000000000000000000000000000",
          "blockHash": "0x6b5e27023f2f0d5b55638af5b1a1e5e65e85ef4a32e105d1ce217c76cdc2ca84",
          "blockNumber": "0x2295eff",
          "blockTimestamp": "0x69661cde",
          "transactionHash": "0x7d4ce0a1afb14b7805694abd50e1bed476b00d23660a56d21140f3f5619fd31d",
          "transactionIndex": "0x7",
          "logIndex": "0x11",
          "removed": false
        }
      ],
      "logsBloom": "0x00000000000000000000020800000000000000000000000000000000000000020400000000000000200000000000000000000000000000000000000000000000000000000000000000000000000000000000000000800000000000000000000000000000000000000200000000000000000000000000000000000000000000100000000000000020000000000000000000000000000000000000000000000000000000000000000000000000000000000000000000000000000000000000000000000000000000000000000000000000000000000000000000000000000000000000000000000000000000000000000000000000000000000000000000000000",
      "type": "0x2",
      "transactionHash": "0x7d4ce0a1afb14b7805694abd50e1bed476b00d23660a56d21140f3f5619fd31d",
      "transactionIndex": "0x7",
      "blockHash": "0x6b5e27023f2f0d5b55638af5b1a1e5e65e85ef4a32e105d1ce217c76cdc2ca84",
      "blockNumber": "0x2295eff",
      "gasUsed": "0xfba1",
      "effectiveGasPrice": "0x12615f",
      "blobGasUsed": "0x8880",
      "from": "0x0ece75f3c36f7df2136dac7633165dbff53de3cd",
      "to": "0x6edce65403992e310a62460808c4b910d972f10f",
      "contractAddress": null,
      "daFootprintGasScalar": "0x138",
      "l1BaseFeeScalar": "0x44d",
      "l1BlobBaseFee": "0x3e230b4",
      "l1BlobBaseFeeScalar": "0xa118b",
      "l1Fee": "0x1812ceebe",
      "l1GasPrice": "0x3c33ba6c",
      "l1GasUsed": "0x702"
    }
  ],
  "libraries": [],
  "pending": [],
  "returns": {},
  "timestamp": 1768299740965,
  "chain": 84532,
  "commit": "c0cd3ab"
}