{
  "transactions": [
    {
      "hash": "0xe64d4b0ff049d1813dd19dd746d695733a11415a2b50bc79fd97074d152cdfd6",
      "transactionType": "CALL",
      "contractName": null,
      "contractAddress": "0x6edce65403992e310a62460808c4b910d972f10f",
      "function": "setSendLibrary(address,uint32,address)",
      "arguments": [
        "0x33FaBa0e0cE340AfC4fb03038151FF7EE1d5f95b",
        "40245",
        "0xC1868e054425D378095A003EcbA3823a5D0135C9"
      ],
      "transaction": {
        "from": "0x0ece75f3c36f7df2136dac7633165dbff53de3cd",
        "to": "0x6edce65403992e310a62460808c4b910d972f10f",
        "gas": "0x149cd",
        "value": "0x0",
        "input": "0x9535ff3000000000000000000000000033faba0e0ce340afc4fb03038151ff7ee1d5f95b0000000000000000000000000000000000000000000000000000000000009d35000000000000000000000000c1868e054425d378095a003ecba3823a5d0135c9",
        "nonce": "0x2e",
        "chainId": "0x14a34"
      },
      "additionalContracts": [],
      "isFixedGasLimit": false
    },
    {
      "hash": "0x43621e78f3ba12295ea8b832e88228e9a626e5dc28c1ed5c5e8b5cc2e3483245",
      "transactionType": "CALL",
      "contractName": null,
      "contractAddress": "0x6edce65403992e310a62460808c4b910d972f10f",
      "function": "setSendLibrary(address,uint32,address)",
      "arguments": [
        "0x33FaBa0e0cE340AfC4fb03038151FF7EE1d5f95b",
        "40246",
        "0xC1868e054425D378095A003EcbA3823a5D0135C9"
      ],
      "transaction": {
        "from": "0x0ece75f3c36f7df2136dac7633165dbff53de3cd",
        "to": "0x6edce65403992e310a62460808c4b910d972f10f",
        "gas": "0x149cd",
        "value": "0x0",
        "input": "0x9535ff3000000000000000000000000033faba0e0ce340afc4fb03038151ff7ee1d5f95b0000000000000000000000000000000000000000000000000000000000009d36000000000000000000000000c1868e054425d378095a003ecba3823a5d0135c9",
        "nonce": "0x2f",
        "chainId": "0x14a34"
      },
      "additionalContracts": [],
      "isFixedGasLimit": false
    },
    {
      "hash": "0x26bc8e596088898300b7d049acb9e846d543541247dbc14f43745a1af43f8b42",
      "transactionType": "CALL",
      "contractName": null,
      "contractAddress": "0x6edce65403992e310a62460808c4b910d972f10f",
      "function": "setReceiveLibrary(address,uint32,address,uint256)",
      "arguments": [
        "0x33FaBa0e0cE340AfC4fb03038151FF7EE1d5f95b",
        "40245",
        "0x12523de19dc41c91F7d2093E0CFbB76b17012C8d",
        "0"
      ],
      "transaction": {
        "from": "0x0ece75f3c36f7df2136dac7633165dbff53de3cd",
        "to": "0x6edce65403992e310a62460808c4b910d972f10f",
        "gas": "0x17001",
        "value": "0x0",
        "input": "0x6a14d71500000000000000000000000033faba0e0ce340afc4fb03038151ff7ee1d5f95b0000000000000000000000000000000000000000000000000000000000009d3500000000000000000000000012523de19dc41c91f7d2093e0cfbb76b17012c8d0000000000000000000000000000000000000000000000000000000000000000",
        "nonce": "0x30",
        "chainId": "0x14a34"
      },
      "additionalContracts": [],
      "isFixedGasLimit": false
    }
  ],
  "receipts": [
    {
      "status": "0x1",
      "cumulativeGasUsed": "0x1c1cf2",
      "logs": [
        {
          "address": "0x6edce65403992e310a62460808c4b910d972f10f",
          "topics": [
            "0x4cff966ebee29a156dcb34cf72c1d06231fb1777f6bdf6e8089819232f002b1c"
          ],
          "data": "0x00000000000000000000000033faba0e0ce340afc4fb03038151ff7ee1d5f95b0000000000000000000000000000000000000000000000000000000000009d35000000000000000000000000c1868e054425d378095a003ecba3823a5d0135c9",
          "blockHash": "0x72e8fe7722284e349e0919bac4edc5048d4214f57f81587a7707462d3421a6b4",
          "blockNumber": "0x229752f",
          "blockTimestamp": "0x6966493e",
          "transactionHash": "0xe64d4b0ff049d1813dd19dd746d695733a11415a2b50bc79fd97074d152cdfd6",
          "transactionIndex": "0xe",
          "logIndex": "0x2c",
          "removed": false
        }
      ],
      "logsBloom": "0x00000000000000000000000000000000000200000000000000000000000000000000000000000000200000000000000000000000000000000000000001000000000000000000000000000000000000000000000000000000000000000000000000000000000000000200000000000000000000000000000000000000000000000000000000000020000000000000000000000000000000000000000000000000000000000000000000000000000000000000000000000000000000000000000000000000000000000000000000000000000000000000000000000000000000000040000000000000000000000000000000000000000000000000000000000000",
      "type": "0x2",
      "transactionHash": "0xe64d4b0ff049d1813dd19dd746d695733a11415a2b50bc79fd97074d152cdfd6",
      "transactionIndex": "0xe",
      "blockHash": "0x72e8fe7722284e349e0919bac4edc5048d4214f57f81587a7707462d3421a6b4",
      "blockNumber": "0x229752f",
      "gasUsed": "0xe182",
      "effectiveGasPrice": "0x124f80",
      "blobGasUsed": "0x8130",
      "from": "0x0ece75f3c36f7df2136dac7633165dbff53de3cd",
      "to": "0x6edce65403992e310a62460808c4b910d972f10f",
      "contractAddress": null,
      "daFootprintGasScalar": "0x138",
      "l1BaseFeeScalar": "0x44d",
      "l1BlobBaseFee": "0x3abf2db",
      "l1BlobBaseFeeScalar": "0xa118b",
      "l1Fee": "0x20168b1fe",
      "l1GasPrice": "0x3a1ab7cb",
      "l1GasUsed": "0x6a4"
    },
    {
      "status": "0x1",
      "cumulativeGasUsed": "0x1cfe74",
      "logs": [
        {
          "address": "0x6edce65403992e310a62460808c4b910d972f10f",
          "topics": [
            "0x4cff966ebee29a156dcb34cf72c1d06231fb1777f6bdf6e8089819232f002b1c"
          ],
          "data": "0x00000000000000000000000033faba0e0ce340afc4fb03038151ff7ee1d5f95b0000000000000000000000000000000000000000000000000000000000009d36000000000000000000000000c1868e054425d378095a003ecba3823a5d0135c9",
          "blockHash": "0x72e8fe7722284e349e0919bac4edc5048d4214f57f81587a7707462d3421a6b4",
          "blockNumber": "0x229752f",
          "blockTimestamp": "0x6966493e",
          "transactionHash": "0x43621e78f3ba12295ea8b832e88228e9a626e5dc28c1ed5c5e8b5cc2e3483245",
          "transactionIndex": "0xf",
          "logIndex": "0x2d",
          "removed": false
        }
      ],
      "logsBloom": "0x00000000000000000000000000000000000200000000000000000000000000000000000000000000200000000000000000000000000000000000000001000000000000000000000000000000000000000000000000000000000000000000000000000000000000000200000000000000000000000000000000000000000000000000000000000020000000000000000000000000000000000000000000000000000000000000000000000000000000000000000000000000000000000000000000000000000000000000000000000000000000000000000000000000000000000040000000000000000000000000000000000000000000000000000000000000",
      "type": "0x2",
      "transactionHash": "0x43621e78f3ba12295ea8b832e88228e9a626e5dc28c1ed5c5e8b5cc2e3483245",
      "transactionIndex": "0xf",
      "blockHash": "0x72e8fe7722284e349e0919bac4edc5048d4214f57f81587a7707462d3421a6b4",
      "blockNumber": "0x229752f",
      "gasUsed": "0xe182",
      "effectiveGasPrice": "0x124f80",
      "blobGasUsed": "0x8130",
      "from": "0x0ece75f3c36f7df2136dac7633165dbff53de3cd",
      "to": "0x6edce65403992e310a62460808c4b910d972f10f",
      "contractAddress": null,
      "daFootprintGasScalar": "0x138",
      "l1BaseFeeScalar": "0x44d",
      "l1BlobBaseFee": "0x3abf2db",
      "l1BlobBaseFeeScalar": "0xa118b",
      "l1Fee": "0x20168b1fe",
      "l1GasPrice": "0x3a1ab7cb",
      "l1GasUsed": "0x6a4"
    },
    {
      "status": "0x1",
      "cumulativeGasUsed": "0x1eaf63",
      "logs": [
        {
          "address": "0x6edce65403992e310a62460808c4b910d972f10f",
          "topics": [
            "0xcd6f92f5ac6185a5acfa02c92090746cec64d777269cbcd0ed031e396657a1c2"
          ],
          "data": "0x00000000000000000000000033faba0e0ce340afc4fb03038151ff7ee1d5f95b0000000000000000000000000000000000000000000000000000000000009d3500000000000000000000000012523de19dc41c91f7d2093e0cfbb76b17012c8d",
          "blockHash": "0x72e8fe7722284e349e0919bac4edc5048d4214f57f81587a7707462d3421a6b4",
          "blockNumber": "0x229752f",
          "blockTimestamp": "0x6966493e",
          "transactionHash": "0x26bc8e596088898300b7d049acb9e846d543541247dbc14f43745a1af43f8b42",
          "transactionIndex": "0x11",
          "logIndex": "0x2f",
          "removed": false
        },
        {
          "address": "0x6edce65403992e310a62460808c4b910d972f10f",
          "topics": [
            "0x4e0a5bbfa0c11a64effb1ada324b5437a17272e1aed9320398715ef71bb20928"
          ],
          "data": "0x00000000000000000000000033faba0e0ce340afc4fb03038151ff7ee1d5f95b0000000000000000000000000000000000000000000000000000000000009d3500000000000000000000000000000000000000000000000000000000000000000000000000000000000000000000000000000000000000000000000000000000",
          "blockHash": "0x72e8fe7722284e349e0919bac4edc5048d4214f57f81587a7707462d3421a6b4",
          "blockNumber": "0x229752f",
          "blockTimestamp": "0x6966493e",
          "transactionHash": "0x26bc8e596088898300b7d049acb9e846d543541247dbc14f43745a1af43f8b42",
          "transactionIndex": "0x11",
          "logIndex": "0x30",
          "removed": false
        }
      ],
      "logsBloom": "0x00000000000000000000020800000000000000000000000000000000000000020400000000000000200000000000000000000000000000000000000000000000000000000000000000000000000000000000000000800000000000000000000000000000000000000200000000000000000000000000000000000000000000100000000000000020000000000000000000000000000000000000000000000000000000000000000000000000000000000000000000000000000000000000000000000000000000000000000000000000000000000000000000000000000000000000000000000000000000000000000000000000000000000000000000000000",
      "type": "0x2",
      "transactionHash": "0x26bc8e596088898300b7d049acb9e846d543541247dbc14f43745a1af43f8b42",
      "transactionIndex": "0x11",
      "blockHash": "0x72e8fe7722284e349e0919bac4edc5048d4214f57f81587a7707462d3421a6b4",
      "blockNumber": "0x229752f",
      "gasUsed": "0xfba1",
      "effectiveGasPrice": "0x124f80",
      "blobGasUsed": "0x8880",
      "from": "0x0ece75f3c36f7df2136dac7633165dbff53de3cd",
      "to": "0x6edce65403992e310a62460808c4b910d972f10f",
      "contractAddress": null,
      "daFootprintGasScalar": "0x138",
      "l1BaseFeeScalar": "0x44d",
      "l1BlobBaseFee": "0x3abf2db",
      "l1BlobBaseFeeScalar": "0xa118b",
      "l1Fee": "0x20168b1fe",
      "l1GasPrice": "0x3a1ab7cb",
      "l1GasUsed": "0x702"
    }
  ],
  "libraries": [],
  "pending": [],
  "returns": {},
  "timestamp": 1768311101897,
  "chain": 84532,
  "commit": "c0cd3ab"
}