{
  "transactions": [
    {
      "hash": "0x80ec258736c2ab79a0a8c1a207dce8ddf882685a1e16b9e60187c3382351273c",
      "transactionType": "CALL",
      "contractName": null,
      "contractAddress": "0x6edce65403992e310a62460808c4b910d972f10f",
      "function": "setSendLibrary(address,uint32,address)",
      "arguments": [
        "0x39926DA4905f5Edb956F5dB5F2e2FF044E0882B2",
        "40245",
        "0xC1868e054425D378095A003EcbA3823a5D0135C9"
      ],
      "transaction": {
        "from": "0x0ece75f3c36f7df2136dac7633165dbff53de3cd",
        "to": "0x6edce65403992e310a62460808c4b910d972f10f",
        "gas": "0x149cd",
        "value": "0x0",
        "input": "0x9535ff3000000000000000000000000039926da4905f5edb956f5db5f2e2ff044e0882b20000000000000000000000000000000000000000000000000000000000009d35000000000000000000000000c1868e054425d378095a003ecba3823a5d0135c9",
        "nonce": "0xb",
        "chainId": "0x14a34"
      },
      "additionalContracts": [],
      "isFixedGasLimit": false
    },
    {
      "hash": "0x19e21be8a0d475f70666513698a529ee60e53710d12b46b853a43caeb6b0d1ec",
      "transactionType": "CALL",
      "contractName": null,
      "contractAddress": "0x6edce65403992e310a62460808c4b910d972f10f",
      "function": "setSendLibrary(address,uint32,address)",
      "arguments": [
        "0x39926DA4905f5Edb956F5dB5F2e2FF044E0882B2",
        "40246",
        "0xC1868e054425D378095A003EcbA3823a5D0135C9"
      ],
      "transaction": {
        "from": "0x0ece75f3c36f7df2136dac7633165dbff53de3cd",
        "to": "0x6edce65403992e310a62460808c4b910d972f10f",
        "gas": "0x149cd",
        "value": "0x0",
        "input": "0x9535ff3000000000000000000000000039926da4905f5edb956f5db5f2e2ff044e0882b20000000000000000000000000000000000000000000000000000000000009d36000000000000000000000000c1868e054425d378095a003ecba3823a5d0135c9",
        "nonce": "0xc",
        "chainId": "0x14a34"
      },
      "additionalContracts": [],
      "isFixedGasLimit": false
    },
    {
      "hash": "0xfa8d97e17c369726fc65eba9eb4192990849bf2b492b0342cc3c43c5aa5177c2",
      "transactionType": "CALL",
      "contractName": null,
      "contractAddress": "0x6edce65403992e310a62460808c4b910d972f10f",
      "function": "setReceiveLibrary(address,uint32,address,uint256)",
      "arguments": [
        "0x39926DA4905f5Edb956F5dB5F2e2FF044E0882B2",
        "40245",
        "0x12523de19dc41c91F7d2093E0CFbB76b17012C8d",
        "0"
      ],
      "transaction": {
        "from": "0x0ece75f3c36f7df2136dac7633165dbff53de3cd",
        "to": "0x6edce65403992e310a62460808c4b910d972f10f",
        "gas": "0x17001",
        "value": "0x0",
        "input": "0x6a14d71500000000000000000000000039926da4905f5edb956f5db5f2e2ff044e0882b20000000000000000000000000000000000000000000000000000000000009d3500000000000000000000000012523de19dc41c91f7d2093e0cfbb76b17012c8d0000000000000000000000000000000000000000000000000000000000000000",
        "nonce": "0xd",
        "chainId": "0x14a34"
      },
      "additionalContracts": [],
      "isFixedGasLimit": false
    }
  ],
  "receipts": [
    {
      "status": "0x1",
      "cumulativeGasUsed": "0x24b4ad",
      "logs": [
        {
          "address": "0x6edce65403992e310a62460808c4b910d972f10f",
          "topics": [
            "0x4cff966ebee29a156dcb34cf72c1d06231fb1777f6bdf6e8089819232f002b1c"
          ],
          "data": "0x00000000000000000000000039926da4905f5edb956f5db5f2e2ff044e0882b20000000000000000000000000000000000000000000000000000000000009d35000000000000000000000000c1868e054425d378095a003ecba3823a5d0135c9",
          "blockHash": "0xab5285f7e82d25136ce3174ab4c9e850dcf5a27d6ff617dbb08bfc3d0cde053f",
          "blockNumber": "0x2295ee9",
          "blockTimestamp": "0x69661cb2",
          "transactionHash": "0x80ec258736c2ab79a0a8c1a207dce8ddf882685a1e16b9e60187c3382351273c",
          "transactionIndex": "0x11",
          "logIndex": "0x36",
          "removed": false
        }
      ],
      "logsBloom": "0x00000000000000000000000000000000000200000000000000000000000000000000000000000000200000000000000000000000000000000000000001000000000000000000000000000000000000000000000000000000000000000000000000000000000000000200000000000000000000000000000000000000000000000000000000000020000000000000000000000000000000000000000000000000000000000000000000000000000000000000000000000000000000000000000000000000000000000000000000000000000000000000000000000000000000000040000000000000000000000000000000000000000000000000000000000000",
      "type": "0x2",
      "transactionHash": "0x80ec258736c2ab79a0a8c1a207dce8ddf882685a1e16b9e60187c3382351273c",
      "transactionIndex": "0x11",
      "blockHash": "0xab5285f7e82d25136ce3174ab4c9e850dcf5a27d6ff617dbb08bfc3d0cde053f",
      "blockNumber": "0x2295ee9",
      "gasUsed": "0xe182",
      "effectiveGasPrice": "0x124f80",
      "blobGasUsed": "0x8130",
      "from": "0x0ece75f3c36f7df2136dac7633165dbff53de3cd",
      "to": "0x6edce65403992e310a62460808c4b910d972f10f",
      "contractAddress": null,
      "daFootprintGasScalar": "0x138",
      "l1BaseFeeScalar": "0x44d",
      "l1BlobBaseFee": "0x3cfc69e",
      "l1BlobBaseFeeScalar": "0xa118b",
      "l1Fee": "0x16643c33f",
      "l1GasPrice": "0x3c99cab8",
      "l1GasUsed": "0x6a4"
    },
    {
      "status": "0x1",
      "cumulativeGasUsed": "0x25962f",
      "logs": [
        {
          "address": "0x6edce65403992e310a62460808c4b910d972f10f",
          "topics": [
            "0x4cff966ebee29a156dcb34cf72c1d06231fb1777f6bdf6e8089819232f002b1c"
          ],
          "data": "0x00000000000000000000000039926da4905f5edb956f5db5f2e2ff044e0882b20000000000000000000000000000000000000000000000000000000000009d36000000000000000000000000c1868e054425d378095a003ecba3823a5d0135c9",
          "blockHash": "0xab5285f7e82d25136ce3174ab4c9e850dcf5a27d6ff617dbb08bfc3d0cde053f",
          "blockNumber": "0x2295ee9",
          "blockTimestamp": "0x69661cb2",
          "transactionHash": "0x19e21be8a0d475f70666513698a529ee60e53710d12b46b853a43caeb6b0d1ec",
          "transactionIndex": "0x12",
          "logIndex": "0x37",
          "removed": false
        }
      ],
      "logsBloom": "0x00000000000000000000000000000000000200000000000000000000000000000000000000000000200000000000000000000000000000000000000001000000000000000000000000000000000000000000000000000000000000000000000000000000000000000200000000000000000000000000000000000000000000000000000000000020000000000000000000000000000000000000000000000000000000000000000000000000000000000000000000000000000000000000000000000000000000000000000000000000000000000000000000000000000000000040000000000000000000000000000000000000000000000000000000000000",
      "type": "0x2",
      "transactionHash": "0x19e21be8a0d475f70666513698a529ee60e53710d12b46b853a43caeb6b0d1ec",
      "transactionIndex": "0x12",
      "blockHash": "0xab5285f7e82d25136ce3174ab4c9e850dcf5a27d6ff617dbb08bfc3d0cde053f",
      "blockNumber": "0x2295ee9",
      "gasUsed": "0xe182",
      "effectiveGasPrice": "0x124f80",
      "blobGasUsed": "0x8130",
      "from": "0x0ece75f3c36f7df2136dac7633165dbff53de3cd",
      "to": "0x6edce65403992e310a62460808c4b910d972f10f",
      "contractAddress": null,
      "daFootprintGasScalar": "0x138",
      "l1BaseFeeScalar": "0x44d",
      "l1BlobBaseFee": "0x3cfc69e",
      "l1BlobBaseFeeScalar": "0xa118b",
      "l1Fee": "0x16643c33f",
      "l1GasPrice": "0x3c99cab8",
      "l1GasUsed": "0x6a4"
    },
    {
      "status": "0x1",
      "cumulativeGasUsed": "0x2691d0",
      "logs": [
        {
          "address": "0x6edce65403992e310a62460808c4b910d972f10f",
          "topics": [
            "0xcd6f92f5ac6185a5acfa02c92090746cec64d777269cbcd0ed031e396657a1c2"
          ],
          "data": "0x00000000000000000000000039926da4905f5edb956f5db5f2e2ff044e0882b20000000000000000000000000000000000000000000000000000000000009d3500000000000000000000000012523de19dc41c91f7d2093e0cfbb76b17012c8d",
          "blockHash": "0xab5285f7e82d25136ce3174ab4c9e850dcf5a27d6ff617dbb08bfc3d0cde053f",
          "blockNumber": "0x2295ee9",
          "blockTimestamp": "0x69661cb2",
          "transactionHash": "0xfa8d97e17c369726fc65eba9eb4192990849bf2b492b0342cc3c43c5aa5177c2",
          "transactionIndex": "0x13",
          "logIndex": "0x38",
          "removed": false
        },
        {
          "address": "0x6edce65403992e310a62460808c4b910d972f10f",
          "topics": [
            "0x4e0a5bbfa0c11a64effb1ada324b5437a17272e1aed9320398715ef71bb20928"
          ],
          "data": "0x00000000000000000000000039926da4905f5edb956f5db5f2e2ff044e0882b20000000000000000000000000000000000000000000000000000000000009d3500000000000000000000000000000000000000000000000000000000000000000000000000000000000000000000000000000000000000000000000000000000",
          "blockHash": "0xab5285f7e82d25136ce3174ab4c9e850dcf5a27d6ff617dbb08bfc3d0cde053f",
          "blockNumber": "0x2295ee9",
          "blockTimestamp": "0x69661cb2",
          "transactionHash": "0xfa8d97e17c369726fc65eba9eb4192990849bf2b492b0342cc3c43c5aa5177c2",
          "transactionIndex": "0x13",
          "logIndex": "0x39",
          "removed": false
        }
      ],
      "logsBloom": "0x00000000000000000000020800000000000000000000000000000000000000020400000000000000200000000000000000000000000000000000000000000000000000000000000000000000000000000000000000800000000000000000000000000000000000000200000000000000000000000000000000000000000000100000000000000020000000000000000000000000000000000000000000000000000000000000000000000000000000000000000000000000000000000000000000000000000000000000000000000000000000000000000000000000000000000000000000000000000000000000000000000000000000000000000000000000",
      "type": "0x2",
      "transactionHash": "0xfa8d97e17c369726fc65eba9eb4192990849bf2b492b0342cc3c43c5aa5177c2",
      "transactionIndex": "0x13",
      "blockHash": "0xab5285f7e82d25136ce3174ab4c9e850dcf5a27d6ff617dbb08bfc3d0cde053f",
      "blockNumber": "0x2295ee9",
      "gasUsed": "0xfba1",
      "effectiveGasPrice": "0x124f80",
      "blobGasUsed": "0x8880",
      "from": "0x0ece75f3c36f7df2136dac7633165dbff53de3cd",
      "to": "0x6edce65403992e310a62460808c4b910d972f10f",
      "contractAddress": null,
      "daFootprintGasScalar": "0x138",
      "l1BaseFeeScalar": "0x44d",
      "l1BlobBaseFee": "0x3cfc69e",
      "l1BlobBaseFeeScalar": "0xa118b",
      "l1Fee": "0x16643c33f",
      "l1GasPrice": "0x3c99cab8",
      "l1GasUsed": "0x702"
    }
  ],
  "libraries": [],
  "pending": [],
  "returns": {},
  "timestamp": 1768299697480,
  "chain": 84532,
  "commit": "c0cd3ab"
}