{
  "transactions": [
    {
      "hash": "0x7efa6793c0b0be39bee263be92330760f2e492e5d0eed8eb1cb802488cea823b",
      "transactionType": "CALL",
      "contractName": null,
      "contractAddress": "0x6edce65403992e310a62460808c4b910d972f10f",
      "function": "setSendLibrary(address,uint32,address)",
      "arguments": [
        "0x02a66B51Fc24E08535a6Cfe1e11E532D8A089212",
        "40245",
        "0xC1868e054425D378095A003EcbA3823a5D0135C9"
      ],
      "transaction": {
        "from": "0x0ece75f3c36f7df2136dac7633165dbff53de3cd",
        "to": "0x6edce65403992e310a62460808c4b910d972f10f",
        "gas": "0x149cd",
        "value": "0x0",
        "input": "0x9535ff3000000000000000000000000002a66b51fc24e08535a6cfe1e11e532d8a0892120000000000000000000000000000000000000000000000000000000000009d35000000000000000000000000c1868e054425d378095a003ecba3823a5d0135c9",
        "nonce": "0x31",
        "chainId": "0x14a34"
      },
      "additionalContracts": [],
      "isFixedGasLimit": false
    },
    {
      "hash": "0x84dfda3e7eab9e40a985da0bb6b666c11e330edd5f241b736d74096d7fda979b",
      "transactionType": "CALL",
      "contractName": null,
      "contractAddress": "0x6edce65403992e310a62460808c4b910d972f10f",
      "function": "setSendLibrary(address,uint32,address)",
      "arguments": [
        "0x02a66B51Fc24E08535a6Cfe1e11E532D8A089212",
        "40246",
        "0xC1868e054425D378095A003EcbA3823a5D0135C9"
      ],
      "transaction": {
        "from": "0x0ece75f3c36f7df2136dac7633165dbff53de3cd",
        "to": "0x6edce65403992e310a62460808c4b910d972f10f",
        "gas": "0x149cd",
        "value": "0x0",
        "input": "0x9535ff3000000000000000000000000002a66b51fc24e08535a6cfe1e11e532d8a0892120000000000000000000000000000000000000000000000000000000000009d36000000000000000000000000c1868e054425d378095a003ecba3823a5d0135c9",
        "nonce": "0x32",
        "chainId": "0x14a34"
      },
      "additionalContracts": [],
      "isFixedGasLimit": false
    },
    {
      "hash": "0x69e811c22cb4f6cd356216a64fc4e602ed51d31abd190ed61ac6b30235a59ac9",
      "transactionType": "CALL",
      "contractName": null,
      "contractAddress": "0x6edce65403992e310a62460808c4b910d972f10f",
      "function": "setReceiveLibrary(address,uint32,address,uint256)",
      "arguments": [
        "0x02a66B51Fc24E08535a6Cfe1e11E532D8A089212",
        "40245",
        "0x12523de19dc41c91F7d2093E0CFbB76b17012C8d",
        "0"
      ],
      "transaction": {
        "from": "0x0ece75f3c36f7df2136dac7633165dbff53de3cd",
        "to": "0x6edce65403992e310a62460808c4b910d972f10f",
        "gas": "0x17001",
        "value": "0x0",
        "input": "0x6a14d71500000000000000000000000002a66b51fc24e08535a6cfe1e11e532d8a0892120000000000000000000000000000000000000000000000000000000000009d3500000000000000000000000012523de19dc41c91f7d2093e0cfbb76b17012c8d0000000000000000000000000000000000000000000000000000000000000000",
        "nonce": "0x33",
        "chainId": "0x14a34"
      },
      "additionalContracts": [],
      "isFixedGasLimit": false
    }
  ],
  "receipts": [
    {
      "status": "0x1",
      "cumulativeGasUsed": "0x23150e",
      "logs": [
        {
          "address": "0x6edce65403992e310a62460808c4b910d972f10f",
          "topics": [
            "0x4cff966ebee29a156dcb34cf72c1d06231fb1777f6bdf6e8089819232f002b1c"
          ],
          "data": "0x00000000000000000000000002a66b51fc24e08535a6cfe1e11e532d8a0892120000000000000000000000000000000000000000000000000000000000009d35000000000000000000000000c1868e054425d378095a003ecba3823a5d0135c9",
          "blockHash": "0x59c2c195ed76f40e923b53b6e7aa830d6a2b061ec2e846d158ea2e4d69db3740",
          "blockNumber": "0x2297542",
          "blockTimestamp": "0x69664964",
          "transactionHash": "0x7efa6793c0b0be39bee263be92330760f2e492e5d0eed8eb1cb802488cea823b",
          "transactionIndex": "0xa",
          "logIndex": "0x42",
          "removed": false
        }
      ],
      "logsBloom": "0x00000000000000000000000000000000000200000000000000000000000000000000000000000000200000000000000000000000000000000000000001000000000000000000000000000000000000000000000000000000000000000000000000000000000000000200000000000000000000000000000000000000000000000000000000000020000000000000000000000000000000000000000000000000000000000000000000000000000000000000000000000000000000000000000000000000000000000000000000000000000000000000000000000000000000000040000000000000000000000000000000000000000000000000000000000000",
      "type": "0x2",
      "transactionHash": "0x7efa6793c0b0be39bee263be92330760f2e492e5d0eed8eb1cb802488cea823b",
      "transactionIndex": "0xa",
      "blockHash": "0x59c2c195ed76f40e923b53b6e7aa830d6a2b061ec2e846d158ea2e4d69db3740",
      "blockNumber": "0x2297542",
      "gasUsed": "0xe182",
      "effectiveGasPrice": "0x125693",
      "blobGasUsed": "0x8130",
      "from": "0x0ece75f3c36f7df2136dac7633165dbff53de3cd",
      "to": "0x6edce65403992e310a62460808c4b910d972f10f",
      "contractAddress": null,
      "daFootprintGasScalar": "0x138",
      "l1BaseFeeScalar": "0x44d",
      "l1BlobBaseFee": "0x3ba1cd8",
      "l1BlobBaseFeeScalar": "0xa118b",
      "l1Fee": "0x163d50176",
      "l1GasPrice": "0x3e63b8de",
      "l1GasUsed": "0x6a4"
    },
    {
      "status": "0x1",
      "cumulativeGasUsed": "0x23f690",
      "logs": [
        {
          "address": "0x6edce65403992e310a62460808c4b910d972f10f",
          "topics": [
            "0x4cff966ebee29a156dcb34cf72c1d06231fb1777f6bdf6e8089819232f002b1c"
          ],
          "data": "0x00000000000000000000000002a66b51fc24e08535a6cfe1e11e532d8a0892120000000000000000000000000000000000000000000000000000000000009d36000000000000000000000000c1868e054425d378095a003ecba3823a5d0135c9",
          "blockHash": "0x7021ff211652878aee40985d893553c2d1cced8959097fc090ee287f0da11701",
          "blockNumber": "0x2297542",
          "blockTimestamp": "0x69664964",
          "transactionHash": "0x69e811c22cb4f6cd356216a64fc4e602ed51d31abd190ed61ac6b30235a59ac9",
          "transactionIndex": "0xb",
          "logIndex": "0x43",
          "removed": false
        }
      ],
      "logsBloom": "0x00000000000000000000000000000000000200000000000000000000000000000000000000000000200000000000000000000000000000000000000001000000000000000000000000000000000000000000000000000000000000000000000000000000000000000200000000000000000000000000000000000000000000000000000000000020000000000000000000000000000000000000000000000000000000000000000000000000000000000000000000000000000000000000000000000000000000000000000000000000000000000000000000000000000000000040000000000000000000000000000000000000000000000000000000000000",
      "type": "0x2",
      "transactionHash": "0x69e811c22cb4f6cd356216a64fc4e602ed51d31abd190ed61ac6b30235a59ac9",
      "transactionIndex": "0xb",
      "blockHash": "0x7021ff211652878aee40985d893553c2d1cced8959097fc090ee287f0da11701",
      "blockNumber": "0x2297542",
      "gasUsed": "0xe182",
      "effectiveGasPrice": "0x125693",
      "blobGasUsed": "0x8130",
      "from": "0x0ece75f3c36f7df2136dac7633165dbff53de3cd",
      "to": "0x6edce65403992e310a62460808c4b910d972f10f",
      "contractAddress": null,
      "daFootprintGasScalar": "0x138",
      "l1BaseFeeScalar": "0x44d",
      "l1BlobBaseFee": "0x3ba1cd8",
      "l1BlobBaseFeeScalar": "0xa118b",
      "l1Fee": "0x17a4a3feb",
      "l1GasPrice": "0x3e63b8de",
      "l1GasUsed": "0x6a4"
    },
    {
      "status": "0x1",
      "cumulativeGasUsed": "0x24f231",
      "logs": [
        {
          "address": "0x6edce65403992e310a62460808c4b910d972f10f",
          "topics": [
            "0xcd6f92f5ac6185a5acfa02c92090746cec64d777269cbcd0ed031e396657a1c2"
          ],
          "data": "0x00000000000000000000000002a66b51fc24e08535a6cfe1e11e532d8a0892120000000000000000000000000000000000000000000000000000000000009d3500000000000000000000000012523de19dc41c91f7d2093e0cfbb76b17012c8d",
          "blockHash": "0x7021ff211652878aee40985d893553c2d1cced8959097fc090ee287f0da11701",
          "blockNumber": "0x2297542",
          "blockTimestamp": "0x69664964",
          "transactionHash": "0x84dfda3e7eab9e40a985da0bb6b666c11e330edd5f241b736d74096d7fda979b",
          "transactionIndex": "0xc",
          "logIndex": "0x44",
          "removed": false
        },
        {
          "address": "0x6edce65403992e310a62460808c4b910d972f10f",
          "topics": [
            "0x4e0a5bbfa0c11a64effb1ada324b5437a17272e1aed9320398715ef71bb20928"
          ],
          "data": "0x00000000000000000000000002a66b51fc24e08535a6cfe1e11e532d8a0892120000000000000000000000000000000000000000000000000000000000009d3500000000000000000000000000000000000000000000000000000000000000000000000000000000000000000000000000000000000000000000000000000000",
          "blockHash": "0x7021ff211652878aee40985d893553c2d1cced8959097fc090ee287f0da11701",
          "blockNumber": "0x2297542",
          "blockTimestamp": "0x69664964",
          "transactionHash": "0x84dfda3e7eab9e40a985da0bb6b666c11e330edd5f241b736d74096d7fda979b",
          "transactionIndex": "0xc",
          "logIndex": "0x45",
          "removed": false
        }
      ],
      "logsBloom": "0x00000000000000000000020800000000000000000000000000000000000000020400000000000000200000000000000000000000000000000000000000000000000000000000000000000000000000000000000000800000000000000000000000000000000000000200000000000000000000000000000000000000000000100000000000000020000000000000000000000000000000000000000000000000000000000000000000000000000000000000000000000000000000000000000000000000000000000000000000000000000000000000000000000000000000000000000000000000000000000000000000000000000000000000000000000000",
      "type": "0x2",
      "transactionHash": "0x84dfda3e7eab9e40a985da0bb6b666c11e330edd5f241b736d74096d7fda979b",
      "transactionIndex": "0xc",
      "blockHash": "0x7021ff211652878aee40985d893553c2d1cced8959097fc090ee287f0da11701",
      "blockNumber": "0x2297542",
      "gasUsed": "0xfba1",
      "effectiveGasPrice": "0x125693",
      "blobGasUsed": "0x8880",
      "from": "0x0ece75f3c36f7df2136dac7633165dbff53de3cd",
      "to": "0x6edce65403992e310a62460808c4b910d972f10f",
      "contractAddress": null,
      "daFootprintGasScalar": "0x138",
      "l1BaseFeeScalar": "0x44d",
      "l1BlobBaseFee": "0x3ba1cd8",
      "l1BlobBaseFeeScalar": "0xa118b",
      "l1Fee": "0x17a4a3feb",
      "l1GasPrice": "0x3e63b8de",
      "l1GasUsed": "0x702"
    }
  ],
  "libraries": [],
  "pending": [],
  "returns": {},
  "timestamp": 1768311138801,
  "chain": 84532,
  "commit": "c0cd3ab"
}