{
  "transactions": [
    {
      "hash": "0xbce8ccb689c0660ce2ae85c503c59c3d0b4f897bfb6a94cc8bbebcb7dd9ad02a",
      "transactionType": "CALL",
      "contractName": null,
      "contractAddress": "0x6edce65403992e310a62460808c4b910d972f10f",
      "function": "setConfig(address,address,(uint32,uint32,bytes)[])",
      "arguments": [
        "0x175867CAF278eB0610F216F3E0a6E671f2382E22",
        "0xC1868e054425D378095A003EcbA3823a5D0135C9",
        "[(40245, 1, 0x00000000000000000000000000000000000000000000000000000000000027100000000000000000000000008a3d588d9f6ac041476b094f97ff94ec30169d3d), (40245, 2, 0x0000000000000000000000000000000000000000000000000000000000000020000000000000000000000000000000000000000000000000000000000000000f000000000000000000000000000000000000000000000000000000000000000100000000000000000000000000000000000000000000000000000000000000ff000000000000000000000000000000000000000000000000000000000000000000000000000000000000000000000000000000000000000000000000000000c000000000000000000000000000000000000000000000000000000000000001000000000000000000000000000000000000000000000000000000000000000001000000000000000000000000e1a12515f9ab2764b887bf60b923ca494ebbb2d60000000000000000000000000000000000000000000000000000000000000000), (40246, 1, 0x00000000000000000000000000000000000000000000000000000000000027100000000000000000000000008a3d588d9f6ac041476b094f97ff94ec30169d3d), (40246, 2, 0x0000000000000000000000000000000000000000000000000000000000000020000000000000000000000000000000000000000000000000000000000000000f000000000000000000000000000000000000000000000000000000000000000100000000000000000000000000000000000000000000000000000000000000ff000000000000000000000000000000000000000000000000000000000000000000000000000000000000000000000000000000000000000000000000000000c000000000000000000000000000000000000000000000000000000000000001000000000000000000000000000000000000000000000000000000000000000001000000000000000000000000e1a12515f9ab2764b887bf60b923ca494ebbb2d60000000000000000000000000000000000000000000000000000000000000000)]"
      ],
      "transaction": {
        "from": "0x0ece75f3c36f7df2136dac7633165dbff53de3cd",
        "to": "0x6edce65403992e310a62460808c4b910d972f10f",
        "gas": "0x20931",
        "value": "0x0",
        "input": "0x6dbd9f90000000000000000000000000175867caf278eb0610f216f3e0a6e671f2382e22000000000000000000000000c1868e054425d378095a003ecba3823a5d0135c90000000000000000000000000000000000000000000000000000000000000060000000000000000000000000000000000000000000000000000000000000000400000000000000000000000000000000000000000000000000000000000000800000000000000000000000000000000000000000000000000000000000000140000000000000000000000000000000000000000000000000000000000000030000000000000000000000000000000000000000000000000000000000000003c00000000000000000000000000000000000000000000000000000000000009d3500000000000000000000000000000000000000000000000000000000000000010000000000000000000000000000000000000000000000000000000000000060000000000000000000000000000000000000000000000000000000000000004000000000000000000000000000000000000000000000000000000000000027100000000000000000000000008a3d588d9f6ac041476b094f97ff94ec30169d3d0000000000000000000000000000000000000000000000000000000000009d350000000000000000000000000000000000000000000000000000000000000002000000000000000000000000000000000000000000000000000000000000006000000000000000000000000000000000000000000000000000000000000001400000000000000000000000000000000000000000000000000000000000000020000000000000000000000000000000000000000000000000000000000000000f000000000000000000000000000000000000000000000000000000000000000100000000000000000000000000000000000000000000000000000000000000ff000000000000000000000000000000000000000000000000000000000000000000000000000000000000000000000000000000000000000000000000000000c000000000000000000000000000000000000000000000000000000000000001000000000000000000000000000000000000000000000000000000000000000001000000000000000000000000e1a12515f9ab2764b887bf60b923ca494ebbb2d600000000000000000000000000000000000000000000000000000000000000000000000000000000000000000000000000000000000000000000000000009d3600000000000000000000000000000000000000000000000000000000000000010000000000000000000000000000000000000000000000000000000000000060000000000000000000000000000000000000000000000000000000000000004000000000000000000000000000000000000000000000000000000000000027100000000000000000000000008a3d588d9f6ac041476b094f97ff94ec30169d3d0000000000000000000000000000000000000000000000000000000000009d360000000000000000000000000000000000000000000000000000000000000002000000000000000000000000000000000000000000000000000000000000006000000000000000000000000000000000000000000000000000000000000001400000000000000000000000000000000000000000000000000000000000000020000000000000000000000000000000000000000000000000000000000000000f000000000000000000000000000000000000000000000000000000000000000100000000000000000000000000000000000000000000000000000000000000ff000000000000000000000000000000000000000000000000000000000000000000000000000000000000000000000000000000000000000000000000000000c000000000000000000000000000000000000000000000000000000000000001000000000000000000000000000000000000000000000000000000000000000001000000000000000000000000e1a12515f9ab2764b887bf60b923ca494ebbb2d60000000000000000000000000000000000000000000000000000000000000000",
        "nonce": "0x13",
        "chainId": "0x14a34"
      },
      "additionalContracts": [],
      "isFixedGasLimit": false
    }
  ],
  "receipts": [
    {
      "status": "0x1",
      "cumulativeGasUsed": "0xcee5d",
      "logs": [
        {
          "address": "0xc1868e054425d378095a003ecba3823a5d0135c9",
          "topics": [
            "0x779cb2dd9d2bb1be1737d05435d744facbfb84a2a4912e21379d39beddcdc805"
          ],
          "data": "0x000000000000000000000000175867caf278eb0610f216f3e0a6e671f2382e220000000000000000000000000000000000000000000000000000000000009d3500000000000000000000000000000000000000000000000000000000000027100000000000000000000000008a3d588d9f6ac041476b094f97ff94ec30169d3d",
          "blockHash": "0xcaf190c957ba23133387abcc068bc2f03ff7413d1cbd261deb788e9189bc6d8b",
          "blockNumber": "0x2295f56",
          "blockTimestamp": "0x69661d8c",
          "transactionHash": "0xbce8ccb689c0660ce2ae85c503c59c3d0b4f897bfb6a94cc8bbebcb7dd9ad02a",
          "transactionIndex": "0x3",
          "logIndex": "0x29",
          "removed": false
        },
        {
          "address": "0xc1868e054425d378095a003ecba3823a5d0135c9",
          "topics": [
            "0x82118522aa536ac0e96cc5c689407ae42b89d592aa133890a01f1509842f5081"
          ],
          "data": "0x000000000000000000000000175867caf278eb0610f216f3e0a6e671f2382e220000000000000000000000000000000000000000000000000000000000009d350000000000000000000000000000000000000000000000000000000000000060000000000000000000000000000000000000000000000000000000000000000f000000000000000000000000000000000000000000000000000000000000000100000000000000000000000000000000000000000000000000000000000000ff000000000000000000000000000000000000000000000000000000000000000000000000000000000000000000000000000000000000000000000000000000c000000000000000000000000000000000000000000000000000000000000001000000000000000000000000000000000000000000000000000000000000000001000000000000000000000000e1a12515f9ab2764b887bf60b923ca494ebbb2d60000000000000000000000000000000000000000000000000000000000000000",
          "blockHash": "0xcaf190c957ba23133387abcc068bc2f03ff7413d1cbd261deb788e9189bc6d8b",
          "blockNumber": "0x2295f56",
          "blockTimestamp": "0x69661d8c",
          "transactionHash": "0xbce8ccb689c0660ce2ae85c503c59c3d0b4f897bfb6a94cc8bbebcb7dd9ad02a",
          "transactionIndex": "0x3",
          "logIndex": "0x2a",
          "removed": false
        },
        {
          "address": "0xc1868e054425d378095a003ecba3823a5d0135c9",
          "topics": [
            "0x779cb2dd9d2bb1be1737d05435d744facbfb84a2a4912e21379d39beddcdc805"
          ],
          "data": "0x000000000000000000000000175867caf278eb0610f216f3e0a6e671f2382e220000000000000000000000000000000000000000000000000000000000009d3600000000000000000000000000000000000000000000000000000000000027100000000000000000000000008a3d588d9f6ac041476b094f97ff94ec30169d3d",
          "blockHash": "0xcaf190c957ba23133387abcc068bc2f03ff7413d1cbd261deb788e9189bc6d8b",
          "blockNumber": "0x2295f56",
          "blockTimestamp": "0x69661d8c",
          "transactionHash": "0xbce8ccb689c0660ce2ae85c503c59c3d0b4f897bfb6a94cc8bbebcb7dd9ad02a",
          "transactionIndex": "0x3",
          "logIndex": "0x2b",
          "removed": false
        },
        {
          "address": "0xc1868e054425d378095a003ecba3823a5d0135c9",
          "topics": [
            "0x82118522aa536ac0e96cc5c689407ae42b89d592aa133890a01f1509842f5081"
          ],
          "data": "0x000000000000000000000000175867caf278eb0610f216f3e0a6e671f2382e220000000000000000000000000000000000000000000000000000000000009d360000000000000000000000000000000000000000000000000000000000000060000000000000000000000000000000000000000000000000000000000000000f000000000000000000000000000000000000000000000000000000000000000100000000000000000000000000000000000000000000000000000000000000ff000000000000000000000000000000000000000000000000000000000000000000000000000000000000000000000000000000000000000000000000000000c000000000000000000000000000000000000000000000000000000000000001000000000000000000000000000000000000000000000000000000000000000001000000000000000000000000e1a12515f9ab2764b887bf60b923ca494ebbb2d60000000000000000000000000000000000000000000000000000000000000000",
          "blockHash": "0xcaf190c957ba23133387abcc068bc2f03ff7413d1cbd261deb788e9189bc6d8b",
          "blockNumber": "0x2295f56",
          "blockTimestamp": "0x69661d8c",
          "transactionHash": "0xbce8ccb689c0660ce2ae85c503c59c3d0b4f897bfb6a94cc8bbebcb7dd9ad02a",
          "transactionIndex": "0x3",
          "logIndex": "0x2c",
          "removed": false
        }
      ],
      "logsBloom": "0x00000000000000000000000000000000000000000000000000000000000000000000000000000200000000000000000000000000000000000000000000000000000000000000000000000040000000000000000000000000002000020000000000000000000000000000000000000000000000000000000000000000000000000000000000000000000000000000000000000000000000000000000000000000000000000000000000000002000000000000000000000000000000000000000280000000000000000000000000000000000000000000000000000000000000000008000000000000000000000000000000000000000000000000000000000010",
      "type": "0x2",
      "transactionHash": "0xbce8ccb689c0660ce2ae85c503c59c3d0b4f897bfb6a94cc8bbebcb7dd9ad02a",
      "transactionIndex": "0x3",
      "blockHash": "0xcaf190c957ba23133387abcc068bc2f03ff7413d1cbd261deb788e9189bc6d8b",
      "blockNumber": "0x2295f56",
      "gasUsed": "0x17956",
      "effectiveGasPrice": "0x126547",
      "blobGasUsed": "0x14b80",
      "from": "0x0ece75f3c36f7df2136dac7633165dbff53de3cd",
      "to": "0x6edce65403992e310a62460808c4b910d972f10f",
      "contractAddress": null,
      "daFootprintGasScalar": "0x138",
      "l1BaseFeeScalar": "0x44d",
      "l1BlobBaseFee": "0x37560d3",
      "l1BlobBaseFeeScalar": "0xa118b",
      "l1Fee": "0x14e5ee13e",
      "l1GasPrice": "0x3c4383b5",
      "l1GasUsed": "0x110c"
    }
  ],
  "libraries": [],
  "pending": [],
  "returns": {},
  "timestamp": 1768299914353,
  "chain": 84532,
  "commit": "c0cd3ab"
}