{
  "transactions": [
    {
      "hash": "0x5928310075c2c94d90c26c3845bf61e6037756b1156221afc1e1690d2519f1c2",
      "transactionType": "CALL",
      "contractName": null,
      "contractAddress": "0x04c37dc1b538e00b31e6bc883e16d97cd7937a10",
      "function": "approve(address,uint256)",
      "arguments": [
        "0x64493Bd2F250cC05D75bCa93cc95447e2834638b",
        "1000000"
      ],
      "transaction": {
        "from": "0x0ece75f3c36f7df2136dac7633165dbff53de3cd",
        "to": "0x04c37dc1b538e00b31e6bc883e16d97cd7937a10",
        "gas": "0xeb341f7",
        "value": "0x0",
        "input": "0x095ea7b300000000000000000000000064493bd2f250cc05d75bca93cc95447e2834638b00000000000000000000000000000000000000000000000000000000000f4240",
        "nonce": "0x7a",
        "chainId": "0x138b"
      },
      "additionalContracts": [],
      "isFixedGasLimit": false
    },
    {
      "hash": "0x790f12e6b0a7cfa0b9296bdade56ce967ad9e9dcf5aa133f4dca001109dae54b",
      "transactionType": "CALL",
      "contractName": null,
      "contractAddress": "0x64493bd2f250cc05d75bca93cc95447e2834638b",
      "function": "send((uint32,bytes32,uint256,uint256,bytes,bytes,bytes),(uint256,uint256),address)",
      "arguments": [
        "(40245, 0x0000000000000000000000000ece75f3c36f7df2136dac7633165dbff53de3cd, 1000000, 1000000, 0x0003010011010000000000000000000000000000fde8, 0x, 0x)",
        "(208052978481184910, 0)",
        "0x0EcE75f3C36f7Df2136Dac7633165DBff53dE3CD"
      ],
      "transaction": {
        "from": "0x0ece75f3c36f7df2136dac7633165dbff53de3cd",
        "to": "0x64493bd2f250cc05d75bca93cc95447e2834638b",
        "gas": "0x54d7e",
        "value": "0x2e32714e4d5408e",
        "input": "0xc7c7f5b3000000000000000000000000000000000000000000000000000000000000008000000000000000000000000000000000000000000000000002e32714e4d5408e00000000000000000000000000000000000000000000000000000000000000000000000000000000000000000ece75f3c36f7df2136dac7633165dbff53de3cd0000000000000000000000000000000000000000000000000000000000009d350000000000000000000000000ece75f3c36f7df2136dac7633165dbff53de3cd00000000000000000000000000000000000000000000000000000000000f424000000000000000000000000000000000000000000000000000000000000f424000000000000000000000000000000000000000000000000000000000000000e00000000000000000000000000000000000000000000000000000000000000120000000000000000000000000000000000000000000000000000000000000014000000000000000000000000000000000000000000000000000000000000000160003010011010000000000000000000000000000fde80000000000000000000000000000000000000000000000000000000000000000000000000000000000000000000000000000000000000000000000000000000000000000000000000000",
        "nonce": "0x7b",
        "chainId": "0x138b"
      },
      "additionalContracts": [],
      "isFixedGasLimit": false
    }
  ],
  "receipts": [
    {
      "status": "0x1",
      "cumulativeGasUsed": "0x139560b6",
      "logs": [
        {
          "address": "0x04c37dc1b538e00b31e6bc883e16d97cd7937a10",
          "topics": [
            "0x8c5be1e5ebec7d5bd14f71427d1e84f3dd0314c0f7b2291e5b200ac8c7c3b925",
            "0x0000000000000000000000000ece75f3c36f7df2136dac7633165dbff53de3cd",
            "0x00000000000000000000000064493bd2f250cc05d75bca93cc95447e2834638b"
          ],
          "data": "0x00000000000000000000000000000000000000000000000000000000000f4240",
          "blockHash": "0xe374c370530b508bfe32979daca6194dc67ab8e03788bcf3b2090b60776b6baf",
          "blockNumber": "0x1fd6515",
          "blockTimestamp": "0x69664d0b",
          "transactionHash": "0x5928310075c2c94d90c26c3845bf61e6037756b1156221afc1e1690d2519f1c2",
          "transactionIndex": "0x2",
          "logIndex": "0x1",
          "removed": false
        }
      ],
      "logsBloom": "0x00000000000000000000000000000000000000000000000000000000000000000000000000000000000000000000000000000000000000200000000000200000200000000000008000000000000000000000000000000000000000000000000000000000000000000000000000000000000000000000200000000000000000000000000000000000200000000000800000000000000000000000000000000000020000000000000000000800010000000000000000000000000000000000000000000000000000000000000000000000000000000000000000000000000000000010000000200000000000000000000000000000000000000000000000000000",
      "type": "0x2",
      "transactionHash": "0x5928310075c2c94d90c26c3845bf61e6037756b1156221afc1e1690d2519f1c2",
      "transactionIndex": "0x2",
      "blockHash": "0xe374c370530b508bfe32979daca6194dc67ab8e03788bcf3b2090b60776b6baf",
      "blockNumber": "0x1fd6515",
      "gasUsed": "0x95a02ac",
      "effectiveGasPrice": "0x1312d01",
      "from": "0x0ece75f3c36f7df2136dac7633165dbff53de3cd",
      "to": "0x04c37dc1b538e00b31e6bc883e16d97cd7937a10",
      "contractAddress": null,
      "l1Fee": "0x4ca41fac35a8",
      "l1FeeScalar": "0.01",
      "l1GasPrice": "0x3cecbb12",
      "l1GasUsed": "0x9e4",
      "tokenRatio": "0xcb8"
    },
    {
      "status": "0x1",
      "cumulativeGasUsed": "0x314bc6c4",
      "logs": [
        {
          "address": "0x04c37dc1b538e00b31e6bc883e16d97cd7937a10",
          "topics": [
            "0xddf252ad1be2c89b69c2b068fc378daa952ba7f163c4a11628f55a4df523b3ef",
            "0x0000000000000000000000000ece75f3c36f7df2136dac7633165dbff53de3cd",
            "0x00000000000000000000000064493bd2f250cc05d75bca93cc95447e2834638b"
          ],
          "data": "0x00000000000000000000000000000000000000000000000000000000000f4240",
          "blockHash": "0x83e4ab50cac8f81fd6cf5c47498efaa33039b1601e948fe4947333f86eca770f",
          "blockNumber": "0x1fd6518",
          "blockTimestamp": "0x69664d11",
          "transactionHash": "0x790f12e6b0a7cfa0b9296bdade56ce967ad9e9dcf5aa133f4dca001109dae54b",
          "transactionIndex": "0x1",
          "logIndex": "0x0",
          "removed": false
        },
        {
          "address": "0x64493bd2f250cc05d75bca93cc95447e2834638b",
          "topics": [
            "0x59c79d79be0fadf59fe689b6952b7ebe90201a3a1f00d4a31982377890bc6046"
          ],
          "data": "0x0000000000000000000000000ece75f3c36f7df2136dac7633165dbff53de3cd00000000000000000000000000000000000000000000000000000000000f4240",
          "blockHash": "0x83e4ab50cac8f81fd6cf5c47498efaa33039b1601e948fe4947333f86eca770f",
          "blockNumber": "0x1fd6518",
          "blockTimestamp": "0x69664d11",
          "transactionHash": "0x790f12e6b0a7cfa0b9296bdade56ce967ad9e9dcf5aa133f4dca001109dae54b",
          "transactionIndex": "0x1",
          "logIndex": "0x1",
          "removed": false
        },
        {
          "address": "0x9a289b849b32ff69a95f8584a03343a33ff6e5fd",
          "topics": [
            "0x61ed099e74a97a1d7f8bb0952a88ca8b7b8ebd00c126ea04671f92a81213318a"
          ],
          "data": "0x0000000000000000000000008beee743829af63f5b37e52d5ef8477ef12511de00000000000000000000000000000000000000000000000002bed301a235f52a",
          "blockHash": "0x83e4ab50cac8f81fd6cf5c47498efaa33039b1601e948fe4947333f86eca770f",
          "blockNumber": "0x1fd6518",
          "blockTimestamp": "0x69664d11",
          "transactionHash": "0x790f12e6b0a7cfa0b9296bdade56ce967ad9e9dcf5aa133f4dca001109dae54b",
          "transactionIndex": "0x1",
          "logIndex": "0x2",
          "removed": false
        },
        {
          "address": "0x9a289b849b32ff69a95f8584a03343a33ff6e5fd",
          "topics": [
            "0x07ea52d82345d6e838192107d8fd7123d9c2ec8e916cd0aad13fd2b60db24644"
          ],
          "data": "0x000000000000000000000000000000000000000000000000000000000000006000000000000000000000000000000000000000000000000000000000000000a000000000000000000000000000000000000000000000000000000000000000c000000000000000000000000000000000000000000000000000000000000000010000000000000000000000009454f0eabc7c4ea9ebf89190b8bf9051a0468e030000000000000000000000000000000000000000000000000000000000000000000000000000000000000000000000000000000000000000000000000000000100000000000000000000000000000000000000000000000000245413429f4b64",
          "blockHash": "0x83e4ab50cac8f81fd6cf5c47498efaa33039b1601e948fe4947333f86eca770f",
          "blockNumber": "0x1fd6518",
          "blockTimestamp": "0x69664d11",
          "transactionHash": "0x790f12e6b0a7cfa0b9296bdade56ce967ad9e9dcf5aa133f4dca001109dae54b",
          "transactionIndex": "0x1",
          "logIndex": "0x3",
          "removed": false
        },
        {
          "address": "0x6edce65403992e310a62460808c4b910d972f10f",
          "topics": [
            "0x1ab700d4ced0c005b164c0f789fd09fcbb0156d4c2041b8a3bfbcd961cd1567f"
          ],
          "data": "0x000000000000000000000000000000000000000000000000000000000000006000000000000000000000000000000000000000000000000000000000000001200000000000000000000000009a289b849b32ff69a95f8584a03343a33ff6e5fd000000000000000000000000000000000000000000000000000000000000009901000000000000000100009d3600000000000000000000000064493bd2f250cc05d75bca93cc95447e2834638b00009d3500000000000000000000000033faba0e0ce340afc4fb03038151ff7ee1d5f95bd0001ba6d92487f2505bfeca6cb88b50daedcb4b0786899d669d40a218df28fc0000000000000000000000000ece75f3c36f7df2136dac7633165dbff53de3cd000000000000000100000000000000000000000000000000000000000000000000000000000000000000000000002a000301001101000000000000000000000000000186a0010011010000000000000000000000000000fde800000000000000000000000000000000000000000000",
          "blockHash": "0x83e4ab50cac8f81fd6cf5c47498efaa33039b1601e948fe4947333f86eca770f",
          "blockNumber": "0x1fd6518",
          "blockTimestamp": "0x69664d11",
          "transactionHash": "0x790f12e6b0a7cfa0b9296bdade56ce967ad9e9dcf5aa133f4dca001109dae54b",
          "transactionIndex": "0x1",
          "logIndex": "0x4",
          "removed": false
        },
        {
          "address": "0x64493bd2f250cc05d75bca93cc95447e2834638b",
          "topics": [
            "0x85496b760a4b7f8d66384b9df21b381f5d1b1e79f229a47aaf4c232edc2fe59a",
            "0xd0001ba6d92487f2505bfeca6cb88b50daedcb4b0786899d669d40a218df28fc",
            "0x0000000000000000000000000ece75f3c36f7df2136dac7633165dbff53de3cd"
          ],
          "data": "0x0000000000000000000000000000000000000000000000000000000000009d3500000000000000000000000000000000000000000000000000000000000f424000000000000000000000000000000000000000000000000000000000000f4240",
          "blockHash": "0x83e4ab50cac8f81fd6cf5c47498efaa33039b1601e948fe4947333f86eca770f",
          "blockNumber": "0x1fd6518",
          "blockTimestamp": "0x69664d11",
          "transactionHash": "0x790f12e6b0a7cfa0b9296bdade56ce967ad9e9dcf5aa133f4dca001109dae54b",
          "transactionIndex": "0x1",
          "logIndex": "0x5",
          "removed": false
        }
      ],
      "logsBloom": "0x00400000000000000000000000000000000000000000000000000000000000000000000000000000200000000000000400000000000000200000000000000000200002000000008000000008000000000000000000000000000000000000000000000000000000008200000000000000000000000000200002000010000000000000000000000020200000080000800000000000000000010000000200000008000000008000000000100800010000000000080000400000000440200000000000000002000000000100000080000000000000000000000000000000000000000000040000280000000000000000802000080000008000000000000000000000",
      "type": "0x2",
      "transactionHash": "0x790f12e6b0a7cfa0b9296bdade56ce967ad9e9dcf5aa133f4dca001109dae54b",
      "transactionIndex": "0x1",
      "blockHash": "0x83e4ab50cac8f81fd6cf5c47498efaa33039b1601e948fe4947333f86eca770f",
      "blockNumber": "0x1fd6518",
      "gasUsed": "0x314b0fb3",
      "effectiveGasPrice": "0x1312d01",
      "from": "0x0ece75f3c36f7df2136dac7633165dbff53de3cd",
      "to": "0x64493bd2f250cc05d75bca93cc95447e2834638b",
      "contractAddress": null,
      "l1Fee": "0x8dd53cafcfc2",
      "l1FeeScalar": "0.01",
      "l1GasPrice": "0x3a2a75ab",
      "l1GasUsed": "0x132c",
      "tokenRatio": "0xcb8"
    }
  ],
  "libraries": [],
  "pending": [],
  "returns": {},
  "timestamp": 1768312084295,
  "chain": 5003,
  "commit": "c0cd3ab"
}