{
  "transactions": [
    {
      "hash": "0xa8a619e4f7b6dddf8be22bedecf60f40e3ad40afdb613016c79d784ca2efdc9c",
      "transactionType": "CALL",
      "contractName": null,
      "contractAddress": "0x04c37dc1b538e00b31e6bc883e16d97cd7937a10",
      "function": "approve(address,uint256)",
      "arguments": [
        "0x64493Bd2F250cC05D75bCa93cc95447e2834638b",
        "1000000"
      ],
      "transaction": {
        "from": "0x0ece75f3c36f7df2136dac7633165dbff53de3cd",
        "to": "0x04c37dc1b538e00b31e6bc883e16d97cd7937a10",
        "gas": "0xebcb56b",
        "value": "0x0",
        "input": "0x095ea7b300000000000000000000000064493bd2f250cc05d75bca93cc95447e2834638b00000000000000000000000000000000000000000000000000000000000f4240",
        "nonce": "0x72",
        "chainId": "0x138b"
      },
      "additionalContracts": [],
      "isFixedGasLimit": false
    },
    {
      "hash": "0xa7394941664534a41449fa3325e9cfbedacc9003d594bd847215ab45f3289c50",
      "transactionType": "CALL",
      "contractName": null,
      "contractAddress": "0x64493bd2f250cc05d75bca93cc95447e2834638b",
      "function": "send((uint32,bytes32,uint256,uint256,bytes,bytes,bytes),(uint256,uint256),address)",
      "arguments": [
        "(40245, 0x0000000000000000000000000ece75f3c36f7df2136dac7633165dbff53de3cd, 1000000, 1000000, 0x0003010011010000000000000000000000000000fde8, 0x, 0x)",
        "(208052978481184910, 0)",
        "0x0EcE75f3C36f7Df2136Dac7633165DBff53dE3CD"
      ],
      "transaction": {
        "from": "0x0ece75f3c36f7df2136dac7633165dbff53de3cd",
        "to": "0x64493bd2f250cc05d75bca93cc95447e2834638b",
        "gas": "0x5ff0a",
        "value": "0x2e32714e4d5408e",
        "input": "0xc7c7f5b3000000000000000000000000000000000000000000000000000000000000008000000000000000000000000000000000000000000000000002e32714e4d5408e00000000000000000000000000000000000000000000000000000000000000000000000000000000000000000ece75f3c36f7df2136dac7633165dbff53de3cd0000000000000000000000000000000000000000000000000000000000009d350000000000000000000000000ece75f3c36f7df2136dac7633165dbff53de3cd00000000000000000000000000000000000000000000000000000000000f424000000000000000000000000000000000000000000000000000000000000f424000000000000000000000000000000000000000000000000000000000000000e00000000000000000000000000000000000000000000000000000000000000120000000000000000000000000000000000000000000000000000000000000014000000000000000000000000000000000000000000000000000000000000000160003010011010000000000000000000000000000fde80000000000000000000000000000000000000000000000000000000000000000000000000000000000000000000000000000000000000000000000000000000000000000000000000000",
        "nonce": "0x73",
        "chainId": "0x138b"
      },
      "additionalContracts": [],
      "isFixedGasLimit": false
    }
  ],
  "receipts": [
    {
      "status": "0x1",
      "cumulativeGasUsed": "0x9600eb8",
      "logs": [
        {
          "address": "0x04c37dc1b538e00b31e6bc883e16d97cd7937a10",
          "topics": [
            "0x8c5be1e5ebec7d5bd14f71427d1e84f3dd0314c0f7b2291e5b200ac8c7c3b925",
            "0x0000000000000000000000000ece75f3c36f7df2136dac7633165dbff53de3cd",
            "0x00000000000000000000000064493bd2f250cc05d75bca93cc95447e2834638b"
          ],
          "data": "0x00000000000000000000000000000000000000000000000000000000000f4240",
          "blockHash": "0x98e273d1bb25f1ed250c069cbf2e8f8e8961cd562cda688ca94e7e46da003415",
          "blockNumber": "0x1fd52b9",
          "blockTimestamp": "0x69662853",
          "transactionHash": "0xa8a619e4f7b6dddf8be22bedecf60f40e3ad40afdb613016c79d784ca2efdc9c",
          "transactionIndex": "0x1",
          "logIndex": "0x0",
          "removed": false
        }
      ],
      "logsBloom": "0x00000000000000000000000000000000000000000000000000000000000000000000000000000000000000000000000000000000000000200000000000200000200000000000008000000000000000000000000000000000000000000000000000000000000000000000000000000000000000000000200000000000000000000000000000000000200000000000800000000000000000000000000000000000020000000000000000000800010000000000000000000000000000000000000000000000000000000000000000000000000000000000000000000000000000000010000000200000000000000000000000000000000000000000000000000000",
      "type": "0x2",
      "transactionHash": "0xa8a619e4f7b6dddf8be22bedecf60f40e3ad40afdb613016c79d784ca2efdc9c",
      "transactionIndex": "0x1",
      "blockHash": "0x98e273d1bb25f1ed250c069cbf2e8f8e8961cd562cda688ca94e7e46da003415",
      "blockNumber": "0x1fd52b9",
      "gasUsed": "0x95f57a7",
      "effectiveGasPrice": "0x132b3a0",
      "from": "0x0ece75f3c36f7df2136dac7633165dbff53de3cd",
      "to": "0x04c37dc1b538e00b31e6bc883e16d97cd7937a10",
      "contractAddress": null,
      "l1Fee": "0x50cf03abd86d",
      "l1FeeScalar": "0.01",
      "l1GasPrice": "0x3eb1627f",
      "l1GasUsed": "0xa20",
      "tokenRatio": "0xcbb"
    },
    {
      "status": "0x1",
      "cumulativeGasUsed": "0x34ac8f52",
      "logs": [
        {
          "address": "0x04c37dc1b538e00b31e6bc883e16d97cd7937a10",
          "topics": [
            "0xddf252ad1be2c89b69c2b068fc378daa952ba7f163c4a11628f55a4df523b3ef",
            "0x0000000000000000000000000ece75f3c36f7df2136dac7633165dbff53de3cd",
            "0x00000000000000000000000064493bd2f250cc05d75bca93cc95447e2834638b"
          ],
          "data": "0x00000000000000000000000000000000000000000000000000000000000f4240",
          "blockHash": "0x0877b2902b0c9c3fdcbc661037f9b3d4bd5cfd7b56e7c2256f2e20b0df233099",
          "blockNumber": "0x1fd52bd",
          "blockTimestamp": "0x6966285b",
          "transactionHash": "0xa7394941664534a41449fa3325e9cfbedacc9003d594bd847215ab45f3289c50",
          "transactionIndex": "0x1",
          "logIndex": "0x0",
          "removed": false
        },
        {
          "address": "0x64493bd2f250cc05d75bca93cc95447e2834638b",
          "topics": [
            "0x59c79d79be0fadf59fe689b6952b7ebe90201a3a1f00d4a31982377890bc6046"
          ],
          "data": "0x0000000000000000000000000ece75f3c36f7df2136dac7633165dbff53de3cd00000000000000000000000000000000000000000000000000000000000f4240",
          "blockHash": "0x0877b2902b0c9c3fdcbc661037f9b3d4bd5cfd7b56e7c2256f2e20b0df233099",
          "blockNumber": "0x1fd52bd",
          "blockTimestamp": "0x6966285b",
          "transactionHash": "0xa7394941664534a41449fa3325e9cfbedacc9003d594bd847215ab45f3289c50",
          "transactionIndex": "0x1",
          "logIndex": "0x1",
          "removed": false
        },
        {
          "address": "0x9a289b849b32ff69a95f8584a03343a33ff6e5fd",
          "topics": [
            "0x61ed099e74a97a1d7f8bb0952a88ca8b7b8ebd00c126ea04671f92a81213318a"
          ],
          "data": "0x0000000000000000000000008beee743829af63f5b37e52d5ef8477ef12511de00000000000000000000000000000000000000000000000002bed301a235f52a",
          "blockHash": "0x0877b2902b0c9c3fdcbc661037f9b3d4bd5cfd7b56e7c2256f2e20b0df233099",
          "blockNumber": "0x1fd52bd",
          "blockTimestamp": "0x6966285b",
          "transactionHash": "0xa7394941664534a41449fa3325e9cfbedacc9003d594bd847215ab45f3289c50",
          "transactionIndex": "0x1",
          "logIndex": "0x2",
          "removed": false
        },
        {
          "address": "0x9a289b849b32ff69a95f8584a03343a33ff6e5fd",
          "topics": [
            "0x07ea52d82345d6e838192107d8fd7123d9c2ec8e916cd0aad13fd2b60db24644"
          ],
          "data": "0x000000000000000000000000000000000000000000000000000000000000006000000000000000000000000000000000000000000000000000000000000000a000000000000000000000000000000000000000000000000000000000000000c000000000000000000000000000000000000000000000000000000000000000010000000000000000000000009454f0eabc7c4ea9ebf89190b8bf9051a0468e030000000000000000000000000000000000000000000000000000000000000000000000000000000000000000000000000000000000000000000000000000000100000000000000000000000000000000000000000000000000245413429f4b64",
          "blockHash": "0x0877b2902b0c9c3fdcbc661037f9b3d4bd5cfd7b56e7c2256f2e20b0df233099",
          "blockNumber": "0x1fd52bd",
          "blockTimestamp": "0x6966285b",
          "transactionHash": "0xa7394941664534a41449fa3325e9cfbedacc9003d594bd847215ab45f3289c50",
          "transactionIndex": "0x1",
          "logIndex": "0x3",
          "removed": false
        },
        {
          "address": "0x6edce65403992e310a62460808c4b910d972f10f",
          "topics": [
            "0x1ab700d4ced0c005b164c0f789fd09fcbb0156d4c2041b8a3bfbcd961cd1567f"
          ],
          "data": "0x000000000000000000000000000000000000000000000000000000000000006000000000000000000000000000000000000000000000000000000000000001200000000000000000000000009a289b849b32ff69a95f8584a03343a33ff6e5fd000000000000000000000000000000000000000000000000000000000000009901000000000000000100009d3600000000000000000000000064493bd2f250cc05d75bca93cc95447e2834638b00009d35000000000000000000000000175867caf278eb0610f216f3e0a6e671f2382e22cf872301dcb875b0341d4c6e31399afb0886f4c71ce2a30e9e3f6248ee44bccc0000000000000000000000000ece75f3c36f7df2136dac7633165dbff53de3cd000000000000000100000000000000000000000000000000000000000000000000000000000000000000000000002a000301001101000000000000000000000000000186a0010011010000000000000000000000000000fde800000000000000000000000000000000000000000000",
          "blockHash": "0x0877b2902b0c9c3fdcbc661037f9b3d4bd5cfd7b56e7c2256f2e20b0df233099",
          "blockNumber": "0x1fd52bd",
          "blockTimestamp": "0x6966285b",
          "transactionHash": "0xa7394941664534a41449fa3325e9cfbedacc9003d594bd847215ab45f3289c50",
          "transactionIndex": "0x1",
          "logIndex": "0x4",
          "removed": false
        },
        {
          "address": "0x64493bd2f250cc05d75bca93cc95447e2834638b",
          "topics": [
            "0x85496b760a4b7f8d66384b9df21b381f5d1b1e79f229a47aaf4c232edc2fe59a",
            "0xcf872301dcb875b0341d4c6e31399afb0886f4c71ce2a30e9e3f6248ee44bccc",
            "0x0000000000000000000000000ece75f3c36f7df2136dac7633165dbff53de3cd"
          ],
          "data": "0x0000000000000000000000000000000000000000000000000000000000009d3500000000000000000000000000000000000000000000000000000000000f424000000000000000000000000000000000000000000000000000000000000f4240",
          "blockHash": "0x0877b2902b0c9c3fdcbc661037f9b3d4bd5cfd7b56e7c2256f2e20b0df233099",
          "blockNumber": "0x1fd52bd",
          "blockTimestamp": "0x6966285b",
          "transactionHash": "0xa7394941664534a41449fa3325e9cfbedacc9003d594bd847215ab45f3289c50",
          "transactionIndex": "0x1",
          "logIndex": "0x5",
          "removed": false
        }
      ],
      "logsBloom": "0x00402000000000000000000000000000000000000000000000000000000000000000000000000000200000000000000400000000000000200000000000000000200002000000008000000008000000000000000000000000000000000000000000000000000000008200000000000000000000000000200002000010000000020000000000000020200000080000800000000000000000004000000200000008000000008000000000100800010000000000080000400000000440000000000000000002000000000100000080000000000000000000000000000000000000000000040000280000000000000000002000080000008000000000000000000000",
      "type": "0x2",
      "transactionHash": "0xa7394941664534a41449fa3325e9cfbedacc9003d594bd847215ab45f3289c50",
      "transactionIndex": "0x1",
      "blockHash": "0x0877b2902b0c9c3fdcbc661037f9b3d4bd5cfd7b56e7c2256f2e20b0df233099",
      "blockNumber": "0x1fd52bd",
      "gasUsed": "0x34abd835",
      "effectiveGasPrice": "0x132b3a0",
      "from": "0x0ece75f3c36f7df2136dac7633165dbff53de3cd",
      "to": "0x64493bd2f250cc05d75bca93cc95447e2834638b",
      "contractAddress": null,
      "l1Fee": "0x92107c63698d",
      "l1FeeScalar": "0.01",
      "l1GasPrice": "0x3b1f8dd2",
      "l1GasUsed": "0x1368",
      "tokenRatio": "0xcbb"
    }
  ],
  "libraries": [],
  "pending": [],
  "returns": {},
  "timestamp": 1768302685745,
  "chain": 5003,
  "commit": "c0cd3ab"
}