{
  "transactions": [
    {
      "hash": "0xb7034cf9ec11ec22f4a45859bcccad214c754843f592781ec643889988ccfa30",
      "transactionType": "CALL",
      "contractName": null,
      "contractAddress": "0x6edce65403992e310a62460808c4b910d972f10f",
      "function": "setConfig(address,address,(uint32,uint32,bytes)[])",
      "arguments": [
        "0xC327486Db1417644f201d84414bbeA6C8A948bef",
        "0x8A3D588D9f6AC041476b094f97FF94ec30169d3D",
        "[(40246, 2, 0x0000000000000000000000000000000000000000000000000000000000000020000000000000000000000000000000000000000000000000000000000000000f000000000000000000000000000000000000000000000000000000000000000100000000000000000000000000000000000000000000000000000000000000ff000000000000000000000000000000000000000000000000000000000000000000000000000000000000000000000000000000000000000000000000000000c0000000000000000000000000000000000000000000000000000000000000010000000000000000000000000000000000000000000000000000000000000000010000000000000000000000009454f0eabc7c4ea9ebf89190b8bf9051a0468e030000000000000000000000000000000000000000000000000000000000000000), (40245, 2, 0x0000000000000000000000000000000000000000000000000000000000000020000000000000000000000000000000000000000000000000000000000000000f000000000000000000000000000000000000000000000000000000000000000100000000000000000000000000000000000000000000000000000000000000ff000000000000000000000000000000000000000000000000000000000000000000000000000000000000000000000000000000000000000000000000000000c0000000000000000000000000000000000000000000000000000000000000010000000000000000000000000000000000000000000000000000000000000000010000000000000000000000009454f0eabc7c4ea9ebf89190b8bf9051a0468e030000000000000000000000000000000000000000000000000000000000000000)]"
      ],
      "transaction": {
        "from": "0x0ece75f3c36f7df2136dac7633165dbff53de3cd",
        "to": "0x6edce65403992e310a62460808c4b910d972f10f",
        "gas": "0x3e170241",
        "value": "0x0",
        "input": "0x6dbd9f90000000000000000000000000c327486db1417644f201d84414bbea6c8a948bef0000000000000000000000008a3d588d9f6ac041476b094f97ff94ec30169d3d00000000000000000000000000000000000000000000000000000000000000600000000000000000000000000000000000000000000000000000000000000002000000000000000000000000000000000000000000000000000000000000004000000000000000000000000000000000000000000000000000000000000002000000000000000000000000000000000000000000000000000000000000009d360000000000000000000000000000000000000000000000000000000000000002000000000000000000000000000000000000000000000000000000000000006000000000000000000000000000000000000000000000000000000000000001400000000000000000000000000000000000000000000000000000000000000020000000000000000000000000000000000000000000000000000000000000000f000000000000000000000000000000000000000000000000000000000000000100000000000000000000000000000000000000000000000000000000000000ff000000000000000000000000000000000000000000000000000000000000000000000000000000000000000000000000000000000000000000000000000000c0000000000000000000000000000000000000000000000000000000000000010000000000000000000000000000000000000000000000000000000000000000010000000000000000000000009454f0eabc7c4ea9ebf89190b8bf9051a0468e0300000000000000000000000000000000000000000000000000000000000000000000000000000000000000000000000000000000000000000000000000009d350000000000000000000000000000000000000000000000000000000000000002000000000000000000000000000000000000000000000000000000000000006000000000000000000000000000000000000000000000000000000000000001400000000000000000000000000000000000000000000000000000000000000020000000000000000000000000000000000000000000000000000000000000000f000000000000000000000000000000000000000000000000000000000000000100000000000000000000000000000000000000000000000000000000000000ff000000000000000000000000000000000000000000000000000000000000000000000000000000000000000000000000000000000000000000000000000000c0000000000000000000000000000000000000000000000000000000000000010000000000000000000000000000000000000000000000000000000000000000010000000000000000000000009454f0eabc7c4ea9ebf89190b8bf9051a0468e030000000000000000000000000000000000000000000000000000000000000000",
        "nonce": "0x1d",
        "chainId": "0x138b"
      },
      "additionalContracts": [],
      "isFixedGasLimit": false
    },
    {
      "hash": "0xff108a3136044492713769b100f15a91950aba6ee9211c9ec1314ca598691afa",
      "transactionType": "CALL",
      "contractName": null,
      "contractAddress": "0x6edce65403992e310a62460808c4b910d972f10f",
      "function": "setConfig(address,address,(uint32,uint32,bytes)[])",
      "arguments": [
        "0x886ba47579DC4f5DcB53ffd20429089A7788C072",
        "0x8A3D588D9f6AC041476b094f97FF94ec30169d3D",
        "[(40246, 2, 0x0000000000000000000000000000000000000000000000000000000000000020000000000000000000000000000000000000000000000000000000000000000f000000000000000000000000000000000000000000000000000000000000000100000000000000000000000000000000000000000000000000000000000000ff000000000000000000000000000000000000000000000000000000000000000000000000000000000000000000000000000000000000000000000000000000c0000000000000000000000000000000000000000000000000000000000000010000000000000000000000000000000000000000000000000000000000000000010000000000000000000000009454f0eabc7c4ea9ebf89190b8bf9051a0468e030000000000000000000000000000000000000000000000000000000000000000), (40245, 2, 0x0000000000000000000000000000000000000000000000000000000000000020000000000000000000000000000000000000000000000000000000000000000f000000000000000000000000000000000000000000000000000000000000000100000000000000000000000000000000000000000000000000000000000000ff000000000000000000000000000000000000000000000000000000000000000000000000000000000000000000000000000000000000000000000000000000c0000000000000000000000000000000000000000000000000000000000000010000000000000000000000000000000000000000000000000000000000000000010000000000000000000000009454f0eabc7c4ea9ebf89190b8bf9051a0468e030000000000000000000000000000000000000000000000000000000000000000)]"
      ],
      "transaction": {
        "from": "0x0ece75f3c36f7df2136dac7633165dbff53de3cd",
        "to": "0x6edce65403992e310a62460808c4b910d972f10f",
        "gas": "0x3e1c11cc",
        "value": "0x0",
        "input": "0x6dbd9f90000000000000000000000000886ba47579dc4f5dcb53ffd20429089a7788c0720000000000000000000000008a3d588d9f6ac041476b094f97ff94ec30169d3d00000000000000000000000000000000000000000000000000000000000000600000000000000000000000000000000000000000000000000000000000000002000000000000000000000000000000000000000000000000000000000000004000000000000000000000000000000000000000000000000000000000000002000000000000000000000000000000000000000000000000000000000000009d360000000000000000000000000000000000000000000000000000000000000002000000000000000000000000000000000000000000000000000000000000006000000000000000000000000000000000000000000000000000000000000001400000000000000000000000000000000000000000000000000000000000000020000000000000000000000000000000000000000000000000000000000000000f000000000000000000000000000000000000000000000000000000000000000100000000000000000000000000000000000000000000000000000000000000ff000000000000000000000000000000000000000000000000000000000000000000000000000000000000000000000000000000000000000000000000000000c0000000000000000000000000000000000000000000000000000000000000010000000000000000000000000000000000000000000000000000000000000000010000000000000000000000009454f0eabc7c4ea9ebf89190b8bf9051a0468e0300000000000000000000000000000000000000000000000000000000000000000000000000000000000000000000000000000000000000000000000000009d350000000000000000000000000000000000000000000000000000000000000002000000000000000000000000000000000000000000000000000000000000006000000000000000000000000000000000000000000000000000000000000001400000000000000000000000000000000000000000000000000000000000000020000000000000000000000000000000000000000000000000000000000000000f000000000000000000000000000000000000000000000000000000000000000100000000000000000000000000000000000000000000000000000000000000ff000000000000000000000000000000000000000000000000000000000000000000000000000000000000000000000000000000000000000000000000000000c0000000000000000000000000000000000000000000000000000000000000010000000000000000000000000000000000000000000000000000000000000000010000000000000000000000009454f0eabc7c4ea9ebf89190b8bf9051a0468e030000000000000000000000000000000000000000000000000000000000000000",
        "nonce": "0x1e",
        "chainId": "0x138b"
      },
      "additionalContracts": [],
      "isFixedGasLimit": false
    }
  ],
  "receipts": [
    {
      "status": "0x1",
      "cumulativeGasUsed": "0x26fc61fb",
      "logs": [
        {
          "address": "0x8a3d588d9f6ac041476b094f97ff94ec30169d3d",
          "topics": [
            "0x82118522aa536ac0e96cc5c689407ae42b89d592aa133890a01f1509842f5081"
          ],
          "data": "0x000000000000000000000000c327486db1417644f201d84414bbea6c8a948bef0000000000000000000000000000000000000000000000000000000000009d360000000000000000000000000000000000000000000000000000000000000060000000000000000000000000000000000000000000000000000000000000000f000000000000000000000000000000000000000000000000000000000000000100000000000000000000000000000000000000000000000000000000000000ff000000000000000000000000000000000000000000000000000000000000000000000000000000000000000000000000000000000000000000000000000000c0000000000000000000000000000000000000000000000000000000000000010000000000000000000000000000000000000000000000000000000000000000010000000000000000000000009454f0eabc7c4ea9ebf89190b8bf9051a0468e030000000000000000000000000000000000000000000000000000000000000000",
          "blockHash": "0x61b5e8b97cdd57cdd8ced4b1412e404c2563d8fce3df0a4d8c95199cc092e758",
          "blockNumber": "0x1fcd003",
          "blockTimestamp": "0x696522e7",
          "transactionHash": "0xb7034cf9ec11ec22f4a45859bcccad214c754843f592781ec643889988ccfa30",
          "transactionIndex": "0x1",
          "logIndex": "0x0",
          "removed": false
        },
        {
          "address": "0x8a3d588d9f6ac041476b094f97ff94ec30169d3d",
          "topics": [
            "0x82118522aa536ac0e96cc5c689407ae42b89d592aa133890a01f1509842f5081"
          ],
          "data": "0x000000000000000000000000c327486db1417644f201d84414bbea6c8a948bef0000000000000000000000000000000000000000000000000000000000009d350000000000000000000000000000000000000000000000000000000000000060000000000000000000000000000000000000000000000000000000000000000f000000000000000000000000000000000000000000000000000000000000000100000000000000000000000000000000000000000000000000000000000000ff000000000000000000000000000000000000000000000000000000000000000000000000000000000000000000000000000000000000000000000000000000c0000000000000000000000000000000000000000000000000000000000000010000000000000000000000000000000000000000000000000000000000000000010000000000000000000000009454f0eabc7c4ea9ebf89190b8bf9051a0468e030000000000000000000000000000000000000000000000000000000000000000",
          "blockHash": "0x61b5e8b97cdd57cdd8ced4b1412e404c2563d8fce3df0a4d8c95199cc092e758",
          "blockNumber": "0x1fcd003",
          "blockTimestamp": "0x696522e7",
          "transactionHash": "0xb7034cf9ec11ec22f4a45859bcccad214c754843f592781ec643889988ccfa30",
          "transactionIndex": "0x1",
          "logIndex": "0x1",
          "removed": false
        }
      ],
      "logsBloom": "0x00000000000000000000000000000000000000000000000000000000000000000000000000000000000000000000200000000000000000002000000000000000000000000000000000000000000000000000000000000000002000000000000000000000000000000000000000000000000000000000000000000000000000000000000000000000000000000000000000000000000000000000000000000000000000000000000000000002000000000000000000000000000000000000000000000000000000000000000000000000000000000000000000000000000000000000000000000000000000000000000000000000000000000040000000000010",
      "type": "0x2",
      "transactionHash": "0xb7034cf9ec11ec22f4a45859bcccad214c754843f592781ec643889988ccfa30",
      "transactionIndex": "0x1",
      "blockHash": "0x61b5e8b97cdd57cdd8ced4b1412e404c2563d8fce3df0a4d8c95199cc092e758",
      "blockNumber": "0x1fcd003",
      "gasUsed": "0x26fbaade",
      "effectiveGasPrice": "0x1e66bed0",
      "from": "0x0ece75f3c36f7df2136dac7633165dbff53de3cd",
      "to": "0x6edce65403992e310a62460808c4b910d972f10f",
      "contractAddress": null,
      "l1Fee": "0x437af650e206",
      "l1FeeScalar": "0.01",
      "l1GasPrice": "0x11621961",
      "l1GasUsed": "0x1e64",
      "tokenRatio": "0xcc6"
    },
    {
      "status": "0x1",
      "cumulativeGasUsed": "0x26fc6978",
      "logs": [
        {
          "address": "0x8a3d588d9f6ac041476b094f97ff94ec30169d3d",
          "topics": [
            "0x82118522aa536ac0e96cc5c689407ae42b89d592aa133890a01f1509842f5081"
          ],
          "data": "0x000000000000000000000000886ba47579dc4f5dcb53ffd20429089a7788c0720000000000000000000000000000000000000000000000000000000000009d360000000000000000000000000000000000000000000000000000000000000060000000000000000000000000000000000000000000000000000000000000000f000000000000000000000000000000000000000000000000000000000000000100000000000000000000000000000000000000000000000000000000000000ff000000000000000000000000000000000000000000000000000000000000000000000000000000000000000000000000000000000000000000000000000000c0000000000000000000000000000000000000000000000000000000000000010000000000000000000000000000000000000000000000000000000000000000010000000000000000000000009454f0eabc7c4ea9ebf89190b8bf9051a0468e030000000000000000000000000000000000000000000000000000000000000000",
          "blockHash": "0xa57205268e9f1894f445d48c4c62f3b945b0021167fcb336e955595197b16e4d",
          "blockNumber": "0x1fcd007",
          "blockTimestamp": "0x696522ef",
          "transactionHash": "0xff108a3136044492713769b100f15a91950aba6ee9211c9ec1314ca598691afa",
          "transactionIndex": "0x1",
          "logIndex": "0x0",
          "removed": false
        },
        {
          "address": "0x8a3d588d9f6ac041476b094f97ff94ec30169d3d",
          "topics": [
            "0x82118522aa536ac0e96cc5c689407ae42b89d592aa133890a01f1509842f5081"
          ],
          "data": "0x000000000000000000000000886ba47579dc4f5dcb53ffd20429089a7788c0720000000000000000000000000000000000000000000000000000000000009d350000000000000000000000000000000000000000000000000000000000000060000000000000000000000000000000000000000000000000000000000000000f000000000000000000000000000000000000000000000000000000000000000100000000000000000000000000000000000000000000000000000000000000ff000000000000000000000000000000000000000000000000000000000000000000000000000000000000000000000000000000000000000000000000000000c0000000000000000000000000000000000000000000000000000000000000010000000000000000000000000000000000000000000000000000000000000000010000000000000000000000009454f0eabc7c4ea9ebf89190b8bf9051a0468e030000000000000000000000000000000000000000000000000000000000000000",
          "blockHash": "0xa57205268e9f1894f445d48c4c62f3b945b0021167fcb336e955595197b16e4d",
          "blockNumber": "0x1fcd007",
          "blockTimestamp": "0x696522ef",
          "transactionHash": "0xff108a3136044492713769b100f15a91950aba6ee9211c9ec1314ca598691afa",
          "transactionIndex": "0x1",
          "logIndex": "0x1",
          "removed": false
        }
      ],
      "logsBloom": "0x00000000000000000000000000000000000000000000000000000000000000000000000000000000000000000000200000000000000000002000000000000000000000000000000000000000000000000000000000000000002000000000000000000000000000000000000000000000000000000000000000000000000000000000000000000000000000000000000000000000000000000000000000000000000000000000000000000002000000000000000000000000000000000000000000000000000000000000000000000000000000000000000000000000000000000000000000000000000000000000000000000000000000000040000000000010",
      "type": "0x2",
      "transactionHash": "0xff108a3136044492713769b100f15a91950aba6ee9211c9ec1314ca598691afa",
      "transactionIndex": "0x1",
      "blockHash": "0xa57205268e9f1894f445d48c4c62f3b945b0021167fcb336e955595197b16e4d",
      "blockNumber": "0x1fcd007",
      "gasUsed": "0x26fbb25b",
      "effectiveGasPrice": "0x1e66bed0",
      "from": "0x0ece75f3c36f7df2136dac7633165dbff53de3cd",
      "to": "0x6edce65403992e310a62460808c4b910d972f10f",
      "contractAddress": null,
      "l1Fee": "0x450484e43c86",
      "l1FeeScalar": "0.01",
      "l1GasPrice": "0x11c77b21",
      "l1GasUsed": "0x1e64",
      "tokenRatio": "0xcc6"
    }
  ],
  "libraries": [],
  "pending": [],
  "returns": {},
  "timestamp": 1768235762631,
  "chain": 5003,
  "commit": "584f810"
}