{
  "transactions": [
    {
      "hash": "0x9a3749651333335895042709c23880c26d9c64108214423c87c4f3615d60b064",
      "transactionType": "CALL",
      "contractName": null,
      "contractAddress": "0xa7f7368b6cbdf2be4d508ad85d2cc1f3248a9ed5",
      "function": "setEnforcedOptions((uint32,uint16,bytes)[])",
      "arguments": [
        "[(40246, 1, 0x00030100110100000000000000000000000000013880), (40245, 1, 0x000301001101000000000000000000000000000186a0)]"
      ],
      "transaction": {
        "from": "0x0ece75f3c36f7df2136dac7633165dbff53de3cd",
        "to": "0xa7f7368b6cbdf2be4d508ad85d2cc1f3248a9ed5",
        "gas": "0xdb9aa0d",
        "value": "0x0",
        "input": "0xb98bd07000000000000000000000000000000000000000000000000000000000000000200000000000000000000000000000000000000000000000000000000000000002000000000000000000000000000000000000000000000000000000000000004000000000000000000000000000000000000000000000000000000000000000e00000000000000000000000000000000000000000000000000000000000009d3600000000000000000000000000000000000000000000000000000000000000010000000000000000000000000000000000000000000000000000000000000060000000000000000000000000000000000000000000000000000000000000001600030100110100000000000000000000000000013880000000000000000000000000000000000000000000000000000000000000000000000000000000009d35000000000000000000000000000000000000000000000000000000000000000100000000000000000000000000000000000000000000000000000000000000600000000000000000000000000000000000000000000000000000000000000016000301001101000000000000000000000000000186a000000000000000000000",
        "nonce": "0x78",
        "chainId": "0x138b"
      },
      "additionalContracts": [],
      "isFixedGasLimit": false
    },
    {
      "hash": "0xbd9b5413d703e8204920a72fda82a0dbc450ee1565f5221b463ea160221240ad",
      "transactionType": "CALL",
      "contractName": null,
      "contractAddress": "0x64493bd2f250cc05d75bca93cc95447e2834638b",
      "function": "setEnforcedOptions((uint32,uint16,bytes)[])",
      "arguments": [
        "[(40246, 1, 0x00030100110100000000000000000000000000013880), (40245, 1, 0x000301001101000000000000000000000000000186a0)]"
      ],
      "transaction": {
        "from": "0x0ece75f3c36f7df2136dac7633165dbff53de3cd",
        "to": "0x64493bd2f250cc05d75bca93cc95447e2834638b",
        "gas": "0xdb9aa0d",
        "value": "0x0",
        "input": "0xb98bd07000000000000000000000000000000000000000000000000000000000000000200000000000000000000000000000000000000000000000000000000000000002000000000000000000000000000000000000000000000000000000000000004000000000000000000000000000000000000000000000000000000000000000e00000000000000000000000000000000000000000000000000000000000009d3600000000000000000000000000000000000000000000000000000000000000010000000000000000000000000000000000000000000000000000000000000060000000000000000000000000000000000000000000000000000000000000001600030100110100000000000000000000000000013880000000000000000000000000000000000000000000000000000000000000000000000000000000009d35000000000000000000000000000000000000000000000000000000000000000100000000000000000000000000000000000000000000000000000000000000600000000000000000000000000000000000000000000000000000000000000016000301001101000000000000000000000000000186a000000000000000000000",
        "nonce": "0x79",
        "chainId": "0x138b"
      },
      "additionalContracts": [],
      "isFixedGasLimit": false
    }
  ],
  "receipts": [
    {
      "status": "0x1",
      "cumulativeGasUsed": "0x8b9a7c2",
      "logs": [
        {
          "address": "0xa7f7368b6cbdf2be4d508ad85d2cc1f3248a9ed5",
          "topics": [
            "0xbe4864a8e820971c0247f5992e2da559595f7bf076a21cb5928d443d2a13b674"
          ],
          "data": "0x00000000000000000000000000000000000000000000000000000000000000200000000000000000000000000000000000000000000000000000000000000002000000000000000000000000000000000000000000000000000000000000004000000000000000000000000000000000000000000000000000000000000000e00000000000000000000000000000000000000000000000000000000000009d3600000000000000000000000000000000000000000000000000000000000000010000000000000000000000000000000000000000000000000000000000000060000000000000000000000000000000000000000000000000000000000000001600030100110100000000000000000000000000013880000000000000000000000000000000000000000000000000000000000000000000000000000000009d35000000000000000000000000000000000000000000000000000000000000000100000000000000000000000000000000000000000000000000000000000000600000000000000000000000000000000000000000000000000000000000000016000301001101000000000000000000000000000186a000000000000000000000",
          "blockHash": "0x468a51f89cef248b739ceb72084ab6ecec465f7ee0fad3e34b9bad10f8fd985a",
          "blockNumber": "0x1fd648d",
          "blockTimestamp": "0x69664bfb",
          "transactionHash": "0x9a3749651333335895042709c23880c26d9c64108214423c87c4f3615d60b064",
          "transactionIndex": "0x1",
          "logIndex": "0x0",
          "removed": false
        }
      ],
      "logsBloom": "0x00000000000000000000000000000000000000000000000000000000000000000000000000000000000000000000000000000000000000000000400000000000000000000000000000000000000000000008000000000000000000000000000000000010010000000000000000000000000000000000000000000000000000000000000000000000000000000000000000000000000000000000000000080000000000000000000000000000000000000000000000000000000000000000000000000000000000000000000002000000000000000000000000000000000000000000000000000000000000000000000000000000000000000000000000000000",
      "type": "0x2",
      "transactionHash": "0x9a3749651333335895042709c23880c26d9c64108214423c87c4f3615d60b064",
      "transactionIndex": "0x1",
      "blockHash": "0x468a51f89cef248b739ceb72084ab6ecec465f7ee0fad3e34b9bad10f8fd985a",
      "blockNumber": "0x1fd648d",
      "gasUsed": "0x8b8add9",
      "effectiveGasPrice": "0x1312d01",
      "from": "0x0ece75f3c36f7df2136dac7633165dbff53de3cd",
      "to": "0xa7f7368b6cbdf2be4d508ad85d2cc1f3248a9ed5",
      "contractAddress": null,
      "l1Fee": "0x8308d56f2b74",
      "l1FeeScalar": "0.01",
      "l1GasPrice": "0x3f37aa39",
      "l1GasUsed": "0x104c",
      "tokenRatio": "0xcb8"
    },
    {
      "status": "0x1",
      "cumulativeGasUsed": "0x8b96140",
      "logs": [
        {
          "address": "0x64493bd2f250cc05d75bca93cc95447e2834638b",
          "topics": [
            "0xbe4864a8e820971c0247f5992e2da559595f7bf076a21cb5928d443d2a13b674"
          ],
          "data": "0x00000000000000000000000000000000000000000000000000000000000000200000000000000000000000000000000000000000000000000000000000000002000000000000000000000000000000000000000000000000000000000000004000000000000000000000000000000000000000000000000000000000000000e00000000000000000000000000000000000000000000000000000000000009d3600000000000000000000000000000000000000000000000000000000000000010000000000000000000000000000000000000000000000000000000000000060000000000000000000000000000000000000000000000000000000000000001600030100110100000000000000000000000000013880000000000000000000000000000000000000000000000000000000000000000000000000000000009d35000000000000000000000000000000000000000000000000000000000000000100000000000000000000000000000000000000000000000000000000000000600000000000000000000000000000000000000000000000000000000000000016000301001101000000000000000000000000000186a000000000000000000000",
          "blockHash": "0x382d0ab33a928294a5f70b9a36421be04a02fe8ab6bbd19862ade316c51f0d14",
          "blockNumber": "0x1fd6491",
          "blockTimestamp": "0x69664c03",
          "transactionHash": "0xbd9b5413d703e8204920a72fda82a0dbc450ee1565f5221b463ea160221240ad",
          "transactionIndex": "0x1",
          "logIndex": "0x0",
          "removed": false
        }
      ],
      "logsBloom": "0x00000000000000000000000000000000000000000000000000000000000000000000000000000000000000000000000000000000000000000000400000000000000000000000000000000000000000000000000000000000000000000000000000000000000000000000000000000000000000000000000002000000000000000000000000000000000000000000000000000000000000000000000200080008000000000000000000000000000000000000000000000000000000000000000000000000000000000000000002000000000000000000000000000000000000000000000000000000000000000000000000000000000000000000000000000000",
      "type": "0x2",
      "transactionHash": "0xbd9b5413d703e8204920a72fda82a0dbc450ee1565f5221b463ea160221240ad",
      "transactionIndex": "0x1",
      "blockHash": "0x382d0ab33a928294a5f70b9a36421be04a02fe8ab6bbd19862ade316c51f0d14",
      "blockNumber": "0x1fd6491",
      "gasUsed": "0x8b8aa23",
      "effectiveGasPrice": "0x1312d01",
      "from": "0x0ece75f3c36f7df2136dac7633165dbff53de3cd",
      "to": "0x64493bd2f250cc05d75bca93cc95447e2834638b",
      "contractAddress": null,
      "l1Fee": "0x8308d56f2b74",
      "l1FeeScalar": "0.01",
      "l1GasPrice": "0x3f37aa39",
      "l1GasUsed": "0x104c",
      "tokenRatio": "0xcb8"
    }
  ],
  "libraries": [],
  "pending": [],
  "returns": {},
  "timestamp": 1768311813983,
  "chain": 5003,
  "commit": "c0cd3ab"
}