{
  "transactions": [
    {
      "hash": "0x59e550e4886742ee6f83f53f3df6b252efefc4cf36c559b9dec7de8b61c41e64",
      "transactionType": "CALL",
      "contractName": null,
      "contractAddress": "0xa7f7368b6cbdf2be4d508ad85d2cc1f3248a9ed5",
      "function": "setEnforcedOptions((uint32,uint16,bytes)[])",
      "arguments": [
        "[(40246, 1, 0x00030100110100000000000000000000000000013880), (40245, 1, 0x000301001101000000000000000000000000000186a0)]"
      ],
      "transaction": {
        "from": "0x0ece75f3c36f7df2136dac7633165dbff53de3cd",
        "to": "0xa7f7368b6cbdf2be4d508ad85d2cc1f3248a9ed5",
        "gas": "0x19c7402f",
        "value": "0x0",
        "input": "0xb98bd07000000000000000000000000000000000000000000000000000000000000000200000000000000000000000000000000000000000000000000000000000000002000000000000000000000000000000000000000000000000000000000000004000000000000000000000000000000000000000000000000000000000000000e00000000000000000000000000000000000000000000000000000000000009d3600000000000000000000000000000000000000000000000000000000000000010000000000000000000000000000000000000000000000000000000000000060000000000000000000000000000000000000000000000000000000000000001600030100110100000000000000000000000000013880000000000000000000000000000000000000000000000000000000000000000000000000000000009d35000000000000000000000000000000000000000000000000000000000000000100000000000000000000000000000000000000000000000000000000000000600000000000000000000000000000000000000000000000000000000000000016000301001101000000000000000000000000000186a000000000000000000000",
        "nonce": "0x6c",
        "chainId": "0x138b"
      },
      "additionalContracts": [],
      "isFixedGasLimit": false
    },
    {
      "hash": "0xa03061efb7c44c0b4e625187520c525db296e9ea043072432cc72a2f108ec57c",
      "transactionType": "CALL",
      "contractName": null,
      "contractAddress": "0x64493bd2f250cc05d75bca93cc95447e2834638b",
      "function": "setEnforcedOptions((uint32,uint16,bytes)[])",
      "arguments": [
        "[(40246, 1, 0x00030100110100000000000000000000000000013880), (40245, 1, 0x000301001101000000000000000000000000000186a0)]"
      ],
      "transaction": {
        "from": "0x0ece75f3c36f7df2136dac7633165dbff53de3cd",
        "to": "0x64493bd2f250cc05d75bca93cc95447e2834638b",
        "gas": "0x19c7402f",
        "value": "0x0",
        "input": "0xb98bd07000000000000000000000000000000000000000000000000000000000000000200000000000000000000000000000000000000000000000000000000000000002000000000000000000000000000000000000000000000000000000000000004000000000000000000000000000000000000000000000000000000000000000e00000000000000000000000000000000000000000000000000000000000009d3600000000000000000000000000000000000000000000000000000000000000010000000000000000000000000000000000000000000000000000000000000060000000000000000000000000000000000000000000000000000000000000001600030100110100000000000000000000000000013880000000000000000000000000000000000000000000000000000000000000000000000000000000009d35000000000000000000000000000000000000000000000000000000000000000100000000000000000000000000000000000000000000000000000000000000600000000000000000000000000000000000000000000000000000000000000016000301001101000000000000000000000000000186a000000000000000000000",
        "nonce": "0x6d",
        "chainId": "0x138b"
      },
      "additionalContracts": [],
      "isFixedGasLimit": false
    }
  ],
  "receipts": [
    {
      "status": "0x1",
      "cumulativeGasUsed": "0x10675d86",
      "logs": [
        {
          "address": "0xa7f7368b6cbdf2be4d508ad85d2cc1f3248a9ed5",
          "topics": [
            "0xbe4864a8e820971c0247f5992e2da559595f7bf076a21cb5928d443d2a13b674"
          ],
          "data": "0x00000000000000000000000000000000000000000000000000000000000000200000000000000000000000000000000000000000000000000000000000000002000000000000000000000000000000000000000000000000000000000000004000000000000000000000000000000000000000000000000000000000000000e00000000000000000000000000000000000000000000000000000000000009d3600000000000000000000000000000000000000000000000000000000000000010000000000000000000000000000000000000000000000000000000000000060000000000000000000000000000000000000000000000000000000000000001600030100110100000000000000000000000000013880000000000000000000000000000000000000000000000000000000000000000000000000000000009d35000000000000000000000000000000000000000000000000000000000000000100000000000000000000000000000000000000000000000000000000000000600000000000000000000000000000000000000000000000000000000000000016000301001101000000000000000000000000000186a000000000000000000000",
          "blockHash": "0x70dcc4762b23cc0736cf637cbb0e58c43ca008063b031e093ad8530a78bb8208",
          "blockNumber": "0x1fd513f",
          "blockTimestamp": "0x6966255f",
          "transactionHash": "0x59e550e4886742ee6f83f53f3df6b252efefc4cf36c559b9dec7de8b61c41e64",
          "transactionIndex": "0x1",
          "logIndex": "0x0",
          "removed": false
        }
      ],
      "logsBloom": "0x00000000000000000000000000000000000000000000000000000000000000000000000000000000000000000000000000000000000000000000400000000000000000000000000000000000000000000008000000000000000000000000000000000010010000000000000000000000000000000000000000000000000000000000000000000000000000000000000000000000000000000000000000080000000000000000000000000000000000000000000000000000000000000000000000000000000000000000000002000000000000000000000000000000000000000000000000000000000000000000000000000000000000000000000000000000",
      "type": "0x2",
      "transactionHash": "0x59e550e4886742ee6f83f53f3df6b252efefc4cf36c559b9dec7de8b61c41e64",
      "transactionIndex": "0x1",
      "blockHash": "0x70dcc4762b23cc0736cf637cbb0e58c43ca008063b031e093ad8530a78bb8208",
      "blockNumber": "0x1fd513f",
      "gasUsed": "0x1066a669",
      "effectiveGasPrice": "0x1331548",
      "from": "0x0ece75f3c36f7df2136dac7633165dbff53de3cd",
      "to": "0xa7f7368b6cbdf2be4d508ad85d2cc1f3248a9ed5",
      "contractAddress": null,
      "l1Fee": "0x77b357f2823e",
      "l1FeeScalar": "0.01",
      "l1GasPrice": "0x391c2d5e",
      "l1GasUsed": "0x107c",
      "tokenRatio": "0xcb7"
    },
    {
      "status": "0x1",
      "cumulativeGasUsed": "0x1073da28",
      "logs": [
        {
          "address": "0x64493bd2f250cc05d75bca93cc95447e2834638b",
          "topics": [
            "0xbe4864a8e820971c0247f5992e2da559595f7bf076a21cb5928d443d2a13b674"
          ],
          "data": "0x00000000000000000000000000000000000000000000000000000000000000200000000000000000000000000000000000000000000000000000000000000002000000000000000000000000000000000000000000000000000000000000004000000000000000000000000000000000000000000000000000000000000000e00000000000000000000000000000000000000000000000000000000000009d3600000000000000000000000000000000000000000000000000000000000000010000000000000000000000000000000000000000000000000000000000000060000000000000000000000000000000000000000000000000000000000000001600030100110100000000000000000000000000013880000000000000000000000000000000000000000000000000000000000000000000000000000000009d35000000000000000000000000000000000000000000000000000000000000000100000000000000000000000000000000000000000000000000000000000000600000000000000000000000000000000000000000000000000000000000000016000301001101000000000000000000000000000186a000000000000000000000",
          "blockHash": "0xc223bf66cbf7d6d81f0a9d2e7495f055e728043c0e794e9ae39ae7f058f369fd",
          "blockNumber": "0x1fd5142",
          "blockTimestamp": "0x69662565",
          "transactionHash": "0xa03061efb7c44c0b4e625187520c525db296e9ea043072432cc72a2f108ec57c",
          "transactionIndex": "0x1",
          "logIndex": "0x0",
          "removed": false
        }
      ],
      "logsBloom": "0x00000000000000000000000000000000000000000000000000000000000000000000000000000000000000000000000000000000000000000000400000000000000000000000000000000000000000000000000000000000000000000000000000000000000000000000000000000000000000000000000002000000000000000000000000000000000000000000000000000000000000000000000200080008000000000000000000000000000000000000000000000000000000000000000000000000000000000000000002000000000000000000000000000000000000000000000000000000000000000000000000000000000000000000000000000000",
      "type": "0x2",
      "transactionHash": "0xa03061efb7c44c0b4e625187520c525db296e9ea043072432cc72a2f108ec57c",
      "transactionIndex": "0x1",
      "blockHash": "0xc223bf66cbf7d6d81f0a9d2e7495f055e728043c0e794e9ae39ae7f058f369fd",
      "blockNumber": "0x1fd5142",
      "gasUsed": "0x1073230b",
      "effectiveGasPrice": "0x1331548",
      "from": "0x0ece75f3c36f7df2136dac7633165dbff53de3cd",
      "to": "0x64493bd2f250cc05d75bca93cc95447e2834638b",
      "contractAddress": null,
      "l1Fee": "0x86a894c9d971",
      "l1FeeScalar": "0.01",
      "l1GasPrice": "0x403f22e1",
      "l1GasUsed": "0x107c",
      "tokenRatio": "0xcb7"
    }
  ],
  "libraries": [],
  "pending": [],
  "returns": {},
  "timestamp": 1768301926966,
  "chain": 5003,
  "commit": "c0cd3ab"
}